:10200000E0250020FF200000FD200000FD20000052
:1020100000000000000000000000000000000000C0
:10202000000000000000000000000000FD20000093
:102030000000000000000000FD2000004D5A0000DC
:10204000FD200000FD200000FD200000BD3F00003D
:10205000B13C0000FD200000FD200000FD2000003C
:10206000FD20000079520000FD200000FD2000004E
:10207000FD200000FD200000FD200000FD200000EC
:10208000FD200000FD200000155A0000FD2000008A
:10209000FD2000000000000000000000FD20000006
:1020A000FD200000FD200000FD200000FD200000BC
:1020B0000000000010B5064C2378002B07D1054B1B
:1020C000002B02D0044800E000BF0123237010BDA4
:1020D0002C04002000000000C4790000044B10B55F
:1020E000002B03D00349044800E000BF10BDC046E8
:1020F0000000000030040020C4790000FEE7204A00
:10210000204B70B520499A4234D100211F4B204A00
:10211000934232D3FF221F4B032193431E4A0C25C7
:1021200093600222082430261C4B1D485A62C37853
:102130008B431343C370C378AB432343C370194B22
:10214000987BB0430600202030439873987BA843C7
:1021500004439C73987B884302439A738023124AFA
:1021600051680B43536003F021FD03F061FCFEE76F
:1021700001CA01C38B42FBD3C7E702C3C8E7C0460D
:10218000C4790000000000202C0400202C04002052
:10219000DC0500200020000000ED00E0FC700041A4
:1021A0000050004100480041004000411F23C2B2DE
:1021B0000340400970B5C0014C1C07D1012218181A
:1021C000104BC01803789343037070BD01250E4C6B
:1021D000C9B20019C618EB4040363478C018AC4379
:1021E0002C433470303003782A4206D00F22090184
:1021F00013401943C9B20170E7E70F22934311401E
:102200001943F8E740440041004400411F220123E4
:1022100002409340C0224009C001D20530B5821867
:102220009DB21C0C022909D05360094B094AC01801
:102230002A43094B82622343836230BD9360044B7F
:102240008022C018C023D2052A4382621B06F2E70F
:102250000044004100000240000002C0704780239B
:10226000044A5B02116A0B431362034B034A5A8010
:102270007047C04600040040000C00401E430000B0
:1022800010B5FFF7ECFF00220249034800F0E8F91F
:1022900010BDC04600400042780400200A4B0B4AA3
:1022A00010B501215A802920FFF7B0FF0421084A08
:1022B000292013788B43A03113708903FFF776FF31
:1022C00000F0D0FC10BDC046000C004005400000EE
:1022D000C94400410423044A116A0B431362034BAF
:1022E000034A5A807047C04600040040000C00407A
:1022F0001440000010B50A200349FFF757FF0B20D8
:102300000249FFF753FF10BD02000A0002000B0054
:1023100007B5FFF7DFFF0023044A0549009305488E
:10232000103300F04BFFFFF7E5FF07BD4804002026
:1023300000080042DC04002070B50A4C042522008D
:10234000483213784934AB43137008200649FFF72D
:102350002DFF23780920AB4304492370FFF726FFA4
:1023600070BDC0460044004103000800030009009E
:102370001023054A116A0B431362044B044A5A8026
:10238000044A5A807047C04600040040000C0040D8
:10239000164000001340000010B5FFF7E9FF0349A5
:1023A000034800F0C9FCFFF7C7FF10BD0010004252
:1023B000A404002010B518200349FFF7F7FE1920E8
:1023C0000249FFF7F3FE10BD0200180002001900D9
:1023D0002023044A116A0B431362034B034A5A80B9
:1023E0007047C04600040040000C00401740000049
:1023F00010B5FFF7EDFF00220349044800F0DAFFB3
:10240000FFF7D8FF10BDC046001400427C04002036
:1024100010B58023C0245B01E405636102210C2018
:10242000FFF7F4FE0C200E49FFF7C0FE80239B014E
:10243000636102210D20FFF7E9FE0D200949FFF736
:10244000B5FE01210F20FFF7E1FE0421064A0F200F
:1024500013788B4313700549FFF7A8FE10BDC046E3
:1024600003000C0003000D004F44004103000F0067
:102470004023044A116A0B431362034B034A5A80F8
:102480007047C04600040040000C004018400000A7
:1024900010B5FFF7EDFF0349034800F0CFFCFFF74D
:1024A000B7FF10BD00180042C404002010B5024858
:1024B00000F09AFB10BDC04610E000E02023044A63
:1024C00091690B439361034B034A5A807047C0469E
:1024D00000040040000C00400442000010B5FFF76B
:1024E000EDFF0249024800F07DFA10BD00140040E3
:1024F00088040020F8B501F04FFBC0258023524C22
:10250000ED05DB016B6102210E20FFF77FFE22004B
:1025100001264E3213780221B343137080239B02AD
:102520006B611120FFF772FE2200513213780221F5
:10253000B343137080239B036B611520FFF766FE86
:102540002200802755321378FF03B3431370022112
:102550006F611620FFF75AFE2200563213780221CF
:10256000B343137080231B046B611720FFF74EFEEB
:102570002200573213780221B343137080231B05C6
:102580006B611B20FFF742FE22005B3213780221B1
:10259000B343137080235B056B611C20FFF736FE8D
:1025A00022005C3213780221B34313702B00042203
:1025B00098331A602220FFF729FE2200C2321378D6
:1025C0009435B3431370082302212B602320FFF7B7
:1025D0001DFE2200C33213780221B34313708023FF
:1025E0005B002B602820FFF711FE2200C832137811
:1025F0000221B343137036202F60D634FFF706FE56
:102600002378B3432370FFF73BFEFFF747FEFFF746
:102610007FFEFFF7C1FEFFF7EBFEFFF739FFFFF785
:1026200045FFFFF75BFF8023084A1B01116A0B433C
:102630001362074B074A5A8003F0DBF90649020090
:10264000064800F0B4FCF8BD00440041000400401E
:10265000000C00401B430000002C00422C05002011
:1026600010B501F050F810BD10B501F07FF8002052
:1026700010BD10B501F0A8F8002010BD10B501F094
:10268000B5F8002010BDF7B505000E001700019346
:1026900001F0C1F800240090280001F0F2F83100A8
:1026A000280001F0DFF80028F9D03100280001F0FF
:1026B00003F9009B3855012B02D93B19000A5870C9
:1026C000009BE418019BA4B29C42E5D32000FEBD10
:1026D00010B501F001F9002010BD10B501F014F99A
:1026E000002010BD10B501F025F9002010BD10B577
:1026F00001F053F9002010BD10B501F072F900206F
:1027000010BD10B501F07FF9002010BD10B501F02B
:1027100089F9002010BD10B501F096F9002010BD18
:1027200010B501F0B2F9002010BD10B501F09AF813
:1027300010BD01207047EFF31083036072B6BFF342
:102740005F8F7047BFF35F8F036883F31088704714
:10275000012070470300032210B504001340481EF7
:1027600014420DD000230B2808D803F0C3FA150635
:1027700015171517151517151715094B180010BD46
:102780000B28FBD803F0B6FA0806080A080A08085E
:102790000A080A08034BF1E7034BEFE7034BEDE7A9
:1027A00000EA2400803B260080DE2800008D270000
:1027B000F7B51500060003220C001F49B3B20193C0
:1027C00033001340581E83411C485B420B401B18CA
:1027D0009C4202D3E41A0136F0E7012739003000A9
:1027E000FFF7B8FFA04203D80137241AFFB2F5E77C
:1027F0000121134B9C4204D90F4A0131A418C9B2DC
:10280000F8E7E12300221B019C4204D30D4801326A
:102810002418D2B2F8E700233B2C03D901333C3C07
:10282000DBB2F9E701986F71E88029710020AA7086
:102830006B702C70FEBDC04680AEFEFF0085E201CD
:102840007F510100F0F1FFFFF0B50B7985B0CE8824
:102850004F7900938B78321A01934B78D2B202935E
:102860000B780321039300231C00934214D301250A
:10287000BD421AD3E120019B000158433C23029A38
:102880005343C018039B009AC0180B4B013A5343A3
:10289000C018001905B0F0BDC5180D4203D0074D92
:1028A00064190133E1E7064DFAE7E9B23000FFF7BA
:1028B00051FF01352418DBE7805101008033E1012D
:1028C0000085E20170B50500C468007C0B0001388A
:1028D000CA68042807D803F00DFA03080E121A007C
:1028E000A24200D33C34EC6070BDA242FBD3E12392
:1028F0001B01E418F7E7A242F5D3094BF9E7A2421E
:10290000F1D3497A5889FFF725FF2418EBE7A24253
:10291000E9D34B899B0701D0024BEAE7024BE8E77A
:10292000805101008033E1010085E201026870B549
:1029300004000D00002A0AD12900200000F0A8FDA3
:102940002000E968103801F024FB002070BD13005E
:102950000020CE68D9688E4209D91968180000296C
:1029600003D1290000F098FDEFE70B00F2E79A424F
:10297000E2D0F6E770B5027E040088B0930704D079
:1029800002231343037608B070BD01F0FBFA0590F3
:102990002569002D04D12900200001F06DFAF2E72D
:1029A000059BE9680193994218D82600103630003B
:1029B00000F082FD6B69200098476B7C022BE7D109
:1029C000280002A9FFF77EFFE96860692A1DFFF76A
:1029D000EFFE29003000FFF7A9FFD9E7200001F042
:1029E000D8FAD0E7036810B5040000208B4207D066
:1029F000834206D12000216001F078FA024B636126
:102A000010BD12204042FBE7B2070000036810B57A
:102A10000400002B04D001F04BFA0020206010BD10
:102A200014204042FBE710B501F090FA002010BDE1
:102A300010B501F095FA002010BD416100207047EB
:102A400037B50D00040001F09DFA6A460100606987
:102A5000FFF7AEFE6A462B78694613706B786069A3
:102A60005370AB789370FFF7EFFE0100200001F088
:102A700081FA00203EBD37B50D00040001F082FA56
:102A80006A4601006069FFF793FE69462A886B88F1
:102A900060698A80CB80FFF7D7FE0100200001F03B
:102AA00069FA00203EBD70B50D00040001F06AFA1D
:102AB0002A0001006069FFF77BFE002070BDF0B5C1
:102AC0004A6187B00C000500160001F05BFA0700B0
:102AD000010001AA6869FFF76BFE0397207C0138AB
:102AE00004280CD803F006F90351575A6100029BE1
:102AF000A3606B469B79A3716B465B796371271D5D
:102B000068693900FFF7A0FE6946E0602000FFF722
:102B1000D9FE3A00E1686869FFF74AFE01232A7E80
:102B200013432B762B69002B4DD02F00103721003B
:102B3000380000F0A5FC002842D021003800002E0B
:102B400037D100F0C0FC2B69002B03D131002800E5
:102B500001F092F92B7E012219000224914329767B
:102B600023420BD06846FFF7E6FD2B7E2800A343E7
:102B70002B7601F01DFA6846FFF7E4FD01220020E4
:102B80002B7E93432B7607B0F0BD029BA3606B4670
:102B90009B79A371B3E7029BA360B0E76B465B89A7
:102BA00063816B465B7A6372A9E76B465B896381DD
:102BB000A5E700F088FC21003800FFF7B7FEC9E761
:102BC000002EF8D1C6E7002ED8D02800044901F025
:102BD00053F9280021001030FFF7A8FECEE7C046C9
:102BE000752900000120704710B5024B186002F0F3
:102BF000FFFD10BD58040020044B10B51C6800F008
:102C0000BCFF0100200002F00FFE10BD58040020A0
:102C1000044B10B51C6800F0BAFF0100200002F060
:102C200003FE10BD5804002001207047F8B50123B1
:102C300000221E00FF270A4D6C68934208D39918A2
:102C4000491005D1844204D12B68002B00D098474D
:102C5000F8BD844201D33B00EFE73200EDE7C04608
:102C60005C0400200122054B524210B55A6000223C
:102C700003481A6000F0AEFF10BDC0465C0400209F
:102C80002D2C000010B500F0E1FF10BD0B4B10B56E
:102C90005A6882420DD11960002908D1100000F055
:102CA000F5FF10BD1A68002A05D11960586001218E
:102CB000F5E70029F6D10D204042F2E75C04002040
:102CC00010B5012100F0E2FF10BD10B5002100F0A9
:102CD000DDFF10BD012070471FB503006C461B8946
:102CE0000292A38014006A46064B0391143801A98E
:102CF000D38002F046F9002800D00400200004B080
:102D000010BDC0460080FFFF1FB503006C461B8945
:102D10000292A38014006A46064B0391143801A95D
:102D2000D38002F02EF9002800D00400200004B067
:102D300010BDC0460180FFFF10B5040002F042F84C
:102D4000002803D1024BA361024B636110BDC04652
:102D5000092D0000D92C000010B5040002F037F84E
:102D6000002801D1A061606110BD10B502F03DF8EE
:102D700010BD10B502F03EF810BD80238905DB00C0
:102D8000890D1A400A4382831000704710B502F083
:102D900037F810BDF0B587B01E006B46D97117002B
:102DA000828B03AC2280012204920022073321008F
:102DB00005006280059302F0E4F8002807D1054B76
:102DC000210028006380A760666002F0DAF807B08F
:102DD000F0BDC0460080FFFFF0B587B01E006B4617
:102DE000D9711700828B03AC228001220492002249
:102DF0000733210005006280059302F0C2F8002825
:102E000007D1054B210028006380A760666002F0AF
:102E1000B8F807B0F0BDC0460180FFFF10B502F062
:102E2000B0F810BD10B502F051F910BD14300860B3
:102E300000207047012070470160704710B5040002
:102E40004160043002F04EFA002806DB0020034BFC
:102E5000A382034B2361034BE36010BD0080FFFF9F
:102E6000E12E0000CB2E000010B5043002F0CAFAAB
:102E700010BD10B5043002F0CEFA10BD10B504300C
:102E800002F0E6FA10BD10B5043002F027FB10BDC9
:102E900010B5043002F0FCFA10BD10B5043002F099
:102EA00039FB10BD10B5043002F048FB10BD7FB5F2
:102EB0000B68043003934B6804938B6803A9019358
:102EC000059302F04DFB07B000BD1FB50023019133
:102ED0000C3801A902930392FFF7E9FF05B000BD8A
:102EE0001FB5002302910C3801A901930392FFF74B
:102EF000DEFF05B000BD0C300860002070470120E7
:102F00007047C046F7B50568002D02D100F0C0FA41
:102F1000F7BD01262C0000278B680093B31A01939C
:102F2000A6686368B44693420ED863449B1A009E19
:102F30009E420DD923682700002B03D1380000F0F2
:102F4000ABFAE5E71C00EBE7019EF3186344EEE7FC
:102F5000A542DBD0F2E7F8B5036904005E1C037EEE
:102F600045690661DB0702D4037E9B0717D5022360
:102F7000227E13432376F8BD27001437380000F073
:102F80009BFA2B7C012B05D13200290038006E60A2
:102F9000FFF7B8FF67692800EB6898473D00002DF0
:102FA000E9D06B68AA68F31A9342E5D2E3E710B55B
:102FB000040002F059FC0020014B2061236010BD89
:102FC000572F000010B502F0B1FC002010BD70B505
:102FD000050002F009FD041E04D1280002F0C6FC21
:102FE000200070BD11204042FBE710B5040002F044
:102FF000FBFC002804D0200002F0BEFC002010BD25
:1030000011204042FBE710B502F0BCFC002010BDCF
:10301000F0B507000126037E1437334385B00376ED
:10302000040038000D0000F02BFA0190002807D0B2
:103030001225237E6D42B3432376280005B0F0BDF0
:10304000226929006A603800FFF75CFF237E019D3A
:10305000B34302262376237E3342EED003A8FFF744
:103060006AFB237E2000B343237602F0C6FC03A84C
:10307000FFF768FBE1E7F7B507000126037E143789
:1030800033430400037638000D0000F0F9F90028FE
:1030900006D10A25237E6D42B34323762800FEBD68
:1030A0002900380000F00FFA237E0025B3430226E2
:1030B0002376237E3342F1D001A8FFF73CFB237E29
:1030C0002000B343237602F098FC01A8FFF73AFBF7
:1030D000E4E710B50C0002F06EFC2060002010BD8B
:1030E000012070470023083810B50363436A002BA2
:1030F00000D0984710BD0023083810B50363C36A99
:10310000002B00D0984710BD10B504002C3000F003
:103110000DFA236A083C002B01D02000984710BD0F
:1031200070B514000200831D4C32DE8F1588AE424C
:103130000AD1816414800022DA8701230830836277
:1031400001F092FC200070BD1C204042FBE7020011
:1031500010B50400838F44300088083A98420AD0A2
:10316000926C581CA087D15C200001F05AFC200012
:1031700001F07AFC10BD200001F07AFCFAE7F0B50E
:10318000050085B003A834350F000192FFF7D3FA8C
:10319000280000F0DCF9060003A8FFF7D3FA0024AA
:1031A000A64202D0019B9C4202D1200005B0F0BD96
:1031B0003919280000F0A9F90134F1E770B50400CD
:1031C0000D00343011001A0000F090F9002813D1DE
:1031D00020002900083001F011FB00280BD1084B1A
:1031E0006360084B2360084BA360084BE360084B07
:1031F0002361084B636170BD0D204042FBE7C04670
:103200007F310000213100004F3100000931000002
:10321000E5300000F730000010B50400083001F080
:103220001EFB00206060206010BD10B5083001F06A
:103230009DFB002010BD10B5083001F0A6FB00205A
:1032400010BD08600020704710B501290DD002297B
:1032500012D0002917D18262531E9A410121D2B2A5
:10326000083001F019FC002010BD4262531E9A4143
:103270000221D2B20830F4E7C262531E9A41032100
:10328000D2B20830EDE70D204042EDE710B508302E
:1032900001F0E3FB002010BD10B5083001F07FFB0A
:1032A000002010BD10B5083001F083FB002010BDD8
:1032B00010B5083001F087FB002010BD10B50830B4
:1032C00001F08BFB002010BD10B5083001F08FFB22
:1032D000002010BD10B5083001F093FB002010BD98
:1032E00010B508300C0001F0B9FB2070002010BDB3
:1032F00010B5083001F0A6FB10BD10B5343000F059
:1033000026F9431E984110BD70B504000D1E08D06B
:10331000036B0B60831DDB8F34308B8000F017F95B
:10332000E880236B0020DB0700D5043870BD10B5A2
:10333000343000F010F910BD01207047F8B50600D8
:103340000F00140035000835280001F071FB00283B
:10335000F8D000262800B95D01F060FB280001F0DC
:1033600067FB0028FAD00136B442F3D80126002CBE
:1033700000D02600280001F060FB0028FAD03000C1
:10338000F8BDF7B506001400002501913700083795
:10339000380001F05CFB0028F8D0380001F044FB55
:1033A000019B58550135AC42F0D80120002C00D0CB
:1033B0002000FEBD10B50400083001F019FA002805
:1033C00003D1024B6360024B236010BD83330000C6
:1033D0003D33000010B50400083001F033FA00203E
:1033E0006060206010BD10B5083001F0B5FA002013
:1033F00010BD10B5083001F0C3FA002010BD086000
:103400000020704710B5083001F026FB002010BDE9
:1034100010B5083001F0BEFA002010BD10B508301C
:1034200001F0C2FA002010BD10B5083001F0C6FA54
:10343000002010BD10B5083001F0CAFA002010BD00
:1034400010B5083001F0CEFA002010BD10B50830DC
:1034500001F0D2FA002010BD10B508300C0001F0C8
:10346000FFFA2070002010BD10B5083001F0E0FA1E
:1034700010BD10B5083001F0EAFA10BD0120704708
:103480000068002800D170478842F9D10120FAE78E
:1034900003680B600160704703680B600160704750
:1034A0000368002B02D101600B6070471A001B6893
:1034B000002BFBD11160F7E703000068002801D062
:1034C00002681A6070470300081E05D01868884219
:1034D00004D102681A600120704718000028FBD050
:1034E00003688B42F9D10B680360F4E70300100016
:1034F00010B5541E2040224204D15C609860D86010
:10350000196010BD0D204042FBE78368C2689A42F3
:1035100009D0426813400268D35C0B7083680133A2
:103520008360002070470A204042FBE7C26843687E
:1035300013400268D154C36881684268591A9142A5
:1035400001D99A1A82600133C36000207047C368B2
:103550008068181A7047C3688360002070470000B5
:10356000437EDB09FCD170470369064A10B513405E
:10357000F82209025201114019430161FFF7F0FFDF
:1035800010BDC046FFE0FFFF0369064A10B51340B7
:10359000F02209061205114019430161FFF7E0FF0F
:1035A00010BDC046FFFFFFF0284B70B51A68E0233E
:1035B00004005601DB001E40254B52011B680D0024
:1035C000DB0E1343DBB21E43FFF7CAFF23789B07D2
:1035D00004D5002320002370FFF7C2FF0123200041
:1035E0002370FFF7BDFF1C214D431A4926854D1955
:1035F000AB78AA7E6370EB782000A3702B79E37020
:103600002B7C2375EB8AA3842B8BE38423002A3342
:103610001A70EB88A380FFF7A3FFEB6820002361FB
:10362000FFF79EFF2B7A20002372FFF799FF6B8A2A
:103630002000A383FFF794FFAB8A20002384FFF7C9
:103640008FFF6B780020237070BDC046246080001F
:10365000206080009C78000070B50225302206783A
:1036600003780901AB4303708388114093430B43F4
:10367000F6B283800400FFF773FFB30702D5237807
:103680001D43257070BD0222F8B504260578037825
:10369000AD079343037083880F00B3438380040016
:1036A000ED0FFFF75DFF012F05D1A38820001E431A
:1036B000A680FFF755FF002D03D002232278134385
:1036C0002370F8BD0020704770B50D000221012263
:1036D0000678037876088B4303708388040093434D
:1036E00083801640FFF73CFF012D05D1A188200003
:1036F0000D43A580FFF734FF002E03D0022322786C
:103700001343237070BD10B501600C00FFF7DAFFA2
:1037100001002000FFF748FF10BD70B50C00050048
:10372000FFF7D0FF01002000FFF73EFF00280DD17A
:10373000802307491B046C61064ACB67BFF34F8F98
:10374000BFF36F8FC02149005350136070BDC04656
:1037500004E100E000E100E010B501610C00FFF7BA
:10376000B1FF01002000FFF71FFF10BD0221036819
:103770001A788A431A70012219780A431A7070471E
:1037800080220B4B1204191DCA67BFF34F8FBFF382
:103790006F8FC02149005A5043697F391A78FF3929
:1037A0008A431A70012219780A431A707047C0467A
:1037B00000E100E0022103691A788A431A700122AD
:1037C00019780A431A7070470223026811780B4374
:1037D000137070470223426911780B4313707047CE
:1037E0000223026911780B431370704702210268AB
:1037F00013788B43137070470221426913788B430F
:10380000137070470221026913788B43137070475D
:1038100000691A30704710B504682000FFF7A0FE59
:10382000A0888006800F0338431E9841013010BDE8
:1038300010B544692000FFF793FEA0888006800F32
:103840000338431E9841013010BD10B504692000B3
:10385000FFF786FEA0888006800F0338431E98413C
:10386000013010BD0368187E01231840704743697A
:10387000187E0123184070470369187E0123184001
:103880007047022310B50068027B13430373FFF7F0
:1038900067FE10BD022310B54069027B134303731A
:1038A000FFF75EFE10BD022310B50069027B1343D3
:1038B0000373FFF755FE10BD10B504682000FFF735
:1038C0004FFE608B80B210BD10B544692000FFF739
:1038D00047FE608B80B210BD02680F205378014014
:1038E00083430B435370704742690F205378014064
:1038F00083430B435370704702690F205378014094
:1039000083430B435370704710B50068FFF7A4FE64
:1039100010BD10B54069FFF79FFE10BD302210B5F5
:10392000006909018388114093430B438380FFF7AB
:1039300017FE10BD70B515001F220400006811406D
:103940000369934319430161FFF70AFE29002068C8
:10395000FFF70AFE70BD70B515001F220400406914
:1039600011400369934319430161FFF7F9FD2900F1
:103970006069FFF7F9FD70BD70B515001F220400E6
:10398000006911400369934319430161FFF7E8FDA2
:1039900029002069FFF7E8FD70BD70B5040015002F
:1039A00000688183FFF7DCFD20680584FFF7D8FD00
:1039B00070BD70B50400150040698183FFF7D0FD2C
:1039C00060690584FFF7CCFD70BD70B5040015007B
:1039D00000698183FFF7C4FD20690584FFF7C0FDFE
:1039E00070BD10B511000068FFF7CEFD10BD10B519
:1039F00011004069FFF7C8FD10BD10B51100006946
:103A0000FFF7C2FD10BD10B50068FFF73CFE10BD0A
:103A100010B54069FFF737FE10BD10B50069FFF71C
:103A200032FE10BD10B511000068FFF74DFE10BD4D
:103A300010B511004069FFF747FE10BD10B5110029
:103A40000069FFF741FE10BD072210B50068114064
:103A5000037A93430B430372FFF782FD10BD0722E5
:103A600010B540691140037A93430B430372FFF78B
:103A700077FD10BD072210B500691140037A93430A
:103A80000B430372FFF76CFD10BD03681B7E5B07E1
:103A9000DB0F0B70704743691B7E5B07DB0F0B70FE
:103AA000704703691B7E5B07DB0F0B707047416932
:103AB000012A04D10332002B07D18A757047022AEC
:103AC000F9D0002AFAD10132F5E7CA75F6E7C04607
:103AD000BFF34F8F034B044ADA60BFF34F8FC046EA
:103AE000FDE7C04600ED00E00400FA05BFF34F8F8C
:103AF00030BF7047EFF305801038C0B2704743B253
:103B0000002B09DB1F2318401E3B8340034AD36769
:103B1000BFF34F8FBFF36F8F7047C04604E100E0E3
:103B200043B2002B05DB1F2318401E3B8340014A94
:103B300053607047FCE100E043B2002B07DB1F231A
:103B4000C02218401E3B8340014952008B507047F1
:103B500000E100E043B2002B05DB1F2318401E3BB1
:103B60008340014A1360704700E100E0014B800090
:103B70001950704748050020FEE7F0235B005843CA
:103B800010B50A21013802F0BFF8013010BD014B19
:103B90005843704780BB00000423094A10B55168A0
:103BA0000B43536000F054F901F0B4FD022000F023
:103BB000F7F801F0D3FDFD2000F0F2F810BDC0468B
:103BC00000400041024A5378DB09FCD17047C046EF
:103BD0000018004070B5194C0600FFF7F3FFFFF71F
:103BE000F1FF23789B0705D500232370FFF7EAFF39
:103BF000FFF7E8FF01232370FFF7E4FF0025FFF73D
:103C0000E1FF2023A57065606561A561E36122780D
:103C10001E3B13432370FFF7D5FF10230849094AC1
:103C2000CB67BFF34F8FBFF36F8FC0214900535055
:103C30001360054B28001E6070BDC0460018004090
:103C400004E100E000E100E06404002010220C4BDD
:103C500070B5DA67BFF34F8FBFF36F8F0025094C44
:103C6000094B0E3A1D60237893432370FFF7AAFF98
:103C70000123227813432370FFF7A4FF280070BDAF
:103C800004E100E00018004064040020292805D069
:103C90000D2040427047DA600020FBE78022034B92
:103CA00092000029F7D19A601A61F5E700180040E8
:103CB000F7B501261D4D76422B69EA681340019342
:103CC000019B2B61019B002B18D1F7BD184B0120E4
:103CD00000229C46674683185B10D9B2DB00DB5D8F
:103CE000A3421CD018DA0131CAB29042F2D2731C3E
:103CF00016D10122A240019B93430193019801F048
:103D000051FF013844B2631CE0D12B69EA681340CB
:103D10000193019B2B61D5E70139C8B2E5E729265C
:103D2000044B30001B689847E3E7C046001800408A
:103D3000B878000064040020024A5378DB09FCD103
:103D40007047C046000C0040802310B50D4C5B004E
:103D5000A3600D4B6360FFF7EFFF0223FF33A36007
:103D60000A4B6360FFF7E8FF094BA360094B6360F0
:103D7000FFF7E2FF084BA360084B6360FFF7DCFF2F
:103D800010BDC046000C0040000701000105010005
:103D900002040000020511000302000003060100F6
:103DA00010B50400C30707D58022124B52009A6059
:103DB000114A5A60FFF7C0FFA30707D502220D4B37
:103DC000FF329A600D4A5A60FFF7B6FF630706D5C7
:103DD000084B0B4A9A600B4A5A60FFF7ADFF230766
:103DE00006D5044B084A9A60084A5A60FFF7A4FFB8
:103DF00010BDC046000C0040000701000105010095
:103E00000204000002051100030200000306010085
:103E1000014B1878C0B2704738040040022804D91A
:103E200003280BD00D20404270470421064A136935
:103E30008B431361054B58700020F5E70423024AB9
:103E400011690B431361F7E700ED00E00004004047
:103E5000064B1A7AD2B21A725A7AD2B25A729A7A35
:103E6000D2B29A72DA7AD2B2DA72704700040040A3
:103E7000837ADB09FCD1704708230268002909D046
:103E80004160C020084940000B500B60073BD371D4
:103E90000020704701219171044AD367BFF34F8F0F
:103EA000BFF36F8FF4E7C04600E100E004E100E0FB
:103EB00008220D4B70B50400DA67BFF34F8FBFF3D4
:103EC0006F8F002545600068063A0388934303809E
:103ED000FFF7CEFF01232068028813430380FFF71A
:103EE000C7FF280070BDC04604E100E070B5164B66
:103EF0000568186004002800FFF7BAFF2B889B07AD
:103F000009D502222068038893430380FFF7B0FF9E
:103F10002068FFF7ADFF0123206802881343038068
:103F2000FFF7A6FF2068FFF7A3FFA02320681B016F
:103F30000380FFF79DFF80232268DB01518800206A
:103F40000B43538070BDC046680400200223006804
:103F500010B5028813430380FFF78AFF002010BDCD
:103F60000222006810B5038893430380FFF780FFA7
:103F7000002010BD10B5006803690161FFF778FFEC
:103F8000002010BD10B504682000FFF771FF206904
:103F900010BD10B5006883698161FFF769FF0020DB
:103FA00010BD10B504682000FFF762FFA06910BDC6
:103FB0000822014B5A607047FCE100E070B5012512
:103FC000054B1C6823681B7A2B4204D063682000D1
:103FD000984723681D7270BD68040020002805DB27
:103FE0001F2318401E3B8340014A13607047C046A0
:103FF00000E100E0002807DB1F23C02218401E3B21
:104000008340024952008B507047C04600E100E0F7
:10401000C3691942FCD17047C3691942FCD170478A
:10402000C3691942FCD17047C3691942FCD170477A
:10403000022210B50368032193430360FFF7E8FFF2
:1040400010BD022210B50368032193430360FFF7FC
:10405000E3FF10BD10B504000321FFF7E5FF206862
:104060008007C00F10BD0222036810B593434900BA
:10407000194301600321FFF7D7FF10BD022210B5DD
:104080000368032193430360FFF7CEFF10BD044B89
:10409000C018800AC0B20238431E9841404270479F
:1040A00000F8FFBDC269012310B514001C401A427C
:1040B00008D10268DB18134303600321FFF7B0FF48
:1040C000200010BD04204042FBE770B50C00160034
:1040D000012912D8C269052315001D401A420FD1CB
:1040E000072143688B4323434360FFF799FF611E19
:1040F0008C4128000134347070BD0D204042FBE734
:104100000420FBE773B504000D00FFF7A3FF0600D2
:104110002000FFF7B3FF01A8FEF70DFBADB20221AF
:104120002000FFF781FFA58101A8FEF70BFB3100FE
:104130002000FFF798FF73BD73B504000D00FFF773
:1041400089FF06002000FFF799FF01A8FEF7F3FAA8
:1041500020000221FFF768FF2368094920000B4077
:10416000691E8D41AD071D4307212560FFF75CFFE8
:1041700001A8FEF7E7FA31002000FFF774FF73BDD6
:10418000FFFFFFBF73B504000D00FFF763FF0600DC
:104190002000FFF773FF01A8FEF7CDFA20000221EF
:1041A000FFF742FF2368094920000B40691E8D413B
:1041B0002D071D4307212560FFF736FF01A8FEF7F5
:1041C000C1FA31002000FFF74EFF73BDFFFFFFEF84
:1041D00073B504000D00FFF73DFF06002000FFF758
:1041E0004DFF01A8FEF7A7FA02212000FFF71CFFF0
:1041F0004022691E8D416368AD0193431D43072131
:1042000020006560FFF710FF01A8FEF79BFA310060
:104210002000FFF728FF73BD73B504000D00FFF702
:1042200019FF06002000FFF729FF01A8FEF783FA17
:1042300002212000FFF7F8FE072163680D408B4341
:104240001D4320006560FFF7EFFE01A8FEF77AFA34
:10425000002E07D00223226803211343200023608D
:10426000FFF7E2FE73BD73B504000D000321FFF7F5
:10427000D3FE01A82668FEF75EFA2000FFF7E1FEF4
:10428000636A0B496D000B400A4901A80D401D43AC
:104290006562FEF757FAB30707D5022322680321A8
:1042A000134320002360FFF7B7FE002076BDC04611
:1042B00001F8FFFFFE070000002809DB1F2318405C
:1042C0001E3B8340034AD367BFF34F8FBFF36F8F0B
:1042D0007047C04604E100E0F8B5022302680321FC
:1042E0001343036004000426FFF792FE10270E4DCF
:1042F00004212000FFF78CFE0322638B1B0913406F
:10430000012B01D10020F8BD013D002DF0D1013E6F
:10431000002E05D0042120006783FFF779FEE6E731
:1043200006204042EFE7C046FFFF000073B50D00D6
:104330000400FFF78FFE06002000FFF79FFE01A894
:10434000FEF7F9F902212000FFF76EFE022D1CD0C6
:10435000802322685B041343200023600721FFF7BA
:1043600063FE63680B4920000B40691E8D416D039D
:104370001D4307216560FFF757FE01A8FEF7E2F92C
:1043800031002000FFF76FFE73BD2368024A13401F
:10439000E2E7C046FFDFFFFFFFFFFFFEC02310B5CF
:1043A00042689B02134304214360FFF731FE10BDB6
:1043B000F7B50E00036805000421140000933700D0
:1043C000FFF726FE01216B8B02229BB20F400E42AB
:1043D00000D16EE013420FD0802204272976608836
:1043E000520102436280628854480B4002407F427F
:1043F0006280FF1A3800FEBD04261A003240009287
:10440000334215D06368002B04DD802362885B0192
:104410001343638063881BB2002B02DA2800FFF786
:10442000BDFF6388454A1340638002277F42E1E76E
:10443000628880231100DB00194001911A4219D0D3
:104440000623278831002800FF091F40FFF7E0FD01
:1044500080226B6AD20113401F43F1231F433100B6
:1044600028006F62FFF7D4FD6388354A13406380EC
:104470000027BFE76768002F0BD163881BB2002BB2
:1044800002DA2800FFF78AFF63882C4A1340638012
:10449000B0E7A36831001A782B0028331A7028007F
:1044A000FFF7B6FDA3680133A3606368013B636057
:1044B000DEE716429ED06268002A3BD05B0739D403
:1044C000009B013ADB0E0B406260002A14D1002BE6
:1044D00016D06388194E1BB2002B09DA6B682800CE
:1044E000334004216B60FFF793FD2800FFF756FF70
:1044F0006388334063800FE0012A0DD1002B0BD07D
:1045000080236A68DB0213436B6004212800FFF7F5
:104510007FFD6368002BDCD0A6680421731CA360B8
:104520002800FFF775FD2B0028331B78337002231A
:104530002B769DE702232B7677E7C046FFFEFFFF31
:10454000FFFBFFFFC36970B504000D00DB0712D449
:104550000321FFF765FD2368012D09D18022D205D3
:104560001343200003212360FFF75AFD002070BD94
:10457000024A1340F5E704204042F8E7FFFFFFBF7F
:10458000F8B5C36903271E0005000C003E403B42FE
:1045900011D13900FFF744FD2B68084924070B406F
:1045A000C02189050C401C43280039002C60FFF70E
:1045B00037FD3000F8BD04204042FBE7FFFFFFCF8E
:1045C0000222036810B59343040003600321FFF740
:1045D00027FD0121236820000B432360FFF720FD06
:1045E000002010BDC269012310B514001C401A42FE
:1045F00008D102220368032193430360FFF710FDF3
:10460000200010BD04204042FBE7184B70B5C318D2
:104610009B0ADBB20400002B02D00D20404270BD8B
:10462000C369DB0714D4022503212000FFF7F4FC43
:1046300023682B4206D02000FFF703FD290020004D
:10464000FFF7EAFC0123032120002360FFF7E4FCCD
:10465000002501212000FFF7DFFC20000321256059
:10466000FFF7DAFC656028006562D8E700F8FFBD57
:10467000F7B50C0000900800FFF709FDE369264E2E
:10468000C5B2DB071DD418236B43F3185A681C23EB
:1046900002271A40032120000192FFF7B9FC23688A
:1046A0003B4206D02000FFF7C3FC39002000FFF793
:1046B000AFFC0123019A0321134320002360FFF77D
:1046C000A7FC20000121FFF7A3FC18204543761921
:1046D0007768200027600321FFF79AFCB368200069
:1046E00063600421FFF794FCF368009AE3600323FE
:1046F0003F0E3B409381BF07636A084AFF0F134098
:10470000BF031F43200067620421FFF781FC738A07
:10471000009A0020D381FEBDC0780000FFBFFFFFDC
:10472000F7B5314AC3698718BF0AFFB2033F7E421B
:10473000774104002D4EDB071CD414237B43F31870
:10474000DA691C2302251A4003210192FFF76CFC51
:1047500023682B4206D02000FFF790FC29002000A0
:10476000FFF762FC0123019A032113432000236019
:10477000FFF75AFC14257D43012175192000FFF72E
:1047800053FCEB690321200023600193FFF74CFCED
:104790002B6A072163602000FFF746FCC0230199C4
:1047A000DB01AA8C19421DD0A389D2045B0BD20C69
:1047B0005B031343A38107230735EA7F1A40A389CC
:1047C0005203DB04DB0C1343A38114235F43F6196C
:1047D00033000833DB7F2836A3733378303400206E
:1047E0002370FEBDA281F0E700F8FFBDC078000095
:1047F00010B501600800FFF793FF10BD70B506000B
:1048000008000C00FFF78CFF051E13D10A4BB461A2
:104810009C4201D1094B1E60094BE418A40A0934DB
:1048200064B22000FFF748FD2000FFF7E3FB200003
:10483000FFF7D4FB280070BD000800426C04002084
:1048400000F8FFBD10B504682000FFF717FC012138
:10485000236820000B432360FFF7E6FB10BD10B573
:1048600004000A4A83699818800A093040B2FFF7A9
:1048700023FDA4692000FFF701FC0121236820002B
:104880000B432360FFF7D0FB10BDC04600F8FFBD0F
:10489000F7B51C0008AB1B7806000D00170001934C
:1048A000002C10D1020023003800210001F000FC90
:1048B000030C090419432A002300000401F0D8FB6B
:1048C000404280B2FEBD012C0AD10100280001F057
:1048D0001BFA390001F018FA019B5E038019F0E71A
:1048E0000020022CEED13100280001F00DFA400822
:1048F0000138E6E7F7B51C0008AB1B7806000D0091
:1049000017000193002C10D1020023003800210071
:1049100001F0CEFB030C090419432A002300000414
:1049200001F0A6FB404280B2FEBD012C0AD101007D
:10493000280001F0E9F9390001F0E6F9019B5E0376
:104940008019F0E70020022CEED13100280001F0A0
:10495000DBF940080138E6E70223006810B5026879
:10496000032113430360FFF75FFB10BD022380693F
:1049700010B50268032113430360FFF755FB10BD18
:1049800010B50068FFF77AFB10BD10B58069FFF71E
:1049900075FB10BD10B50068FFF7B4FB10BD10B576
:1049A0008069FFF7AFFB10BD10B50068FFF7C4FBCF
:1049B00010BD10B58069FFF7BFFB10BD10B50068D2
:1049C000FFF7E0FB10BD10B58069FFF7DBFB10BD02
:1049D00010B50068FFF7AAFC10BD10B58069FFF79D
:1049E000A5FC10BD10B50068FFF7F2FB10BD10B5B7
:1049F0008069FFF7EDFB10BD10B50068FFF70CFCF8
:104A000010BD10B58069FFF707FC10BD0368588B17
:104A100080B270478369588B80B2704703681985EC
:104A200070478369198570470368188DC0B2704755
:104A30000368187E0123184070470368187E8007BA
:104A4000C00F70478369187E0123184070470368C0
:104A5000187E4007C00F70477047704704207047AA
:104A600010B5FFF7FBFF10BD012283699A757047EF
:104A7000022283699A7570470068024BC018800A49
:104A8000C0B2704700F8FFBD8069024BC018800AB1
:104A9000C0B2704700F8FFBD0B0010B50224A3435D
:104AA00009D101218369002A02D119751C7510BD35
:104AB00099759C75FBE7012905D183690331002AAB
:104AC00006D11975F3E70329F1D183697D31F6E742
:104AD0009975ECE710B50069FFF7FEFB10BD10B546
:104AE000064B0469E018800A093040B2FFF7E4FB86
:104AF0002000FFF79DFA002010BDC04600F8FFBD62
:104B0000F0B5046987B00600032120000092FFF78A
:104B10007FFA23689B07DA0F0192002B00DA8DE001
:104B2000B589002D3CD1FF23E068009A984301909D
:104B30000A205043444A101A02F040FE02900391AA
:104B4000F08902F00BFE414B414A01F0D3FF009A7D
:104B500006003D480F00504302F030FE02000B00FB
:104B60003000390001F0C6FF0B00020002980399E3
:104B700002F02CFA009A060050000F0002F01EFE10
:104B80000B0002003900300001F0AEFB01F0C2FA68
:104B9000FF231840019B1843E060280007B0F0BDD8
:104BA000012D3AD1FF23E068009A984302900A2031
:104BB0005043254D281A02F001FE04900591F0891A
:104BC00002F0CCFD224A214B01F094FF0600009830
:104BD0000F00684302F0F2FD02000B0030003900C4
:104BE00001F088FF0B0002000498059902F0EEF92D
:104BF000009A060050000F0002F0E0FD0B000200DA
:104C00003900300001F070FB01F084FAFF231840F6
:104C1000029B1843E0600198C0E7022D11D10D48B6
:104C2000E568009B054008485900401A01F06CF8FF
:104C3000FF2300041B0418402843EBE711204042E7
:104C4000ACE70D20FBE7C04685BB00000B2E113EF4
:104C500095D626E8FFFF00FF70B5016106000C0045
:104C6000FFF706FD051E12D10A4B9C4201D10A4BEB
:104C70001E600A4BE418A40A093464B22000FFF74E
:104C80001BFB2000FFF7B6F92000FFF7A7F928006B
:104C900070BDC046000800426C04002000F8FFBD53
:104CA00010B504000069FFF7C3F90121206903680A
:104CB0000B430360FFF7ACF9002010BDF8B5050009
:104CC0004868002842D080236A885B001A4252D18B
:104CD0004A881A434A802A0051C951C228690421CE
:104CE000426813434360FFF793F92C696A682368AD
:104CF000012A2CD1DB0E134229D080236268DB020B
:104D00001343636004212000FFF782F980232A887F
:104D1000DB0056001A421ED06A88D20702D56A8884
:104D200013436B8004212000FFF772F9134B626A72
:104D30001E408023DB0113401E4380231B021E43C1
:104D4000200004216662FFF763F90020F8BD636864
:104D50000B4A1340D5E7042120006D88FFF758F96E
:104D6000FF22ADB21640FE3A15408022636AD2019E
:104D70002E431340E3E704204042E7E7FE0700002C
:104D8000FFFFFBFF012906D0022906D0002900D130
:104D90004261002070478261FBE7C261F9E7C023EE
:104DA000006910B542689B02134343600421FFF77A
:104DB0002FF9002010BD428803000020D20500D545
:104DC0005868704710B50161FFF752FC10BD10B56F
:104DD00004000069FFF72CF90121206903680B43E7
:104DE0000360FFF715F9002010BD10B50069FFF74B
:104DF00073FA10BD10B50069FFF71AF9002010BD55
:104E0000F0B5046987B00600032120000092FFF787
:104E1000FFF823689B07DA0F0192002B00DA8DE080
:104E2000B589002D3CD1FF23E068009A984301909A
:104E30000A205043444A101A02F0C0FC0290039129
:104E4000F08902F08BFC414B414A01F053FE009A7D
:104E500006003D480F00504302F0B0FC02000B007A
:104E60003000390001F046FE0B0002000298039961
:104E700002F0ACF8009A060050000F0002F09EFC11
:104E80000B0002003900300001F02EFA01F042F967
:104E9000FF231840019B1843E060280007B0F0BDD5
:104EA000012D3AD1FF23E068009A984302900A202E
:104EB0005043254D281A02F081FC04900591F08999
:104EC00002F04CFC224A214B01F014FE060000982F
:104ED0000F00684302F072FC02000B003000390042
:104EE00001F008FE0B0002000498059902F06EF82C
:104EF000009A060050000F0002F060FC0B00020058
:104F00003900300001F0F0F901F004F9FF231840F6
:104F1000029B1843E0600198C0E7022D11D10D48B3
:104F2000E568009B054008485900401A00F0ECFE77
:104F3000FF2300041B0418402843EBE711204042E4
:104F4000ACE70D20FBE7C04685BB00000B2E113EF1
:104F500095D626E8FFFF00FF4B1E012B0AD80369F8
:104F600001210220002A02D1187519757047987521
:104F70009975FBE70029F9D103698031002AF7D13F
:104F8000F3E78023F7B542885B0004000E009C46DF
:104F900007691A4200D083E04A881A434A80020017
:104FA00029C929C263467A68042113437B6038000B
:104FB000FFF72EF8256962682B68012A44D1DB0EC1
:104FC000134241D080236A68DB0213436B600421E3
:104FD0002800FFF71DF82288530000938023DB0090
:104FE0001A4235D06288D20702D5628813436380A3
:104FF00004212800FFF70CF8314B00996A6A194028
:105000000B008021C9010A4013438022120213437E
:1050100028006B620421FEF7FBFF80230322206936
:105020005B02017E013BC9B2002B01D01142F8D0D6
:1050300028002200FFF7BCF9032500281CD0638854
:10504000204A13406380FEBD6B681F4A1340BDE7D2
:10505000638804219BB228000193FEF7D9FFFF2348
:105060000099019819400B00012101400B43802158
:105070006A6AC9010A40CAE7802263885200134263
:10508000E1D0802322695B02117E013BC9B2002B73
:1050900008D02942F8D022003800FFF789F9EBE761
:1050A00006200BE073881BB2002B02DA3800FFF7F2
:1050B00075F905206388034A134063804042C2E7C4
:1050C000FE070000FFFEFFFFFFFFFBFFC02300699C
:1050D00010B542689B02134343600421FEF798FF1A
:1050E000002010BD70B5050008000C00FFF78DFA18
:1050F000002800D12C6070BD70B5040008000D00C0
:10510000FFF783FA061E17D10C4B25609D4201D193
:105110000B4B1C600B4BEC18A40A093464B2200042
:10512000FFF7CAF82000FEF765FF2000FEF756FFE4
:105130000223AB75013BAB75300070BD0008004227
:105140006C04002000F8FFBD10B504682000FEF7D5
:1051500078FF0121236820000B432360FEF75CFFEA
:10516000002010BD10B504000A4A03689818800A90
:10517000093040B2FFF7A0F824682000FEF761FF75
:105180000121236820000B432360FEF745FF002028
:1051900010BDC04600F8FFBD0223006810B50268CC
:1051A000032113430360FEF737FF002010BD0223E5
:1051B000006810B50268032113430360FEF72CFF5B
:1051C000002010BD10B50068FEF73BFF002010BDA9
:1051D00010B50068FEF735FF002010BD0368586A5F
:1051E0000004C00F70470368586A0004C00F70477E
:1051F00010B50068FFF737F810BD10B50068FFF76D
:1052000032F810BD036828331970704703682833DB
:1052100019707047036828331878C0B27047036864
:10522000187E4007C00F70470368187E4007C00F04
:1052300070470368588B80B27047042203680020CF
:105240001A7670470368588B80B27047042203684F
:1052500000201A7570474B1E012B06D804210368E5
:10526000002A07D11975002070470029FBD1036877
:105270008031F5E79975F6E7194B10B518680123E9
:105280008469227E1A4206D0A27D1A4203D0237579
:105290000368984710BD237E01229B0707D5A37D95
:1052A000D340134203D0022323758368F1E7237EA2
:1052B0005B070BD53723628B1A4202D00833638316
:1052C000E8E7218D4368C9B29847E3E7237EDB090D
:1052D000E0D080232376C3689847638B9BB2EEE7C8
:1052E0006C040020214B70B5CB189B0ADBB2050083
:1052F0000C00042B02D00D20404270BDCB69DB07AF
:1053000018D4022603212000FEF78AFE23683342C8
:105310000AD023680321B34320002360FEF780FEF8
:1053200031002000FEF77CFE0D23032120002360C6
:10533000FEF776FE20000121FEF772FE0C4B2000E6
:105340002C6003212360FEF76BFE80239B0220006C
:1053500063600721FEF764FE052300202373043BEE
:10536000303420702B71FF33EB80C6E700F8FFBDAF
:105370000C00300010B5FFF7B5FF10BD70B506008A
:105380000C00FFF7AFFF002814DB0B4B9C4201D150
:105390000A4B1E6000250A4B3561E418A40A093443
:1053A00064B22000F560B560FEF786FF2000FEF7CE
:1053B00021FE280070BDC046000800426C04002099
:1053C00000F8FFBD10B5FFF7D9FF10BD70B50400A0
:1053D000094D03685819800A093040B2FEF76CFF86
:1053E00023685819800A093040B2FEF703FE20688E
:1053F000FFF7E6F870BDC04600F8FFBD10B5FFF737
:10540000E5FF10BD10B50068FFF7DAF810BD10B564
:10541000FFF7F8FF10BD10B50068FEF743FE10BDA2
:1054200010B5FFF7F8FF10BD10B504682000FEF7B7
:1054300039FE044BE018800A093040B2FEF7CEFD79
:10544000002010BD00F8FFBD10B5FFF7EDFF10BD47
:1054500010B50068FFF7C6F810BD10B5FFF7F8FFEC
:1054600010BD10B504682000FFF7BCF88723237532
:10547000044BE018800A093040B2FEF71DFF0020FF
:1054800010BDC04600F8FFBD10B5FFF7EAFF10BD24
:1054900010B50068FFF774F810BD10B50068FFF78D
:1054A0006FF810BD10B5FFF7F8FF10BD10B5FFF78E
:1054B000EFFF10BD0B0010B51100002B0BD0002A20
:1054C00009D05808904206D31B0A934203D800F033
:1054D0001BFC013810BD0D204042FBE7036810B5EE
:1054E000DC69012220001040144202D1C9B21973B4
:1054F00010BD04204042FBE7036810B5DC690122BF
:1055000020001040144202D1C9B2197310BD04200A
:105510004042FBE710B5021D0068FEF7D6FD10BD46
:1055200010B5021D0068FEF7D0FD10BD10B5FFF7E5
:10553000F7FF10BD10B5FFF7EDFF10BD10B5006807
:10554000FFF700F810BD10B50068FEF7FBFF10BDB7
:1055500010B5FFF7F8FF10BD10B5FFF7EFFF10BD56
:10556000F0B5046885B002900379E2690F000E6817
:105570004D68039311000723194001911A4251D13C
:1055800003212000FEF74CFD2368019A9B071BD5E1
:1055900001239C460420237ED9B2034217D1019BEC
:1055A0009A421DD3634619421AD0029BDB88002E13
:1055B00005D0039B3078012B21D8030001360198D8
:1055C000A362013001900BE01420404228E0A36A5E
:1055D000002D04D003982B7001280CD8013501321E
:1055E00049B2002910DBBB6801998B42D2D89342A3
:1055F000D0D801980FE01B0A6B700235EFE7737883
:1056000002361B020343DAE7012313205B42638364
:105610008133237640420323227E1A42FCD0237634
:1056200005B0F0BD0420D0E701220368002902D0B4
:105630009A75002070471A75FBE710B5FFF7F4FF65
:1056400010BD04220368002902D09A75002070471B
:105650001A75FBE710B5FFF7F4FF10BD02220368CF
:10566000002902D09A75002070471A75FBE710B523
:10567000FFF7F4FF10BD03680020996270470368CC
:1056800000209962704703680020996270470368A0
:10569000986A80B270470368986A80B2704703685E
:1056A000986A80B270478900401882600020704775
:1056B000890040188260002070470368187E01232B
:1056C000184070470368187E4007C00F70470222D9
:1056D00003680020197E114201D01A76013070470C
:1056E000036800201A7E52B2824204DA04225A83EE
:1056F0007C321A7601307047032904D103687D316A
:10570000002A01D1197570479975FCE710B5FFF7AC
:10571000F3FF10BD0E220F4B0F489A821A6A196AC6
:105720000240890F89070A4302210A431A629A69D3
:10573000114399610121DA6852080A42FBD0012124
:10574000DA68D2080A42FBD08022196A0A431A6238
:105750007047C046000800400000FF0F822302226D
:1057600001201949DB014B80184B9A84DA68120931
:105770000242FBD0164ADA62164A1268920E3F2A9B
:1057800012D080209202800002439A62124AD020F6
:105790009A849A8C52070AD40120DA6812090240CE
:1057A000D2B2002AF9D006E0FC22D201EDE7DA6895
:1057B0000240D02AFBD14A78D209FCD102219A6951
:1057C0008A439A617047C046000C004000080040C0
:1057D000B90501042460800006080000024B034A5A
:1057E0005A6005221A60704710E000E0FFFFFF00DA
:1057F000024B034A5A6005221A60704710E000E02D
:10580000FFFFFF000121024A13688B4313607047BA
:1058100010E000E0014B98687047C04610E000E0DF
:1058200000487047FFFFFF0070B580250B0E0C4A43
:105830000C4CD8B26D020138C0B2FF280AD118064C
:105840001B1A5B185360936080235B021168194236
:10585000FCD070BD5460946016682E42FCD0EAE71C
:1058600010E000E0FFFFFF002A4B70B5CB189B0A49
:10587000DCB22600721E9641C1607642CA7BD20914
:10588000FCD10B889B0703D50A80CB7BDB09FCD1BD
:1058900001230B80CD7BED09FCD1142373431E4AF9
:1058A000D3185A881E790A800E72DE884E810C2623
:1058B0003240082A1ED1DB688B61CD6101234B7316
:1058C000164B994201D1164B18601234E2B22306EE
:1058D0000ED41F231A401E3B93401249124ACB6735
:1058E000BFF34F8FBFF36F8FC02149005350136038
:1058F000002070BD002A04D1DB689BB20B834A8371
:10590000DCE7042ADAD1DA681B7AD2B20A764D765D
:105910000B75D3E700D4FFBD00790000002C0042D6
:105920007004002004E100E000E100E0C2680D4BDB
:10593000D3189B0A1233D9B21B0609D41F2319406E
:105940001E3B8B400849CB67BFF34F8FBFF36F8F70
:10595000022113888B431380012311880B4313808A
:105960007047C04600D4FFBD04E100E00223C268D6
:1059700011880B43138070470221C26813888B4340
:105980001380704710B50324C3681888800820402E
:10599000022801D1996110BD1A889208224202D1D1
:1059A00089B21983F7E71A8892082240012AF2D1B6
:1059B000C9B21975EFE7C368032019888908014047
:1059C000022901D1986970471A889208024202D1CF
:1059D000188B80B2F7E71A88920802400020012A4B
:1059E000F1D1187DC0B2EEE7C36818888007C00FF8
:1059F00070470020704700207047C068044B10B506
:105A0000C018800A1230C0B2FEF78AF810BDC04636
:105A100000D4FFBD0122054B10B51868C368997BFF
:105A2000114202D09A730368984710BD7004002099
:105A300070B5FA25C024FCF75DFDED00E4052800F3
:105A4000FDF7E6F880239B02E361F8E7024A13685A
:105A5000013313607047C0467404002000230380A4
:105A600064334380704710B54988A0300160FA2044
:105A7000800000F0D3F901000B4800F045F98023C5
:105A800001385B0498420ED2C021084A09065060D2
:105A90000748036A1B021B0A0B430362002393603F
:105AA0000733136010BDFEE7006CDC0210E000E07D
:105AB00000ED00E0F8B504000025180014231E00D6
:105AC0006E43375DFF0712D4A71979600221335D59
:105AD0008B4333552300BA60A033196800F014F9E2
:105AE0000123F860325D134333552800F8BD0135BA
:105AF000082DE4D1093DF8E71423012259430B5C3A
:105B000093430B54704710B5142403001000022275
:105B10006143CC5C2243CA545C18A033196800F07E
:105B2000F3F8024B1B68C018206110BD74040020FC
:105B30001423022259430B5C93430B547047F8B56E
:105B400004000026051D14227243135DD9071CD5DD
:105B500099071AD51249E8680968401A15D5042032
:105B6000034212D103431355AB68002B12D0C9185E
:105B7000E9603100AB686A6820002F68B8471422DA
:105B800004217243135D8B43135501361435082EDF
:105B9000D9D1F8BD0221135D8B431355E9E7C04607
:105BA0007404002010B500F0ABFA10BD70B50C4DB8
:105BB0000C4E761BB61005D0002408CD0134984752
:105BC000A642FAD101F0E8FE074D084E761BB6104A
:105BD00005D0002408CD01349847A642FAD170BD03
:105BE000A4790000A4790000A4790000AC79000039
:105BF000034B10B5002B02D0024800F005F810BD91
:105C000000000000195C000010B501000023002214
:105C1000002000F019F810BD70B5074D074C641B4B
:105C2000A41005D0013CA300EB589847002CF9D1F3
:105C300001F0BCFE70BDC046B8790000BC79000020
:105C40007047C0467047C046F0B5D6464F464646F8
:105C5000C0B5264F82B006003868924698468946FD
:105C6000FFF7EEFF224B1B680193A423019A5B0010
:105C7000D558002D2ED06C681F2C30DC002E0FD193
:105C8000631C6B604B460234A40038686351FFF715
:105C9000D9FF002002B0E0BCBA46B146A846F0BD2C
:105CA000882251462800A300EB189950873AA24059
:105CB0008930FF300168114301608421404649006A
:105CC0005850022EDCD12B008D33FF3319680A4364
:105CD0001A60D5E715004D35FF35D550CBE738684C
:105CE000FFF7B0FF01204042D4E7C046280400205F
:105CF0001479000002B4714649084900095C490062
:105D00008E4402BC7047C046002243088B4274D3C5
:105D100003098B425FD3030A8B4244D3030B8B42AC
:105D200028D3030C8B420DD3FF22090212BA030CB5
:105D30008B4202D31212090265D0030B8B4219D396
:105D400000E0090AC30B8B4201D3CB03C01A5241B6
:105D5000830B8B4201D38B03C01A5241430B8B42FE
:105D600001D34B03C01A5241030B8B4201D30B03E7
:105D7000C01A5241C30A8B4201D3CB02C01A52410E
:105D8000830A8B4201D38B02C01A5241430A8B42D1
:105D900001D34B02C01A5241030A8B4201D30B02BA
:105DA000C01A5241CDD2C3098B4201D3CB01C01AD4
:105DB000524183098B4201D38B01C01A52414309DE
:105DC0008B4201D34B01C01A524103098B4201D3CC
:105DD0000B01C01A5241C3088B4201D3CB00C01A39
:105DE000524183088B4201D38B00C01A52414308B1
:105DF0008B4201D34B00C01A5241411A00D20146D6
:105E0000524110467047FFE701B5002000F0F0F85E
:105E100002BDC0460029F7D076E7704703460B4322
:105E20007FD4002243088B4274D303098B425FD393
:105E3000030A8B4244D3030B8B4228D3030C8B42BF
:105E40000DD3FF22090212BA030C8B4202D31212A5
:105E5000090265D0030B8B4219D300E0090AC30B7A
:105E60008B4201D3CB03C01A5241830B8B4201D327
:105E70008B03C01A5241430B8B4201D34B03C01A10
:105E80005241030B8B4201D30B03C01A5241C30A88
:105E90008B4201D3CB02C01A5241830A8B4201D3F9
:105EA0008B02C01A5241430A8B4201D34B02C01AE3
:105EB0005241030A8B4201D30B02C01A5241CDD288
:105EC000C3098B4201D3CB01C01A524183098B42D3
:105ED00001D38B01C01A524143098B4201D34B01BC
:105EE000C01A524103098B4201D30B01C01A52411F
:105EF000C3088B4201D3CB00C01A524183088B42A6
:105F000001D38B00C01A524143088B4201D34B008E
:105F1000C01A5241411A00D2014652411046704700
:105F20005DE0CA0F00D04942031000D34042534005
:105F300000229C4603098B422DD3030A8B4212D3C5
:105F4000FC22890112BA030A8B420CD389019211F7
:105F50008B4208D3890192118B4204D389013AD034
:105F6000921100E08909C3098B4201D3CB01C01A09
:105F7000524183098B4201D38B01C01A524143091C
:105F80008B4201D34B01C01A524103098B4201D30A
:105F90000B01C01A5241C3088B4201D3CB00C01A77
:105FA000524183088B4201D38B00C01A5241D9D28F
:105FB00043088B4201D34B00C01A5241411A00D210
:105FC0000146634652415B10104601D34042002B0C
:105FD00000D54942704763465B1000D3404201B58B
:105FE000002000F005F802BD0029F8D016E7704740
:105FF0007047C0468446101C62468C46191C634696
:1060000000E0C0461FB500F005FD002801D40021C6
:10601000C8421FBD10B500F04FFC4042013010BD1A
:1060200010B500F0F7FC002801DB002010BD0120B6
:1060300010BDC04610B500F0EDFC002801DD0020C9
:1060400010BD012010BDC04610B500F071FC002845
:1060500001DC002010BD012010BDC04610B500F0CD
:1060600067FC002801DA002010BD012010BDC046E9
:10607000002B11D1002A0FD1002900D1002802D015
:106080000021C943081C07B4024802A1401802902D
:1060900003BDC0465DFFFFFF03B4684601B502982B
:1060A00000F056F8019B9E4602B00CBC7047C046FB
:1060B000F0B515042D0C0F0001002E00C6468446D5
:1060C0000004140C000C090C46434D43604361432B
:1060D0004019340C241800B5A54203D98020400291
:1060E00080464144250C6D18614659437A4330047B
:1060F00049192404000C2018891880BCB846F0BD4A
:1061000010B5002803D001F0A9FB013010BD00201C
:10611000FCE7C04670B500220C4B04000D00FFF7F1
:106120009DFF002804D12000290001F0E1FA70BD94
:10613000064B00222000290000F048FF01F0D8FAA9
:1061400080231B069C466044F1E7C0460000E04106
:10615000F0B557464E464546DE46E0B504000D0014
:106160009246994683B08B4230D82DD0494650464E
:1061700001F068FB29000600200001F063FB331AE0
:106180009846203B9B4633D45A465346934042465A
:106190001F00534693401E00AF423AD8AF4200D191
:1061A00078E05B46A41BBD41002B00DA75E00022BD
:1061B00000230092019301235A4693400193012347
:1061C00042469340009328E08242CFD90022002328
:1061D000009201930C9B002B01D01C605D60009825
:1061E000019903B0F0BCBB46B246A946A046F0BD3B
:1061F000424620239B1A5246DA40414613004A4643
:106200008A40170042461F43534693401E00AF4248
:10621000C4D900220023009201934346002BD9D019
:10622000FB0772081A4346467B080EE0AB4201D1D9
:10623000A2420CD8A41A9D41012024196D410021CD
:10624000013E24184D41002E06D0AB42EED9013E4E
:1062500024196D41002EF8D1009801995B46001970
:106260006941002B24DB2B005A464446D3402A00C8
:10627000E2401C005B461500002B2ADB26009E40F6
:10628000330026004746BE403200801A99410090F4
:1062900001919FE7A342BCD883E742462023002117
:1062A0009B1A0022009101920122DA40019286E7B6
:1062B000424620239B1A2A0046469A402300F34078
:1062C000444613432A00E2401C005B461500002BA5
:1062D000D4DA42462F002023260097409B1ADE4046
:1062E0003B003343CDE7C046F0B557464E464546E2
:1062F000DE46E0B5814605000C03480092461F00CB
:1063000085B0240B400DCE0F002859D0874B984202
:1063100000D198E06B0FE4001C4380231B0423434F
:106320009846834BED009B46002399468344009397
:106330003C037B005046240B5B0DFF0F002B67D006
:106340007A4A934218D07A49420F8C46E400594663
:106350001443802263441204CB1A14439B46C200A8
:10636000002033007B409A464B460F2B00D9EFE0CC
:1063700070499B00CB589F466F4B52469C46224328
:10638000E344002A00D095E0494602231943894698
:1063900000240220E5E700230024002552461B05C7
:1063A0002343D20713432800190005B0F0BCBB46B5
:1063B000B246A946A046F0BD002400255B4BEDE7A0
:1063C0004B462343984600D189E0002C00D1E0E100
:1063D000200001F019FA010002000B391D235B1A9D
:1063E00049461000D940083884400B004D462343ED
:1063F0009846854051483C03831A9B4600239946A2
:1064000000937B005046240B5B0DFF0F002B97D1B0
:106410005246224355D0002C00D1CAE1200001F0A1
:10642000F3F902000B3A1D2301009B1A524608396A
:10643000DA408C40144352468A40414B58449B46B4
:10644000834400208DE74B462343984640D10823E0
:106450009946063B00258346009369E7B246009BB8
:10646000022BA9D0032B00D111E2012B93D0354A86
:106470005A44002A00DC3CE16B0700D0A7E1ED089C
:106480004346DB0106D542462F4B1A4090468022F8
:10649000D2005A442D4B9A428EDC4346520558078F
:1064A0005C020543240B530D78E7BA46A04615005D
:1064B0000090D4E74A4603231A43914603205246EC
:1064C0004FE749460123194389460024012048E744
:1064D0000C239946093BA0468346009328E70423F2
:1064E000994600239B4601330025009320E70023B3
:1064F00080249A4600250D4B24034FE78023414614
:106500001B03194208D01C4206D11C432403BA467F
:106510001500064B240B41E78024434624031C430B
:106520002403B246014B240B38E7C046FF070000A6
:1065300001FCFFFF1879000001F8FFFF0DFCFFFFD1
:10654000F3030000FF030000FFFFFFFEFE07000053
:10655000444500D216E100D111E101235B429C4683
:106560002E0040460025E3442302140E1C431B0C5E
:10657000994623041F0C1202494600920197FFF727
:1065800049FC02007A430B04310C804619438A42CD
:106590000BD901235B429C460919E0448C4204D884
:1065A0008A4202D9831E98460919881A4946FFF77C
:1065B00031FC09048C4631046646019A090C4243B9
:1065C000030031438A4204D90919013B8C4200D8A7
:1065D00011E1891A4246009E12041A43330C1F002F
:1065E000100C9046029313043204160C32001B0C5C
:1065F0005A4303967B4346437843170CBC469B198A
:1066000063449E4203D980267602B44660441E0C41
:10661000301816041B04360C9E19814200D29CE0EF
:1066200000D197E0AE1B091AB54280414042081ADA
:10663000844200D111E14946FFF7ECFB019A0B04BB
:106640004243310C050019438A4207D90919013D1B
:106650008C4203D88A4201D9851E0919881A4946F5
:10666000FFF7D8FB09048C4631046646019A090CF1
:106670004243030031438A4207D90919013B8C4246
:1066800003D88A4201D9831E0919039E891A320050
:106690002D041D43029F2B041B0C5A437B439C4635
:1066A000280C4643130CB444634478439E4203D9F8
:1066B00080267602B44660441E0C12041B04120CA1
:1066C00030189B18814206D302D001231D43CEE629
:1066D000002B00D1CBE661186E1EA14200D2A4E0CF
:1066E000814200D2C9E000D1D9E03500EDE70125B3
:1066F0006D420121891A382900DD4CE61F2900DC92
:106700007FE01F235B429A1A4346D340202904D0DE
:106710004446654A5A44944025436A1E95410722DF
:106720002B43150000241D401A4200D1A1E00F2286
:1067300000241A40042A00D198E01A1D9A429B4175
:106740005B42E4181300220200D48FE001230024EE
:10675000002523E6B54200D364E743465A1E009B5A
:106760009C4665441F009D429B415B421B19C91812
:106770008C423AD2884263D860D0904652E7AA420F
:1067800000D9EAE64346DE0758086B081E43ED07CA
:10679000EAE6484601F038F80100020015312032DF
:1067A0001C2900DC1AE64B46083883400025984631
:1067B00020E601F029F803001A00153220301C2AC7
:1067C00000DC30E65446083B00229C4035E60F23AF
:1067D0002B40042B00D152E605235B42AB429B4188
:1067E00004355B42ED0898444AE68C42C5D1AF427D
:1067F000C0D9904616E78A4200D8EAE6831E0919F6
:10680000E7E62A4A28005A44434695409340C84048
:106810006A1E9541444603432B43CC405A0792D00D
:106820000F221A40042A88D18DE73500814200D01A
:106830004BE7009A934200D047E718E6AE429CD956
:1068400002235B429C46009BE0449C4665449D427B
:106850009B415B421B19C918E4E6154A5A44002AB9
:1068600000DC44E701230025984409E6650764023B
:10687000240BDB081D43002390E5009E023D7200BF
:10688000B242BF417F423C1909190092CEE78024F1
:10689000434624031C432403064B240B7EE5009A45
:1068A0009A42EAD33500C4E73E0400001E0400000B
:1068B000FF030000FF070000F0B54F464646D646EE
:1068C000944691461A03120B184DC0B54C000F03A5
:1068D00092465A00060080463F0B0120640DC90F06
:1068E000520DDB0FAC420AD0AA4203D0944201D130
:1068F00057450DD0E0BCBA46B146A846F0BD3D00B4
:106900003543F7D1A242F5D1524665462A43F1D12B
:106910000120C845EED1994206D0002CEAD13E4371
:106920003000461EB041E5E70020E3E7FF07000026
:10693000F0B54E4645465746DE4604001800E0B521
:1069400016001B031B0B324D0F034A0099464300F0
:10695000A446B0463F0B520DC90F5B0DC00FAA42B3
:1069600029D0AB4218D0002A2AD13C43A346654225
:106970006541002B02D14C46264327D0002D15D16E
:10698000814228D00220013908400138F0BCBB46C2
:10699000B246A946A046F0BD4D462E432FD1002A4F
:1069A000EED13C4365426541002DE9D00028EDD190
:1069B00001204042EAE73D00254320D19342EBD03D
:1069C000002BDDD14C462643DAD1DBE75B460020C5
:1069D000002BDBD0D6E79A420ADCE7DB4F45D1D863
:1069E00010D000204F45D1D20029E1D00800CDE7DA
:1069F000434258410223404218400138C6E7022072
:106A00004042C3E7C445BDD80020C445BED2EBE731
:106A1000FF070000F0B54E4645465746DE460400E7
:106A20001800E0B516001B031B0B314D0F034A0085
:106A300099464300A446B0463F0B520DC90F5B0D6B
:106A4000C00FAA4211D0AB4214D0002A2FD13C4330
:106A5000A34665426541002B14D14C46264311D113
:106A60005B460020002B17D010E03D00254312D1DB
:106A700093421CD14D462E430DD1002A04D13C43F4
:106A800065426541002D0DD1814216D002200139A9
:106A90000840013800E00220F0BCBB46B246A946DF
:106AA000A046F0BD0028F7D101204042F4E7002BBA
:106AB000EAD14C462643E7D1E8E79A4206DD434255
:106AC00058410223404218400138E5E79A42E9DB89
:106AD0004F45DBD806D000204F45DDD20029E3D05A
:106AE0000800D9E7C445D1D80020C445D4D2F5E781
:106AF000FF070000F0B557464E464546DE46E0B576
:106B000098460C034B000600924687B0240B5B0DA1
:106B1000CF0F002B6CD0DD4A934200D186E0420FAC
:106B2000E4001443802212041443D94AC500944659
:106B300063440093002399469B46434642461E0306
:106B4000D20F5B0050469046360B5B0D00D178E0CB
:106B5000CE4A93421DD0CE49420F8C4600996344E1
:106B6000F6008C46164380229C441204634616436A
:106B7000C200002000930099434601318C464946EB
:106B80007B4001930F2900D97EE0C24B8900595800
:106B90008F465246009B324300D056E1BB49002647
:106BA0008C466344494600930223194389460220D8
:106BB000E1E7434601933400150083465B46022B10
:106BC0005ED0032B00D1F3E1012B00D018E10022AD
:106BD00000240025019B12052243DB071A432800ED
:106BE000110007B0F0BCBB46B246A946A046F0BDB6
:106BF0002500054300D141E1002C00D1ADE120008A
:106C000000F002FE010002000B391D2310005B1A88
:106C10003100350008388440D94085400C439E48F7
:106C2000831A0093002399469B4686E70500254377
:106C300000D01CE1082200930223002491469B46C9
:106C40007BE75246324300D10AE1002E00D176E1C3
:106C5000300000F0D9FD02000B3A1D2301009B1A01
:106C600052460839DA408E40164352468A40009B0D
:106C70008949181A03008C466344002000937AE780
:106C800000240025814AA5E72F0C2D042D0C2B0094
:106C9000110C1204120C53439846130028007B4336
:106CA000994648434844834640460B00000C8246C0
:106CB00058467B4350440293814506D99A46802327
:106CC0005B029946CA4453460293030C9B464346D3
:106CD0001B0400041B0C9846030043440493330C2C
:106CE00099462B003604360C7343984633007B4399
:106CF0009A464B465D435F4343465544180C401942
:106D0000824503D980235B029A465744050CEB1950
:106D1000059343461D042D0C00044019250C240442
:106D2000240C270057436A4390462A003B0C9A469E
:106D30004A436143414451448344884503D98023F5
:106D40005B02984642443F040B0C3F0C0904C919EE
:106D5000270098464B4677435C436E435D433B0CAC
:106D60009946A4194C4442440395A64204D9802371
:106D70005B02984645440395029B3F045B441E001A
:106D80008342804123049846059B3F0C4744984624
:106D900076188E428941474440423D18A8469346A2
:106DA00049428A46C3449F42BF4180458041039B7C
:106DB000DA449846534640427F420743240C9345A9
:106DC00092418A4589413F19DC0D049B75021D43A0
:106DD000681E85415346524249420A43BF18474400
:106DE000F60D7F0235435A023C431543FB0100D4A4
:106DF000C1E001216A080D401543E207154364080C
:106E000026496144002956DD6B0709D00F222A402C
:106E1000042A05D02A1DAA42AD416D42641915000D
:106E2000E30104D580211E4AC900144061441D4A73
:106E3000914200DD24E76207ED086402490515432D
:106E4000240B4A0DC6E60197B8E6104A0320944683
:106E500063444A46009303231A43914652468AE606
:106E600049460123194389460026012083E60C2266
:106E700000930323050091469B465EE60423994652
:106E800000230093013300249B4656E6FF070000D1
:106E900001FCFFFF587900000DFCFFFFFF0300001D
:106EA000FFFFFFFEFE070000002380240025444A68
:106EB000019324038EE60120401A382800DD86E67F
:106EC0001F285BDD1F2223005242511ACB401900BC
:106ED000202803D03B4A6244944025436A1E9541D2
:106EE0002A000A4307210D000024154011425BD0FF
:106EF0000F2100241140042953D0111D91429241C9
:106F00005242A4180A0023024BD501220024002576
:106F100060E680231B031C4209D01E4207D1334385
:106F20001C0343461500240B254A019352E6802298
:106F3000120314432403224A240B01974AE600F06B
:106F400063FC03001A00153220301C2A00DC84E6A2
:106F50005646083B00229E4089E600F055FC0100A1
:106F60000200153120321C2900DC4EE634000838BE
:106F70000025844053E6009B9C4641E712492200CD
:106F800061442E008D408A40C640691E8D413243C7
:106F90002A43C4405307B6D00F2111400429ACD175
:106FA000B1E765076402240BD2081543002211E6FD
:106FB0008022120314432403014A240B0AE6C0462C
:106FC000FF0700003E0400001E040000F8B557460D
:106FD0004E464546DE460400E0B51F0010000B0398
:106FE000620F4E00CD0F5B0A39031343490AE200DA
:106FF000440F2143C24C91469246C0007A0080461D
:10700000760D520DFF0FA24200D1B4E0012467407B
:10701000BB46BD4200D188E0B41AA446002C00DC77
:10702000B2E0002A00D1C5E0B54A964200D18BE219
:107030008022120411436246382A00DDA1E11F2A92
:1070400000DD16E220270C00BF1ABC400200A0465B
:107050006446B840E240444614430200501E824158
:107060006046C14022435B1A49468C1AA1459241B1
:1070700052429B1A984643461B0200D417E14346EE
:107080005B025B0A98464346002B00D16CE1404608
:1070900000F0BAFB0200083A202120004346891A7A
:1070A0009340C84094400343964200DD57E1961B4D
:1070B000711C1F2900DDCBE1202218002600521A86
:1070C00094409040CE40CB40621E9441304398465D
:1070D00000260443630709D00F232340042B05D067
:1070E000231DA342A4416442A0441C0043461B024A
:1070F00000D4DFE0824B01369E4200D1FBE04246E5
:10710000804BE4081A401300710552075B022243CA
:107110001B0B490D0905ED07194329431000F0BC6D
:10712000BB46B246A946A046F8BDB41AA446002CF8
:1071300058DD002A00D19EE0714A964200D13BE121
:107140008022120411436246382A00DDC1E01F2A62
:1071500000DCBBE10C00203AD44022006446202C25
:1071600004D040273F1BB940084380464446611E77
:107170008C411443B1E00C0004432AD0BB46BD420D
:107180002DD0614CA446B4446446002C5CD0941BC2
:10719000A446002E00D015E14D461D4300D1C3E1A9
:1071A000651E012C00D10CE2554EB44200D1F8E12D
:1071B000AC460EE10A00024300D136E12200013A5A
:1071C000012C00D1C6E14E4CA44500D1F4E0944618
:1071D00031E701246740BB46BD4200D01CE74A4C62
:1071E000A446B4446446002C00D1CFE0941BA446CE
:1071F000002E00D15CE1424EB24200D1ECE180268B
:10720000360433436446382C00DDB3E11F2C00DD27
:1072100038E22026361B1C00B4404F46A046644688
:10722000E74044463C434F46B7403E00771EBE41D0
:1072300034436646F340C918241884429B415B429C
:107240009846160088444EE0304A741C144200D020
:10725000D6E04A461A43002E00D05BE1002A00D156
:10726000A5E10A00024300D0BBE14A465907D20813
:107270000A43DB0827E00A00024300D174E1220040
:10728000013A012C05D01E4CA44500D194E094464F
:1072900059E74844484592415B18984604005242D9
:1072A0009044434602261B0200D5C4E0013E63071A
:1072B00000D011E74346B4465907E2080A43DB0809
:1072C0000F498C4540D061461B0349051B0B490DF6
:1072D00020E701430C00611E8C414C444C45924117
:1072E00052429046984443461B02E0D5044B013677
:1072F0009E4200D09FE03100002300220AE7C046F2
:10730000FF070000FFFF7FFF01F8FFFFFE070000FF
:10731000002A00D160E10A0002434DD04A465C07D2
:10732000D20822438024DB082403234207D0CE085E
:10733000264204D15D463300C20849070A43510F73
:10734000D200D20849070A431100194300D1C8E10D
:10735000802109030B431B03D5491B0BDAE6D549F2
:10736000B61A0B409846B5E6200000F04DFA020030
:1073700018321F2A00DC8FE62300083883400024DF
:1073800092E608430200501E82416DE6CA4C721C10
:10739000224200D0ADE04A461A43002EB8D1002A5E
:1073A00000D158E10A00024300D059E14A4659078A
:1073B000D2080A43DB0886E74A465907D2080A433F
:1073C000DB08C1E7BA4DAA4200D11EE180252D0499
:1073D0002B436446382C5DDC1F2C00DDD0E02025DB
:1073E00067462D1B4E461C00FE40AC4034434E46C3
:1073F000AE403500FB406E1EB541C91A2C434EE02D
:107400004A46141AA1459241524290465F1A3A00E8
:107410004746D21B9046120200D58BE042462243DB
:1074200000D030E6002300254DE74A465907D20830
:107430000A43DB0844E742469E4B61081A401300AA
:10744000012214400C43DA075B089846144341E6D6
:107450001A001F3EF2401600202903D04022511A84
:107460008B401C43621E94410023344398460026FF
:107470001DE70C00203AD44022006446202C04D0A2
:1074800040273F1BB940084380464446611E8C415B
:107490002243E9E54C4623431C00631E9C41041B28
:1074A000A0429B415B42CB1A98465D461600E2E53E
:1074B0004E461E4300D1AEE0661E012C00D1FDE019
:1074C0007B4FBC4200D107E1B4469BE664462022D4
:1074D000121B0C00944007009040A0466446421ED8
:1074E00090416246E7404446D1403C4304435B1828
:1074F000F3E66F4CA24200D1D5E048445B18484502
:10750000894149425B18DC0740085B089846160031
:107510000443CCE6002A00D082E00A00024340D1B6
:10752000802300251B0313E74B07C2081A435D465F
:10753000CB08C5E64A46841AA0429241CB1A524271
:107540009B1A98465D469EE54A465907D2080A436B
:10755000DB08F9E64A46141AA14592415B1A5242E9
:107560009B1A9846012686E54A465907D2080A43DF
:10757000DB08A5E64C4623431C00631E9C415BE6EA
:1075800065461E00203DEE40202C05D040252D1BD9
:10759000AB404C461C43A2465446631E9C413443B8
:1075A0007DE74B07C2081A435D46CB08CCE60A00CC
:1075B000024300D136E74B07C2081A435D46CB08A9
:1075C00081E64A46841AA0429241CB1A52429B1A43
:1075D00098465D4601264EE54B07C2081A43CB0884
:1075E000B2E64A46141AA14592415F1A5242BA1AAB
:1075F000904612026BD54A46841AA0429241CB1A99
:1076000052429B1A98465D4664E54B07C2081A43EE
:107610005D46CB0898E64B07C2081A43CB084FE6F5
:107620000A00024390D04A465C07D20814438022E5
:10763000DB081203134208D0CE08164205D1C00859
:107640004907084304005D463300610FE200490723
:10765000D2080A4378E64B07C2081A43CB0832E641
:1076600048445B18484592419846524290444346EC
:1076700004001B0200D41AE642460E4B01261A40B3
:10768000904614E666461F00203EF740202C05D0A9
:107690004026361BB3404C461C43A2465446631E4C
:1076A0009C413C43C8E511000023002232E5C0465E
:1076B000FF070000FFFF7FFFFE0700004A46141887
:1076C000844292415B18984652429044E9E5424612
:1076D000224300D1A6E6EAE54B07C2081A43CB08CD
:1076E00032E600220149130014E5C046FF070000FE
:1076F0000A0030B5134C530009030500090B0020A4
:107700005B0DD20FA34204DD0F48834202DD0F4B15
:10771000D01830BD8020400301430D48C01A1F28F7
:1077200008DD0C48C31AD9400B005842002AF0D19A
:107730001800EEE7084CC540A446634499400B008E
:107740002B43F2E7FE0300001D040000FFFFFF7F54
:107750003304000013040000EDFBFFFF70B50028A8
:1077600016D0C317C5185D40C40F280000F04CF8B0
:10777000114A121A0A2816DC03002E0015339E4007
:107780000B23181AC54053052D032D0B5B0D03E089
:1077900000240023002500261B052B43E407234378
:1077A0003000190070BD0B38854053052D030026AD
:1077B0002D0B5B0DF0E7C0461E04000010B5041E43
:1077C00010D000F021F80F4B1B1A0A2811DC0B22F5
:1077D0002100121AD14015300A035B058440120BB8
:1077E0005B0D01E0002300221B051343200019005C
:1077F00010BD22000B3882405B0512030024120BDF
:107800005B0DF1E71E0400001C2101231B049842BC
:1078100001D3000C10391B0A984201D3000A083921
:107820001B09984201D30009043902A2105C4018D8
:107830007047C0460403020201010101000000007C
:107840000000000010B5002903D1FFF7DDFF203054
:1078500002E0081CFFF7D8FF10BDC04641420840B7
:107860001C2101231B04984201D3000C10391B0A70
:10787000984201D3000A08391B09984201D3000934
:10788000043902A2105C401A7047C0461B1C1D1D23
:107890001E1E1E1E1F1F1F1F1F1F1F1F0002002254
:1078A0000100100000000000181800000000000097
:1078B0000000000000000000090000002900000096
:1078C000020000009400200000010000E5E6000036
:1078D0000000D7000080DC020000000004003140FE
:1078E000000003002EFF0000000000000300000065
:1078F00004003140000003002BF6000000000000EF
:107900000300680F000000000000000003000000FA
:10791000000000000000002050650000B863000077
:1079200096630000AA64000096630000EE64000005
:1079300096630000AA640000B8630000B86300000A
:10794000EE640000AA6400005C6400005C64000057
:107950005C640000FC640000886C0000B66B0000F2
:10796000B66B0000B26B0000BC6B0000BC6B00008B
:10797000A86E0000B26B0000BC6B0000A86E000097
:10798000BC6B0000B26B0000466E0000466E00004B
:10799000466E0000126F0000F8B5C046F8BC08BC87
:1079A0009E467047F15B0000DD200000F8B5C04640
:0C79B000F8BC08BC9E467047B5200000E3
:0879BC0094E7FF7F01000000C9
:1079C40000000000EC02002054030020BC0300204F
:1079D40000000000000000000000000000000000A3
:1079E4000000000000000000000000000000000093
:1079F4000000000000000000000000000000000083
:107A04000000000000000000000000000000000072
:107A14000000000000000000000000000000000062
:107A24000000000000000000000000000000000052
:107A34000000000000000000000000000000000042
:107A44000000000000000000000000000000000032
:107A54000000000000000000000000000000000022
:107A64000000000000000000010000000000000011
:107A74000E33CDAB34126DE6ECDE05000B000000D6
:107A840000000000000000000000000000000000F2
:107A940000000000000000000000000000000000E2
:107AA40000000000000000000000000000000000D2
:107AB40000000000000000000000000000000000C2
:0C7DE4000000000000000000B8050020B6
:0400000300002000D9
:00000001FF
