:10200000008000209D4600003F2200003D2200008D
:1020100000000000000000000000000000000000C0
:1020200000000000000000000000000085460000E5
:10203000000000000000000031220000F146000016
:102040008546000085460000854600008546000064
:102050004946000085460000F13C0000894600002A
:102060008546000095450000854600008546000035
:10207000D138000085460000A545000085460000D7
:10208000854600008546000041440000814500006F
:1020900000000000854600008546000085460000DF
:1020A0008546000085460000854600008546000004
:1020B0000000000010B5064C2378002B07D1054B1B
:1020C000002B02D0044800E000BF0123237010BDA4
:1020D000900200200000000004C80000044B10B56E
:1020E000002B03D00349044800E000BF10BDC046E8
:1020F000000000009402002004C800007047FEE7C2
:1021000030BFFEE770470000034B044A1A60044BDF
:10211000044A1A607047C0460C070020FF200000E8
:102120001007002029240000064A0749136A1940B5
:10213000C0231B040B431362136A1B021B0A1362A6
:102140007047C04600ED00E0FFFF00FF8023034A18
:102150005B0551680B4353607047C04600ED00E0DB
:1021600010B5FFF7F3FF10BD054B06491860064A8E
:102170000B6A1A40C0231B0413430B627047C0460E
:102180005807002000ED00E0FFFF00FF064B10B5F0
:10219000064A1860064B07481A6003221A72064A5C
:1021A0001360FFF7E1FF10BD30040020D4BC000035
:1021B00030050020452A00003C050020044B054A5C
:1021C0001960054B1860136A1B021B0A13627047E3
:1021D0002410002000ED00E05007002010B5034B54
:1021E00003491868FFF7EAFF10BDC046300400201D
:1021F00061210000EFF30980704780F30988704780
:10220000084B10B51A68002A0AD0074B1968481CF9
:10221000186006480068814202D300211960904787
:10222000002010BD241000204C0700205007002083
:10223000014B1B689847C0465807002000E0FFE7A5
:1022400073465B0702D5024B1B689847014BFBE7BF
:102250000C0700201007002010B502600171002952
:1022600003D0012944D0662404E0022A08D10C32AC
:1022700082600124002B47D0012B4AD0200010BDE2
:10228000042A01D10D32F3E7052AFBD0082A01D137
:102290000D22EDE70A2A02D101248460EAE70B2A25
:1022A00001D18160E5E70C2A01D10A32E0E70F2A6B
:1022B00001D10A3ADCE7102A01D1053AD8E7112A00
:1022C000E6D0122A01D1083AD2E7132A01D1073AFF
:1022D000CEE7142A01D10E3ACAE7162A01D1023AF2
:1022E000C6E76624172AC5D1023A8260653CC1E779
:1022F000022A01D11132BBE7082A01D10732B7E720
:102300006624092AFAD0B5E70121806802F028FC8A
:10231000B4E70021F9E710B5806802F051FC10BD68
:10232000002370B5E1250B4C190008222000FFF7AF
:1023300093FF20000021FFF7EEFF074C6D022900FC
:10234000200003F085F80022044B5D601A705A707B
:102350009C6070BD18070020581A002068070020F4
:1023600010B5806802F058FC431E9841C0B210BD01
:1023700003006520002A0AD1002903D0012907D0D3
:10238000682004E00E221970597001205A607047CD
:102390005A7019702D22F8E710B5406802F06CFBF6
:1023A00010BD037810B5002B02D0012B05D010BD55
:1023B000806803681B689847F9E7C068F9E770B55B
:1023C00005000C002178002904D028000134FFF713
:1023D000E8FFF7E770BD000037B505000E4C0F4968
:1023E0002000FFF7ECFF29002000FFF7E8FF0125A0
:1023F0000B4C2000FFF7B4FF6840C1B22000FFF78C
:102400008AFF0023074A0193019B9342F0DC019B62
:1024100001330193F8E7C0466807002082BC000042
:10242000180700207FA9030010B50148FFF7D4FF6B
:1024300004BD000010B501000148FFF7B2FF10BD58
:102440006807002030B50C24642301200949644248
:10245000220097255A43ED005219013B8854002B66
:10246000F6D1180004499A0001338850642BFAD140
:1024700030BDC046780700204005002000230C2115
:1024800010B5074C080058430019027A002A02D000
:102490000023037210BD0133642BF3D11000F9E760
:1024A0007807002070B505000C00FFF7E7FF020079
:1024B0000220002A09D0054915600B685460581C99
:1024C0000860012002499B005A5070BD540700204B
:1024D0004005002010B5010003680A2400201A7886
:1024E000303A092A03D8604301331018F7E70B602C
:1024F00010BD0000F0B599B01D0021AB1E786B46F1
:102500001E73F307DB0F06937307DB0F0293F306CB
:10251000DB0F0090019114005B49112209A805937B
:1025200006F0DEFE112259490EA806F0D9FE09ABCD
:102530000493730601D50EAB049302231E9A9A43AB
:10254000082A03D01E9B102B00D09AE06B461B7B01
:102550009F06FF0F06D0002D43DA22002B00002536
:1025600054429D4123002B433DD13022012613AB21
:102570001A70209DB54200DA3500002F02D1069B6B
:10258000002B7AD01F9B013B1F93029B002B02D094
:102590001F9B023B1F93002F3DD02D200199009BD4
:1025A0009847029B002B07D001993020009B984749
:1025B00001997820009B98476B461B7B9B0735D47D
:1025C000059B2024002B00D03024E4B21F9B013B4C
:1025D0001F930133AB4229DD01992000009B9847EE
:1025E000F4E70027BEE700261E9BDB1707932000B9
:1025F00029001E9A079B04F0B3FB2C25049C01368E
:10260000A25C08AC6419731EE254030004000D00C0
:102610000B43ECD1ADE7069B002BC2D06B461B7B76
:102620002B201B0700D50B380199B8E7059B202705
:10263000002B00D030271F9CFFB21F9BEB1A1B19E9
:10264000B34205DD01993800009B9847013CF4E74F
:102650003500013D13ABE85C0199009B9847002DC4
:10266000F7DCF343DB171E40A41B002C09DD0199A6
:102670002020009B9847013CF7E7029B002B87D165
:102680009AE719B0F0BDC046C0BB0000D1BB000046
:10269000F0B51C008DB0049005910B920B9B1A783D
:1026A000002A00D149E15A1C0B921878252803D042
:1026B0000599049B9847F1E7002300259C461F00DD
:1026C0001E000893069307930A9309930B99481CDD
:1026D0000B900A782B2A4AD04CD8202A59D0232A8A
:1026E00053D0002F02D0012232401500099A002A4F
:1026F00004D0624602265200B5431543079A002AC9
:1027000004D004260A9AB54392001543069A002A7B
:1027100001D008221543002B04D01022089B9543BA
:102720001B011D430B910B782A2B35D127680B9089
:10273000FB43DB171F4004340B9B1A782E2A39D138
:102740005A1C0B925A782A2A2FD1266802330B93EF
:10275000F343DB171E4004340B9A531C0B9313787E
:102760006C2B4CD029D8682B2DD00B9229E0012757
:102770003E00ABE72D2A04D0302AB2D101230893C2
:10278000A4E7012209929446A0E7012207920A9247
:102790009CE70122069299E7303B0027092BCBD812
:1027A0000BA8FFF797FE0700C6E70BA8FFF792FEFE
:1027B0000600D1E701267642CEE7742B01D07A2BB2
:1027C000D3D1042306E051780223682902D1D2181C
:1027D0000B92013B0B9A511C0B91107869281AD06F
:1027E00022D858282AD012D8252800D1A1E00B9B46
:1027F0001A78252A00D199E0013B0B93F7E751782D
:1028000004236C29E6D102320B92DB18E2E763283D
:102810006BD06428EBD1581E072845D804F0A8F8DF
:102820002237443A4444443C732866D009D870287F
:10283000DDD104221543721C00D109364022154314
:1028400003E0752833D07828D1D108221021954390
:102850000D43581E072845D804F08AF82B37443A10
:102860004444443C0022A256D317043420210D4393
:10287000711C00D1002603A90D700A210296019750
:10288000009104980599FFF735FE250033E00023F9
:10289000E25EE9E72268E7E7072307349C43230069
:1028A00008341A685B68E1E700221300DEE70A21BA
:1028B000CFE72368DAB200230434701C00D100266D
:1028C00003A8057002960197DAE723689AB2F2E747
:1028D0002268F0E7072307349C43230008341A6872
:1028E0005B68EAE700221300E7E720680599C0B2B9
:1028F000049B251D98472C00D0E6251D2468270041
:10290000731C07D120780028F5D00599049B013469
:102910009847F7E7A319DB1B002BECDD387800287C
:10292000E9D00599049B01379847F3E75A1C0B92AD
:1029300018780599049B9847A7E70DB0F0BD0000F3
:102940000F4B104A10B51A600F4A0A245A600F4AFA
:102950009A600F4ADA600F4A1A610F4A5A610F4AA9
:102960009A610F4ADA610F4A1A6200221000910040
:1029700059580132C86208638C62092AF7D110BD28
:102980000C0500209C040020FC03002060030020B4
:10299000940300202C030020D404002068040020AD
:1029A000C803002034040020064B800010B5C45832
:1029B000206B830019510130A16A04F069F821638A
:1029C00010BDC0460C050020064B800070B5C458F1
:1029D000E06AA16A830001301D5904F059F828000B
:1029E000E16270BD0C050020034B8000C358D86A1B
:1029F0001B6BC01A7047C0460C050020F8B5037A5F
:102A00000100032B02D0407AFFF7CEFF00240B4FCA
:102A1000E65D3000FFF7E8FF002808D03000FFF740
:102A2000D3FF0500002D06D10548FFF7D5FC013482
:102A3000052CEDD1F6E72800F8BDC04648BD0000E2
:102A40009EBC000072B6EFF309801038F0C0444617
:102A50004D4656465F462038F0C0103880F309884E
:102A60000D4C23681B7A032B03D0FFF7C3FB2368AD
:102A700058602068FFF7C2FF20604068FFF7BDFB89
:102A8000F0C8A046A946B246BB46F0C880F3098804
:102A9000024862B60047C0463C050020FDFFFFFF2C
:102AA00000230C2110B5064A080058431018047A78
:102AB000022C03D001330A2BF6D1002010BDC046F2
:102AC000B0020020EFF3108372B603607047036812
:102AD00083F3108870470000F0B50F00002589B01F
:102AE00003900192204B1B689D423AD21F4AAB00D3
:102AF000D458002C33D02168039807F09FFA00289F
:102B00002DD1646805A8FFF7DDFFE36862680693CE
:102B1000A36807930799069B994219D90799069BC1
:102B20005B1A9B1801995B18934215D83E00CB198C
:102B30000293029B9E420FD0E368327821680136EF
:102B4000CA54E0686168013003F0A2FFE160F0E779
:102B5000069B07995B1AE5E705A8FFF7B8FF013563
:102B6000C0E709B0F0BDC046540700204005002072
:102B700010B58AB0069007910892032203A906AB0C
:102B80000A701A0A01AC4B708A701A0C1B0E0B717A
:102B9000230A8B71230CCB71230E0B720023CA7096
:102BA0004C71092206482371FFF796FF2379002B09
:102BB00002D1FFF7CBFAF9E720680AB010BDC04692
:102BC00072BC0000042210B58AB003A906AB0A70DB
:102BD0001A0A01AC4B708A701A0C1B0E0B71230A77
:102BE0008B71230CCB71230E0B7200230690CA70DD
:102BF0004C71092206482371FFF76EFF2379002BE1
:102C000002D1FFF7A3FAF9E720680AB010BDC04669
:102C100072BC0000002213B5110068468024FFF743
:102C2000A7FFE4006846FFF7CDFF054B054A186093
:102C30001B680548E31A136001F098FDF2E7C046EF
:102C400048070020140700208813000010B58AB040
:102C50000690079108920993002306AC03A9220A63
:102C60004C708A70220C240E0C7101ACCA70220ABE
:102C70008A71220CCA71220E0A720B704C710922E1
:102C800006482371FFF728FF2379002B02D1FFF7B5
:102C90005DFAF9E720680AB010BDC04672BC0000BA
:102CA000012210B58AB006AB0690079103A90A70FD
:102CB0001A0A01AC4B708A701A0C1B0E0B71230A96
:102CC0008B71230CCB71230E0B720023CA704C71D5
:102CD000092206482371FFF7FFFE2379002B02D15A
:102CE000FFF734FAF9E70AB010BDC04672BC000025
:102CF000F8B500232C4E190012223000FFF7A6FF72
:102D000000232A4D190010222800FFF79FFF0023FF
:102D1000274C132219002000FFF798FF254B1A6853
:102D20003B2A09DC01213000FFF7BAFF002128000F
:102D3000FFF7B6FF00210BE01A68452A25DC0121C8
:102D40003000FFF7ADFF00212800FFF7A9FF0121A8
:102D50002000FFF7A5FF184F3B68D80FC0184010A0
:102D600001F004FD30000021FFF79AFF2800002148
:102D7000FFF796FF20000021FFF792FF3B68D80F76
:102D8000C018401001F0F2FCC8E71B68812B05DC7D
:102D900001213000FFF784FF0121D5E70021300039
:102DA000FFF77EFF0121C2E73C070020300700202B
:102DB0002407002048070020140700200FB437B56F
:102DC00006AC20CC6846FFF77DFE2A0023000021D8
:102DD00005480194FFF75CFC6846FFF778FE37BCB6
:102DE00008BC04B01847C04635240000F0B5050003
:102DF00085B001A817000E00FFF764FEAB680293D0
:102E0000EB680393029A039B9A4218D9029B039C96
:102E1000E41A6B68E418BC4200D93C00002C12D0C4
:102E20003719B7420FD0AB682A68D35C3370A868F3
:102E30006968013003F02CFE0136A960F1E7039CBC
:102E4000029BE41AE7E701A8FFF741FE200005B066
:102E5000F0BD0000054B10B51B78002B02D10448D3
:102E6000FFF7BAFA034B186810BDC046AC02002049
:102E700033BD000008050020094B10B51B78002B5E
:102E800002D10848FFF7A8FA074B80001A68101A09
:102E90000722104201D00138FBE7186010BDC04680
:102EA000AC020020E2BB000008050020F7B50500D9
:102EB0000F0001921E00FFF7F3FD041E02D1174818
:102EC000FFF78AFA00230760037246721020FFF7AB
:102ED000D3FFFFF7BFFF6060019801351038FFF79F
:102EE000CBFF63680E4A9D635A6380225204DA6303
:102EF0000C4B21001A683000551C1D60FFF754FD73
:102F0000022D09D1084B1A69D36A9B009B58586857
:102F1000FFF773F9FFF762F90120FEBDD9BC00008D
:102F200003210000D00400200C05002010B505206E
:102F3000FFF72CF90222184B591CCA7719002C31C3
:102F40000A70190038310A70190044310A701900EA
:102F500050310A7019005C310A70190068310A702A
:102F6000190074311A721A750A709A6F0A329A67C8
:102F7000FFF7E6FC094B0A4A0A491A6001220A4B8C
:102F80000A481A7000220A4B1A6080320423520049
:102F9000FFF78CFF10BDC046B002002008050020DE
:102FA000005000200EBC0000AC02002001210000F7
:102FB000D0040020084A094BFA2110B51360002301
:102FC000890093605160D36080220549D200054892
:102FD000FFF76CFF10BDC0462C0C00203C0C0020FD
:102FE000FDBB0000AD30000010B5FFF79DF8FFF706
:102FF00097F9FFF789F8FFF799FFFFF723FAFFF733
:10300000D9FF10BD10B5FFF7EFFF80220023D200DB
:1030100009490A48FFF74AFF80220023D2000849E5
:103020000848FFF743FF8022002352010649074862
:10303000FFF73CFFFEE7C0468DBD0000F12C00000D
:103040009FBD0000152C0000BDBD0000E533000051
:1030500070B51400042815D803F08AFC030D171B63
:10306000230008684D688A68CB68E9B2DBB2FFF7D5
:10307000F3F8206006E0086849684B1E9941C9B220
:10308000FFF749F90123237170BD0868FFF768F95C
:10309000EFE708684B688A68D9B2D2B2FFF768F9DF
:1030A000E7E70868FFF778F9E3E7000070B5174D28
:1030B00017482900FFF7F6F9164C092221002800CD
:1030C000FFF794FEC0B200281CD0092802D0124895
:1030D000FFF782F9A27963791202D218E379A17815
:1030E0001B04D218237A09021B06D21863782078B1
:1030F000C918E3781B04C91823791B06C918FFF700
:10310000A7FFD9E7FFF722F8D6E7C0462C0C00202E
:1031100072BC00005C07002056BC000010B5034ADA
:103120000349044803F01CFC10BDC0460000002009
:10313000FD2000002810002070B50E001500084C7E
:103140008178200000F076FA3100200000F0CAFA01
:103150002900200000F0C6FA200000F021FB70BD1D
:103160004810002070B57F2405000C4022008A2101
:10317000FFF7E2FFAC7070BD10B50A000921FFF740
:10318000DBFF10BDF8B50D00170006000F4C81786D
:10319000200000F04FFA2900200000F0A3FA2000E0
:1031A00000F0FEFAB1783A00200000F096FA3500FF
:1031B000AB1B9F4208DD200000F0F7FA6871012088
:1031C00001F0D4FA0135F3E7F8BDC04648100020FD
:1031D00010B504000C221421FFF7D4FFE27A237B00
:1031E00012021343627BE382A37B12021343E27B4E
:1031F0002383237C12021343638363795B061B0FD3
:10320000237710BD10B50400FFF7E2FF638B142B8A
:103210000ED1238863832379608B002B0AD105F0BC
:10322000B5FE0022054B05F0A5F805F01BFF10BD0B
:103230002380F0E704F038F9F9E7C0460000D03FFA
:1032400070B50E0005000B4C8178200000F0F2F9FB
:103250003100200000F046FA200000F0A1FAA97821
:103260000122200000F039FA200000F09EFAC0B2DE
:1032700070BDC0464810002070B5892104000125AA
:10328000FFF7DEFF2843C2B289212000FFF754FF79
:10329000200000228821FFF74FFF2A002000802114
:1032A000FFF74AFF2A002000FF21FFF745FF002219
:1032B00020001100FFF740FF91212000FFF7C0FF21
:1032C00020003C229121FFF737FF2A002000002137
:1032D000FFF732FF20000022FF21FFF72DFF002221
:1032E00080212000FFF728FF70BD000070B50400AA
:1032F00012480D0001F03AFA29232000A370FFF7CD
:10330000BBFF29002000FFF72DFFC2212000FFF79F
:1033100097FF06000A4D2800FFF750FD31000948CD
:10332000FFF74CFDC0212000FFF78AFF010006488F
:10333000FFF744FD2800FFF741FD70BDDC050000EC
:103340003FBC00004DBD00005DBD000070B5040035
:1033500001228021C578FFF7EFFE0122FF21200026
:10336000FFF7EAFE002220001100FFF7E5FE3C22F5
:1033700091212000FFF7E0FE012200212000FFF74D
:10338000DBFE0022FF212000FFF7D6FE0022802175
:103390002000FFF7D1FE002D08D0012D18D00F48D6
:1033A000FFF70CFD0E48FFF709FD0BE0200001229E
:1033B0002900FFF7C1FE012006000135304201D08F
:1033C000C82D00D170BD00212000FFF739FFF4E7C0
:1033D000022200212000FFF7AFFEF3E76BBD0000E3
:1033E0003FBC0000F0B54C4E91B0002309220121F2
:1033F0003000FEF731FF0023484D19001422280049
:10340000FEF72AFF464C0023022201212000FEF78E
:1034100023FF0023434F190004223800FEF71CFF4E
:103420000023052219004048FEF716FF3000002156
:10343000FEF771FF28000021FEF76DFF200000213C
:10344000FEF769FF38000021FEF765FF00213648CE
:10345000FEF761FF0A2001F089F9344800F0CAF84C
:10346000300001260121FEF756FF314F10213800B0
:10347000FFF73CFF00213800FE70FFF77DFE3800AB
:103480003E71FFF763FF28003100FEF744FF112172
:103490006846FFF72BFF6B4600216846DE70FFF79A
:1034A0006BFE6B4668461E71FFF750FF200031002F
:1034B00008ACFEF730FF12212000FFF717FF0021B4
:1034C0002000E670FFF758FE200026719625FFF7D2
:1034D0003DFF642001F04AF96D003800FFF792FECD
:1034E00003F05EFC01001348FFF768FC6846FFF735
:1034F00089FE03F055FC01000F48FFF75FFC200038
:10350000FFF780FE03F04CFC01000C48FFF756FC6F
:10351000280001F02BF9E0E7E8060020F40600207F
:1035200000070020D0060020DC0600204810002004
:103530002810002022BC00002FBC000042BC00006C
:1035400000207047F8B505000E0017000024BC42AB
:1035500008D02B682800315D1B689847002801D0EF
:103560000134F4E72000F8BD70470300FC33196A0A
:10357000DA69914203D01B6AC018007E70470120AF
:103580004042FBE70300FC33D8691B6AC01A01D52F
:103590000130FF3070470000F7B50193FA23802710
:1035A000002504009B008360114B7F0008330E0050
:1035B00045602900009203603A00183005F099FE3A
:1035C00023002000FC332130DD613A001D62290018
:1035D000FF3005F08EFE87239B00E3185D609D6041
:1035E000009B20002375019B2661A5756375FEBDB8
:1035F000D0BD000070B5040018260C49006901F028
:1036000063FE206901F0BCFC33000821207D084DD9
:103610004343EB18595601F017FB0821607D4643E0
:10362000AD19695601F010FB70BDC046A0860100BF
:1036300088BF00008A2300229B00C1540C3BC318A2
:103640005A609A600123837570470200FC32536808
:1036500010B501339468DBB29C4202D05468015526
:10366000536010BDF7B50193002304001500180046
:103670009A422FD02200FC32D361206913620122CA
:1036800001F0BCFC002826D02700206901F038FD9D
:10369000183701003800FFF7D8FF01262069B5422E
:1036A0000ED001F08BFC0221206901F091FC206911
:1036B00001F026FD01003800FFF7C7FF0136EDE7F6
:1036C00001F073FC019B002B03D00321206901F062
:1036D0007FFCE8B2FEBD0500FBE710B50123FFF754
:1036E000C1FF10BD10B50300827D002082420ED0C4
:1036F000872292009C186268A4680132D2B2A2426A
:1037000005D02133FF331800FFF79FFF012010BDC4
:103710000300FC3399685A68914206D09A68805C2D
:103720009A680132D2B29A60704701204042FBE7AA
:1037300000228A2370B59B00827505000E00C15CD3
:10374000006901F05BFC002806D10321286901F023
:103750003FFC0224200070BD872328009B00EA184C
:10376000536894682130FF301C1B01D50134FF34AD
:10377000002C0ED02C69FFF7CBFFC1B2200001F066
:103780007BFC0028E8D10321286901F021FC0324F7
:10379000E0E7002EDED00321286901F019FCD9E70B
:1037A00010B50121FFF7C4FF10BD10B51830FFF7A9
:1037B000AFFF10BD70B50400006901F07FFC002868
:1037C00014D0206901F088FC002810D0206901F095
:1037D000F5FB0321206901F0FBFB8C239B00E558DE
:1037E000002D39D10023FC34E361236270BD2069D0
:1037F00001F07CFC002809D0206901F072FC00284F
:1038000004D0206901F077FC0028DFD0206901F0A6
:103810006DFC002826D1206901F059FC0028E5D074
:10382000206901F068FC002837D087239B00E2184C
:10383000536892689B1A01D50133FF33FF21002B97
:1038400005D020002130FF30FFF762FFC1B22069B0
:1038500001F025FCA075C9E7236820001B69984783
:10386000A847BFE7206901F0A9FB2069032101F007
:10387000AFFB206901F03FFC0028B7D0872300226E
:103880009B00E3185A609A600123A3758B239B0069
:10389000E3589342AAD09847A8E72200FC32D369A4
:1038A000126A0133DBB22069934206D101F07DFB3D
:1038B0000321206901F08CFB98E701F021FC010055
:1038C00020001830FFF7C1FE206901F077FBEFE719
:1038D00010B50248FFF76EFF10BDC046481000202B
:1038E00010B51523142202490248FFF755FE10BDFA
:1038F000B8190020481000200378034A9B009B5809
:10390000002249331A707047D0120020F0B504002D
:1039100085B01E000AAB1B78103001930BAB1B78EF
:10392000170002930CAB1B780D00039300F0AEF967
:103930002000243000F0AAF9220000234832A363BB
:10394000E363236463641370537063729D4205D113
:103950002221084B084A094805F032FC2000019B4F
:1039600025606371029B2771E371039BA67123722B
:1039700005B0F0BDF4BD000005BE000059BE00005A
:1039800030B5040085B002AD00680291039201F0E9
:10399000B3FA6B79227AE17920680093002301F071
:1039A00069FC2979029A206801F0CAFA206801F0BE
:1039B00099FA05B030BD10B50400006801F085FA31
:1039C0000023637210BD000007B5837A0091019255
:1039D000002B07D09A070AD5EFF310835A425341C0
:1039E000C37272B60099019AFFF7CAFF07BDDB07E1
:1039F000F8D5C368014A9BB29360F3E70018004012
:103A0000837A002B05D09A0704D5C37A002B00D007
:103A100062B67047DB07FCD5C368024A9BB2D3602D
:103A2000F7E7C0460018004010B5006801F06DFAD5
:103A300010BD70477047000010B5006801F06EFBC4
:103A400003000020834203DB0C304343014A9858B3
:103A500010BDC046C8BE000010B5006801F05EFB96
:103A6000002805DB0C2343430348C018406810BD01
:103A700001204042FBE7C046C8BE000010B5006808
:103A800001F04CFB002805DB0C2343430348C0181E
:103A9000806810BD01204042FBE7C046C8BE000060
:103AA000F0B506001036050089B0300000F044F98A
:103AB000002869D12F002437380000F03DF9041E9A
:103AC0005FD12800FFF7DAFFC1B2300000F014FA2E
:103AD0000221300000F034FA2C490122300000F0BD
:103AE00007FA2B7C2A4A9B0028009D50FFF7B4FF61
:103AF000C1B2380000F000FA0221380000F020FACC
:103B00006B1DDB7F224A9B0028009D50FFF794FF2E
:103B10000123010022000293300023000494039447
:103B20000194009400F030FAA8632800FFF784FFA6
:103B30000123020021000193380023000494039420
:103B40000294009400F020FAE863402005F0A2FB04
:103B50002A0048322864079200280BD001231370F2
:103B600068646B6C10221819E96B103405F0B8FB0F
:103B7000402CF6D1079B1B78002B05D1380000F0B4
:103B800075F9300000F072F909B0F0BDF9380000A5
:103B9000D012002070B5437A0400002B03D101221B
:103BA00043814272C360230048331B78002B02D14B
:103BB0002000FFF775FF18263300082120790D4DEE
:103BC0004343EB18595601F03FF833000821A07920
:103BD0004343EB18595601F037F808216079464302
:103BE000AD19695601F030F8034B200006CBFFF702
:103BF000C7FE70BD88BF0000C81200201FB5094A6B
:103C0000094B0A4913600023938002930133019307
:103C100016330093162201330548FFF777FE05B0EF
:103C200000BDC046C812002000093D00BC1900209C
:103C30007C120020084B1968002909D1EFF310808D
:103C4000064A002803D172B6BFF35F8F01311170AD
:103C50001A6801321A60704788140020841400200A
:103C6000084B1A68002A0CD01A68013A1A601B68BF
:103C7000002B06D1044B1B78002B02D0BFF35F8FC3
:103C800062B670478814002084140020FF2310B50A
:103C90000370C023002104009B0041704180838099
:103CA0000C22083005F025FB200010BD01230A007E
:103CB00010B51A40194208D00C4A137003334370F0
:103CC0008368002B00D0984710BD0223194204D00E
:103CD00006490B70C3684270F3E704231942F3D01E
:103CE000024A1370033343700369EAE74E48004108
:103CF00010B5FFF79FFF0C4B1B8C1B071B0F0B2BEB
:103D00000FD80A4A9900885800280AD00F24084979
:103D10000A78A24313430B70064B1978C9B2FFF718
:103D2000C5FFFFF79DFF10BD004800418C14002027
:103D30003F4800414E480041F8B500230278050095
:103D400018000B2A77D93C4E2B702B780B2B07D8F9
:103D500001229A403168114204D001332B70F4E7FC
:103D6000012068E0FFF766FF3768344C002F2BD145
:103D70002022334B334859690A435A611022D969CA
:103D80000A43DA610222238839009343238023887F
:103D9000013A134323802C4B6063BF32A36305F0C9
:103DA000A8FAC0223900284805F0A3FA4022C12011
:103DB000264B80002380264B26491A601A58114052
:103DC000C02212040A431A5001231A0029783068CD
:103DD0008A40024332600F261F4A880085501F48E0
:103DE00031400278B2430A43027002201C4A117823
:103DF00081431170117819431170297822698B4021
:103E00009A43226160223F21636C934363642A7961
:103E1000636C0A40134912020B400321134363648D
:103E20006A79636C0A40104992050B40134363643E
:103E3000FFF716FF0020F8BD801400200048004165
:103E400000040040C013002000130020020F0000F7
:103E500000E100E0FFFF00FF8C1400203F4800411C
:103E600040480041FFC0FFFFFFFF3FFF70B5050066
:103E7000FFF7E0FE6B785CB2062B2BD02B78022488
:103E80000B2B27D801229A40144B1968114221D0DC
:103E90001968914319601B68002B14D14022104B04
:103EA000DA67BFF34F8FBFF36F8F21000D4A0E31DA
:103EB0001388A34313800C4BDA698A43DA615A6989
:103EC00010318A435A6100242B78084A9B009C5089
:103ED000FF232B70FFF7C4FE200070BD801400206C
:103EE00004E100E000480041000400408C14002080
:103EF0000232920011507047037870B505000C0033
:103F000001710B2B14D8FFF795FE29780F2509486E
:103F100029400378084AAB430B4303703F23516C9D
:103F20001C40064B240219400C435464FFF798FED2
:103F300070BDC0463F48004100480041FFC0FFFF40
:103F4000037870B505000C0041710B2B14D8FFF7F6
:103F500071FE29780F25094829400378084AAB43A8
:103F60000B4303700323516C1C40064BA4051940FE
:103F70000C435464FFF774FE70BDC0463F480041D7
:103F800000480041FFFF3FFFF0B587B001930CAB45
:103F90001E780DAB1B78050002930EAB1B780078E2
:103FA000039310AB1F78049105920B2802D90020CF
:103FB00007B0F0BD6B78062BF9D0AB78002B00D1A1
:103FC00079E01021080005F05BF90028EFD02B788C
:103FD0003B4A1B019B181A00D168002904D0D16804
:103FE0008B4201D0D268F7E7D06001220223AA7089
:103FF000964203D0DB18022E00D01300062401885D
:10400000114301800188A143018001881234A1433A
:104010000180153C018826402A4C360221400E437F
:104020000680029E0188284C16402140B6020E43AD
:104030000680039E0188254C16402140F6020E435F
:1040400006800188224E3A40314012030A4307217C
:1040500002800F9A114002884903D204D20C0A430D
:1040600002806A4692884280049A4260029A002A3C
:1040700008D0019A41685A43002F01D00F9CA240FA
:104080008A184260059A8260039A002A09D0019A30
:1040900084685A431300002F01D10F9A9340E3180C
:1040A00083600023EA789A4203D02B78044A1B01EC
:1040B0009B18C3607CE7024B0001C01895E7C0461F
:1040C000C0130020FFFCFFFFFFFBFFFFFFF7FFFF18
:1040D000FFEFFFFF704770477047704770474171AF
:1040E00070478171704701717047000010B5034C33
:1040F0000834046001714271837110BD10BF00006B
:104100007047000010B50248FFF78EFC10BDC04696
:104110007C12002010B50248FFF78BFC10BDC04692
:104120007C12002010B50248FFF784FC10BDC04689
:104130007C12002010B50279042A26D0032A26D04A
:10414000022A26D0013A53425A41154B52421A4094
:10415000D21843798179013B00291CD001291AD05A
:10416000022918D0032916D059424B410021DBB255
:10417000140A02724472140C120E8472C272017319
:1041800043730848FFF706FD10BD074AE1E7074AF9
:10419000DFE7074ADDE75C426341DBB2E8E7C046A0
:1041A00040420F007C1200200024F40000127A002C
:1041B00000093D0010B50248FFF7FDFB10BDC046E9
:1041C0007C12002010B58168C2680248FFF7FCFB32
:1041D00010BDC0467C12002010B50248FFF710FC4D
:1041E00010BDC0467C12002010B50400FFF77EFF12
:1041F000044B200008332360034BA3600023A381FA
:1042000010BDC04644BF000000093D00002310B5AA
:104210001A0019000148FFF7E7FF10BDBC14002089
:1042200010B5C31C0400D87F00F0F6FC431E984173
:104230000634E37F584010BD10B50430C07F00F055
:10424000BFFC10BD10B5C31DDB7F0530C07F5940DA
:1042500000F0B6FC10BD10B503790400022B08D0A5
:104260000021FFF7EFFF00212000FFF7E5FF022309
:10427000237110BD082388101840030010B5064AAA
:104280000833984205D0145C8C4203D00130C0B290
:10429000F7E7002010BDC04678BF0000F8B5040065
:1042A000FFF7BEFF002805D022002A321378013321
:1042B000DBB213702100230029310A782B338242AC
:1042C00052D01A780B254F2A00D912351A78521974
:1042D000D2B21A7008701A789F2A44D92100E28D50
:1042E0002A315208E2850A78042A04D98022E08D16
:1042F00012010243E2851A7825006032D2B21A70A8
:1043000000232C350B702A78D3B2002A48D026001F
:10431000303633780133DBB233700B2B23D93F2394
:10432000E18D20001940FFF7A5FFE18D0700890905
:10433000C9B22000FFF79EFF2100220075313F0126
:104340000B783843C0B27432002B12D1107013783E
:10435000062B02D91378432B0BD900232B70638AC9
:1043600001339BB26382F8BD1A781432D2B21A704C
:10437000B1E70B785F1CE3183133FFB20F70187090
:1043800009781378994208D300232B702300012267
:1043900008332000DA77FFF75EFF00233370E2E78F
:1043A000E18D054A9142DED101222A702200753446
:1043B000303213702370D6E7380B0000F7B50500D4
:1043C00078352F7804007B1C2B70002F0ED1030052
:1043D000020076330193FF321B78127A9A420BD88F
:1043E000FFF739FFE38A01339BB2E3822B78072B77
:1043F00001D900232B70F7BD0600C3187736793337
:10440000197833785A1C1941012332701940FFF78B
:1044100013FF3378052BE9D9019B37701B78019A7C
:1044200001331370E2E7037910B5042B02D1FFF7D3
:1044300035FF10BD0379032BFBD1FFF7BFFFF8E772
:104440001023054A10B5917B0B439373034B1868F7
:10445000FFF7E9FF10BDC046002C0042CC1400203D
:10446000F7B50C27404E0193335C04005BB20D009E
:1044700047430092002B2EDA00230B82EB7BDB09F3
:10448000FCD1335D394A01335BB23355335D127869
:104490005BB2DB19934203DA335D5BB20B2B34DD85
:1044A0002F8ABFB2EB7BDB09FCD1314B3149186855
:1044B00002F068FA304B009A5843043700090C3276
:1044C00087424CD280B252005053EB7BDB09FCD1C7
:1044D000FF33335540E0335C244A5BB21278DB197A
:1044E0009342CEDA335C254A5BB2DB19DB009B5C7E
:1044F0005B06C6D5335C00215BB2DB19DB00985C40
:104500008006800E00F05CFBBBE7335D1B4A5BB2AC
:10451000DB19DB009B5C5B0609D5335D01215BB2D7
:10452000DB19DB00985C8006800E00F049FB2A8ACC
:1045300092B2EB7BDB09FCD1335D5BB2DF190F4B31
:10454000FF00DF197B68D318009A9BB20C3252002F
:104550005353EB7BDB09FCD1019BAB73F7BDBFB2BF
:1045600052005753B1E7C046D1140020D0140020A8
:104570000400002040420F00204E0000D414002010
:10458000002210B5102310000149FFF769FF10BD8C
:104590000030004210B5024802F041F810BDC0469C
:1045A0003415002010B5024802F039F810BDC0469D
:1045B00070170020F7B501240326154F1549380060
:1045C00000F0FAFB1449154800F0F6FB14491548B1
:1045D00000F0F2FB1449154800F0EEFB14491548B1
:1045E00000F0EAFB144D1549280000F0E5FB390006
:1045F0002300009600220194114801F0A7FF290032
:1046000000961E231F2201940E4801F09FFFF7BD64
:10461000AC19002000080042000C0042B019002034
:1046200000100042B419002000140042B819002004
:1046300000180042BC190020C0190020001C0042D4
:10464000341500207017002070B50024094D0A4B66
:104650001B68A34200D870BD084E2A6833691A420D
:1046600005D0074BA200D35898472B68336101341B
:104670000435ECE7081A00204C1A0020001800400E
:10468000C4190020FEE70000034B10B51B68002B87
:1046900000D0984710BDC046501A00200F4A10485D
:1046A000110010B50F4B824202D0934209D1130082
:1046B000824209D100F07CF802F09AF8FEE710CBB4
:1046C00010C18142FBD3F3E7074A8B42F2D00021AD
:1046D000064B9A42EED202C2FBE7C0460000002021
:1046E0009002002010C80000900200204C20002002
:1046F00010B5FDF785FD002801D100F04DF810BD83
:10470000014B18607047C046501A0020F7B5134897
:10471000012284461249134C8E68636805689B0E1B
:104720001340019288686268019F920E3A40674682
:104730003F6893420ED1BD420CD186420AD35B1929
:10474000FA254868AD00861B07486B437043000D8F
:10475000C018FEBD3D0013000600E3E7541A002018
:1047600010E000E000ED00E05555000070B5041EBB
:1047700011D0FFF7CBFFFA260500B60000F016F8BF
:10478000FFF7C4FF401BB042F8D3FA23013C9B0063
:10479000ED18002CF4D170BD10B5034A1368013335
:1047A000136000F0CFFA10BD541A002070470000CB
:1047B0001E2270B546484749436893431C3A134349
:1047C000436008238C6923438B61434C434B9C8299
:1047D0009C8A14439C82DC681442FCD00124404A29
:1047E00014701578254203D055786DB2002DF8DB92
:1047F00001249460547864B2002CFBDB394C546083
:10480000547864B2002CFBDB8224E4015480547899
:1048100064B2002CFBDB02249C840E34DD6825424C
:10482000FCD0314CDC621024DD682542FCD09D8C2C
:104830002E4C2C439C841024DD682542FCD002249D
:104840009D8C80262C439C844024DD683542FCD01E
:10485000DD682542F9D01024DD682542FCD0002413
:104860009460547864B2002CFBDB214C5460547883
:1048700064B2002CFBDB1C6A1E4D2C4080251C62A0
:104880001C6AAC431C62032393601B4B5360537838
:104890005BB2002BFBDB0023FF240B72174A4B7229
:1048A0008B72CB72164B1A60164B174A1B68116835
:1048B0009A065B01C90E2340520F12020B431343A9
:1048C000124A1385802342681343436070BDC0467B
:1048D00000400041000400400C06000000080040B9
:1048E000000C004001050100B905FF7D040A00002D
:1048F00000070300FFFCFFFF03060100006CDC0261
:1049000004000020246080002060800000400042FD
:10491000FA212E4B10B51868890002F033F8802375
:1049200001385B0498424FD229492A4A4860C02086
:10493000136A00061B021B0A0343136200238B60E9
:1049400007330B608021136A09061B021B0A0B4305
:104950001362FC22204B196A0A431A62FF22196A69
:1049600012020A431A62A022196AD2020A431A6288
:104970001A4B1C005A7852B2002AFBDB184A5A80A4
:10498000184B1A00597EC9090129FBD0C82189009A
:1049900099800521D970537EDB09012BFBD0C02300
:1049A00000205B011361907000F022F863785BB225
:1049B000002BFBDB0C4B0D4A6380D379DB09012B09
:1049C000FBD04123537010BDFEE7C0460400002019
:1049D00010E000E000ED00E000040040000C0040AA
:1049E0001E400000004000422140000000480042FC
:1049F0001F4900B50B004A7ED209012AFBD00138BD
:104A00000A282FD801F0B4FF1B2E2E2E2E2E062E94
:104A10002E2411001A6917490A400F211A615A7889
:104A20008A43110001220A4310E01A6911490A4021
:104A30000F211A615A788A4311000322F3E71A6999
:104A40000C490A400F211A615A788A435A7000BDF6
:104A50001A6908490A400F211A615A788A431100DD
:104A60000222E0E7F022196912050A43F3E7C04683
:104A700000400042FFFFFFF010B5040006285ED0A2
:104A800007285ED0052800D80E340121200000F050
:104A9000DBF80E2C0DD12D4B1900DA79D209012A41
:104AA000FBD002201A7882431A70CB79DB09012BE4
:104AB000FBD027490B004A7ED209012AFBD01820DF
:104AC0006043244C0A692418207C1F242040A24300
:104AD00002430A615A7ED209012AFBD002221978C8
:104AE0000A431A705A7ED209012AFBD00222197B8E
:104AF0000A431A7301221A765A7ED209012AFBD080
:104B00000222197B0A431A731A7ED207FCD5588BEE
:104B100080B25A7ED209012AFBD002211A788A4338
:104B20001A705A7ED209012AFBD00B4B1A680B4B24
:104B30001B689A4202D006D9D31AD84010BD2C2443
:104B4000A3E72D24A1E79B1A9840F7E7004800420D
:104B50000040004288BF0000080000200C00002038
:104B6000182310B508245843134A13181C5701344E
:104B700012D001245B6882569C4003290CD808009F
:104B80000E49D2015218D318403301F0F1FE021041
:104B9000060B02211970546010BD06211970546073
:104BA0009461F9E70621197054605461F4E7022119
:104BB00019709460F0E7C04688BF000000440041CF
:104BC0001823F0B508245843114A13181C57013410
:104BD0001BD0012635005F688356BD400D4ADB01BE
:104BE0009A18906805420BD10C00601E8441D219BE
:104BF0004032107834400336A400B0432043107094
:104C0000044A9B18002901D15D61F0BD9D61FCE75C
:104C100088BF000000440041182310B50824434316
:104C200007490020CA181457013408D05B560549BB
:104C3000DB015B18186A5368D8400123184010BD87
:104C400088BF000000440041182370B50826434384
:104C50002A4AD518AE573400013607D0072907DC99
:104C600000291DDA01314C424C416442200070BDE4
:104C70000B00083BDBB20024032BF7D8092903D132
:104C80002100FFF76DFFF1E70A2904D10839FFF78A
:104C900067FF0024EAE700240B29E7D10A39F0E78F
:104CA0006C68012520009B56C9B262082840DB01D0
:104CB0002C4211D012480E351B189A183032107839
:104CC000090128400143C9B2117041221B19403328
:104CD00019780A431A70DCE70F26094D5B199A18F8
:104CE000303215781B19B5432943117041224033E6
:104CF000197804000A431A70B8E7C04688BF00005C
:104D000000440041F8B505000E0017000024BC4225
:104D100008D02B682800315D1B689847002801D017
:104D20000134F4E72000F8BD014B18607047C0461D
:104D3000100000200122024B52421A607047C04608
:104D400010000020164A10B51368591C27D0013BEB
:104D50001360002B23D172B68122124B92000433D0
:104D6000934213D3104A01211000147D0C42FCD051
:104D70002021148BFF319B085B0021431183D361F9
:104D80000A4B13800123027D1A42FCD0BFF34F8FE0
:104D9000074B084ADA60BFF34F8FC046FDE710BDEE
:104DA00010000020002000000040004102A5FFFF8D
:104DB00000ED00E00400FA05016070479446F0B58C
:104DC00005AC25789C1E621E9441624606689207D7
:104DD000376824063A4322430724326000682140A2
:104DE000AD01002442682943022B00D05C030A4332
:104DF00022434260F0BD30B5C0250368AD031C6896
:104E000012052A402243C0240904A40221400A4377
:104E10001A6003685A6814435C6030BD012302685D
:104E200011680B43136003681A68D207FCD4DA696F
:104E3000D207F9D470470223026811680B4313604C
:104E40000268D3699B07FCD4704703681A7ED207B7
:104E500002D41A7E9207FCD57047002203685A8359
:104E600070470368187E4007C00F70470368187EBC
:104E7000C0097047802302685B42117E0B431376A2
:104E800070470368588B8007C00F70470223026881
:104E9000518B0B43538370470368187EC007C00FC4
:104EA00070470368188DC0B2704703681A7ED20736
:104EB000FCD589B2012019857047012203689A75D3
:104EC0007047012203681A75704701230268116850
:104ED0000B43136003681A68D207FCD4DA69D2075F
:104EE000F9D470470223026811680B43136002680B
:104EF000D3699B07FCD470470368DA699207FCD436
:104F000002211A688A431A6070470268936A5B0A32
:104F10005B020B43936203681A7E5207FCD5986AC2
:104F2000C0B2704710B50548490001F02BFD80B2B2
:104F3000002801D0013880B2C0B210BD006CDC0284
:104F400070B50C000126110063080268334034403C
:104F5000156824075B0723432B4313600468FFF79E
:104F6000E1FF207370BD0123026811680B431360D9
:104F700003681A68D207FCD4DA69D207F9D47047FB
:104F80000223026811680B4313600368DA69920711
:104F9000FCD430215A8B8A43110010220A435A83D1
:104FA0000268D3695B07FCD4704780230268DB0288
:104FB000116851680B435360704700000368034950
:104FC0001A685A680A405A607047C046FFFFFBFFE4
:104FD000032230B5036811401C68074D5A68090464
:104FE0002A40E4061143640F5960052C03D102687E
:104FF000D3695B07FCD430BDFFFFFCFF30B503680D
:105000000400588B8006800F022813D05D8B00208F
:10501000AD06AD0F032D2ED0588B800705D55D8BC7
:105020000020AD06AD0F012D25D15D8BAD06AD0F76
:10503000281E20D04800596A1043C90AC0B2C902CC
:10504000014359622368002A08D11A7ED207FCD591
:10505000588B01234007C00F58400CE01A7E92077E
:10506000D00F002AF4DB1A7ED207F7D5C022596888
:1050700092020A435A6030BD0368283319700268EF
:10508000137EDB07D80F002B03D1538BDB07F7D53B
:1050900070470123508B4007C00F5840F8E7036862
:1050A000283319700268137E5B07D80F002B04DACF
:1050B0000123508B4007C00F5840704703681868A1
:1050C000C006400F043843425841C0B270470368DD
:1050D000187E4007C00F70470368187EC007C00FD6
:1050E00070470368588BC006C00F70470368187E6E
:1050F0008007C00F70470368588B0007C00F7047C8
:1051000003681A68D206520F052A02D11A7E920746
:10511000FCD528331878C0B2704700000368104AE5
:10512000934213D00F4A934212D00F4A934211D0A8
:105130000E4A934210D00E4A93420FD001200D4ADE
:105140004042934201D1063040B270470020FBE755
:105150000120F9E70220F7E70320F5E70420F3E751
:1051600000080042000C00420010004200140042FF
:1051700000180042001C0042F8B5FFF7CFFF0028DE
:105180002CDB1D4BC000181805230479C3560320DF
:10519000FF221840C0008240C021D2438140002B32
:1051A0001DDB1F2501201D40C026A840134D7600A1
:1051B000A851C0269B089B005B19B6009F593A4036
:1051C0001143995128603F2323408024E4011C436C
:1051D0000B4B5C805A7852B2002AFBDBF8BD0F20E3
:1051E0000340083B07489B089B001B18D8690240F6
:1051F0001143D961E7E7C046D8C3000000E100E0F1
:10520000000C004000ED00E0F8B504000F001600AF
:105210001D00FFF7B1FF2000FFF700FE1C21BB00BF
:105220000B4071072268090C0B431360842322682A
:105230009375012F1AD11021012E00D008390C4B83
:1052400069431868C00001F09DFB072221680240F5
:105250008B895203DB04DB0C13438B81226803042C
:105260009089DB0C400B400318439081F8BDC04689
:1052700004000020F7B50500019308AB0C001600F0
:105280001F78FFF722FE2800FFF776FFC021C0221B
:10529000890224040C409203BF07360527431640B9
:1052A0003E430C2707222B683E431E60019B296862
:1052B00013401A0080239B0213434B602A68D36972
:1052C0005B07FCD4F7BD0000F8B504000F00FFF742
:1052D00053FF2000FFF747FE1422236879001A606D
:1052E0000C4B25681E68300001F04CFB0A49040095
:1052F000300001F047FB7D23FA215843C90001F03B
:1053000041FBFF23241AE868053C1C4098430443F2
:10531000EC60F8BD0400002040420F003F207047C1
:1053200013B56B460268D97107335468190001221E
:10533000A04716BD10B50221006900F029FC10BD80
:1053400010B50321006900F039FC10BD10B5130041
:10535000084A0400D279002A03D1012300206360A7
:1053600010BD0A000069032100F020FD0028F4D0E0
:10537000F6E7C0461800002010B5054C0300206871
:10538000421C04D11A68180052699047206010BD71
:1053900064000020074A0300106810B5411C03D0C8
:1053A00001235B42136010BD0221186900F0F0FC7C
:1053B000F9E7C0466400002010B5037842220233AA
:1053C00003700249024800F09DFD10BD200000203E
:1053D000741A002010B50178030042780020A1293A
:1053E00008D1212A05D1174917481A3A00F08AFD39
:1053F000012010BD2129FCD1202A13D111491248C6
:10540000193A00F01FFC96220E4BD2001968914207
:105410000ED1DA7901231A420AD1FA20FFF784FC6F
:105420000020E6E7222A06D19A78064BDA71EAE7ED
:10543000FFF780FCF4E7232ADBD15A88034B1A607C
:10544000D7E7C04618000020741A0020140000207E
:1054500070470000FA220021054B92009A60054A2D
:1054600008321A60044A59601A6119767047C046BA
:10547000581A002008C40000741A0020704770B544
:105480000F26CB1D02003240D5B22C00000930346B
:10549000092A00DD07341C705A1E994200D170BDE4
:1054A0001300EFE710B50400806903F0FDFEA06A69
:1054B00003F0FAFE200010BD10B50400FFF7F2FF64
:1054C000200001F0BBF9200010BD000070B50329D9
:1054D00008D1324B8000C058002802D00368DB6836
:1054E000984770BD82291FD1C3B22D4D5A01AA1809
:1054F00091692C4C80010C40C021890521439161A8
:10550000294908334018802150612A685B01D0186E
:1055100004794942214301717020995C814308005C
:10552000302101439954DCE70029DAD1C024C1B20B
:105530001B4E4A01B21893681A4DA4052B40234311
:1055400093601A4B8001C0180B005060306807262A
:1055500008335B01195CB1430E000121314319543A
:1055600091690D402C43946170240F495161195C7D
:10557000A1430C0010212143195491680C4CC3180D
:105580000C4080214903214391609168890B890374
:105590009160402259790A435A71A2E7781A002093
:1055A0002C1F0020FFFFFF8FA01A0020601C00208E
:1055B000FF3F00F0EFF3108303600123436072B6F6
:1055C00070470368002B02D162B6BFF36F8F70473C
:1055D00037B5056904006846002D14D1FFF7EAFFCE
:1055E000019B621D013B02D3D57FEDB2FAE768460D
:1055F0000193FFF7E6FF002D01D100203EBD206A98
:10560000E369C01AFAE7FFF7D5FF22000025019BE6
:105610003432013B02D31578EDB2FAE768460193C4
:10562000FFF7CFFF002DE8D0206BE36AE9E7000029
:10563000F0B5FF2501264268836811682B405B01A5
:10564000CC186419A77AD3183E43A672C6689C6822
:105650000B4FB60436093C4034439C6083682B40B2
:105660005B01D2189468A40BA40394604022836861
:105670002B4008335B01CB1819790A431A71F0BD2E
:10568000FF3F00F0F7B5056904000E0017006846FB
:10569000002D43D1FFF78EFF019B601D013B5A1C7B
:1056A0000BD0C27F591E002A05D168460193FFF72F
:1056B00088FF2800FEBD0B00F1E768460193FFF765
:1056C00080FFE369AF420AD0226A9A4207D95A1C86
:1056D000E261A269D3181B7873550135F1E7226A9C
:1056E0009A42E6D10023E361013368462361FFF764
:1056F00061FF22000021019B671D013B3532581CD0
:10570000D3D0F97710785E1E002805D020001170E4
:105710000193FFF78DFFECE73300F0E7FFF74AFF57
:105720002000019B3430013B5A1C06D00278591EE0
:10573000D5B2002AB9D00B00F6E7684601930025E0
:10574000FFF73FFFE36ABD4202D0226B9A421CD8AA
:10575000226B9A42ADD100236846E3622361FFF7D2
:1057600029FF270022000021019B3437013B3532FD
:10577000581C9AD0397010785E1E00280DD0200079
:1057800011700193FFF754FFEBE75A1CE262A26A23
:10579000D3181B7873550135D4E73300E8E7F7B524
:1057A00082684368D2B211000400083118684901C8
:1057B0004118C879C00729D501255201CD719B1820
:1057C0009A6861699204920C002923D12262226AAC
:1057D000002A41D0A26A656168465A60FFF7EAFE76
:1057E000342294462200019B671D013BA4443532BC
:1057F000591C2DD06146FD770978581ECEB200297C
:1058000005D0019368461570FFF7DBFEF7BD030076
:105810001670EDE72263226B002A1DD000222700BC
:105820006261A26968465A60FFF7C4FE019B621D6F
:105830009446013B34373032591C09D061463D70E3
:10584000C97F581ECEB20029DBD103001670F3E7E2
:1058500068460193FFF7B5FE2000FFF7E9FED5E7A4
:1058600013B56A4600230C00D01DD371FFF7A4FDC9
:1058700023681818206001F019F86B46D91D00F054
:10588000E1FF236818186B462060D87916BD000028
:1058900003290ED180220E4B62311B68FF31585C08
:1058A000524202435A5468226339FF32FF399954F5
:1058B00070470129FCD18022054B24311B68FF3140
:1058C000585C524202435A5428222339FF32EDE7F2
:1058D0002C1F002070B500252F4B012104001A2039
:1058E0001D70FFF73DF901211A20FFF769F92B4BD5
:1058F000012119201D70FFF733F901211920FFF74D
:105900005FF92023264A0F20D1690B43D36101227E
:1059100024490B7813430B70234B1978814319707A
:1059200006211D782943197020490D782A430A70F1
:105930001A7802401A70602219780A431A701C4BB8
:105940001C4A5A805A78D209FCD11B48FEF7D8FE6F
:105950001A4D280000F0BEFF280000F0D1FF7F2183
:105960002B68C1201A7880000A401A700422197826
:105970000A430C211A701A898A4311491A810A585C
:105980001202120A0A5080220A6019787E3A0A43EB
:105990001A700123237070BD951A0020941A0020FC
:1059A00000040040584400413C4400415944004137
:1059B000000C0040064000008D6300002C1F0020FA
:1059C00000E100E00078002810D00121084B1B689E
:1059D0001A898A431A810822198B0A431A830422DE
:1059E000198B0A431A830022024B1A607047C04683
:1059F0002C1F0020241F00200A000E498B699B0BDE
:105A00009B038B610B680221FF33197298798239ED
:105A100001439971197A8907FCD57F20064B024012
:105A2000997A8143114380229972997A52420A43AA
:105A30009A7270472C1F00200050004110B50B795E
:105A40000C00002B0CD10800FFF7C4FC002801D08B
:105A5000012010BD094A93699B0B9B039361F7E7F3
:105A600000F024FF210000F011FF0028F0D1034ACC
:105A700093699B0B9B039361EBE7C0462C1F0020AF
:105A8000F7B50D001100832A19D1EBB2324C5A013F
:105A9000A21891693148AD010840C0218905014330
:105AA00091612F4920686D187021083355615B01A1
:105AB0001A5C8A43110040220A431A54F7BD022A95
:105AC00045D1284AAB009858002802D003685B698A
:105AD0009847382000F0AEFE234B80270360002358
:105AE0001D4E7F00421D036203614361C361466036
:105AF0008560C760D3772F32C362036304001370DD
:105B00003800537003F0C6FB0190A061380003F029
:105B1000C1FBEBB25A01A062B21891680F4808337A
:105B20000840C021890501439160316807265B0167
:105B3000585CAD00B0430600032030435854019B2D
:105B400020005360FFF774FD064B5C51B6E7280058
:105B5000FFF7BCFCB2E7C0462C1F0020FFFFFF8F01
:105B6000A01A0020781A002034C4000070B5050087
:105B70000124064BA200D258002A05D0210028009B
:105B8000FFF77EFF0134F4E770BDC04668000020D7
:105B9000084B8A00D05810B5002803D003689B68D2
:105BA000984710BD044BC9B2490159188868800450
:105BB000800CF6E7781A00202C1F002010B50C008E
:105BC000FFF7E6FF00280CD0064BE4B219688023EB
:105BD000083464010C1962795B4213436371022338
:105BE000E37110BD2C1F002070B5CBB2124A1348D0
:105BF0005C0189018918021951609168104D0833C0
:105C00000D40802189022943402591609168890BCC
:105C10008903916001685A018A1816793543157114
:105C200095796D06FCD55B01C918CB79DB07FCD5EE
:105C300000198068C0B270BD601C00202C1F0020BD
:105C4000FF3F00F070B5140040220B4B0D001B68A5
:105C5000FF3359790A435A710021FFF7C5FFA0426B
:105C600000D9200000230549A34203D0CA5CEA54AE
:105C70000133F9E770BDC0462C1F0020601C0020D6
:105C800010B50C48C9B24901421893689B049B0C9B
:105C90003F2B0BD99468403B9B04A40B9B0CA403A3
:105CA0002343936041188868C0B210BD93689B0B72
:105CB0009B03F6E72C1F0020F0B51C002F4B85B08E
:105CC0001B6806000D000192002B54D02C4F3B782E
:105CD000D9B2002B02D11920FEF772FF64233B706A
:105CE000284BAA00D058002808D0036822005B681F
:105CF000019998470400200005B0F0BD290030004C
:105D0000FFF746FF844204D929003000FFF740FF27
:105D1000040029003000FFF7B3FF0121EBB21A4F56
:105D200003935B010293029A3B6801989B18FF332F
:105D30005A7A0A435A72154BA9012200C91803F076
:105D4000CFFA002CD7D029003000FFF721FF002820
:105D5000D1D14021039B3A6808335B01D3181879ED
:105D6000014319710121D971029BD318FF339A7A2B
:105D70000A439A72BFE701246442BCE7241F002053
:105D8000941A0020781A00202C1F0020601C00208C
:105D900013B56B46DC1D22000123FFF78DFF0128A0
:105DA00001D1207816BD01204042FBE7F0B51C0070
:105DB0003A4B85B01B680E000192002B3FD0802328
:105DC000DB019C423BD8364D2B78D9B2002B02D157
:105DD0001A20FEF7F5FE642300272B70314BB20129
:105DE000D3180293002C2CD02F4B1B680393FF2356
:105DF00033401D0000930835039B6D015D19AB799D
:105E0000DB0921D0294B2A49186800F0BBFD294B3A
:105E10001721584300F0B6FD274BEA79920713D4B7
:105E20009A5D002A01D10138F7D201229A55009BD0
:105E30005A011D4B9B189A69920B92039A61012794
:105E40007F42380005B0F0BD00221B4B25009A555B
:105E5000402C00D940252A000199029803F040FA0D
:105E6000009BA9045A01104B890C9B18029A7F19B8
:105E70005A619A69641B920B92030A439A61009BD0
:105E8000039A08335B01D3180222DA715979823AF6
:105E90000A435A71019B5B190193A3E7241F002059
:105EA000951A0020A01A00202C1F002004000020BA
:105EB00040420F0070110100971A002070B50C00CD
:105EC0001D000D4BA601F618110030002A0003F04A
:105ED00007FAE4B2094A640114196661A369084922
:105EE00028000B40A361A169AB04890B9B0C8903BB
:105EF0001943A16170BDC046A01A00202C1F0020CC
:105F0000FF3F00F0F7B5104B0F001B781400019015
:105F1000002B0CD10D4B16001D78002D09D00C4E16
:105F20000C48358828182D1903F0DAF9358020003F
:105F3000FEBD002EFBD033007A1900210198FFF737
:105F4000BDFF2D18361AF4E7201E0020211F002067
:105F5000221F0020211E0020F8B500200D00140093
:105F600000AF012A27D9D31D6A46DB08DB00D31A0C
:105F70009D46080004F06CF86E46032302220021BF
:105F80000130400030707370A2420DD22878002892
:105F90000AD0531CDBB20135B0549C4203D002320C
:105FA000F154D2B2F0E7220031000448FFF7AAFF13
:105FB000431E9841C0B2BD46F8BDC046741A0020C9
:105FC000F0B50025012785B0184B0E0069461F70FB
:105FD00004000095FFF744FC154B01A90B806A3BB8
:105FE000FF3BCB716E3B0B72009B320009334B8041
:105FF0000E4B8D714F7108711D70092E0FD00D4E13
:10600000092237700C4F200000953D80FFF77AFF82
:1060100069462000FFF724FC3A88084935702000C3
:10602000FFF770FF012005B0F0BDC046201E002024
:1060300009020000211F0020221F0020211E002035
:10604000F0B5CF7805000E0093B0022F09D1C988B2
:106050002B48FFF7B5FF441EA041C4B2200013B087
:10606000F0BD00F023FC310000F000FC002803D05C
:10607000C417241AE40FF1E7012F0BD1F28821494C
:10608000112A11D8D2B2002A0ED02800FFF73AFF09
:106090000124E3E70400032FE0D1B378002B05D1FE
:1060A000F2881949032AEDD90A78EEE7022B06D1C6
:1060B000B27916492800FFF74FFF0400CEE7012B05
:1060C00002D1B2791249F5E7032BC7D1114B01A9CF
:1060D0001868FFF7D4F9104B03A91868FFF7CFF938
:1060E0000E4B05A91868FFF7CAF90D4B07A91868E8
:1060F000FFF7C5F96B460533DC77B27901A9D9E71B
:10610000741A002065C4000058C400004CC400008C
:106110005CC400000CA0800040A0800044A080006F
:1061200048A0800037B5050048780C000B2810D82F
:1061300000F01EFC061B0F310F484D7551546E7157
:10614000097801AA002906D1022311802800FFF74F
:10615000B5FE01203EBD00231380324B1B78012B7E
:1061600000D1137002230021F0E78A780023012A6E
:1061700009D16A4693802C4B1B78012B00D11371F7
:10618000022301AAEFE7274A1370284A93699B0B61
:106190009B039361DDE78C78012C07D1224B01AA88
:1061A0001C70234B1B7813702300DCE70020844213
:1061B000D0D11C4B01301D4A187093699B0B9B0377
:1061C0009361C7E728008978FFF716FCC1E728002C
:1061D000FFF736FFBEE70123164AC4E70B7800201D
:1061E000DB06B7D12800FFF7C1FC2A200221A278E4
:1061F000104BFF301A600D4A13681C5C21434A247F
:106200001954FF34195D2938FF3801431955D4E773
:106210000123094AA7E78A78074B1A60B5E70020EF
:1062200098E7C046961A00209E1A00202C1F0020D6
:1062300067C50000241F0020281F00204B4BF7B526
:106240001C780700002C00D083E0494E33689B8BFC
:106250001B070ED521002000FFF738F93268102304
:106260001100FF31887A03438B72424B1C60082374
:10627000938333689A8B52071FD504229A833E4A30
:106280001378002B0AD01378013BDBB2137013781C
:10629000002B03D101211A20FEF792FC374A137814
:1062A000002B0AD01378013BDBB213701378002B5C
:1062B00003D101211920FEF783FC3368FF331A7ADA
:1062C000D2061ED510221A72597930320A435A71F9
:1062D00060232B4938000A781A423BD1FFF722FF8E
:1062E0003368FF33002838D08022997952420A431C
:1062F0009A711A7A520604D540221A72597A0A43C0
:106300005A72336800241D8C01239D43EDB2019322
:10631000E1B2002D1DD02B002341019A134215D06C
:106320002300326808335B01D318DA79D20702D42C
:10633000DB799B0707D5134BA200D058002810D05B
:1063400003681B689847019BA3409D430134092CB7
:10635000DED1F7BDFFF772FBC2E720210A4A917137
:10636000C7E73800FFF794FAEDE7C046211F002089
:106370002C1F0020241F0020951A0020941A0020B2
:10638000601C0020781A0020FF50004110B5024820
:10639000FFF754FF10BDC046741A0020014B024A9B
:1063A0001A6070472C1F00200050004101207047E8
:1063B00010B50368014A1B6A984710BD130400001A
:1063C0000300FC33D9699A69914203D0DB69C01894
:1063D000007D704701204042FBE710B504000069D2
:1063E000FEF71CFD22000023FC329361D36186225C
:1063F0009200A4186360A36010BDF0231B01194034
:10640000802306209B0099420AD00133FF330130DC
:10641000994205D0802300205B00994200D10530CD
:1064200070470F2001400020012903D00239481E87
:106430008141481C704700008923F0B5182785B0BA
:1064400002919B000400C05C3B0008214343324E94
:106450001500F3185956FEF7F7FB304B0821E05CA6
:106460003B004343F3185956FEF7EEFB2C4BE25C1E
:106470000393022A09D11133E05CFF2805D00821DB
:106480004743F7197956FEF7DFFB8A27BF00E05D27
:10649000FF2819D00121FEF763FB1822E35D214993
:1064A0005A43B356B618DB0158188B218900605047
:1064B0001D4901225B188C218900635071688A4054
:1064C0008D21890062501A600122029B110020690F
:1064D000FEF79AFE29002000FFF78FFF2900060033
:1064E0002000FFF79EFFF0221540303D6A425541E3
:1064F00003003100206901220095FEF75FFC0B4B81
:106500002069E25C039BE15CFEF775FC2069FEF705
:1065100092FC05B0F0BDC04688BF00002502000017
:1065200027020000184400411444004126020000E4
:10653000802210B504000021520002F0DAFE230090
:106540000022FC3320005A609A6010BDF7B51D0090
:1065500008AB1B780400009309AB1B78160001936D
:1065600000234360FA239B008360104B0F00083325
:1065700003601430FFF7DCFF20001D30FF30FFF711
:10658000D7FF89239B002761E654094B009AE55405
:10659000084B2000E254019A074BE2548A22293B1F
:1065A000FF3B9200A3541032A354FEBD78C40000F8
:1065B0002502000026020000270200000300FC3331
:1065C00058689B68C01A01D50130FF30704710B57C
:1065D000040020001D30FF30FFF7F0FF0028F8D145
:1065E0002069FEF732FC10BD10B51430FFF7E6FF4E
:1065F00010BD0300FC3359689A68914204DB5A6865
:106600009868801AFF30704798685B68C01A013834
:10661000F9E710B51D30FF30FFF7EBFF10BD10B5E7
:1066200004000069FEF72DFC002805D02069FEF764
:1066300038FC2069FEF72AFC2069FEF712FC0028CE
:1066400020D02069FEF72DFC2200FC329369D1692D
:106650000133DBB28B4203D09169611808759361F5
:106660008A239B00E35CFF2B0CD020001430FFF743
:10667000C0FF092806DC8B238D229B009200E35883
:10668000A2581A602069FEF707FC00281AD02000E3
:106690001D30FF30FFF792FF002822D086239B0099
:1066A000E31899685A68914218D08E219A68490077
:1066B000A218515C9A680132D2B29A602069C9B2BC
:1066C000FEF7F3FB2069FEF7D1FB002805D0206917
:1066D000FEF7D0FB2069FEF7C0FB10BD0121494247
:1066E000ECE72069FEF7EDFBECE7000070B5040075
:1066F00000690D00FEF7D0FB00283FD1FF2686235E
:106700009B00E3185A689968013232408A4224D1CA
:10671000EFF31083DB070ED41E4B5B68DB05DA0D4D
:10672000002BECD0103A53B212060DD49B081A4A33
:10673000C0339B009B582069FEF7AEFB0028DED0DB
:106740002000FFF76CFFDAE70F221340083B134AE3
:106750009B089B009B181B68EDE75A6801321640A6
:106760009A68964205D08E215A684900A21855545D
:106770005E602069FEF7A1FB012070BD20001D3086
:10678000FF30FFF71BFF0028B8D129002069FEF772
:106790008CFBF1E700ED00E000E100E01CED00E023
:1067A0000300FC33D9699A6970B5040091421AD08C
:1067B000DA698218157DDA690132D2B2DA618A2388
:1067C0009B00E35CFF2B0CD020001430FFF711FF7F
:1067D0000A2806DD8C238D229B009200E358A258E4
:1067E0001A60280070BD01256D42E8E7FEE770479A
:1067F00010B5FEF78DF802F01FFDFFF7F8FF01203E
:10680000FDF7B4FF094C2000FFF764F82000FFF704
:10681000D9F8FBF777FCFCF7F5FBFDF7C7FF044B56
:10682000002BF8D000E000BFF5E7C046741A002046
:106830000000000010B502F02DFD10BD10B502F0F3
:1068400033FD10BD70B50E0000254468002C0BD040
:106850002368310020005B689847002802DBE46869
:106860002D18F3E701256D42280070BD70B50D00AD
:106870004468002C08D02368290020009B689847B2
:10688000002802D1E468F4E7200070BD70B50D0067
:106890004468002C08D02368290020001B68984712
:1068A000002802D1E468F4E7200070BD064A012305
:1068B000116810B50C0005481C40194203D1044969
:1068C00044600180136010BD30200020342000207F
:1068D0000204000070B50400012320CC00212A78B6
:1068E0002000134380222B70520002F002FDAB788F
:1068F000DB07FCD4AB789B07F9D46C6270BD000059
:106900001F22144B70B51B68590B9C0C9B01114046
:106910005B0F22401F2900D11A391F2A00D1023AE9
:10692000072B00D1043B1F2500688E01048D0A4906
:106930002A40214031430185018D14000A00AA43F9
:1069400022430285028D1903044B13400B43038538
:1069500070BDC046246080003FF8FFFFFF8FFFFF3F
:106960000B0010B50100180002F048FC10BD00003B
:1069700002B4714649084900095C49008E4402BCD2
:106980007047C046002243088B4274D303098B42F0
:106990005FD3030A8B4244D3030B8B4228D3030CEF
:1069A0008B420DD3FF22090212BA030C8B4202D391
:1069B0001212090265D0030B8B4219D300E0090AB9
:1069C000C30B8B4201D3CB03C01A5241830B8B42C2
:1069D00001D38B03C01A5241430B8B4201D34B03AB
:1069E000C01A5241030B8B4201D30B03C01A524110
:1069F000C30A8B4201D3CB02C01A5241830A8B4295
:106A000001D38B02C01A5241430A8B4201D34B027D
:106A1000C01A5241030A8B4201D30B02C01A5241E1
:106A2000CDD2C3098B4201D3CB01C01A5241830995
:106A30008B4201D38B01C01A524143098B4201D3CF
:106A40004B01C01A524103098B4201D30B01C01AFA
:106A50005241C3088B4201D3CB00C01A5241830874
:106A60008B4201D38B00C01A524143088B4201D3A1
:106A70004B00C01A5241411A00D201465241104601
:106A80007047FFE701B5002000F0F0F802BDC046F6
:106A90000029F7D076E7704703460B437FD40022E6
:106AA00043088B4274D303098B425FD3030A8B42A2
:106AB00044D3030B8B4228D3030C8B420DD3FF220C
:106AC000090212BA030C8B4202D31212090265D0DA
:106AD000030B8B4219D300E0090AC30B8B4201D38D
:106AE000CB03C01A5241830B8B4201D38B03C01AD4
:106AF0005241430B8B4201D34B03C01A5241030B4B
:106B00008B4201D30B03C01A5241C30A8B4201D3FB
:106B1000CB02C01A5241830A8B4201D38B02C01AA6
:106B20005241430A8B4201D34B02C01A5241030A1D
:106B30008B4201D30B02C01A5241CDD2C3098B4202
:106B400001D3CB01C01A524183098B4201D38B017F
:106B5000C01A524143098B4201D34B01C01A524122
:106B600003098B4201D30B01C01A5241C3088B4267
:106B700001D3CB00C01A524183088B4201D38B0052
:106B8000C01A524143088B4201D34B00C01A5241F4
:106B9000411A00D201465241104670475DE0CA0FCB
:106BA00000D04942031000D34042534000229C468B
:106BB00003098B422DD3030A8B4212D3FC22890195
:106BC00012BA030A8B420CD3890192118B4208D36B
:106BD000890192118B4204D389013AD0921100E0CD
:106BE0008909C3098B4201D3CB01C01A52418309E1
:106BF0008B4201D38B01C01A524143098B4201D30E
:106C00004B01C01A524103098B4201D30B01C01A38
:106C10005241C3088B4201D3CB00C01A52418308B2
:106C20008B4201D38B00C01A5241D9D243088B4208
:106C300001D34B00C01A5241411A00D201466346AB
:106C400052415B10104601D34042002B00D549420F
:106C5000704763465B1000D3404201B5002000F04E
:106C600005F802BD0029F8D016E770477047C04606
:106C70008446101C62468C46191C634600E0C046E0
:106C80001FB501F00FFB002801D40021C8421FBD31
:106C900010B501F067FA4042013010BD10B501F0A7
:106CA00001FB002801DB002010BD012010BDC04603
:106CB00010B501F0F7FA002801DD002010BD012019
:106CC00010BDC04610B501F089FA002801DC002093
:106CD00010BD012010BDC04610B501F07FFA00289C
:106CE00001DA002010BD012010BDC0468446081CFA
:106CF0006146FFE71FB500F0A3F9002801D4002189
:106D0000C8421FBD10B500F025F94042013010BD4A
:106D100010B500F095F9002801DB002010BD01201E
:106D200010BDC04610B500F08BF9002801DD002031
:106D300010BD012010BDC04610B500F033F9002889
:106D400001DC002010BD012010BDC04610B500F0D0
:106D500029F9002801DA002010BD012010BDC0462D
:106D6000002B11D1002A0FD1002900D1002802D018
:106D70000021C943081C07B4024802A14018029030
:106D800003BDC046E9FEFFFF03B4684601B50298A3
:106D900000F01EF8019B9E4602B00CBC7047C04636
:106DA0009E2110B5C905041CFFF7D0FF002803D1B0
:106DB000201C00F059FB10BD9E21201CC90500F0CD
:106DC0008FF900F051FB80231B069C466044F2E7DC
:106DD000F0B54F464646D646C0B5040082B00D0019
:106DE000914698468B422FD82CD04146484602F017
:106DF000DBF929000600200002F0D6F9331A9C4680
:106E0000203B9A4600D576E04B46524693401F0001
:106E10004B46624693401E00AF4228D825D05346C9
:106E2000A41BBD41002B00DA7BE00022002300926E
:106E300001930123524693400193012362469340FC
:106E4000009318E08242D0D90022002300920193DF
:106E50000A9B002B01D01C605D600098019902B074
:106E60001CBC90469946A246F0BDA342D7D9002249
:106E70000023009201936346002BE9D0FB0798465C
:106E8000414672080A437B0866460EE0AB4201D1D8
:106E9000A2420CD8A41A9D41012024196D41002161
:106EA000013E24184D41002E06D0AB42EED9013EE2
:106EB00024196D41002EF8D100980199534600190C
:106EC0006941002B23DB2B005246D3402A00644645
:106ED000E2401C0053461500002B2DDB26005746D0
:106EE000BE40330026006746BE403200801A9941FA
:106EF00000900191ACE7624620239B1A4A46DA4093
:106F00006146130042468A4017001F4380E76246ED
:106F100020239B1A2A0066469A402300F34013431D
:106F2000D4E76246202300219B1A0022009101929F
:106F30000122DA40019280E72023624626009B1A54
:106F4000DE402F00B0466646B74046463B0033431E
:106F5000C8E7C04670B542004E024C0045026D0ABB
:106F6000120EC30F760A240EC90FFF2A0FD0FF2C72
:106F700011D00120A24200D070BDB542FCD18B429D
:106F80000DD0002AF8D12800451EA841F4E70120C1
:106F9000002DF1D1EBE70120002EEDD1E9E7002033
:106FA000EAE7C04670B54A004E02450244006D0A49
:106FB000240EC30F760A120EC90FFF2C15D0FF2A1C
:106FC0000ED0002C15D1002A01D1002E1CD0002D8E
:106FD00014D08B4227D00220013B1840013870BDED
:106FE000002EEED002204042F9E7002DFAD1FF2A10
:106FF0000ED0002A0ED1002EEDD00BE00123013976
:10700000994308000130EAE70020002DE7D0E2E7CD
:10701000002EE7D18B42DED1944205DD0221581EBD
:1070200008400138DBE70024A24204DCB542D2D894
:107030000020B542D3D2581E012398430130CEE739
:1070400030B5420044024D02C30F4800640A120EDC
:107050006D0A000EC90FFF2A12D0FF280CD0002A9B
:1070600012D1002819D1002D17D1002C2BD00220CD
:10707000013B1840013826E0002DF0D0022022E02C
:10708000002CFBD1FF281FD000281FD1002D1DD1BF
:107090000220013B1840013815E0002C0ED08B4235
:1070A000E5D10022904204DCAC42E0D80020AC42A2
:1070B00009D2581E01239843013004E0012301390D
:1070C00099430800013030BD002DD7D18B42CED17D
:1070D0008242E7DD0221581E08400138F3E7C0462E
:1070E000F8B54746CE464400C20F80B54702480275
:1070F000400A8446664648007F0A240EF6002500B2
:107100009046FB00000EC90FB146FF2800D185E074
:1071100001267140261A914257D0002E43DD0028E7
:1071200000D07FE04946002900D1AAE0013E002EB0
:1071300000D0F7E05B1A5A0100D48BE09B019C0958
:10714000200002F013F805388440854200DDD3E0CA
:10715000451B230020200135EB40451BAC40621E3F
:1071600094412343072400251C40012241460A4044
:10717000002C04D00F211940042900D004335901F8
:1071800000D480E00135ECB2FF2D00D0A3E0FF2455
:1071900000235B02E405580AD207204310430CBCCD
:1071A00090469946F8BD002E74D1601CC0B20128EB
:1071B00000DCA7E04A469C1A620100D5B6E0002C2C
:1071C000BED1002200240023E3E7002E00DC85E08E
:1071D000002846D0FF2C49D080224846D2041043D4
:1071E000814601221B2E09DC20204C46801B844056
:1071F0004A462000F240441EA04102439B185A0117
:1072000028D50135FF2D00D1A8E00122072494499B
:107210001A405B080B4013431C40A6E7002E00D029
:1072200078E775E7FF2C54D080224946D2041143F9
:10723000894601221B2E09DC20214846891B8840F3
:107240004A460100F240481E81410A439B1A5A01F6
:1072500000D573E7012241460A40590700D089E76B
:1072600011E04846002858D1FF2C0CD1DB08002B38
:1072700000D18CE78020C00303435B025B0AFF243C
:1072800087E7FF2C25D0DB08FF2DF0D05B025B0ADF
:10729000ECB27EE7002C4DD0FF2818D08024E40407
:1072A000724223431B2A00DDC4E01C002025D44089
:1072B000AA1A93405A1E934123434A460500D31A03
:1072C000884638E7721CF8D0F243FF28EAD10A005A
:1072D0004B46FF25D7E79B015B0A5AE7002E41D1B9
:1072E000651CE9B2012945DDFF2D00D14FE70724D8
:1072F0004B445B081C4038E707225A4B2D1A2340A9
:10730000144032E7002C1DD1002B7AD14B46002BC4
:1073100000D191E00A000025B5E7013E002E19D109
:107320004B446CE7FF2C84D1FF25ACE74A468846E6
:10733000D41A05E7002BC5D10A00FF28C8D00500E4
:107340004B46A0E7002B49D14B46002B77D00A00D3
:10735000FF2598E7FF2C00D043E787E70A00FF24CA
:10736000002316E7002C15D1002B57D1FF28E6D1BA
:107370004B467BE7002C20D1002B57D049460029F3
:1073800053D04B445A0168D50724364A1C40012586
:107390001340EAE6FF28EBD08022D2047642134362
:1073A0001B2E53DC2025AD1B1A00AB40F2405C1EA7
:1073B000A34113434B44050021E7002BD8D0494695
:1073C000002900D152E78021C9030F4200D14DE7C7
:1073D0006046084200D049E74B4647E74846FF254C
:1073E000002800D14FE78022D203174204D0604624
:1073F000104201D14B46884601224146FF250A40F2
:1074000041E7484600281FD01A1A500120D54A46A5
:107410000724D31A1C4088460025A6E6741CC9D050
:10742000F643FF28BCD14B4620E799464B46002542
:10743000DB082BE7012340E700220023A9E6802395
:107440000022DB03FF24A4E600251CE70123B1E7AB
:10745000002AF1D013000025FCE60025FAE6C0461C
:10746000FFFFFF7DFFFFFFFB41024200C30F490A00
:10747000120E00207E2A0DD99D2A0CD880200004EF
:107480000143952A0ADC9620821AD1404842002BFB
:1074900000D108007047034A9818FBE7963A9140DC
:1074A000F4E7C046FFFFFF7F70B5041E34D001F043
:1074B0005DFE9E22121A962A07DCD2B208282EDD23
:1074C000083884406002400A21E0992A09DD03005F
:1074D00021001B3399404B1E994105231B1ADC40A8
:1074E0000C43052801DD431F9C4023000D490B4040
:1074F000650709D00F252C40042C05D004335C010E
:1075000002D59F220B40121A9B01580AD2B24002A8
:10751000D205400A104370BD00220020F7E7600248
:10752000400AF4E7FFFFFFFBF0B54F464646D6465C
:107530000C000903C0B5490A470F5E0039431F0319
:10754000DB0F9C4665007B0A570F1F436D0DE40F50
:10755000760DA146C000B846D200AB1B64457BD077
:10756000002B5FDD002E00D0A4E03E00164300D1CA
:1075700012E15E1E002E00D09EE1871A4346B842FB
:1075800080410125C91A4042091A0B0200D431E199
:1075900049024E0A002E00D16EE1300001F0E6FDF6
:1075A0000300083B1F2B00DD61E120223900D21AC5
:1075B0009E40D1409F400E439D4200DD51E15D1B46
:1075C0006B1C1F2B00DD7CE12021C91A3D0030001F
:1075D0008F408840DD40791E8F41310007222843CB
:1075E000D940002507433A40002A09D00F233B40E9
:1075F000042B05D03B1DBB42BF417F42C9191F0070
:107600000B0200D426E26A1CC64B55056D0D9A424A
:1076100000D106E1C44AFF080A40530752023B4327
:10762000120B8EE0002B00D0B8E06B1C5B055B0DED
:10763000012B00DC30E1871A4346B842B641CB1A31
:1076400076429E1B330200D54CE13B003343A1D16F
:1076500000220024002570E0002B00DCE5E0002E75
:1076600000D183E0AF4EB54260D080263604374368
:10767000B846382B00DC3EE1434613431F007A1E18
:1076800097413F1887428041404209180B0200D4BD
:10769000B0E0A44B01359D4200D1C3E0A24A7B0873
:1076A0000A4001210F401F435108D30707221F43FF
:1076B0003A4099E79B4EB54238D08026360437438E
:1076C000B846382B00DDDCE01F2B00DC30E11E006B
:1076D0004746203EF740BC46202B04D04026F31AF4
:1076E00046469E403243170063467A1E97411F4329
:1076F000CCE0002B00D104E24346134300D159E112
:107700004B07C00818438023C9081B03194208D03F
:107710004546ED081D4204D14346D00859070843A9
:107720002900420FC9007F4D1143C0004B07CA0812
:107730007C49C00803438D4268D012036D05120BCB
:107740006D0D002112031800130B0A0D12051A43C8
:10775000764B2D0513402B435B00E4075B08234366
:1077600019001CBC90469946A246F0BD3E00164347
:1077700012D05E1E002E00D000E1871887428041A3
:1077800041444042091801250B0233D5022585E703
:1077900064463300414610001D00C7E7002D00D0AD
:1077A000DAE00C000443F3D05C1C00D19FE15D4C97
:1077B000A64200D12FE1DB43382B00DD66E11F2B11
:1077C00000DD83E120240500E41A0F00DD40D940EC
:1077D000A0404346A7405B1A441EA04198462F4351
:1077E0003843171ABA42924143465242991A6446A4
:1077F0003500CAE607223A40002A00D0F6E64B07D9
:10780000CA084849FF083B438D4296D119001143ED
:1078100000D19EE1802109030A431203120B414D5E
:107820008FE71500002200238BE7002B00D0C7E074
:107830006B1C5F057F0D012F00DCF1E0394DAB4281
:1078400000D1B9E085180A00854289414244494285
:1078500051180722CF076D082F4349083A401D00F1
:10786000C2E607223049ED1A31403A40BCE63E00FC
:107870002838864000279FE6380001F077FC20304A
:107880008EE6434613431F007A1E9741C71BB8423A
:1078900080414042091A78E60E003B00064313433C
:1078A000002D61D1002E00D0F4E0002B00D11BE1AF
:1078B00064463900100039E71A4FBB427AD03300D2
:1078C000FFE630001F3DE840202B03D04021CB1ABB
:1078D0009E4037437B1E9F41072207433A400021C9
:1078E000002589E7171A4346BA42B641591A76422B
:1078F0008E1B64464EE61F2B00DDADE0202647467A
:10790000F61AB740B9461700B246DF404E463E432E
:1079100037005646B240561EB24117434246DA403F
:107920008918AEE6FF070000FFFF7FFFFFFF0F8013
:1079300020264746F61AB740B9461700B246DF4040
:107940004E463E4337005646B240561EB24117439C
:107950004246DA40891A99E77F4CA6425BD08024E0
:1079600024045B42214327E7002E0CD1002B00D1D9
:10797000CBE0644639001000774DD7E6764FBB4226
:1079800018D0330075E6002B14D04B07C0081843FD
:107990008023C9081B03194207D0FC081C4204D1EC
:1079A0007907D0080843E14621004C46420FC90040
:1079B0001143C000684DB9E61D0000220023C0E657
:1079C000002D5BD10D00054300D1E2E65D1C00D126
:1079D000B0E0614DAE421FD0DB43382B71DC1F2B72
:1079E00000DD96E020250F00ED1AAF40B9460700F4
:1079F000AA46DF404D463D432F005546A840D9409A
:107A0000451EA84188440743BF18974292415142FE
:107A1000414435003AE6644635004146100085E6AB
:107A20000B000343002D00D063E6002BF5D0434646
:107A3000134300D17AE687188742804107224144E8
:107A4000404209183A400B0200D4D5E6434B0135B9
:107A50001940C9E5380069E61E004746203EF74058
:107A6000BC46202B04D04026F31A46469E403243A3
:107A7000170063467A1E97411F4302E6364DAE4219
:107A8000CAD080252D045B422943A6E70843411E46
:107A90008841A6E6002B00D148E6871A4346B84243
:107AA000B641CB1A76429E1B33024BD5171A43467A
:107AB000BA429241591A5242891A072264463A4000
:107AC00092E501430F00791E8F419DE71C000F00D6
:107AD000203CE740202B03D04024E31A9940084380
