:1020000000800020D9310000A1310000C131000062
:1020100000000000000000000000000000000000C0
:10202000000000000000000000000000C1310000BE
:102030000000000000000000C13100002D3200004F
:10204000C1310000C1310000C1310000C1310000C8
:1020500065310000C1310000D1250000C53100000C
:10206000C1310000B1300000C1310000C1310000B9
:10207000C1310000C1310000C1300000C131000099
:10208000C1310000C1310000252D0000652E000087
:1020900000000000C1310000C1310000C13100006A
:1020A000C1310000C1310000C1310000C131000068
:1020B0000000000010B5064C2378002B07D1054B1B
:1020C000002B02D0044800E000BF0123237010BDA4
:1020D0007002002000000000B4A70000044B10B5FF
:1020E000002B03D00349044800E000BF10BDC046E8
:1020F0000000000074020020B4A700007047000038
:10210000F8B50127144E050033680C003B4203D19B
:10211000124800F0B1FE37600127114E33683B4290
:1021200003D1104800F0A8FE3760002C0BD06920C6
:10213000012C10D10B4E0D21300000F067FF200064
:102140002C706E6007E0054E0C21300000F05EFF41
:1021500001202C706E60F8BD8C02002094020020DB
:10216000900200209702002010B5406800F07EFF2A
:1021700010BD30B585B000216846FFF7C1FF0121D1
:1021800002A8FFF7BDFF0F255A2421006846FFF77C
:10219000EBFF210002A8FFF7E7FF0134280001F060
:1021A00083F8B52CF1D1013C21006846FFF7DCFF34
:1021B000210002A8FFF7D8FF013C280001F074F8C5
:1021C000592CF1D1E0E700000378034A9B009B58AB
:1021D000002249331A707047F0020020F0B5040065
:1021E00085B01E000AAB1B78103001930BAB1B7837
:1021F000170002930CAB1B780D00039300F0B4F9A9
:102200002000243000F0B0F9220000234832A363FC
:10221000E363236463641370537063729D4205D15A
:102220000A4B0B4A22210B4804F0D8FF6B461B795E
:10223000200063716B461B7A2560E3716B461B7B44
:102240002771A671237205B0F0BDC046C89D00007D
:10225000489E0000D99D000030B5040085B002AD55
:1022600000680291039201F07DFB6B79227AE1799B
:1022700000932068002301F059FC2979029A206814
:1022800001F094FB206801F063FB05B030BD10B590
:102290000400006801F04FFB0023637210BD0000D2
:1022A00007B5837A00910192002B07D09A070AD5CF
:1022B000EFF310835A425341C37272B60099019AE8
:1022C000FFF7CAFF07BDDB07F8D5C368014A9BB219
:1022D0009360F3E700180040837A002B05D09A073B
:1022E00004D5C37A002B00D062B67047DB07FCD55B
:1022F000C368024A9BB2D360F7E7C04600180040AB
:1023000010B5006801F037FB10BD70477047000042
:1023100010B5006801F05EFB0023984203DB0C332C
:102320005843024BC358180010BDC046809D0000A2
:1023300010B5006801F04EFB002805DB0C23434379
:102340000348C018406810BD01204042FBE7C0466A
:10235000809D000010B5006801F03CFB002805DB03
:102360000C2343430348C018806810BD012040423D
:10237000FBE7C046809D0000F0B50600103689B02E
:102380000500300000F048F9002869D12F002437FB
:10239000380000F041F9041E5FD12800FFF7DAFF92
:1023A000C1B2300000F01AFA0221300000F03AFA0F
:1023B0002C490122300000F00DFA2B7C2A4A9B00A8
:1023C00028009D50FFF7B4FFC1B2380000F006FAB4
:1023D0000221380000F026FA6B1DDB7F224A9B00A9
:1023E00028009D50FFF794FF012301002200029373
:1023F00004942300039401940094300000F036FA12
:10240000A8632800FFF784FF012302000193210045
:1024100023000494039402940094380000F026FAF8
:10242000E863402004F036FF2A004832286407920F
:1024300000280BD00123137068646B6C10221819EC
:10244000E96B103404F03AFF402CF6D1079B1B785F
:10245000002B05D1380000F079F9300000F076F952
:1024600009B0F0BDC9210000F002002070B5437A28
:102470000400002B04D18372C372C3600133437222
:10248000230048331B78002B02D12000FFF774FF94
:1024900018263300082120790D4D4343EB18595677
:1024A00001F000F933000821A0794343EB18595695
:1024B00001F0F8F8082160794643AD19695601F03A
:1024C000F1F8044B200006CBFFF7C6FE70BDC046F6
:1024D000149F0000E80200201FB5094A094B0A4971
:1024E0001360002353711371029301330193163368
:1024F0000093162201330548FFF770FE05B000BDBA
:10250000E802002000093D00DC0900209C020020B8
:10251000084B1968002909D1EFF31080064A0028FA
:1025200003D172B6BFF35F8F013111701A680132A7
:102530001A607047A8040020A4040020084B1A6801
:10254000002A0CD01A68013A1A601B68002B06D1C9
:10255000044B1B78002B02D0BFF35F8F62B670472D
:10256000A8040020A4040020FF23002110B50400CB
:102570000370FC3B41708170C170017143710C228A
:10258000083004F0A4FE200010BD000001220B0062
:1025900010B5134008D00D4B1A70042343708368A4
:1025A000002B00D0984710BD0222114204D00749E9
:1025B0000A704370C368F3E704231942F3D0034A57
:1025C0001370033343700369EAE7C0464E48004185
:1025D00010B5FFF79DFF0C4B1B8C1B071B0F0B2B24
:1025E0000FD80A4A9900885800280AD00F240849B1
:1025F0000A78A24313430B70064B1978C9B2FFF750
:10260000C5FFFFF79BFF10BD00480041AC04002050
:102610003F4800414E480041F8B5002302780500CC
:1026200018000B2A77D93C4E2B702B780B2B07D830
:1026300001229A403168114204D001332B70F4E733
:10264000012068E0FFF764FF3768344C002F2BD17E
:102650002022334B334859690A435A611022D96901
:102660000A43DA61022223883900934323802388B6
:10267000013A134323802C4B6063BF32A36304F001
:1026800026FEC0223900284804F021FE4022C12045
:10269000264B80002380264B26491A601A58114089
:1026A000C02212040A431A5001231A002978306804
:1026B0008A40024332600F261F4A880085501F4817
:1026C00031400278B2430A43027002201C4A11785A
:1026D00081431170117819431170297822698B4058
:1026E0009A43226160223F21636C934363642A7999
:1026F000636C0A40134912020B40032113436364C5
:102700006A79636C0A40104992050B401343636475
:10271000FFF714FF0020F8BDA0040020004800418E
:1027200000040040E003002020030020020F00000E
:1027300000E100E0FFFF00FFAC0400203F48004143
:1027400040480041FFC0FFFFFFFF3FFF70B505009D
:10275000FFF7DEFE6B785BB21C00062B2BD02B78CC
:1027600002240B2B27D801229A40154B19681142DD
:1027700021D01968914319601B68002B14D14022A5
:10278000104BDA67BFF34F8FBFF36F8F21000E4AF4
:102790000E311388A34313800C4BDA698A43DA6144
:1027A0005A6910318A435A6100242B78084A9B00E9
:1027B0009C50FF232B70FFF7C1FE200070BDC04668
:1027C000A004002004E100E00048004100040040B3
:1027D000AC040020023292001150704770B5050021
:1027E000297103780C000B2B14D8FFF791FE297880
:1027F0000F25094829400378084AAB430B433F2182
:102800000370536C0C40064924020B401C43546473
:10281000FFF794FE70BDC0463F48004100480041AC
:10282000FFC0FFFF70B50500697103780C000B2B2A
:1028300014D8FFF76DFE29780F2509482940037841
:10284000084AAB430B4303210370536C0C40064909
:10285000A4050B401C435464FFF770FE70BDC046D6
:102860003F48004100480041FFFF3FFFF0B587B0FF
:1028700001930CAB1E780DAB1B78050002930EABD9
:102880001B780078039310AB049105921F780B28F6
:1028900002D9002007B0F0BD6B78062BF9D0AB78D9
:1028A000002B00D178E01021080004F0E9FC00289A
:1028B000EFD02B783A4A1B019B181A00D1680029E7
:1028C00004D0D1688B4201D0D268F7E7D0600123F1
:1028D0000221AB709E4203D04918022E00D019008D
:1028E000062402881A4302800288A24302800288DA
:1028F0001234A2430280153C02882640294C36023D
:10290000224016430680029E0288274C1E40224029
:10291000B60216430680039E0288244C1E402240C5
:10292000F602164306800288214E3B4032401B03CC
:102930001343072203800F9B1A4003885203DB04D2
:10294000DB0C134303806B469B884380049B4360EE
:10295000029B002B08D0019B42684B43002F01D003
:102960000F9CA340D3184360059B8360039B002BFF
:1029700008D0019C4C438168002F01D10F9B9C40E3
:102980000C1984600023EA789A4203D02B78044A19
:102990001B019B18C3607DE7014B0001C01896E73F
:1029A000E0030020FFFCFFFFFFFBFFFFFFF7FFFF3F
:1029B000FFEFFFFF704770477047704770474171E6
:1029C00070478171704701717047000010B5034C6A
:1029D0000171083404604271837110BD9C9E000037
:1029E0007047000010B50248FFF78AFC10BDC046D2
:1029F0009C02002010B50248FFF787FC10BDC046BE
:102A00009C02002010B50248FFF780FC10BDC046B4
:102A10009C02002010B50279042A13D0032A13D097
:102A2000022A13D0013A53425A41154B52421A40DE
:102A3000D21843798179013B002909D15C42634175
:102A4000DBB20FE00F4AF4E70F4AF2E70F4AF0E774
:102A50000129F3D00229F1D00329EFD059424B418B
:102A60000021DBB2140A02724472140C120E84723A
:102A7000C272017343730648FFF7F8FC10BDC046ED
:102A800040420F000024F40000127A0000093D00CB
:102A90009C02002010B50248FFF7F9FB10BDC046AC
:102AA0009C02002010B58168C2680248FFF7F8FB5D
:102AB00010BDC0469C02002010B50248FFF70CFC78
:102AC00010BDC0469C02002010B50400FFF77EFF39
:102AD000044B200008332360034BA360002363737F
:102AE000237310BDD09E000000093D00002310B5E7
:102AF0001A0019000148FFF7E7FF10BDDC040020B1
:102B000010B5C31C0400D87F00F0B4FD431E9841EB
:102B10000634E37F584010BD10B50430C07F00F08C
:102B20007DFD10BD10B5C31DDB7F05305940C07F52
:102B300000F074FD10BD10B503790400022B08D01D
:102B40000021FFF7EFFF00212000FFF7E5FF022340
:102B5000237110BD082388101840030010B5064AE1
:102B60000833984205D0145C8C4203D00130C0B2C7
:102B7000F7E7002010BDC046049F0000F8B5040030
:102B8000FFF7BEFF002805D022002A321378013358
:102B9000DBB213702100230029310A782B338242E3
:102BA00052D01A780B254F2A00D912351A785219AB
:102BB000D2B21A7008701A789F2A44D92100E28D87
:102BC0002A315208E2850A78042A04D98022E08D4D
:102BD00012010243E2851A7825006032D2B21A70DF
:102BE00000232C350B702B78DBB2002B49D026004C
:102BF000303633780133DBB233700B2B23D93F23CC
:102C0000E18D20001940FFF7A5FFE18D070089093C
:102C1000C9B22000FFF79EFF2100220075313F015D
:102C20000B783843C0B27432002B12D11070137875
:102C3000062B02D91378432B0BD900232B70638A00
:102C400001339BB26382F8BD1A781432D2B21A7083
:102C5000B1E70B78DBB25F1CE3183133FFB20F70C2
:102C6000187009781378994208D300232B70230039
:102C700001220833DA772000FFF75DFF002333706D
:102C8000E1E7E18D054A9142DDD101222A7022005F
:102C90007534303213702370D5E7C046380B00000E
:102CA000F7B5050078352F7804007B1C2B70002FBA
:102CB0000ED10300020076330193FF321B78127AA3
:102CC0009A420BD8FFF737FFE38A01339BB2E382C6
:102CD0002B78072B01D900232B70F7BD0600C318F2
:102CE00077367933197833785A1C194101233270B9
:102CF0001940FFF711FF3378052BE9D9019B377095
:102D00001B78019A01331370E2E7037910B5042BA5
:102D100002D1FFF733FF10BD0379032BFBD1FFF77F
:102D2000BFFFF8E7102310B5044A917B0B43937360
:102D3000034B1868FFF7E9FF10BDC046002C0042A6
:102D4000EC040020F7B50C27404E0193335C0400DF
:102D50005BB20D0000924743002B2EDA00230B825A
:102D6000EB7BDB09FCD1335D394A01335BB2335570
:102D7000335D12785BB2DB19934203DA335D5BB2E9
:102D80000B2B34DD2F8ABFB2EB7BDB09FCD1314B3F
:102D90003149186802F038FA304B04375843009B29
:102DA00000090C3387424DD280B25B005853EB7B55
:102DB000DB09FCD1FF33335540E0335C244A5BB27E
:102DC0001278DB199342CEDA335C254A5BB2DB1909
:102DD000DB009B5C5B06C6D5335C00215BB2DB1974
:102DE000DB00985C8006800E00F018FCBBE7335DCA
:102DF0001B4A5BB2DB19DB009B5C5B0609D5335DCC
:102E000001215BB2DB19DB00985C8006800E00F0CC
:102E100005FC2A8A92B2EB7BDB09FCD1335D5BB205
:102E2000DF190F4BFF00DF197B68D318009A9BB2A4
:102E30000C3252005353EB7BDB09FCD16B461B7900
:102E4000AB73F7BDBFB25B005F53B0E7F104002086
:102E5000F00400200000002040420F00204E00003F
:102E6000F4040020002210B5102302491000FFF7DF
:102E700069FF10BD0030004270B50C4B05001C7896
:102E80000B2C10D8621C1A70094B04701868094981
:102E900002F0BAF9084BE4005843084B00091C192A
:102EA0006060280070BDFF230370FAE7F004002083
:102EB0000000002040420F00DC050000F404002068
:102EC000F7B50193037804000E0017000B2B00D90F
:102ED0008AE03000012100F071FB3F2132002078B0
:102EE000424DC3005E5D0A408E4316435E55882303
:102EF000032296219B00DB1BDF171740FF18019B65
:102F00000901C91ACB1713405B189B10BF10A3709F
:102F100067700C2102F078F90C23C0B243431A0009
:102F20000C32D900695C490658D401339342F8D178
:102F3000002853D12E4B2F4A5A805A78D209FCD1FF
:102F40002D4E0232338893433380F37BDB09FCD16F
:102F500001333380F37BDB09FCD13388DB07FCD4FE
:102F600033889BB2338040233288134333808023DD
:102F70003288DB00134333800123327913433371EA
:102F8000F37BDB09FCD11D4B1D49186802F03CF9AD
:102F90000300FA2080005843000980B23083F37B9D
:102FA000DB09FCD18021174B0903174AD967BFF30E
:102FB0004F8FBFF36F8FC023C4205B00D1508000C0
:102FC00013581B021B0A13501023116073733288AD
:102FD0000E3B13433380F37BDB09FCD14022237883
:102FE000DB00E95C0A43EA542078FEBDF4040020CB
:102FF000000C00401C400000003000420000002097
:1030000040420F0004E100E000E100E09623882246
:1030100010B51B019200FFF753FF10BD70B5057886
:103020000B2D1BD801238824C356E41AA4008C421C
:1030300008DC96248078A40040B2241AA4008C42B4
:1030400000DD0C00064B0749186802F0DDF8053C6E
:103050006043054BED0000095D19686070BDC04616
:103060000000002040420F00F40400200F4B13B575
:103070000400994216DCB420B42902DCC843C0170E
:10308000084001228823A25602219B1A96226156EB
:103090009200521A9200009200219B00B42201F08B
:1030A000E3FF01002000FFF7B9FF13BD1F0200007E
:1030B00010B5024801F0F1FE10BDC04654050020D5
:1030C00010B5024801F0E9FE10BDC046900700208F
:1030D000F7B501240326154F1549380000F0A2FB6F
:1030E0001449154800F09EFB1449154800F09AFB5E
:1030F0001449154800F096FB1449154800F092FB5E
:10310000144D1549280000F08DFB3900230000966E
:1031100000220194114801F055FE290000961E235B
:103120001F2201940E4801F04DFEF7BDCC0900208E
:1031300000080042000C0042D009002000100042AC
:10314000D409002000140042D809002000180042D1
:10315000DC090020E0090020001C0042540500208A
:1031600090070020F8B50024094B1B68A34200D843
:10317000F8BD084E084FA5003369EA591A4204D039
:10318000064BEB589847EB5933610134ECE7C046E6
:103190006C0A002000180040280A0020E4090020E2
:1031A000054B10B51B6C002B00D098470123034A38
:1031B000D1780B43D37010BDE40900200018004003
:1031C000FEE70000034B10B51B68002B00D09847AA
:1031D00010BDC046700A002070B50F490F4CA142C7
:1031E00004D100F087F801F04DFFFEE70C4D0023FD
:1031F0008D42F6D0CA18E818A24205D3094B824284
:10320000EFD00949002204E0006804331060F1E7C0
:1032100004C38B42FCD3E4E70000002070020020CE
:10322000B8A70000700200207810002010B500F050
:103230005EF8002801D100F04FF810BD014B186076
:103240007047C046700A0020F7B513480122844633
:103250001249134C8E68636805689B0E13400192F7
:1032600088686268019F920E3A4067463F689342C1
:103270000ED1BD420CD186420AD35B19FA254868AB
:10328000AD00861B07486B437043000DC018FEBDA0
:103290003D0013000600E3E7740A002010E000E0A0
:1032A00000ED00E05555000070B5041E10D0FFF78A
:1032B000CBFF050000F01AF8FFF7C6FF054B401BD7
:1032C0009842F7D9FA23013C9B00ED18002CF3D16A
:1032D00070BDC046E703000010B5034A1368013310
:1032E000136000F063FA10BD740A002070470020DC
:1032F000704700001E2270B5464847494368934313
:103300001C3A1343436008238C6923438B61434C6D
:10331000434B9C829C8A14439C82DC681442FCD000
:103320000124404A14701578254203D055786DB2B7
:10333000002DF8DB01249460547864B2002CFBDB90
:10334000394C5460547864B2002CFBDB8224E401D5
:103350005480547864B2002CFBDB02249C840E342D
:10336000DD682542FCD0314CDC621024DD6825424A
:10337000FCD09D8C2E4C2C439C841024DD6825426F
:10338000FCD002249D8C80262C439C844024DD6844
:103390003542FCD0DD682542F9D01024DD68254295
:1033A000FCD000249460547864B2002CFBDB214CE8
:1033B0005460547864B2002CFBDB1C6A1E4D2C4018
:1033C00080251C621C6AAC431C62032393601B4B68
:1033D000536053785BB2002BFBDB0023FF240B729E
:1033E000174A4B728B72CB72164B1A60164B174AE8
:1033F0001B6811689A065B01C90E2340520F120226
:103400000B431343124A13858023426813434360DE
:1034100070BDC04600400041000400400C060000A2
:1034200000080040000C004001050100B905FF7DC7
:10343000040A000000070300FFFCFFFF0306010071
:10344000006CDC020000002024608000206080000E
:1034500000400042FA212D4B10B51868890001F098
:10346000D3FE2B4B013898424FD82A492A4A48604C
:10347000C020136A00061B021B0A034313620023C9
:103480008B6007330B608021136A09061B021B0A3D
:103490000B431362FC22214B196A0A431A62FF2272
:1034A000196A12020A431A62A022196AD2020A4356
:1034B0001A621B4B1C005A7852B2002AFBDB194AD5
:1034C0005A80194B1A00597EC9090129FBD0C8211D
:1034D000890099800521D970537EDB09012BFBD02F
:1034E000C02300205B011361907000F023F8637823
:1034F0005BB2002BFBDB0D4B0D4A6380D379DB09FC
:10350000012BFBD04123537010BDFEE700000020CB
:10351000FFFFFF0010E000E000ED00E000040040CD
:10352000000C00401E40000000400042214000000E
:10353000004800421F4900B50B004A7ED209012A0B
:10354000FBD001380A282FD801F054FE1B2E2E2E56
:103550002E2E062E2E2411001A6917490A400F211B
:103560001A615A788A43110001220A4310E01A694D
:1035700011490A400F211A615A788A431100032227
:10358000F3E71A690C490A400F211A615A788A43F5
:103590005A7000BD1A6908490A400F211A615A7809
:1035A0008A4311000222E0E7F022196912050A435A
:1035B000F3E7C04600400042FFFFFFF0182310B5BC
:1035C00008244343134AD0180457013412D001246D
:1035D0009A5643689C4003290CD808000E49D20132
:1035E0005218D318403301F005FE0210060B0221D9
:1035F0001970546010BD0621197054609461F9E788
:103600000621197054605461F4E702211970946026
:10361000F0E7C046149F0000004400411823F0B5B5
:1036200008245843114A13181C5701341BD0012693
:1036300035005F688356BD400D4ADB019A189068DB
:1036400005420BD10C00601E8441D2194032107823
:1036500034400336A400B04320431070044A9B1842
:10366000002901D15D61F0BD9D61FCE7149F000060
:1036700000440041182310B50824434307490020A3
:10368000CA181457013408D05B560549DB015B1892
:10369000186A5368D8400123184010BD149F0000D9
:1036A000004400411822424370B52D4E0300B21869
:1036B000127A52B2140001320ED0481C00240C2899
:1036C0000AD801F097FD071F1F1F1F1F1F1F1F0B89
:1036D0000B0B0B0001246442200070BD092905D1A9
:1036E00000211800FFF76AFF0024F5E70A2901D13D
:1036F0000839F6E700240B29EED10A391800FFF744
:103700005DFFE9E7182201205343F218F35655688C
:10371000144ADB016C089B18C9B228401C19002808
:103720000ED00F203034227809010240114341228B
:10373000C9B25B192170403319780A431A70D3E774
:1037400022000F26303214785B19B44321431170E4
:1037500041224033197804000A431A70BCE7C0467E
:10376000149F000000440041F7B506000D000C0056
:103770008B180193019B671B9C4207D0336821780B
:103780001B683000984701340028F3D13800FEBD93
:10379000014B18607047C046040000200122024B14
:1037A00052421A607047C04604000020164A10B505
:1037B0001368591C26D0013B1360002B22D172B62E
:1037C000124B134A0433934213D9124A01211000B9
:1037D000147D0C42FCD02021148BFF319B085B0030
:1037E00021431183D3610C4B13800123027D1A42C4
:1037F000FCD0BFF34F8F094B094ADA60BFF34F8FFC
:10380000C046FDE710BDC0460400002000200000B7
:10381000030200000040004102A5FFFF00ED00E0B0
:103820000400FA05016070479446F0B59E1E721EB2
:1038300096416246056892072F6836063A4332433E
:103840002A60072505AC24780068A401294021439B
:1038500042680024022B00D05C03114321434160E5
:10386000F0BD30B5C0250368AD031C6812052A40C1
:103870002243C0240904A4022140114319600368B3
:103880005A6814435C6030BD0123026811680B4321
:10389000136003681A68D207FCD4DA69D207F9D436
:1038A00070470223026811680B4313600268D369F2
:1038B0009B07FCD4704703681A7ED20702D41A7E95
:1038C0009207FCD57047002203685A83704703684B
:1038D000187E4007C00F70470368187EC009704704
:1038E000802302685B42117E0B43137670470368A6
:1038F000588B8007C00F704702230268518B0B431F
:10390000538370470368187EC007C00F7047036871
:10391000188DC0B2704703681A7ED207FCD589B2F1
:10392000012019857047012203689A7570470122AA
:1039300003681A7570470123026811680B4313600E
:1039400003681A68D207FCD4DA69D207F9D4704741
:103950000223026811680B4313600268D3699B0756
:10396000FCD470470368DA699207FCD402211A6814
:103970008A431A6070470268936A5B0A5B021943C4
:10398000916203681A7E5207FCD5986AC0B27047EC
:1039900010B54900044801F037FC80B2002801D07E
:1039A000013880B2C0B210BD006CDC0270B54B08AB
:1039B0000C00012105680B400C402E6824075B07B2
:1039C000234333432B6011000468FFF7E1FF2073AA
:1039D00070BD00000368104A934213D00F4A93420F
:1039E00012D00F4A934211D00E4A934210D00E4A81
:1039F00093420FD001200D4A4042934201D106303C
:103A000040B270470020FBE70120F9E70220F7E70A
:103A10000320F5E70420F3E700080042000C004211
:103A2000001000420014004200180042001C004236
:103A3000F8B5FFF7CFFF00282CDBC3001C48FF229E
:103A4000C01805230479C35603201840C0008240E3
:103A5000C021D2438140002B1DDB1F2501201D40CA
:103A6000C026A840134D7600A851C0269B089B0095
:103A70005B19B6009F593A401143995128603F2382
:103A800023408024E4011C430B4B5C805A7852B2E3
:103A9000002AFBDBF8BD0F200340083B07489B08CA
:103AA0009B001B18D86902401143D961E7E7C04663
:103AB00064A3000000E100E0000C004000ED00E025
:103AC000F8B504000F0016001D00FFF7B1FF20003D
:103AD000FFF7DAFE1C21BB000B4071072268090CBE
:103AE0000B431360842322689375012F1AD1102190
:103AF000012E00D008390C4B69431868C00001F052
:103B000083FB0722216802408B895203DB04DB0C14
:103B100013438B81226803049089DB0C400B400324
:103B200018439081F8BDC04600000020F7B505009D
:103B3000019308AB1F780E001400FFF7FCFE28006D
:103B4000FFF776FFC022240592031440BA070C2722
:103B500017433C43C02707223604BF022B683E4070
:103B600026431E60019B296813401A0080239B0294
:103B700013434B602A68D3695B07FCD4F7BD3F2031
:103B8000704713B56B460268D97107335468190042
:103B90000122A04716BD10B50221006900F038FCD3
:103BA00010BD10B50321006900F048FC10BD0000F5
:103BB00010B51300084A0400D279002A03D101236A
:103BC0000020636010BD0A000069032100F02EFD93
:103BD0000028F4D0F6E7C0460C00002010B5054CD4
:103BE00023685A1C04D103685B699847030020606E
:103BF000180010BD58000020074B0200186810B5CF
:103C0000411C03D0012252421A6010BD02211069EA
:103C100000F0FEFCF9E7C0465800002010B503781C
:103C20004222023303700249024800F0ABFD10BD8E
:103C300014000020940A002010B501780200437897
:103C40000020A12908D1212B05D1072216491748A8
:103C500000F098FD012010BD2129FCD1202B13D1AB
:103C600007221149114800F02DFC96220E4BD2007C
:103C7000196891420ED10124D87904400AD1FA2062
:103C8000FFF786FD0020E6E7222B06D19278064B4F
:103C9000DA71EAE7FFF782FDF4E7232BDBD15288E4
:103CA000034B1A60D7E7C0460C000020940A00209E
:103CB00008000020FA220021054B92009A60054A74
:103CC000596008321A60044A19761A617047C04672
:103CD000780A002094A30000940A0020704770B571
:103CE0000F26CB1D013902003240D5B22C0000094D
:103CF0003034092A00DD07341C70013B8B42F2D1BD
:103D000070BD10B50400806903F0CEFAA06A03F01C
:103D1000CBFA200010BD10B50400FFF7F2FF200021
:103D200001F0D6F9200010BD70B5032908D1324B3F
:103D30008000C058002802D00368DB68984770BD37
:103D400082291FD1C3B22D4D5A01AA1891692C4C5A
:103D500080010C40C0218905214391612949083324
:103D60004018802150612A685B01D01804794942CB
:103D7000214301717020995C814308003021014387
:103D80009954DCE70029DAD1C024C1B21B4E4A01A4
:103D9000B21893681A4DA4052B40234393601A4B25
:103DA0008001C0180B0050603068072608335B01A3
:103DB000195CB1430E0001213143195491690D4042
:103DC0002C43946170240F495161195CA1430C008C
:103DD00010212143195491680C4CC3180C408021C8
:103DE0004903214391609168890B890391604022C6
:103DF00059790A435A71A2E7980A00204C0F002013
:103E0000FFFFFF8FC00A0020800C0020FF3F00F062
:103E1000EFF3108303600123436072B670470368B9
:103E2000002B02D162B6BFF36F8F704737B50569BB
:103E300004006846002D14D1FFF7EAFF019B621DC4
:103E4000013B02D3D57FEDB2FAE768460193FFF755
:103E5000E6FF002D01D100203EBD206AE369C01AB3
:103E6000FAE7FFF7D5FF22000025019B3432013B22
:103E700002D31578EDB2FAE768460193FFF7CFFF5A
:103E8000002DE8D0206BE36AE9E70000FF2130B5A0
:103E90004368164D1A6883680B405B01D2180123F2
:103EA0005218947A23439372836842680B405B01F3
:103EB000D418C268A36892042B4012091343A3606C
:103EC000836842680B405B01D3189A68920B920397
:103ED0009A6043681A6883680B4008335B01D31803
:103EE000402219790A431A7130BDC046FF3F00F0E5
:103EF000F7B5036904000E0017006846002B45D192
:103F0000FFF786FF019B611D013B5A1C0CD0CD7F42
:103F10005A1EEDB2002D05D168460193FFF77FFFD1
:103F20002800FEBD1300F0E7684601930025FFF767
:103F300076FFE369AF420AD0226A9A4207D95A1C37
:103F4000E261A269D3181B7873550135F1E7226A43
:103F50009A42E5D10023E361013323616846FFF70C
:103F600057FF22000021019B671D013B3532581C81
:103F7000D2D0F97710785E1E002805D0117020008D
:103F80000193FFF783FFECE73300F0E7FFF740FF13
:103F90002100019B3431013B5A1C06D00D785A1E7A
:103FA000EDB2002DB8D01300F6E768460193002566
:103FB000FFF735FFE36ABD4202D0226B9A421CD85C
:103FC000226B9A42ACD100236846E3622361FFF77B
:103FD0001FFF270022000021019B3437013B3532AF
:103FE000581C99D0397010785E1E00280DD01170C1
:103FF00020000193FFF74AFFEBE75A1CE262A26A36
:10400000D3181B7873550135D4E73300E8E7F7B5CB
:10401000FF21826843680A401B68083252019A18DF
:10402000D3790400DB072AD50125D571836842685E
:104030000B405B01D3189A6840699204920C0028E7
:1040400021D12262226A002A3ED0A26A65616846B6
:104050005A60FFF7DDFE27002100019B661D013B32
:10406000343735315A1C2BD0F5773A78581ED2B2F6
:10407000002A05D0019368460D70FFF7D0FEF7BD0A
:104080000A700300EEE72263226B002A1CD0002294
:104090006261A26968465A60FFF7BAFE26002100F5
:1040A000019B3436013B671D35315A1C08D03570F1
:1040B000FA7F581ED2B2002ADCD10A700300F4E75E
:1040C00068460193FFF7ABFE2000FFF7DFFED6E75F
:1040D00037B56B46DC1D00230D0020002370FFF771
:1040E0009DFD2B681818286001F02AF8210000F0C7
:1040F000F3FF2B681818286020783EBD03290ED1E5
:1041000080220E4B62311B68FF31585C52420243E1
:104110005A5468226339FF32FF3999547047012994
:10412000FCD18022054B24311B68FF31585C524280
:1041300002435A5428222339FF32EDE74C0F002066
:1041400070B50025304B012104001A201D70FFF7C7
:1041500035FA01211A20FFF761FA2C4B01211920B1
:104160001D70FFF72BFA01211920FFF757FA2023C2
:10417000274A0F20D1690B43D361012225490B78CF
:1041800013430B70244B19788143197006211D7855
:104190002943197021490D782A430A701A78024080
:1041A0001A70602219780A431A701D4B1D4A5A80F2
:1041B0005A78D209FCD11C48FFF740F81B4D280063
:1041C00000F0D0FF280000F0E5FF7F212A68C12021
:1041D000137880000B40137004232A6811780B4376
:1041E0000C2113702A6813898B43114913810B58D2
:1041F0001B021B0A0B5080230B6011787E3B0B4384
:1042000013700123237070BDB50A0020B40A00208A
:1042100000040040584400413C44004159440041DE
:10422000000C004006400000F94B00004C0F00203D
:1042300000E100E00078002810D00121084B1B6845
:104240001A898A431A810822198B0A431A83042285
:10425000198B0A431A830022024B1A607047C0462A
:104260004C0F0020440F002010B50F4A93699B0BA0
:104270009B03936113680222FF331A729879823A82
:1042800002439A711A7A9207FCD57F24074A21408B
:10429000937A0800A3431900802301439172917A15
:1042A0005B420B43937210BD4C0F00200050004145
:1042B00010B50B790C00002B0CD10800FFF7BCFCEB
:1042C000002801D0012010BD094A93699B0B9B0374
:1042D0009361F7E700F034FF210000F021FF002890
:1042E000F0D1034A93699B0B9B039361EBE7C046B4
:1042F0004C0F0020F8B50D00832A19D1CBB2364CF3
:104300005A01A21891693548AD010840C0218905BC
:1043100001439161324920686D187021083355615D
:104320005B011A5C8A43110040220A431A54F8BD0B
:10433000022A4CD12B4A8B009858002802D00368DF
:104340005B699847382000F0BFFE274B8027036049
:104350000023214E7F00421D036203614361C3615C
:1043600046608560C760D3772F320400C362036361
:1043700013703800537002F08DFFA061380002F016
:1043800089FF2A00A062FF200240510171188B684A
:10439000124FAD001F40C0239B053B438B601300B1
:1043A0003168072608335B015A5CB24316000322CA
:1043B00032435A54A368626803405B01D318A26970
:1043C00020005A60FFF762FD064B5C51AFE7110019
:1043D0002800FFF7A9FCAAE74C0F0020FFFFFF8F82
:1043E000C00A0020980A0020C0A3000070B5050094
:1043F0000124064BA200D258002A05D02100280033
:10440000FFF778FF0134F4E770BDC0465C00002080
:10441000084B8A00D05810B5002803D003689B6869
:10442000984710BDC9B2044B4901591888688004E7
:10443000800CF6E7980A00204C0F002010B50C0005
:10444000FFF7E6FF00280CD0064BE4B21B680834E7
:1044500064011C19802362795B4213436371022358
:10446000E37110BD4C0F002070B5CBB2124A134857
:104470005C0189018918021951609168104D083357
:104480000D40802189022943402591609168890B64
:104490008903916001685A018A18167935431571AC
:1044A00095796D06FCD55B01C918CB79DB07FCD586
:1044B00000198068C0B270BD800C00204C0F002035
:1044C000FF3F00F070B5140040220B4B0D001B683D
:1044D000FF3359790A435A710021FFF7C5FFA04203
:1044E00000D9200000230549A34203D0CA5CEA5446
:1044F0000133F9E770BDC0464C0F0020800C00204E
:1045000010B5C9B20B484901421893689B049B0C33
:104510003F2B0BD99468403B9B04A40B9B0CA4033A
:104520002343936041188868C0B210BD93689B0B09
:104530009B03F6E74C0F0020F0B51C002F4B85B015
:104540001B6806000D000192002B54D02C4F3978C7
:10455000C9B2002902D11920FFF760F864233B702B
:10456000284BAA00D058002808D0036822005B68B6
:10457000019998470400200005B0F0BD29003000E3
:10458000FFF746FF844204D929003000FFF740FFBF
:10459000040029003000FFF7B3FF0121EBB21A4FEE
:1045A00003935B010293029A3B6801989B18FF33C7
:1045B0005A7A0A435A72154BA901C918220002F00F
:1045C0007DFE002CD7D029003000FFF721FF002806
:1045D000D1D14021039B3A6808335B01D318187985
:1045E000014319710121D971029BD318FF339A7AC3
:1045F0000A439A72BFE701246442BCE7440F0020DB
:10460000B40A0020980A00204C0F0020800C0020E3
:1046100013B56B46DC1D22000123FFF78DFF012837
:1046200001D1207816BD01204042FBE7F0B51E0005
:104630003A4B85B01B680F000192002B3FD08023BE
:10464000DB019E423BD8364C2178C9B2002902D109
:104650001A20FEF7E3FF642300252370314BBA01D3
:10466000D3180293002E2CD02F4B1B680393FF23EB
:104670003B401C0000930834039B64011C19A37980
:10468000DB0921D0294B2A49186800F0BDFD294BD0
:104690001721584300F0B8FD274BE279920713D455
:1046A000DA5D002A01D10138F7D20122DA55009BE8
:1046B0005A011D4B9B189A69920B92039A6101252E
:1046C0006D42280005B0F0BD00221B4B3400DA55C6
:1046D000402E00D9402422000199029802F0EEFDFC
:1046E000009BA1045A01104B890C9B18029A2D19AA
:1046F0005A619A69361B920B92030A439A61009B96
:10470000039A08335B01D3180222DA715979823A8D
:104710000A435A71019B1B190193A3E7440F002020
:10472000B50A0020C00A00204C0F00200000002025
:1047300040420F0070110100B70A002070B50D0053
:104740001C000D4BAE01F61811003000220002F0E3
:10475000B5FDEDB209496D014D196E61AB69084AAD
:1047600020001340AB61AB69A2049B0B920C9B032E
:104770001343AB6170BDC046C00A00204C0F00203F
:10478000FF3F00F0F7B5104B01901B780F001500AC
:10479000002B0CD10D4B16001C78002C09D00C4EB0
:1047A0000C4834882018641902F088FD34802800F1
:1047B000FEBD002EFBD03A19330000210198FFF70F
:1047C000BDFF2418361AF4E7400E0020410F0020E8
:1047D000420F0020410E0020F8B5002000AF0E006F
:1047E0001500012A27D9D31D6A46DB08DB00D31A3E
:1047F0009D46080003F050FC6C4603230222002172
:104800000130400020706370AA420DD23078002839
:104810000AD0531CDBB20136A0549D4203D00232B1
:10482000E154D2B2F0E72A0021000448FFF7AAFFC2
:10483000431E9841C0B2BD46F8BDC046940A002050
:10484000F0B50024012685B0184B0F0069461E7094
:1048500005000094FFF73CFC154B01A90B806A3B57
:10486000FF3BCB716E3B0B72009B8C7109334B800D
:104870000E4B4E7108711C703A00092F0FD00D4F6E
:1048800009223E700C4E280000943480FFF77AFF16
:1048900069462800FFF71CFC328808493C70280054
:1048A000FFF770FF012005B0F0BDC046400E0020AC
:1048B00009020000410F0020420F0020410E00209D
:1048C000F0B5CF7893B005000E00022F09D1C9884A
:1048D0002B48FFF7B5FF441EA041C4B2200013B01F
:1048E000F0BD00F02DFC310000F00AFC002803D0E0
:1048F000C417241AE40FF1E7012F0BD1F2882149E4
:10490000112A11D8D2B2002A0ED02800FFF73AFFA0
:104910000124E3E70400032FE0D1B378002B05D195
:10492000F2881949032AEDD90A78EEE7022B06D15D
:10493000B27916492800FFF74FFF0400CEE7012B9C
:1049400002D1B2791249F5E7032BC7D1114B01A966
:104950001868FFF7C4F9104B03A91868FFF7BFF9EF
:104960000E4B05A91868FFF7BAF90D4B07A918688F
:10497000FFF7B5F96B460533DC77B27901A9D9E7C2
:10498000940A0020F1A30000E4A30000D8A30000D3
:10499000E8A300000CA0800040A0800044A080009C
:1049A00048A0800037B5050048780C000B2810D8C7
:1049B00000F020FC061B0F2B0F41466E4A4D676A24
:1049C000097801AA002906D1022311802800FFF7E7
:1049D000B5FE01203EBD002313802E4B1B78012B1A
:1049E00000D1137002230021F0E78A780023012A06
:1049F00003D101AA1380284BF0E7264A1370274AF7
:104A000093699B0B9B039361E3E78C78012C06D1A0
:104A10000021214B01AA1C7011702300D6E7002051
:104A20008442D7D11B4B01301C4A187093699B0BF1
:104A30009B039361CEE789782800FFF715FCC8E750
:104A40002800FFF73DFFC5E70123154ACBE70B78A8
:104A50000020DB06BED12800FFF7C8FC2A20022177
:104A6000A2780F4BFF301A600C4A13681C5C21437C
:104A70004A241954FF34195D2938FF380143195568
:104A8000D4E70123074AAEE78A78064B1A60B6E7F7
:104A900000209FE7B60A0020BE0A00204C0F00202D
:104AA000440F0020480F00204B4BF7B51C7807003F
:104AB000002C00D083E0494E33689B8B1B070ED53A
:104AC00021002000FFF730F9326810231100FF3178
:104AD000887A03438B72424B1C60082393833368AC
:104AE0009A8B52071FD504229A833E4A1378002BD3
:104AF0000AD01378013BDBB213701378002B03D17B
:104B000001211A20FEF78AFD374A1378002B0AD0BC
:104B10001378013BDBB213701378002B03D1012112
:104B20001920FEF77BFD3368FF331A7AD2061ED5B3
:104B300010221A72597930320A435A7160232B4974
:104B400038000A781A423BD1FFF72CFF3368FF3355
:104B5000002838D08022997952420A439A711A7AF1
:104B6000520604D540221A72597A0A435A7233689F
:104B700000241D8C01239D43EDB20193E1B2002D71
:104B80001DD02B002341019A134215D02300326817
:104B900008335B01D318DA79D20702D4DB799B079B
:104BA00007D5134BA200D058002810D003681B680B
:104BB0009847019BA3409D430134092CDED1F7BDEA
:104BC000FFF776FBC2E720210A4A9171C7E7380058
:104BD000FFF794FAEDE7C046410F00204C0F00208C
:104BE000440F0020B50A0020B40A0020800C0020E9
:104BF000980A0020FF50004110B50248FFF754FF0B
:104C000010BDC046940A0020014B024A1A6070474A
:104C10004C0F0020005000410120704710B5036880
:104C2000014A1B6A984710BD130400000300FC33BF
:104C3000D9699A69914203D0DB69C018007D704739
:104C400001204042FBE710B504000069FEF71CFE9E
:104C500022000023FC329361D36186229200A418C3
:104C60006360A36010BDF0200140303948424841E4
:104C70007047F0231B011940802306209B009942B6
:104C80000AD00133FF330130994205D08023023826
:104C90005B00994200D0002070470F2001400020A7
:104CA000012903D00239481E8141481C7047000089
:104CB0008923F0B5182685B002919B000400C05CE2
:104CC000330008214343324D1700EB185956FEF7C5
:104CD000E9FC304B0821E05C33004343EB185956A4
:104CE000FEF7E0FC2C4BE25C0393022A09D111335E
:104CF000E05CFF2805D008214643AE197156FEF747
:104D0000D1FC8A26B600A05DFF2819D00121FEF74C
:104D100055FC1822A35D21495A43AB56AD18DB015F
:104D200058188B21890060501D4901225B188C2185
:104D30008900635069688A408D21890062501A6039
:104D40000122029B11002069FEF7BAFE3900200003
:104D5000FFF78FFF390005002000FFF79EFF3900A5
:104D600006002000FFF77FFF330000902900206934
:104D70000122FEF759FD0B4B2069E25C039BE15CCD
:104D8000FEF76FFD2069FEF78CFD05B0F0BDC04653
:104D9000149F000025020000270200001844004173
:104DA0001444004126020000802210B50400520085
:104DB000002102F08CFA23000022FC335A6020000C
:104DC0009A6010BDF7B51D0008AB1B780400009376
:104DD00009AB1B781600019300234360FA239B0064
:104DE0008360114B0F00083303601430FFF7DCFFC2
:104DF00020001D30FF30FFF7D7FF89236A469B0054
:104E00002761E654094B1278E554094B2000E2541F
:104E10006A46084B1279E2548A22293BFF3B9200F2
:104E2000A3541032A354FEBD04A4000025020000C8
:104E300026020000270200000300FC3358689B682C
:104E4000C01A01D50130FF30704710B504002000B2
:104E50001D30FF30FFF7F0FF0028F8D12069FEF782
:104E60002AFD10BD10B51430FFF7E6FF10BD03009A
:104E7000FC3359689A68914204DB5A689868801A32
:104E8000FF30704798685B68C01A0138F9E710B5C1
:104E90001D30FF30FFF7EBFF10BD10B504000069B7
:104EA000FEF725FD002805D02069FEF730FD2069BA
:104EB000FEF722FD2069FEF70AFD002820D02069B8
:104EC000FEF725FD2200FC329369D1690133DBB284
:104ED0008B4203D091696118087593618A239B0006
:104EE000E35CFF2B0CD020001430FFF7C0FF092833
:104EF00006DC8B238D229B009200E358A2581A6097
:104F00002069FEF7FFFC00281AD020001D30FF307A
:104F1000FFF792FF002822D086239B00E3189968B0
:104F20005A68914218D08E219A684900A218515CA3
:104F30009A680132D2B29A60C9B22069FEF7EBFCDE
:104F40002069FEF7C9FC002805D02069FEF7C8FCDF
:104F50002069FEF7B8FC10BD01214942ECE7206949
:104F6000FEF7E5FCECE7000070B5040000690D00F9
:104F7000FEF7C8FC00283ED1FF2686239B00E318DD
:104F80005A689968013232408A4223D1EFF3108384
:104F9000DB070DD41E4B5B68DB05DB0DEDD0103B52
:104FA0005BB2002B0DDB9B08C0331A4A9B009B5859
:104FB0002069FEF7A7FC0028DFD02000FFF76DFF77
:104FC000DBE70F221340083B9B08134A9B009B180A
:104FD0001B68EDE75A68013216409A68964205D080
:104FE0008E215A684900A21855545E602069FEF768
:104FF0009AFC012070BD20001D30FF30FFF71CFF20
:105000000028B9D129002069FEF785FCF1E7C046E8
:1050100000ED00E000E100E01CED00E0030070B5F1
:10502000FC33D9699A69040091421AD0DA6982186E
:10503000157DDA690132D2B2DA618A239B00E35C22
:10504000FF2B0CD020001430FFF711FF0A2806DDDB
:105050008C238D229B009200E358A2581A602800EE
:1050600070BD01256D42E8E710B51C00431A029897
:10507000511A001B584300F051F9001910BDFEE70A
:105080007047000010B5FEF7E5F902F0D5F8FFF71C
:10509000F7FF0120FEF708F9094C2000FFF750F850
:1050A0002000FFF7C7F8FDF729F8FDF762F8FEF7D3
:1050B0001DF9044B002BF8D000E000BFF5E7C04617
:1050C000940A00200000000010B502F0E3F810BDC3
:1050D00010B502F0E9F810BD70B50E000025446867
:1050E000002C0BD0236831005B6820009847002813
:1050F00002DB2D18E468F3E701256D42280070BD3E
:1051000070B50D004468002C08D0236829009B6806
:1051100020009847002802D1E468F4E7200070BD21
:1051200070B50D004468002C08D0236829001B6866
:1051300020009847002802D1E468F4E7200070BD01
:105140000121054A10B5136804480B4003D1044CF3
:1051500043600480116010BD5010002054100020E6
:105160000204000070B50400012304CC050011788E
:1051700020000B43137080220021520002F0A7F898
:105180002B689A78D207FCD49A789207F9D45C629B
:1051900070BD00001F22144BF0B51B68590B9C0C0E
:1051A0009B01114014405B0F914200D105211F2C3F
:1051B00000D1023C072B00D1043B02688F01158D02
:1051C0000A491F2629403943118505683440298D35
:1051D0000A00B24322432A8500681903028D044B5A
:1051E00013400B430385F0BD246080003FF8FFFFB0
:1051F000FF8FFFFF02B4714649084900095C49006E
:105200008E4402BC7047C046002243088B4274D3D0
:1052100003098B425FD3030A8B4244D3030B8B42B7
:1052200028D3030C8B420DD3FF22090212BA030CC0
:105230008B4202D31212090265D0030B8B4219D3A1
:1052400000E0090AC30B8B4201D3CB03C01A5241C1
:10525000830B8B4201D38B03C01A5241430B8B4209
:1052600001D34B03C01A5241030B8B4201D30B03F2
:10527000C01A5241C30A8B4201D3CB02C01A524119
:10528000830A8B4201D38B02C01A5241430A8B42DC
:1052900001D34B02C01A5241030A8B4201D30B02C5
:1052A000C01A5241CDD2C3098B4201D3CB01C01ADF
:1052B000524183098B4201D38B01C01A52414309E9
:1052C0008B4201D34B01C01A524103098B4201D3D7
:1052D0000B01C01A5241C3088B4201D3CB00C01A44
:1052E000524183088B4201D38B00C01A52414308BC
:1052F0008B4201D34B00C01A5241411A00D20146E1
:10530000524110467047FFE701B5002000F0F0F869
:1053100002BDC0460029F7D076E7704703460B432D
:105320007FD4002243088B4274D303098B425FD39E
:10533000030A8B4244D3030B8B4228D3030C8B42CA
:105340000DD3FF22090212BA030C8B4202D31212B0
:10535000090265D0030B8B4219D300E0090AC30B85
:105360008B4201D3CB03C01A5241830B8B4201D332
:105370008B03C01A5241430B8B4201D34B03C01A1B
:105380005241030B8B4201D30B03C01A5241C30A93
:105390008B4201D3CB02C01A5241830A8B4201D304
:1053A0008B02C01A5241430A8B4201D34B02C01AEE
:1053B0005241030A8B4201D30B02C01A5241CDD293
:1053C000C3098B4201D3CB01C01A524183098B42DE
:1053D00001D38B01C01A524143098B4201D34B01C7
:1053E000C01A524103098B4201D30B01C01A52412A
:1053F000C3088B4201D3CB00C01A524183088B42B1
:1054000001D38B00C01A524143088B4201D34B0099
:10541000C01A5241411A00D201465241104670470B
:105420005DE0CA0F00D04942031000D34042534010
:1054300000229C4603098B422DD3030A8B4212D3D0
:10544000FC22890112BA030A8B420CD38901921102
:105450008B4208D3890192118B4204D389013AD03F
:10546000921100E08909C3098B4201D3CB01C01A14
:10547000524183098B4201D38B01C01A5241430927
:105480008B4201D34B01C01A524103098B4201D315
:105490000B01C01A5241C3088B4201D3CB00C01A82
:1054A000524183088B4201D38B00C01A5241D9D29A
:1054B00043088B4201D34B00C01A5241411A00D21B
:1054C0000146634652415B10104601D34042002B17
:1054D00000D54942704763465B1000D3404201B596
:1054E000002000F005F802BD0029F8D016E770474B
:1054F0007047C0468446101C62468C46191C6346A1
:1055000000E0C0461FB500F033FF002801D40021A1
:10551000C8421FBD10B500F07DFE4042013010BDF5
:1055200010B500F025FF002801DB002010BD012090
:1055300010BDC04610B500F01BFF002801DD0020A3
:1055400010BD012010BDC04610B500F09FFE002820
:1055500001DC002010BD012010BDC04610B500F0D8
:1055600095FE002801DA002010BD012010BDC046C4
:10557000F0B54F46D64646460D0001001800C0B5AE
:1055800017002B035A0A4B0F1343CA00914602031C
:105590006E004100520AEC0F7D0F1543760D490D48
:1055A000C00F8246AC46FF00721A844200D198E0D8
:1055B000002A00DC81E0002900D1B6E0C9498E4212
:1055C00000D172E180212800090408438446382A6A
:1055D00000DD5EE11F2A00DDEEE120203900654696
:1055E000801A8740D14085400D4339004F1EB94194
:1055F0006746D7402943DB1B4A46551AA9458941CE
:1056000049425B1A984643461B0200D4CCE043460D
:105610005B025B0A98464346002B00D12CE14046D2
:1056200001F0BEFD01000839202228004346521A2D
:105630008B40D0408D4003438E4200DD17E18E1B2E
:10564000721C1F2A00DDA7E1202118002E00891AF4
:105650008D408840D640D340691E8D4130439846E6
:10566000002605436B0709D00F232B40042B05D0E0
:105670002B1DAB42AD416D42A8441D0043461B02A9
:1056800000D494E0974B721C9A4200D19DE04146B1
:10569000954BED0819400B00520549075B02294361
:1056A0001B0B520D12051343E40723430800190096
:1056B0001CBC90469946A246F0BD002A43D08A1BE6
:1056C000002E00D02AE14C461C4300D1D1E1541EEB
:1056D000012A00D11FE2834DAA4200D172E22200CA
:1056E00023E1002A00DC98E0002942D07D498E4267
:1056F00000D1DAE080212800090408438446382AD2
:1057000000DD29E11F2A00DC87E111006546203910
:10571000CD40202A04D040206146821A91400F4398
:1057200039004F1EB9410D431BE12900394300D117
:10573000B5E0511E012A00D1ABE16A48824200D196
:10574000B2E10A0043E76949751C0D4200D0CFE081
:10575000002E00D093E14946194300D1D1E16146C2
:10576000394300D0E3E149465807C9080143DB0843
:1057700026E02900394300D191E0511E012A05D0CD
:105780005848824200D18FE10A00B8E73D004D44FD
:105790004D45894163449846494288444346022620
:1057A0001B0200D5EBE0013E6B0700D05CE74346EF
:1057B000E9085A0711433200DB084A48824221D0E7
:1057C0001B0352051B0B520D6CE70023002169E7F8
:1057D0002A003A4369D04A465807D108DA0880239C
:1057E0001B0308431A4207D02900ED081D4203D1CC
:1057F0002A00FF0848073843430FC1005B07C90868
:10580000194313000A001A4300D113E28022120345
:1058100013431B03334A1B0B44E7002A4BD08A1B5C
:10582000002E00D1E7E02F48814200D195E1802091
:1058300000040343382A00DD43E11F2A00DDDBE1D9
:1058400020201D004E46801A8540D64035434E46E6
:1058500086403000D340461EB0419C440543ED19BC
:10586000BD429B415B42634498460E007FE01E4A66
:10587000761A13409846F5E6280001F091FC0100E5
:1058800018311F2900DCCFE62B00083883400025A3
:10589000D2E662463A4311004F1EB941ACE6494692
:1058A0005807C9080143DB0887E749465A07C90872
:1058B0001143DB08A6E70D49701C084200D0BBE08D
:1058C000002E00D014E14946194300D175E12900AA
:1058D000394300D07EE149465807C9080143DB0837
:1058E0006EE7C046FF070000FFFF7FFFFE070000D6
:1058F0004946CD1B6146581AA94589414942884607
:1059000001004046091A8846090200D5A6E0414632
:10591000294300D07FE60023002451E7C74CA14271
:1059200000D1C7E0802424042343382A54DC1F2AF2
:1059300000DDCCE020244846A41A1D004E46A040BD
:10594000D640A5400400D34062463543661EB441AC
:10595000D31A9C46254344E062463A4315006F1E25
:10596000BD414D444D45894149428846984443468E
:105970001B0200D418E7B14B01369E4249D0424683
:10598000AF4B01211A4013006A080D401543D90797
:105990005B0898460D4365E618001F3EF040202A3C
:1059A00003D040218A1A93401D43691E8D41002374
:1059B000002698460543F7E6110065462039CD409C
:1059C000202A04D040206146821A91400F433900BA
:1059D0004F1EB94129430FE64A4613431D006B1E73
:1059E0009D417D1BAF429B4162465B42D31A984664
:1059F00054460E0007E64846184300D1B3E0501E57
:105A0000012A00D10DE18D4DAA4200D1A5E002008E
:105A100010E732000023002144E620213800891AD3
:105A200065468F408D40D040791E8F4105433D43F0
:105A30006746D740DB1994E7804A904200D1ECE0FA
:105A40003900494449459241634452429B18DD075D
:105A500049085B08984606000D43A5E64A46BD1A6C
:105A6000AF42894162464942D31A5B1A984654466E
:105A7000D1E56C07F9082143EB0804009DE64A468E
:105A80001A4375D16146394314D1802300241B0386
:105A9000BCE64A46D51BA9458941624649429B1A44
:105AA0005B1A98460126AEE54A46D1085A071143CB
:105AB000DB08A7E66346F9085A0754461143DB089A
:105AC000A0E64A4613431D006B1E9D41C7E6140025
:105AD0001E00203CE640202A05D04024A21A934014
:105AE0004A461A4391464D466B1E9D41354378E721
:105AF0004A461A4300D06BE66B07F9081943EB08D6
:105B000080E66146394354D06346F9085C07214377
:105B1000DB08040054E64A46BD1AAF42894162469A
:105B20004942D31A5B1A9846040001266BE54A469F
:105B3000D51BA9458941624649429A1A521A904694
:105B4000120232D54A46BD1AAF42894162464942E5
:105B5000D31A5B1A9846040084E56346F9085A078D
:105B60001143DB084EE6F90868070143EB0824E619
:105B700062463A4300D198E64A46D1085A07114393
:105B8000DA0880231B031A4208D06046C5081D426C
:105B900004D154462A00F908430719434B0FC900A2
:105BA0005B07C908194313002CE64146294300D07E
:105BB000FAE500230A00002402E66B07F9081943FE
:105BC000EB08FDE56346F9085B07194363460400EB
:105BD000DB0817E63D004D4463444D458941984636
:105BE0004942884443461B0200D4DDE54246144B3B
:105BF00001261A409046D7E510001E002038C64006
:105C0000202A05D04020821A93404A461A439146E2
:105C10004D466B1E9D41354321E6020000230021C5
:105C200040E54A46D519BD428941634498464942F8
:105C30008844B3E50021014A0B0033E5FF0700006B
:105C4000FFFF7FFFF0B557464E464546DE46E0B5BE
:105C5000814605000C03480092461F0085B0240BC6
:105C6000400DCE0F002859D0874B984200D198E0C4
:105C70006B0FE4001C4380231B0423439846834B93
:105C8000ED009B4600239946834400933C037B0030
:105C90005046240B5B0DFF0F002B67D07A4A9342CE
:105CA00018D07A49420F8C46E400594614438022AA
:105CB00063441204CB1A14439B46C20000203300F5
:105CC0007B409A464B460F2B00D9EFE070499B0072
:105CD000CB589F466F4B52469C462243E344002AD2
:105CE00000D095E04946022319438946002402204A
:105CF000E5E700230024002552461B052343D20775
:105D000013432800190005B03CBC90469946A246B2
:105D1000AB46F0BD002400255B4BEDE74B4623432B
:105D2000984600D189E0002C00D1E0E1200001F08C
:105D300037FA010002000B391D235B1A4946100097
:105D4000D940083884400B004D462343984685408F
:105D500051483C03831A9B460023994600937B00DD
:105D60005046240B5B0DFF0F002B97D15246224368
:105D700055D0002C00D1CAE1200001F011FA020038
:105D80000B3A1D2301009B1A52460839DA408C4019
:105D9000144352468A40414B58449B46834400205A
:105DA0008DE74B462343984640D108239946063B4E
:105DB00000258346009369E7B246009B022BA9D0D9
:105DC000032B00D111E2012B93D0354A5A44002A0B
:105DD00000DC3CE16B0700D0A7E1ED084346DB01A6
:105DE00006D542462F4B1A4090468022D2005A4494
:105DF0002D4B9A428EDC4346520558075C02054300
:105E0000240B530D78E7BA46A04615000090D4E75E
:105E10004A4603231A439146032052464FE7494618
:105E20000123194389460024012048E70C239946A1
:105E3000093BA0468346009328E7042399460023A4
:105E40009B4601330025009320E7002380249A46D7
:105E500000250D4B24034FE7802341461B031942C5
:105E600008D01C4206D11C432403BA461500064B39
:105E7000240B41E78024434624031C432403B246F9
:105E8000014B240B38E7C046FF07000001FCFFFF71
:105E900038A4000001F8FFFF0DFCFFFFF303000032
:105EA000FF030000FFFFFFFEFE070000444500D295
:105EB00016E100D111E101235B429C462E004046D1
:105EC0000025E3442302140E1C431B0C99462304B3
:105ED0001F0C1202494600920197FFF71BFA0200BD
:105EE0007A430B04310C804619438A420BD90123B3
:105EF0005B429C460919E0448C4204D88A4202D98C
:105F0000831E98460919881A4946FFF703FA0904BF
:105F10008C4631046646019A090C42430300314322
:105F20008A4204D90919013B8C4200D811E1891A2F
:105F30004246009E12041A43330C1F00100C904678
:105F4000029313043204160C32001B0C5A430396BE
:105F50007B4346437843170CBC469B1963449E42DF
:105F600003D980267602B44660441E0C301816040D
:105F70001B04360C9E19814200D29CE000D197E0B0
:105F8000AE1B091AB54280414042081A844200D132
:105F900011E14946FFF7BEF9019A0B044243310C67
:105FA000050019438A4207D90919013D8C4203D8DB
:105FB0008A4201D9851E0919881A4946FFF7AAF9AC
:105FC00009048C4631046646019A090C42430300D9
:105FD00031438A4207D90919013B8C4203D88A42CE
:105FE00001D9831E0919039E891A32002D041D430D
:105FF000029F2B041B0C5A437B439C46280C4643B0
:10600000130CB444634478439E4203D9802676023D
:10601000B44660441E0C12041B04120C30189B186A
:10602000814206D302D001231D43CEE6002B00D1CE
:10603000CBE661186E1EA14200D2A4E0814200D2DC
:10604000C9E000D1D9E03500EDE701256D4201211D
:10605000891A382900DD4CE61F2900DC7FE01F2368
:106060005B429A1A4346D340202904D04446654AED
:106070005A44944025436A1E954107222B4315003C
:1060800000241D401A4200D1A1E00F2200241A4032
:10609000042A00D198E01A1D9A429B415B42E41801
:1060A0001300220200D48FE001230024002523E600
:1060B000B54200D364E743465A1E009B9C466544A4
:1060C0001F009D429B415B421B19C9188C423AD26A
:1060D000884263D860D0904652E7AA4200D9EAE6E7
:1060E0004346DE0758086B081E43ED07EAE64846BC
:1060F00001F056F801000200153120321C2900DCA5
:106100001AE64B46083883400025984620E601F001
:1061100047F803001A00153220301C2A00DC30E654
:106120005446083B00229C4035E60F232B40042BAD
:1061300000D152E605235B42AB429B4104355B42F2
:10614000ED0898444AE68C42C5D1AF42C0D990468A
:1061500016E78A4200D8EAE6831E0919E7E62A4ACA
:1061600028005A44434695409340C8406A1E9541D2
:10617000444603432B43CC405A0792D00F221A4087
:10618000042A88D18DE73500814200D04BE7009A80
:10619000934200D047E718E6AE429CD902235B4207
:1061A0009C46009BE0449C4665449D429B415B426B
:1061B0001B19C918E4E6154A5A44002A00DC44E7D2
:1061C00001230025984409E665076402240BDB08D7
:1061D0001D43002390E5009E023D7200B242BF4184
:1061E0007F423C1909190092CEE7802443462403DC
:1061F0001C432403064B240B7EE5009A9A42EAD303
:106200003500C4E73E0400001E040000FF03000048
:10621000FF070000F0B54F464646D64694469146E5
:106220001A03120B184DC0B54C000F0392465A00CA
:10623000060080463F0B0120640DC90F520DDB0F95
:10624000AC420AD0AA4203D0944201D157450DD0A6
:106250001CBC90469946A246F0BD3D003543F7D19F
:10626000A242F5D1524665462A43F1D10120C845E4
:10627000EED1994206D0002CEAD13E433000461EB2
:10628000B041E5E70020E3E7FF070000F0B54E4628
:1062900045465746DE4604001800E0B516001B03CD
:1062A0001B0B324D0F034A0099464300A446B046EB
:1062B0003F0B520DC90F5B0DC00FAA4229D0AB4254
:1062C00018D0002A2AD13C43A34665426541002BE1
:1062D00002D14C46264327D0002D15D1814228D02B
:1062E00002200139084001383CBC90469946A2463C
:1062F000AB46F0BD4D462E432FD1002AEED13C4394
:1063000065426541002DE9D00028EDD101204042D1
:10631000EAE73D00254320D19342EBD0002BDDD1AD
:106320004C462643DAD1DBE75B460020002BDBD06E
:10633000D6E79A420ADCE7DB4F45D1D810D00020DF
:106340004F45D1D20029E1D00800CDE74342584162
:106350000223404218400138C6E702204042C3E70A
:10636000C445BDD80020C445BED2EBE7FF070000FE
:10637000F0B54E4645465746DE4604001800E0B5E7
:1063800016001B031B0B314D0F034A0099464300B7
:10639000A446B0463F0B520DC90F5B0DC00FAA4279
:1063A00011D0AB4214D0002A2FD13C43A346654202
:1063B0006541002B14D14C46264311D15B46002089
:1063C000002B17D010E03D00254312D193421CD181
:1063D0004D462E430DD1002A04D13C436542654110
:1063E000002D0DD1814216D002200139084001381C
:1063F00000E002203CBC90469946A246AB46F0BD68
:106400000028F7D101204042F4E7002BEAD14C46A6
:106410002643E7D1E8E79A4206DD4342584102238A
:10642000404218400138E5E79A42E9DB4F45DBD8A6
:1064300006D000204F45DDD20029E3D00800D9E77F
:10644000C445D1D80020C445D4D2F5E7FF070000E9
:10645000F0B557464E464546DE46E0B598460C0335
:106460004B000600924687B0240B5B0DCF0F002B2C
:106470006CD0DD4A934200D186E0420FE400144321
:10648000802212041443D94AC50094466344009301
:10649000002399469B46434642461E03D20F5B00AB
:1064A00050469046360B5B0D00D178E0CE4A9342C1
:1064B0001DD0CE49420F8C4600996344F6008C46AD
:1064C000164380229C44120463461643C2000020F7
:1064D00000930099434601318C4649467B40019325
:1064E0000F2900D97EE0C24B890059588F46524689
:1064F000009B324300D056E1BB4900268C466344E2
:10650000494600930223194389460220E1E74346A6
:1065100001933400150083465B46022B5ED0032BAB
:1065200000D1F3E1012B00D018E100220024002566
:10653000019B12052243DB071A432800110007B014
:106540003CBC90469946A246AB46F0BD25000543AB
:1065500000D141E1002C00D1ADE1200000F020FE8F
:10656000010002000B391D2310005B1A31003500B9
:1065700008388440D94085400C439E48831A0093D4
:10658000002399469B4686E70500254300D01CE181
:10659000082200930223002491469B467BE7524643
:1065A000324300D10AE1002E00D176E1300000F044
:1065B000F7FD02000B3A1D2301009B1A52460839D1
:1065C000DA408E40164352468A40009B8949181A89
:1065D00003008C466344002000937AE700240025E2
:1065E000814AA5E72F0C2D042D0C2B00110C120451
:1065F000120C53439846130028007B4399464843A6
:106600004844834640460B00000C824658467B4374
:1066100050440293814506D99A4680235B029946ED
:10662000CA4453460293030C9B4643461B04000492
:106630001B0C9846030043440493330C99462B00EB
:106640003604360C7343984633007B439A464B46D8
:106650005D435F4343465544180C4019824503D9B6
:1066600080235B029A465744050CEB190593434679
:106670001D042D0C00044019250C2404240C2700B3
:1066800057436A4390462A003B0C9A464A4361436B
:10669000414451448344884503D980235B02984692
:1066A00042443F040B0C3F0C0904C91927009846CB
:1066B0004B4677435C436E435D433B0C9946A419BC
:1066C0004C4442440395A64204D980235B02984679
:1066D00045440395029B3F045B441E008342804176
:1066E00023049846059B3F0C4744984676188E42F3
:1066F0008941474440423D18A846934649428A464C
:10670000C3449F42BF4180458041039BDA44984681
:10671000534640427F420743240C934592418A45A9
:1067200089413F19DC0D049B75021D43681E85419C
:106730005346524249420A43BF184744F60D7F026E
:1067400035435A023C431543FB0100D4C1E001210B
:106750006A080D401543E207154364082649614461
:10676000002956DD6B0709D00F222A40042A05D0E4
:106770002A1DAA42AD416D4264191500E30104D5FA
:1067800080211E4AC900144061441D4A914200DD27
:1067900024E76207ED08640249051543240B4A0DFE
:1067A000C6E60197B8E6104A0320944663444A4679
:1067B000009303231A43914652468AE64946012331
:1067C000194389460026012083E60C220093032307
:1067D000050091469B465EE60423994600230093FC
:1067E000013300249B4656E6FF07000001FCFFFF33
:1067F00078A400000DFCFFFFFF030000FFFFFFFE79
:10680000FE070000002380240025444A019324034E
:106810008EE60120401A382800DD86E61F285BDD61
:106820001F2223005242511ACB401900202803D0C6
:106830003B4A6244944025436A1E95412A000A431C
:1068400007210D000024154011425BD00F210024C8
:106850001140042953D0111D914292415242A41873
:106860000A0023024BD501220024002560E6802384
:106870001B031C4209D01E4207D133431C0343466D
:106880001500240B254A019352E68022120314437B
:106890002403224A240B01974AE600F081FC0300FE
:1068A0001A00153220301C2A00DC84E65646083BCC
:1068B00000229E4089E600F073FC010002001531C1
:1068C00020321C2900DC4EE63400083800258440C4
:1068D00053E6009B9C4641E71249220061442E008A
:1068E0008D408A40C640691E8D4132432A43C440D0
:1068F0005307B6D00F2111400429ACD1B1E7650789
:106900006402240BD2081543002211E680221203F0
:1069100014432403014A240B0AE6C046FF07000083
:106920003E0400001E040000F8B557464E4645469A
:10693000DE460400E0B51F0010000B03620F4E009E
:10694000CD0F5B0A39031343490AE200440F214388
:10695000C24C91469246C0007A008046760D520D98
:10696000FF0FA24200D1B4E001246740BB46BD4204
:1069700000D188E0B41AA446002C00DCB2E0002A62
:1069800000D1C5E0B54A964200D18BE280221204C4
:1069900011436246382A00DDA1E11F2A00DD16E21C
:1069A00020270C00BF1ABC400200A0466446B84035
:1069B000E240444614430200501E82416046C140FA
:1069C00022435B1A49468C1AA145924152429B1AB6
:1069D000984643461B0200D417E143465B025B0A1C
:1069E00098464346002B00D16CE1404600F0D8FBAE
:1069F0000200083A202120004346891A9340C840EB
:106A000094400343964200DD57E1961B711C1F29F9
:106A100000DDCBE1202218002600521A944090405D
:106A2000CE40CB40621E944130439846002604433A
:106A3000630709D00F232340042B05D0231DA34255
:106A4000A4416442A0441C0043461B0200D4DFE082
:106A5000824B01369E4200D1FBE04246804BE40867
:106A60001A401300710552075B0222431B0B490DAC
:106A70000905ED071943294310003CBC904699468F
:106A8000A246AB46F8BDB41AA446002C58DD002A35
:106A900000D19EE0714A964200D13BE1802212046F
:106AA00011436246382A00DDC1E01F2A00DCBBE149
:106AB0000C00203AD44022006446202C04D0402709
:106AC0003F1BB940084380464446611E8C41144335
:106AD000B1E00C0004432AD0BB46BD422DD0614C2E
:106AE000A446B4446446002C5CD0941BA446002EFB
:106AF00000D015E14D461D4300D1C3E1651E012CB8
:106B000000D10CE2554EB44200D1F8E1AC460EE1A2
:106B10000A00024300D136E12200013A012C00D1E3
:106B2000C6E14E4CA44500D1F4E0944631E701247F
:106B30006740BB46BD4200D01CE74A4CA446B44463
:106B40006446002C00D1CFE0941BA446002E00D157
:106B50005CE1424EB24200D1ECE180263604334380
:106B60006446382C00DDB3E11F2C00DD38E220261E
:106B7000361B1C00B4404F46A0466446E7404446DE
:106B80003C434F46B7403E00771EBE413443664605
:106B9000F340C918241884429B415B429846160072
:106BA00088444EE0304A741C144200D0D6E04A4675
:106BB0001A43002E00D05BE1002A00D1A5E10A00B3
:106BC000024300D0BBE14A465907D2080A43DB081A
:106BD00027E00A00024300D174E12200013A012CAF
:106BE00005D01E4CA44500D194E0944659E7484492
:106BF000484592415B1898460400524290444346EF
:106C000002261B0200D5C4E0013E630700D011E755
:106C10004346B4465907E2080A43DB080F498C454E
:106C200040D061461B0349051B0B490D20E701437A
:106C30000C00611E8C414C444C459241524290469E
:106C4000984443461B02E0D5044B01369E4200D0D7
:106C50009FE03100002300220AE7C046FF07000042
:106C6000FFFF7FFF01F8FFFFFE070000002A00D1B1
:106C700060E10A0002434DD04A465C07D208224335
:106C80008024DB082403234207D0CE08264204D107
:106C90005D463300C20849070A43510FD200D208AB
:106CA00049070A431100194300D1C8E180210903B3
:106CB0000B431B03D5491B0BDAE6D549B61A0B402B
:106CC0009846B5E6200000F06BFA020018321F2A41
:106CD00000DC8FE6230008388340002492E6084356
:106CE0000200501E82416DE6CA4C721C224200D046
:106CF000ADE04A461A43002EB8D1002A00D158E12F
:106D00000A00024300D059E14A465907D2080A4313
:106D1000DB0886E74A465907D2080A43DB08C1E781
:106D2000BA4DAA4200D11EE180252D042B436446B2
:106D3000382C5DDC1F2C00DDD0E0202567462D1BA4
:106D40004E461C00FE40AC4034434E46AE4035003B
:106D5000FB406E1EB541C91A2C434EE04A46141A38
:106D6000A1459241524290465F1A3A004746D21BD3
:106D70009046120200D58BE04246224300D030E616
:106D8000002300254DE74A465907D2080A43DB088D
:106D900044E742469E4B61081A401300012214400A
:106DA0000C43DA075B089846144341E61A001F3E7D
:106DB000F2401600202903D04022511A8B401C4378
:106DC000621E944100233443984600261DE70C00C0
:106DD000203AD44022006446202C04D040273F1B98
:106DE000B940084380464446611E8C412243E9E590
:106DF0004C4623431C00631E9C41041BA0429B4144
:106E00005B42CB1A98465D461600E2E54E461E43AD
:106E100000D1AEE0661E012C00D1FDE07B4FBC42EC
:106E200000D107E1B4469BE664462022121B0C0009
:106E3000944007009040A0466446421E904162463E
:106E4000E7404446D1403C4304435B18F3E66F4CB3
:106E5000A24200D1D5E048445B18484589414942E7
:106E60005B18DC0740085B08984616000443CCE634
:106E7000002A00D082E00A00024340D1802300258E
:106E80001B0313E74B07C2081A435D46CB08C5E650
:106E90004A46841AA0429241CB1A52429B1A984603
:106EA0005D469EE54A465907D2080A43DB08F9E6E3
:106EB0004A46141AA14592415B1A52429B1A9846BF
:106EC000012686E54A465907D2080A43DB08A5E6AB
:106ED0004C4623431C00631E9C415BE665461E0036
:106EE000203DEE40202C05D040252D1BAB404C46CC
:106EF0001C43A2465446631E9C4134437DE74B0726
:106F0000C2081A435D46CB08CCE60A00024300D112
:106F100036E74B07C2081A435D46CB0881E64A466E
:106F2000841AA0429241CB1A52429B1A98465D465F
:106F300001264EE54B07C2081A43CB08B2E64A4683
:106F4000141AA14592415F1A5242BA1A904612028F
:106F50006BD54A46841AA0429241CB1A52429B1AE0
:106F600098465D4664E54B07C2081A435D46CB0868
:106F700098E64B07C2081A43CB084FE60A000243C3
:106F800090D04A465C07D20814438022DB081203E3
:106F9000134208D0CE08164205D1C008490708435D
:106FA00004005D463300610FE2004907D2080A433E
:106FB00078E64B07C2081A43CB0832E648445B1810
:106FC00048459241984652429044434604001B0271
:106FD00000D41AE642460E4B01261A40904614E6AB
:106FE00066461F00203EF740202C05D04026361B69
:106FF000B3404C461C43A2465446631E9C413C434E
:10700000C8E511000023002232E5C046FF0700005A
:10701000FFFF7FFFFE0700004A461418844292419A
:107020005B18984652429044E9E54246224300D11B
:10703000A6E6EAE54B07C2081A43CB0832E600226F
:107040000149130014E5C046FF07000070B50500B4
:107050000C480C03160049001A035B00240B490D71
:10706000120B5B0D814208D0064900208B4203D1F0
:1070700032431000421E904170BD01202C43FBD1D1
:10708000F2E7C046FF0700000A0030B5134C53007A
:1070900009030500090B00205B0DD20FA34204DD9C
:1070A0000F48834202DD0F4BD01830BD80204003D3
:1070B00001430D48C01A1F2808DD0C48C31AD940E7
:1070C0000B005842002AF0D11800EEE7084CC540EA
:1070D000A446634499400B002B43F2E7FE030000F3
:1070E0001D040000FFFFFF7F3304000013040000B5
:1070F000EDFBFFFF70B5002816D0C317C5185D4023
:10710000C40F280000F04CF8114A121A0A2816DCA5
:1071100003002E0015339E400B23181AC54053055B
:107120002D032D0B5B0D03E000240023002500261A
:107130001B052B43E40723433000190070BD0B38B7
:10714000854053052D0300262D0B5B0DF0E7C0464F
:107150001E04000010B5041E10D000F021F80F4BE3
:107160001B1A0A2811DC0B222100121AD1401530FB
:107170000A035B058440120B5B0D01E00023002233
:107180001B0513432000190010BD22000B3882405C
:107190005B0512030024120B5B0DF1E71E040000D7
:1071A0001C2101231B04984201D3000C10391B0A37
:1071B000984201D3000A08391B09984201D30009FB
:1071C000043902A2105C40187047C0460403020252
:1071D00001010101000000000000000030B51400B2
:1071E0001A00094B05001B6885B0D868074B002CB6
:1071F00001D1074B1C00019300912B00054902941B
:1072000000F00AF801F01EF884000020B8A4000085
:10721000F3A40000C5A400000EB403B5010003AB45
:10722000044804CB0068019300F070F902B008BC78
:1072300003B018478400002070B500260C4D0D4C9B
:10724000641BA410A64209D1002602F08DFD0A4D50
:107250000A4C641BA410A64205D170BDB300EB58C4
:1072600098470136EEE7B300EB5898470136F2E74E
:107270005402002054020020540200206C0200201E
:1072800010B5034B0A000100186800F073F810BD38
:107290008400002010B5034B0100186800F0B0F81E
:1072A00010BDC0468400002010B5034B01001868D3
:1072B00000F016F810BDC04684000020002310B571
:1072C0009A4200D110BDCC5CC4540133F8E70300EE
:1072D0008218934200D1704719700133F9E700001A
:1072E00070B50500002910D00C1F2368002B00DAB0
:1072F000E418280002F07EF81D4A1368002B05D11F
:1073000063601460280002F07DF870BDA34208D9C4
:10731000216860188342F3D118685B6841182160C6
:10732000EEE71A005B68002B01D0A342F9D911687F
:107330005018A0420BD120680918501811608342E0
:10734000E0D118685B68411811605360DAE7A04229
:1073500002D90C232B60D5E721686018834203D142
:1073600018685B684118216063605460CAE7C046D2
:107370005C100020F8B54B1E06000F0015001942E6
:1073800002D000242000F8BD082900D20827042DCF
:1073900000D204250323390003359D43083930000A
:1073A000491900F02DF80028EBD004380368002BB1
:1073B00000DAC018F91C41187C420C40011D631A08
:1073C0008C420AD0C7180B2B17D90268D21A3A6020
:1073D00003603000FFF784FF38002A0003680C3296
:1073E000C118A2189142CDD961190A1A9B1A0260DC
:1073F000300008C1FFF774FFC4E75B423B60ECE775
:10740000F8B50323CD1C9D43083506000C2D1FD273
:107410000C25A9421ED8300001F0ECFF25490A686E
:107420001400002C1AD1244F3B68002B04D12100FA
:10743000300000F01FFE38602900300000F01AFE16
:10744000431C2BD10C233000336001F0DBFF03E041
:10745000002DDEDA0C2333600020F8BD23685B1BAF
:1074600019D40B2B03D92360E418256003E063686B
:10747000A2420ED10B60300001F0C4FF20000722B1
:107480000B30231D9043C21A9842E6D01B1AA3501A
:10749000E3E75360EFE722006468C2E70323C41CFC
:1074A0009C43A042E1D0211A300000F0E3FD431CD0
:1074B000DBD1C7E75C10002060100020936810B596
:1074C000013B9360002B04DA9469A34207DB0A298D
:1074D00005D01368581C10601970080010BD00F02A
:1074E000E3FD0100F9E7F8B506000F001400D51818
:1074F000AC4201D1002007E021783A003000FFF7CC
:10750000DDFF0134431CF3D1F8BD0000F0B5A1B09C
:1075100006000C001F000392002804D08369002B92
:1075200001D101F035FE8E4B9C421CD17468636E14
:10753000DB0705D4A3899B0502D4A06D01F0CDFE25
:10754000A3891B0702D52369002B1DD12100300020
:1075500000F000FE002817D0636EDB070DD5012078
:10756000404221B0F0BD7F4B9C4201D1B468DEE7C0
:107570007D4B9C42DBD1F468D9E7A3899B05EED40F
:10758000A06D01F0ABFEEAE7002308AD6B6120338C
:107590006B761033AB760797039F3B78002B01D0B7
:1075A000252B4ED1039BFB1A0593039B9F420DD0C5
:1075B000059B21003000039AFFF795FF431C00D183
:1075C000B5E06A69059B944663446B613B78002B88
:1075D00000D1ACE001227B1C0393002352426A607D
:1075E00004A9543252182B60EB60AB601370AB658A
:1075F000039B052219785D4801F0F0FE039B5F1C98
:10760000002820D12A68D30604D5532304A95B1887
:1076100020211970130704D5532304A95B182B21CB
:107620001970039B1B782A2B16D00021EB68039F4F
:107630003A78781C303A8446092A4FD9002911D16A
:1076400017E00137A9E7494B2A68C01A0123834094
:1076500013432B600397CBE7079B191D1B6807910A
:10766000002B01DB0B9304E05B42EB60022313432E
:107670002B603B782E2B0AD17B782A2B37D1079BA6
:1076800002371A1D1B680792002B2DDB099303227A
:107690003978374801F0A2FE002807D0344B2A6819
:1076A000C01A40238340134301372B6039787B1C79
:1076B000062230480393297601F090FE002845D039
:1076C0002D4B002B27D10722079B07339343083309
:1076D00007936B69049A9B186B615DE70A214B4322
:1076E00067469B180939A3E701235B42CEE70023D5
:1076F0001A0001376B603978781C303984460929C3
:1077000003D9002BC3D00992C1E70A235A43674625
:107710005218093BEFE707AB009322002900300025
:10772000164B00F0D7F80490049B0133D1D1636E5F
:10773000DB0705D4A3899B0502D4A06D01F0CEFD23
:10774000A3895B0600D50AE70D980AE707AB00930B
:10775000220029003000094B00F07AFBE3E7C04625
:107760006CA600008CA600004CA60000F8A4000047
:10777000FEA4000002A50000D5780000E774000018
:10778000F0B51E00002314008BB09E4204DA802165
:10779000090673181E002D23129A149F13702023BC
:1077A00003229F43462F07D03B00453B59424B41A4
:1077B0001099013ACB18109309AB049308AB0393CB
:1077C000139B00920293109B22000193330000F060
:1077D000CBFD0500472F02D1119BDB0728D5109B5D
:1077E000EB180793462F14D12B78302B0CD10022A5
:1077F000002320003100FDF78DFE002804D1012375
:10780000109A9B1A139A1360139B079A1B68D3183C
:1078100007930022002320003100FDF77BFE0028A3
:1078200001D0079B09933022099B07998B4206D30D
:107830002800099B159A5B1B13600BB0F0BD591C07
:1078400009911A70F0E7F0B5831C87B00393050027
:107850000C002B230270002901DA4C4202336B70BA
:10786000092C31DD0A2704ABDE1D2000390001960A
:10787000FDF73AFE013E30312000317039000294AC
:10788000FDF74CFD029B0400632BEEDC019B3034C2
:107890009A1E13000399147004A8073098420ED85A
:1078A00004AB073300209A4204D804AB0930C01857
:1078B000019BC01A039B1818401B07B0F0BD187835
:1078C000013308700131E7E73023E418AB70281D5D
:1078D000EC70F1E7F0B595B00C0008921A9D099391
:1078E000070001F0F5FC036818000B9300F0D4FBCF
:1078F00000231293237E07221E0023680D900C9311
:107900000C992B68C90547D59B1893431A00083278
:107910002A601A685B68A264E3640122A36CE56CC8
:107920000A936B005B080E930A98A84B0E9952427B
:10793000FFF78CFB002831D10122A44B0A980E9945
:107940005242FDF7F7FD002828D10022002329002C
:107950000A98FDF7E5FD002803D023002D224333CC
:107960001A709B4D472E00D99A4D03230C9A236120
:1079700001339A43002322600A93099B210000935C
:107980003800089B13AA00F0F3F9431C00D09EE0D6
:107990000120404215B0F0BD0733B6E70A9A2B002C
:1079A00010002900FFF752FB00280AD0002D03DA4F
:1079B00023002D2243331A70874D472ED5D9874D8A
:1079C000D3E720223100636891430E915A1C47D1BE
:1079D0000733636080230C9ADB0013430022069276
:1079E00012AA059211AA0392232208A923600193E7
:1079F000636852180292009338002B000A9A04968A
:107A0000FFF7BEFE0E9B05001199472B08D1CB1C3A
:107A100002DB6368994246DD3300023BDBB21E00A5
:107A2000652E24D820003200013950301191FFF723
:107A30000AFF129A0A9013182361012A02DC2268B5
:107A4000D20701D501332361232308AA9B181B7891
:107A5000002B00D191E723002D2243331A708CE7CD
:107A60000E9A472AB6D1002BB4D10133B1E7662E66
:107A70001BD1636800290DDD2161002B02D1226832
:107A8000D20702D5013359182161119BA365002348
:107A90000A93D9E7002B03D101222168114200D0BB
:107AA0009A1C2261F1E767231E00119B129A9342F0
:107AB00006DB22682361D207E7D501332361E4E7BF
:107AC0000121002B01DC4918C91A5218E9E7226884
:107AD000530508D423692A0038000899099DA8474E
