:1020000000800020E53D00003B2200003922000056
:1020100000000000000000000000000000000000C0
:10202000000000000000000000000000CD3D0000A6
:1020300000000000000000002D220000393E0000DA
:10204000CD3D0000CD3D0000CD3D0000CD3D000068
:10205000913D0000CD3D000039340000D13D00002D
:10206000CD3D0000DD3C0000CD3D0000CD3D000039
:10207000CD3D0000CD3D0000ED3C0000CD3D000019
:10208000CD3D0000CD3D0000893B0000C93C000073
:1020900000000000CD3D0000CD3D0000CD3D000022
:1020A000CD3D0000CD3D0000CD3D0000CD3D000008
:1020B0000000000010B5064C2378002B07D1054B1B
:1020C000002B02D0044800E000BF0123237010BDA4
:1020D00080020020000000004CB80000044B10B546
:1020E000002B03D00349044800E000BF10BDC046E8
:1020F00000000000840200204CB80000FEE730BF62
:10210000FEE77047034B044A1A60044B044A1A6006
:102110007047C046C0060020FD200000C406002015
:1021200001240000064A0749136A1940C0231B0412
:102130000B431362136A1B021B0A13627047C046EB
:1021400000ED00E0FFFF00FF8023034A5B055168BC
:102150000B4353607047C04600ED00E010B5FFF739
:10216000F3FF10BD054B06491860064A0B6A1A407A
:10217000C0231B0413430B627047C04604070020B2
:1021800000ED00E0FFFF00FF064B10B5064A1860A7
:10219000064B07481A6003221A72064A1360FFF7BB
:1021A000E1FF10BD2004002044AC00002005002009
:1021B000FD2900002C050020044B054A1960054B41
:1021C0001860136A1B021B0A13627047D00F0020AD
:1021D00000ED00E0FC06002010B5034B0349186831
:1021E000FFF7EAFF10BDC046200400205D2100007B
:1021F000EFF30980704780F309887047084B10B5EA
:102200001A68002A0AD0074B1968481C186006484B
:102210000068814202D3002119609047002010BD60
:10222000D00F0020F8060020FC060020014B1B68A0
:102230009847C0460407002000E0FFE773465B07AD
:1022400002D5024B1B689847014BFBE7C0060020F4
:10225000C406002010B502600171002906D0662472
:10226000012908D1022A44D1113202E0022A08D100
:102270000C3282600124002B45D0012B48D0200075
:1022800010BD042A01D10D32F3E7052AFBD0082A3C
:1022900001D10D22EDE70A2A02D101248460EAE788
:1022A0000B2A01D18160E5E70C2A01D10A32E0E76F
:1022B0000F2A01D10A3ADCE7102A01D1053AD8E702
:1022C000112AE6D0122A01D1083AD2E7132A01D105
:1022D000073ACEE7142A01D10E3ACAE7162A01D1ED
:1022E000023AC6E76624172AC5D1023A8260653CE5
:1022F000C1E7082A03D107320C008260BBE76624DD
:10230000092AB8D1F7E70121806801F0CDFFB6E7CF
:102310000021F9E710B5806801F0F6FF10BD00005C
:10232000002370B5E1250B4C190008222000FFF7AF
:1023300091FF20000021FFF7EDFF074C6D022900FF
:10234000200002F025FB0022044B5D601A809C6097
:1023500070BDC046C8060020B81700201407002032
:1023600010B5806801F0FCFF431E9841C0B210BD5B
:1023700010B5406801F024FF10BD037810B5002BA4
:1023800002D0012B05D010BD806803681B689847F8
:10239000F9E7C068F9E770B505000C00217800295D
:1023A00004D028000134FFF7E8FFF7E770BD000014
:1023B00037B504000E4D0F492800FFF7ECFF280049
:1023C0002100FFF7E8FF01250B4C2000FFF7C8FFB5
:1023D0006840C1B22000FFF79DFF0023074A019328
:1023E000019B9342F0DC019B01330193F8E7C04667
:1023F0001407002049AC0000C80600207FA9030094
:1024000010B50148FFF7D4FF65AC000010B501001E
:102410000148FFF7B2FF10BD14070020002301217F
:10242000074A013311720C32642BFAD100231900D0
:1024300004489A00121801331160642BF9D17047D7
:102440002407002030050020084A00231100107ADC
:10245000002805D00C205843002308180372704749
:1024600001330C32642BF2D1F9E7C0462407002077
:1024700070B505000C00FFF7E7FF03000220002BFA
:1024800009D005491D600A685C60501C0860012085
:1024900002499200535070BD000700203005002013
:1024A000030010B502680A24002011783039092988
:1024B00003D8604301320818F7E71A6010BD000026
:1024C000F0B59BB01D0023AB1E786B461E75F3075D
:1024D000DB0F08937307DB0F0493F306DB0F019008
:1024E0000F001400654911220BA8079305F03EFE6A
:1024F0001122634910A805F039FE10AB069373064C
:1025000001D40BAB06930223209A9A43082A03D0E6
:10251000209B102B00D0AEE06B461B7D9B06DA0F94
:102520000392002B22DA002D20DA22002B00002556
:1025300054429D4100230293209BDB170993230003
:10254000029E2B431DD020002900209A099B03F0F6
:102550006FFE2C25069B029C9B5C0AAA5219135500
:10256000029B040001330D000293E8E723002B4394
:1025700002D000230393DDE73021012615AA117054
:102580000393229CB44200DA3400039B002B02D157
:10259000089B002B6BD0219B013B2193049B002BBC
:1025A00002D0219B023B2193039B002B41D0390099
:1025B0002D20019B9847049B002B07D03900302029
:1025C000019B984739007820019B98476B461B7DFB
:1025D0009B0712D4079B2025002B00D03025EBB29F
:1025E000219D0293AC422FDB219B21995A1E00238F
:1025F0008C4200DC631AD3182193079B2025002B03
:1026000000D03025EBB225000293AE4222DB00233E
:10261000B44200DB331B3500219A9C18002D1FD1DA
:10262000A61B002E27DD39002020019B9847013E84
:10263000F7E7089B002BBED06B461B7D20201B07B5
:1026400000D40B303900B4E739000298019B984759
:10265000013DC7E739000298019B9847013DD4E747
:1026600015AB013DE85C3900019B9847D6E7049B18
:10267000002B96D1AAE71BB0F0BDC04694AC000079
:10268000A5AC0000F0B51C0089B00490059107923C
:10269000079B1A78002A00D12BE15A1C0792187860
:1026A000252803D00599049B9847F1E700230026CD
:1026B0009C461D001F0006930799481C07900A7846
:1026C0002B2A3DD046D8202A3CD0232A3DD0002FAB
:1026D00000D00126002D01D0022216436246002AB6
:1026E00001D004221643069A002A01D0082216437C
:1026F000002B01D010231E4307910B782A2B2FD1DA
:1027000080CC0790FB43DB171F40079B1A782E2ACB
:1027100034D15A1C07925A782A2A2AD120CC023363
:102720000793EB43DB171D40079A531C079311785F
:102730006C2948D025D868293DD00423079225E08C
:102740000127B9E701220692B6E701229446B3E7D2
:102750000125B1E72D2AFBD0302AB8D10123ABE700
:10276000303B0027092BD0D807A8FFF799FE0700B8
:10277000CBE707A8FFF794FE0500D5E701256D42DA
:10278000D2E70423742901D07A29D6D1079A511CA3
:1027900007911078692822D02AD858285CD01AD8F6
:1027A000252800D17EE7079B1A78252A00D19CE0D6
:1027B000013B0793F7E7517802236829E6D1D21845
:1027C0000792013BE2E7517804236C29DED1023203
:1027D0000792DB18DAE7632869D06428E3D1581E32
:1027E000072831D803F066FB112430273030302918
:1027F0007038C2B2082AD6D80828D4D803F050FBC3
:1028000027D3D35AD33BD3D32E0004CC52B2D31701
:1028100020210E43691C00D1002503A90E700A2156
:1028200002950197009104980599FFF749FE2FE75B
:1028300004CC12B2EBE704CCE9E7072307349C434E
:10284000230008340CCBE3E700221300E0E7042266
:1028500016436A1C00D10935402216431822102164
:1028600096430E43581E07281ED803F023FB06117B
:102870001D141D1D1D160A21F4E704CCD2B200233D
:10288000681C00D1002503A8067002950197C9E7CE
:1028900004CC92B2F3E704CCF1E7072307349C435E
:1028A000230008340CCBEBE700221300E8E701CC4F
:1028B000C0B2F7E640CC37006B1C08D13078002856
:1028C00000D1E5E60599049B01369847F6E77319B0
:1028D000DB1B002B00DCDBE63878002800D1D7E6D4
:1028E0000599049B01379847F1E75A1C079218781D
:1028F000D8E609B0F0BD00000F4B104A10B51A60C1
:102900000F4A0A245A600F4A9A600F4ADA600F4A47
:102910001A610F4A5A610F4A9A610F4ADA610F4AE7
:102920001A6200221000910059580132C8620863EF
:102930008C62092AF7D110BDFC0400208C04002011
:10294000EC03002050030020840300201C0300201F
:10295000C404002058040020B803002024040020F0
:10296000064B800010B5C458206B8300E150013045
:10297000A16A03F02FFB216310BDC046FC040020B8
:10298000064B800070B5C458E06AA16A830001302C
:102990001D5903F01FFB2800E16270BDFC040020FC
:1029A000034B8000C358D86A1B6BC01A7047C046DF
:1029B000FC040020F8B5037A0100032B02D0407A12
:1029C000FFF7CEFF00250B4FEE5D3000FFF7E8FF6D
:1029D000002808D03000FFF7D3FF0400002C06D1F8
:1029E0000548FFF7E5FC0135052DEDD1F6E72000A0
:1029F000F8BDC04634AE0000B6AC000072B6EFF3CE
:102A000009801038F0C044464D4656465F4620388F
:102A1000F0C0103880F309880D4C23681B7A032B13
:102A200003D0FFF7E5FB236858602068FFF7C2FF7B
:102A300020604068FFF7DFFBF0C8A046A946B24619
:102A4000BB46F0C880F30988024862B60047C0461A
:102A50002C050020FDFFFFFF074A00231000117A1C
:102A6000022903D10C225343C018704701330C32A2
:102A70000A2BF4D10020F8E7A0020020EFF3108326
:102A800072B603607047036883F3108870470000D4
:102A9000F0B51600002589B0039001911F4B1B680B
:102AA000AB4239D91E4AAB00D458002C32D0216831
:102AB000039806F049FA00282CD1646805A8FFF7AE
:102AC000DDFFE36862680693A36807930799069B96
:102AD000994218D90799069B5B1A9B189B19934238
:102AE00015D8019FF3190293029B9F420FD0E36810
:102AF0003A7821680137CA54E0686168013003F010
:102B000069FAE160F0E7069B07995B1AE6E705A81A
:102B1000FFF7B9FF0135C1E709B0F0BD000700209C
:102B20003005002010B58AB00690079108920993ED
:102B3000002306AC03A9220A4C708A70220C240ED2
:102B40000C7101ACCA70220A8A71220CCA71220E61
:102B50000A72084809220B704C712371FFF798FF25
:102B60002379002B02D1FFF7EFFAF9E720680AB0CA
:102B700010BDC046ECAC0000012210B58AB006AB17
:102B80000690079103A90A701A0A01AC4B708A706B
:102B90001A0C1B0E0B71230A8B71230CCB71230EA5
:102BA0000B720023CA70074809224C712371FFF78A
:102BB0006FFF2379002B02D1FFF7C6FAF9E70AB0BD
:102BC00010BDC046ECAC0000022210B58AB003A9CB
:102BD00006AB0A701A0A01AC4B708A701A0C1B0EF5
:102BE0000B71230A8B71230CCB71230E0B72002304
:102BF0000690CA70084809224C712371FFF748FFFC
:102C00002379002B02D1FFF79FFAF9E72068431ED2
:102C10009841C0B20AB010BDECAC0000F8B500237A
:102C2000234E190012223000FFF77CFF0023214DB4
:102C3000190010222800FFF775FF00231322190046
:102C40001D48FFF76FFF1D4C2000FFF7BDFF01235C
:102C50005840C1B22000FFF78FFF30000121FFF77D
:102C60008BFF28000021FFF787FF134F002138005A
:102C7000FFF782FFFA20800001F01CF92000FFF727
:102C8000A3FF01235840C1B22000FFF775FF3000B9
:102C90000121FFF771FF28000121FFF76DFF3800C8
:102CA0000121FFF769FFFA20800001F003F9CAE76C
:102CB000EC060020E0060020D4060020C806002014
:102CC0000FB437B506AC20CC6846FFF7D7FE2A0014
:102CD0002300002105480194FFF7D4FC6846FFF764
:102CE000D2FE37BC08BC04B01847C0460D24000013
:102CF00007B500236A4613800E3301936846FFF739
:102D000037FB01000348FFF7DBFFC82001F0D2F8D2
:102D1000F4E7C046FCAC0000F0B5040085B001A8A3
:102D200015000E00FFF7AAFEA3680293E368039361
:102D3000029A039B9A4218D9029A039B9B1A6268D3
:102D40009B189D4200D91D00002D12D07719B74263
:102D50000FD0A3682268D35C3370A068616801302B
:102D600003F038F90136A160F1E7039B029A9B1A40
:102D7000E7E701A8FFF787FE280005B0F0BD0000D7
:102D8000054B10B51B78002B02D10448FFF710FB50
:102D9000034B186810BDC0469C02002011AD000016
:102DA000F8040020094B10B51B78002B02D108480D
:102DB000FFF7FEFA074B80001A68101A072210422C
:102DC00001D00138FBE7186010BDC0469C0200200E
:102DD00026AD0000F8040020F7B50F0015001E0016
:102DE0000190FFF739FE041E02D11848FFF7E0FA00
:102DF00000230760037246721020FFF7D3FFFFF72E
:102E0000BFFF606028001038FFF7CCFF104A6368EE
:102E100001325A6380220198520401309863DA63C8
:102E20000C4B21001A683000551C1D60FFF798FDFF
:102E3000022D09D1084B1A69D36A9B009B58586828
:102E4000FFF7D9F9FFF7C8F90120FEBD41AD000039
:102E500001210000C0040020FC04002010B5052062
:102E6000FFF792F90222184B591CCA7719002C312E
:102E70000A70190038310A70190044310A701900BB
:102E800050310A7019005C310A70190068310A70FB
:102E9000190074311A721A750A709A6F0A329A6799
:102EA000FFF72AFD094B0A4A0A491A6001220A4B18
:102EB0000A481A7000220A4B1A608032042352001A
:102EC000FFF78AFF10BDC046A0020020F8040020D2
:102ED000005000206CAD00009C020020FF2000008C
:102EE000C0040020084A094BFA2110B513600023E2
:102EF000890093605160D360802205490548D20063
:102F0000FFF76AFF10BDC046D80B0020E80B002079
:102F100080AD0000D12F000010B5FFF703F9FFF7D7
:102F2000FFF9FFF7EFF8FFF799FFFFF777FAFFF7E1
:102F3000D9FF10BD10B5FFF7EFFF8022002306492F
:102F4000D2000648FFF748FF8022002304490548C5
:102F5000D200FFF741FFFEE791AD00001D2C0000FD
:102F6000A3AD0000F12C000073B50C0006000100B9
:102F700015481500FFF7A4FE21686268A368E068A1
:102F800000901248FFF79CFE012E0FD0022E16D0A3
:102F9000002E08D120686168A268E368C9B2DBB27C
:102FA000FFF758F9286001232B7107E0206861685A
:102FB0004B1E9941C9B2FFF7ADF92E7173BD206860
:102FC000FFF7CEF9EEE7C046C1AD0000E2AD00006C
:102FD00070B5174D17482900FFF74AFA164C092219
:102FE00021002800FFF798FEC0B200281CD0092855
:102FF00002D01248FFF7DCF9A27963791202D218E5
:10300000E379A1781B04D218237A09021B06D2188F
:1030100063782078C918E3781B04C91823791B0644
:10302000C918FFF7A1FFD9E7FFF78EF8D6E7C0462A
:10303000D80B0020ECAC00000807002018AE000000
:103040000378034A9B009B58002249331A7070474B
:1030500028100020F0B5040085B01E000AAB1B78D4
:10306000103001930BAB1B78170002930CAB1B784D
:103070000D00039300F0AEF92000243000F0AAF90F
:10308000220000234832A363E36323646364137064
:10309000537063729D4205D12221084B084A0948AA
:1030A00004F0F4FF2000019B25606371029B2771EF
:1030B000E371039BA671237205B0F0BD39AE000029
:1030C0004AAE00009EAE000030B5040085B002ADEF
:1030D00000680291039201F0B3FA6B79227AE179E8
:1030E00020680093002301F08FFB2979029A206861
:1030F00001F0CAFA206801F099FA05B030BD10B5A8
:103100000400006801F085FA0023637210BD00001E
:1031100007B5837A00910192002B07D09A070AD550
:10312000EFF310835A425341C37272B60099019A69
:10313000FFF7CAFF07BDDB07F8D5C368014A9BB29A
:103140009360F3E700180040837A002B05D09A07BC
:1031500004D5C37A002B00D062B67047DB07FCD5DC
:10316000C368024A9BB2D360F7E7C046001800402C
:1031700010B5006801F06DFA10BD7047704700008F
:1031800010B5006801F094FA03000020834203DBCD
:103190000C304343014A985810BDC04610AF0000A0
:1031A00010B5006801F084FA002805DB0C234343C6
:1031B0000348C018406810BD01204042FBE7C046EC
:1031C00010AF000010B5006801F072FA002805DBAE
:1031D0000C2343430348C018806810BD01204042BF
:1031E000FBE7C04610AF0000F0B506001036050042
:1031F00089B0300000F044F9002869D12F0024374D
:10320000380000F03DF9041E5FD12800FFF7DAFF17
:10321000C1B2300000F014FA0221300000F034FA9C
:103220002C490122300000F007FA2B7C2A4A9B002F
:1032300028009D50FFF7B4FFC1B2380000F000FA3B
:103240000221380000F020FA6B1DDB7F224A9B0030
:1032500028009D50FFF794FF0123010022000293F4
:1032600030002300049403940194009400F030FA99
:10327000A8632800FFF784FF0123020021000193C7
:1032800038002300049403940294009400F020FA80
:10329000E863402004F056FF2A0048322864079271
:1032A00000280BD00123137068646B6C102218196E
:1032B000E96B103404F05AFF402CF6D1079B1B78C1
:1032C000002B05D1380000F075F9300000F072F9DC
:1032D00009B0F0BD413000002810002070B5437ADD
:1032E0000400002B03D1012243814272C3602300FA
:1032F00048331B78002B02D12000FFF775FF1826FA
:103300003300082120790D4D4343EB18595601F045
:103310003FF833000821A0794343EB18595601F0D8
:1033200037F8082160794643AD19695601F030F845
:10333000034B200006CBFFF7C7FE70BDD0AF0000E7
:10334000201000201FB5094A094B0A4913600023C9
:1033500093800293013301931633009316220133B5
:103360000548FFF777FE05B000BDC04620100020DD
:1033700000093D001C170020D40F0020084B1968DD
:10338000002909D1EFF31080064A002803D172B654
:10339000BFF35F8F013111701A6801321A607047F4
:1033A000E8110020E4110020084B1A68002A0CD014
:1033B0001A68013A1A601B68002B06D1044B1B786F
:1033C000002B02D0BFF35F8F62B67047E811002078
:1033D000E4110020FF2310B50370C0230021040076
:1033E0009B004170418083800C22083004F0C7FEAE
:1033F000200010BD01230A0010B51A40194208D060
:103400000C4A1370033343708368002B00D0984735
:1034100010BD0223194204D006490B70C3684270E4
:10342000F3E704231942F3D0024A137003334370C5
:103430000369EAE74E48004110B5FFF79FFF0C4BC8
:103440001B8C1B071B0F0B2B0FD80A4A990088589F
:1034500000280AD00F2408490A78A24313430B70AE
:10346000064B1978C9B2FFF7C5FFFFF79DFF10BDE6
:1034700000480041EC1100203F4800414E48004107
:10348000F8B500230278050018000B2A77D93C4EC6
:103490002B702B780B2B07D801229A4031681142F0
:1034A00004D001332B70F4E7012068E0FFF766FFDA
:1034B0003768344C002F2BD12022334B33485969C5
:1034C0000A435A611022D9690A43DA610222238829
:1034D0003900934323802388013A134323802C4BE4
:1034E0006063BF32A36304F04AFEC022390028485B
:1034F00004F045FE4022C120264B80002380264B4D
:1035000026491A601A581140C02212040A431A5060
:1035100001231A00297830688A40024332600F265E
:103520001F4A880085501F4831400278B2430A4341
:10353000027002201C4A11788143117011781943DE
:103540001170297822698B409A43226160223F21C1
:10355000636C934363642A79636C0A4013491202D3
:103560000B400321134363646A79636C0A4010497A
:1035700092050B4013436364FFF716FF0020F8BD6C
:10358000E01100200048004100040040201100200C
:1035900060100020020F000000E100E0FFFF00FFCC
:1035A000EC1100203F48004140480041FFC0FFFFB0
:1035B000FFFF3FFF70B50500FFF7E0FE6B785CB2E0
:1035C000062B2BD02B7802240B2B27D801229A40D4
:1035D000144B1968114221D01968914319601B6876
:1035E000002B14D14022104BDA67BFF34F8FBFF38B
:1035F0006F8F21000D4A0E311388A34313800C4BAB
:10360000DA698A43DA615A6910318A435A610024BF
:103610002B78084A9B009C50FF232B70FFF7C4FEB9
:10362000200070BDE011002004E100E000480041EE
:1036300000040040EC11002002329200115070474B
:10364000037870B505000C0001710B2B14D8FFF73F
:1036500095FE29780F25094829400378084AAB438D
:103660000B4303703F23516C1C40064B240219404E
:103670000C435464FFF798FE70BDC0463F480041BC
:1036800000480041FFC0FFFF037870B505000C0043
:1036900041710B2B14D8FFF771FE29780F250948CB
:1036A00029400378084AAB430B4303700323516C52
:1036B0001C40064BA40519400C435464FFF774FEEC
:1036C00070BDC0463F48004100480041FFFF3FFF3A
:1036D000F0B587B001930CAB1E780DAB1B780500DD
:1036E00002930EAB1B780078039310AB1F78049104
:1036F00005920B2802D9002007B0F0BD6B78062B8D
:10370000F9D0AB78002B00D179E01021080004F04B
:103710000FFD0028EFD02B783B4A1B019B181A00A5
:10372000D168002904D0D1688B4201D0D268F7E774
:10373000D06001220223AA70964203D0DB18022E29
:1037400000D0130006240188114301800188A143A1
:10375000018001881234A1430180153C0188264074
:103760002A4C360221400E430680029E0188284CD6
:1037700016402140B6020E430680039E0188254C68
:1037800016402140F6020E4306800188224E3A4040
:10379000314012030A43072102800F9A1140028828
:1037A0004903D204D20C0A4302806A4692884280BE
:1037B000049A4260029A002A08D0019A41685A434A
:1037C000002F01D00F9CA2408A184260059A8260A7
:1037D000039A002A09D0019A84685A431300002FE3
:1037E00001D10F9A9340E31883600023EA789A424C
:1037F00003D02B78044A1B019B18C3607CE7024B63
:103800000001C01895E7C04620110020FFFCFFFF13
:10381000FFFBFFFFFFF7FFFFFFEFFFFF7047704762
:1038200070477047704741717047817170470171EF
:103830007047000010B5034C0834046001714271F8
:10384000837110BD58AF00007047000010B50248EA
:10385000FFF78EFC10BDC046D40F002010B5024803
:10386000FFF78BFC10BDC046D40F002010B50248F6
:10387000FFF784FC10BDC046D40F002010B50279BC
:10388000042A26D0032A26D0022A26D0013A5342FF
:103890005A41154B52421A40D21843798179013B63
:1038A00000291CD001291AD0022918D0032916D0CA
:1038B00059424B410021DBB2140A02724472140CCB
:1038C000120E8472C272017343730848FFF706FD3B
:1038D00010BD074AE1E7074ADFE7074ADDE75C4238
:1038E0006341DBB2E8E7C04640420F00D40F00203E
:1038F0000024F40000127A0000093D0010B50248CF
:10390000FFF7FDFB10BDC046D40F002010B5816845
:10391000C2680248FFF7FCFB10BDC046D40F002070
:1039200010B50248FFF710FC10BDC046D40F0020B0
:1039300010B50400FFF77EFF044B2000083323601E
:10394000034BA3600023A38110BDC0468CAF0000D1
:1039500000093D00002310B51A0019000148FFF7C7
:10396000E7FF10BD1C12002010B5C31C0400D87F57
:1039700000F0F6FC431E98410634E37F584010BD2A
:1039800010B50430C07F00F0BFFC10BD10B5C31DE2
:10399000DB7F0530C07F594000F0B6FC10BD10B58C
:1039A00003790400022B08D00021FFF7EFFF00216C
:1039B0002000FFF7E5FF0223237110BD08238810C4
:1039C0001840030010B5064A0833984205D0145C2D
:1039D0008C4203D00130C0B2F7E7002010BDC046D2
:1039E000C0AF0000F8B50400FFF7BEFF002805D007
:1039F00022002A3213780133DBB213702100230036
:103A000029310A782B33824252D01A780B254F2A5B
:103A100000D912351A785219D2B21A7008701A7871
:103A20009F2A44D92100E28D2A315208E2850A7882
:103A3000042A04D98022E08D12010243E2851A781B
:103A400025006032D2B21A7000232C350B702A7810
:103A5000D3B2002A48D02600303633780133DBB2A7
:103A600033700B2B23D93F23E18D20001940FFF742
:103A7000A5FFE18D07008909C9B22000FFF79EFF6D
:103A80002100220075313F010B783843C0B27432F7
:103A9000002B12D110701378062B02D91378432B08
:103AA0000BD900232B70638A01339BB26382F8BD6C
:103AB0001A781432D2B21A70B1E70B785F1CE3188F
:103AC0003133FFB20F70187009781378994208D318
:103AD00000232B702300012208332000DA77FFF740
:103AE0005EFF00233370E2E7E18D054A9142DED1AB
:103AF00001222A7022007534303213702370D6E709
:103B0000380B0000F7B5050078352F7804007B1CD2
:103B10002B70002F0ED10300020076330193FF3289
:103B20001B78127A9A420BD8FFF739FFE38A0133E8
:103B30009BB2E3822B78072B01D900232B70F7BDB2
:103B40000600C31877367933197833785A1C19412F
:103B5000012332701940FFF713FF3378052BE9D9A1
:103B6000019B37701B78019A01331370E2E70379E8
:103B700010B5042B02D1FFF735FF10BD0379032BDD
:103B8000FBD1FFF7BFFFF8E71023054A10B5917B83
:103B90000B439373034B1868FFF7E9FF10BDC04652
:103BA000002C00422C120020F7B50C27404E019348
:103BB000335C04005BB20D0047430092002B2EDA09
:103BC00000230B82EB7BDB09FCD1335D394A0133E7
:103BD0005BB23355335D12785BB2DB19934203DA83
:103BE000335D5BB20B2B34DD2F8ABFB2EB7BDB097D
:103BF000FCD1314B3149186802F066F9304B009A1C
:103C00005843043700090C3287424CD280B252002C
:103C10005053EB7BDB09FCD1FF33335540E0335C81
:103C2000244A5BB21278DB199342CEDA335C254A20
:103C30005BB2DB19DB009B5C5B06C6D5335C002105
:103C40005BB2DB19DB00985C8006800E00F05CFB49
:103C5000BBE7335D1B4A5BB2DB19DB009B5C5B0699
:103C600009D5335D01215BB2DB19DB00985C80066E
:103C7000800E00F049FB2A8A92B2EB7BDB09FCD173
:103C8000335D5BB2DF190F4BFF00DF197B68D31880
:103C9000009A9BB20C3252005353EB7BDB09FCD1F0
:103CA000019BAB73F7BDBFB252005753B1E7C0469B
:103CB00031120020301200200000002040420F008E
:103CC000204E000034120020002210B510231000F6
:103CD0000149FFF769FF10BD0030004210B50248EE
:103CE00001F03DFF10BDC0469412002010B50248FF
:103CF00001F035FF10BDC046D0140020F7B50124F7
:103D00000326154F1549380000F0FAFB14491548F1
:103D100000F0F6FB1449154800F0F2FB1449154871
:103D200000F0EEFB1449154800F0EAFB144D15496C
:103D3000280000F0E5FB39002300009600220194E2
:103D4000114801F0A3FE290000961E231F220194B2
:103D50000E4801F09BFEF7BD0C1700200008004242
:103D6000000C004210170020001000421417002021
:103D70000014004218170020001800421C170020F1
:103D800020170020001C004294120020D0140020B4
:103D900070B50024094D0A4B1B68A34200D870BDC2
:103DA000084E2A6833691A4205D0074BA200D3583F
:103DB00098472B68336101340435ECE7681700201D
:103DC000AC1700200018004024170020FEE7000078
:103DD000034B10B51B68002B00D0984710BDC046A0
:103DE000B01700200F4A1048110010B50F4B824247
:103DF00002D0934209D11300824209D100F07CF82D
:103E000001F096FFFEE710CB10C18142FBD3F3E730
:103E1000074A8B42F2D00021064B9A42EED202C2F0
:103E2000FBE7C046000000208002002058B80000D8
:103E300080020020B81D002010B5FEF7DFF9002831
:103E400001D100F04DF810BD014B18607047C0461D
:103E5000B0170020F7B51348012284461249134CCD
:103E60008E68636805689B0E1340019288686268DB
:103E7000019F920E3A4067463F6893420ED1BD4281
:103E80000CD186420AD35B19FA254868AD00861B1F
:103E900007486B437043000DC018FEBD3D00130082
:103EA0000600E3E7B417002010E000E000ED00E0BA
:103EB0005555000070B5041E11D0FFF7CBFFFA2650
:103EC0000500B60000F016F8FFF7C4FF401BB04233
:103ED000F8D3FA23013C9B00ED18002CF4D170BDFF
:103EE00010B5034A13680133136000F0CFFA10BD18
:103EF000B4170020704700001E2270B5464847499D
:103F0000436893431C3A1343436008238C6923435B
:103F10008B61434C434B9C829C8A14439C82DC689B
:103F20001442FCD00124404A14701578254203D075
:103F300055786DB2002DF8DB01249460547864B29A
:103F4000002CFBDB394C5460547864B2002CFBDB52
:103F50008224E4015480547864B2002CFBDB0224F8
:103F60009C840E34DD682542FCD0314CDC62102488
:103F7000DD682542FCD09D8C2E4C2C439C84102463
:103F8000DD682542FCD002249D8C80262C439C8435
:103F90004024DD683542FCD0DD682542F9D010248C
:103FA000DD682542FCD000249460547864B2002C73
:103FB000FBDB214C5460547864B2002CFBDB1C6AA0
:103FC0001E4D2C4080251C621C6AAC431C620323DE
:103FD00093601B4B536053785BB2002BFBDB0023D9
:103FE000FF240B72174A4B728B72CB72164B1A60FE
:103FF000164B174A1B6811689A065B01C90E2340CD
:10400000520F12020B431343124A13858023426856
:104010001343436070BDC0460040004100040040AF
:104020000C06000000080040000C004001050100E3
:10403000B905FF7D040A000000070300FFFCFFFF35
:1040400003060100006CDC020000002024608000F8
:104050002060800000400042FA212E4B10B5186805
:10406000890001F031FF802301385B0498424FD270
:1040700029492A4A4860C020136A00061B021B0A0D
:104080000343136200238B6007330B608021136AA4
:1040900009061B021B0A0B431362FC22204B196A00
:1040A0000A431A62FF22196A12020A431A62A02204
:1040B000196AD2020A431A621A4B1C005A7852B289
:1040C000002AFBDB184A5A80184B1A00597EC9098E
:1040D0000129FBD0C821890099800521D970537E20
:1040E000DB09012BFBD0C02300205B011361907022
:1040F00000F022F863785BB2002BFBDB0C4B0D4A1F
:104100006380D379DB09012BFBD04123537010BDB1
:10411000FEE7C0460000002010E000E000ED00E0F7
:1041200000040040000C00401E400000004000421F
:1041300021400000004800421F4900B50B004A7EA4
:10414000D209012AFBD001380A282FD801F0B2FE8B
:104150001B2E2E2E2E2E062E2E2411001A691749E4
:104160000A400F211A615A788A43110001220A433A
:1041700010E01A6911490A400F211A615A788A43DE
:1041800011000322F3E71A690C490A400F211A6152
:104190005A788A435A7000BD1A6908490A400F21AB
:1041A0001A615A788A4311000222E0E7F022196965
:1041B00012050A43F3E7C04600400042FFFFFFF04C
:1041C00010B5040006285ED007285ED0052800D868
:1041D0000E340121200000F0DBF80E2C0DD12D4B08
:1041E0001900DA79D209012AFBD002201A78824319
:1041F0001A70CB79DB09012BFBD027490B004A7ED3
:10420000D209012AFBD018206043244C0A692418E3
:10421000207C1F242040A24302430A615A7ED20917
:10422000012AFBD0022219780A431A705A7ED20959
:10423000012AFBD00222197B0A431A7301221A7643
:104240005A7ED209012AFBD00222197B0A431A7333
:104250001A7ED207FCD5588B80B25A7ED209012A29
:10426000FBD002211A788A431A705A7ED209012A99
:10427000FBD00B4B1A680B4B1B689A4202D006D935
:10428000D31AD84010BD2C24A3E72D24A1E79B1AF4
:104290009840F7E70048004200400042D0AF0000DD
:1042A0000400002008000020182310B508245843FB
:1042B000134A13181C57013412D001245B6882562C
:1042C0009C4003290CD808000E49D2015218D3187B
:1042D000403301F0EFFD0210060B0221197054600B
:1042E00010BD0621197054609461F9E70621197018
:1042F00054605461F4E7022119709460F0E7C046FD
:10430000D0AF0000004400411823F0B50824584302
:10431000114A13181C5701341BD0012635005F6861
:104320008356BD400D4ADB019A18906805420BD1B7
:104330000C00601E8441D21940321078344003369C
:10434000A400B04320431070044A9B18002901D1F7
:104350005D61F0BD9D61FCE7D0AF0000004400410D
:10436000182310B50824434307490020CA181457DE
:10437000013408D05B560549DB015B18186A5368A5
:10438000D8400123184010BDD0AF000000440041C8
:10439000182370B5082643432A4AD518AE5734006F
:1043A000013607D0072907DC00291DDA01314C420C
:1043B0004C416442200070BD0B00083BDBB200247E
:1043C000032BF7D8092903D12100FFF76DFFF1E78F
:1043D0000A2904D10839FFF767FF0024EAE700241F
:1043E0000B29E7D10A39F0E76C68012520009B56BC
:1043F000C9B262082840DB012C4211D012480E35A8
:104400001B189A1830321078090128400143C9B2AC
:10441000117041221B19403319780A431A70DCE7E6
:104420000F26094D5B199A18303215781B19B543C0
:104430002943117041224033197804000A431A704D
:10444000B8E7C046D0AF000000440041F8B5050011
:104450000E0017000024BC4208D02B682800315DF4
:104460001B689847002801D00134F4E72000F8BD0C
:10447000014B18607047C0460C0000200122024B1F
:1044800052421A607047C0460C000020164A10B510
:104490001368591C27D0013B1360002B23D172B63F
:1044A0008122124B92000433934213D3104A01210C
:1044B0001000147D0C42FCD02021148BFF319B088E
:1044C0005B0021431183D3610A4B13800123027DDA
:1044D0001A42FCD0BFF34F8F074B084ADA60BFF394
:1044E0004F8FC046FDE710BD0C00002000200000EB
:1044F0000040004102A5FFFF00ED00E00400FA05C6
:10450000016070479446F0B505AC25789C1E621E8C
:104510009441624606689207376824063A4322436C
:104520000724326000682140AD010024426829431D
:10453000022B00D05C030A4322434260F0BD30B539
:10454000C0250368AD031C6812052A402243C0241D
:104550000904A40221400A431A6003685A681443FC
:104560005C6030BD0123026811680B43136003686F
:104570001A68D207FCD4DA69D207F9D4704702234B
:10458000026811680B4313600268D3699B07FCD46F
:10459000704703681A7ED20702D41A7E9207FCD5B0
:1045A0007047002203685A8370470368187E4007EB
:1045B000C00F70470368187EC009704780230268E7
:1045C0005B42117E0B43137670470368588B80075C
:1045D000C00F704702230268518B0B43538370470F
:1045E0000368187EC007C00F70470368188DC0B2FB
:1045F000704703681A7ED207FCD589B2012019855D
:104600007047012203689A757047012203681A7582
:1046100070470123026811680B43136003681A682E
:10462000D207FCD4DA69D207F9D4704702230268B2
:1046300011680B4313600268D3699B07FCD4704771
:104640000368DA699207FCD402211A688A431A6067
:1046500070470268936A5B0A5B020B4393620368CC
:104660001A7E5207FCD5986AC0B2704710B505484B
:10467000490001F029FC80B2002801D0013880B245
:10468000C0B210BD006CDC0270B50C000126110038
:104690006308026833403440156824075B072343EE
:1046A0002B4313600468FFF7E1FF207370BD000027
:1046B0000368104A934213D00F4A934212D00F4A14
:1046C000934211D00E4A934210D00E4A93420FD01B
:1046D00001200D4A4042934201D1063040B270475A
:1046E0000020FBE70120F9E70220F7E70320F5E7C8
:1046F0000420F3E700080042000C004200100042D2
:104700000014004200180042001C0042F8B5FFF7F8
:10471000CFFF00282CDB1D4BC0001818052304799F
:10472000C3560320FF221840C0008240C021D2435C
:104730008140002B1DDB1F2501201D40C026A84005
:10474000134D7600A851C0269B089B005B19B6004C
:104750009F593A401143995128603F2323408024B8
:10476000E4011C430B4B5C805A7852B2002AFBDBFD
:10477000F8BD0F200340083B07489B089B001B180F
:10478000D86902401143D961E7E7C04620B4000070
:1047900000E100E0000C004000ED00E0F8B504008E
:1047A0000F0016001D00FFF7B1FF2000FFF7DAFE33
:1047B0001C21BB000B4071072268090C0B431360DE
:1047C000842322689375012F1AD11021012E00D065
:1047D00008390C4B69431868C00001F075FB0722CB
:1047E000216802408B895203DB04DB0C13438B816D
:1047F000226803049089DB0C400B4003184390812E
:10480000F8BDC04600000020F7B50500019308ABD5
:104810000C0016001F78FFF7FCFE2800FFF776FF5C
:10482000C021C022890224040C409203BF07360530
:10483000274316403E430C2707222B683E431E6049
:10484000019B296813401A0080239B0213434B608D
:104850002A68D3695B07FCD4F7BD3F20704713B5C6
:104860006B460268D9710733546819000122A047CA
:1048700016BD10B50221006900F02AFC10BD10B56C
:104880000321006900F03AFC10BD000010B51300D0
:10489000084A0400D279002A03D101230020636072
:1048A00010BD0A000069032100F020FD0028F4D0AB
:1048B000F6E7C0461400002010B5054C0300206840
:1048C000421C04D11A68180052699047206010BD3C
:1048D00060000020074A0300106810B5411C03D097
:1048E00001235B42136010BD0221186900F0F0FC47
:1048F000F9E7C0466000002010B503784222023379
:1049000003700249024800F09DFD10BD1C0000200C
:10491000D417002010B50178030042780020A129A7
:1049200008D1212A05D1174917481A3A00F08AFD03
:10493000012010BD2129FCD1202A13D11149124890
:10494000193A00F01FFC96220E4BD20019689142D2
:104950000ED1DA7901231A420AD1FA20FFF788FD35
:104960000020E6E7222A06D19A78064BDA71EAE7B8
:10497000FFF784FDF4E7232ADBD15A88034B1A6042
:10498000D7E7C04614000020D417002010000020F4
:1049900070470000FA220021054B92009A60054AF8
:1049A00008321A60044A59601A6119767047C04685
:1049B000B817002050B40000D4170020704770B51D
:1049C0000F26CB1D02003240D5B22C000009303436
:1049D000092A00DD07341C705A1E994200D170BDAF
:1049E0001300EFE710B50400806903F0B5FBA06A7F
:1049F00003F0B2FB200010BD10B50400FFF7F2FF7A
:104A0000200001F0BBF9200010BD000070B50329A3
:104A100008D1324B8000C058002802D00368DB6800
:104A2000984770BD82291FD1C3B22D4D5A01AA18D3
:104A300091692C4C80010C40C02189052143916172
:104A4000294908334018802150612A685B01D01839
:104A500004794942214301717020995C8143080027
:104A6000302101439954DCE70029DAD1C024C1B2D6
:104A70001B4E4A01B21893681A4DA4052B402343DC
:104A800093601A4B8001C0180B00506030680726F5
:104A900008335B01195CB1430E0001213143195405
:104AA00091690D402C43946170240F495161195C48
:104AB000A1430C0010212143195491680C4CC318D8
:104AC0000C4080214903214391609168890B89033F
:104AD0009160402259790A435A71A2E7D817002001
:104AE0008C1C0020FFFFFF8F00180020C019002041
:104AF000FF3F00F0EFF3108303600123436072B6C1
:104B000070470368002B02D162B6BFF36F8F704706
:104B100037B5056904006846002D14D1FFF7EAFF98
:104B2000019B621D013B02D3D57FEDB2FAE76846D7
:104B30000193FFF7E6FF002D01D100203EBD206A62
:104B4000E369C01AFAE7FFF7D5FF22000025019BB1
:104B50003432013B02D31578EDB2FAE7684601938F
:104B6000FFF7CFFF002DE8D0206BE36AE9E70000F4
:104B7000F0B5FF2501264268836811682B405B0170
:104B8000CC186419A77AD3183E43A672C6689C68ED
:104B90000B4FB60436093C4034439C6083682B407D
:104BA0005B01D2189468A40BA4039460402283682C
:104BB0002B4008335B01CB1819790A431A71F0BDF9
:104BC000FF3F00F0F7B5056904000E0017006846C6
:104BD000002D43D1FFF78EFF019B601D013B5A1C46
:104BE0000BD0C27F591E002A05D168460193FFF7FA
:104BF00088FF2800FEBD0B00F1E768460193FFF730
:104C000080FFE369AF420AD0226A9A4207D95A1C50
:104C1000E261A269D3181B7873550135F1E7226A66
:104C20009A42E6D10023E361013368462361FFF72E
:104C300061FF22000021019B671D013B3532581C9A
:104C4000D3D0F97710785E1E002805D020001170AF
:104C50000193FFF78DFFECE73300F0E7FFF74AFF22
:104C60002000019B3430013B5A1C06D00278591EAB
:104C7000D5B2002AB9D00B00F6E7684601930025AB
:104C8000FFF73FFFE36ABD4202D0226B9A421CD875
:104C9000226B9A42ADD100236846E3622361FFF79D
:104CA00029FF270022000021019B3437013B3532C8
:104CB000581C9AD0397010785E1E00280DD0200044
:104CC00011700193FFF754FFEBE75A1CE262A26AEE
:104CD000D3181B7873550135D4E73300E8E7F7B5EF
:104CE00082684368D2B21100040008311868490193
:104CF0004118C879C00729D501255201CD719B18EB
:104D00009A6861699204920C002923D12262226A76
:104D1000002A41D0A26A656168465A60FFF7EAFE40
:104D2000342294462200019B671D013BA444353286
:104D3000591C2DD06146FD770978581ECEB2002946
:104D400005D0019368461570FFF7DBFEF7BD030041
:104D50001670EDE72263226B002A1DD00022270087
:104D60006261A26968465A60FFF7C4FE019B621D3A
:104D70009446013B34373032591C09D061463D70AE
:104D8000C97F581ECEB20029DBD103001670F3E7AD
:104D900068460193FFF7B5FE2000FFF7E9FED5E76F
:104DA00013B56A4600230C00D01DD371FFF7A4FD94
:104DB00023681818206001F019F86B46D91D00F01F
:104DC000E1FF236818186B462060D87916BD0000F3
:104DD00003290ED180220E4B62311B68FF31585CD3
:104DE000524202435A5468226339FF32FF399954C0
:104DF00070470129FCD18022054B24311B68FF310B
:104E0000585C524202435A5428222339FF32EDE7BC
:104E10008C1C002070B500252F4B012104001A20A6
:104E20001D70FFF741FA01211A20FFF76DFA2B4B95
:104E3000012119201D70FFF737FA01211920FFF712
:104E400063FA2023264A0F20D1690B43D361012244
:104E500024490B7813430B70234B19788143197045
:104E600006211D782943197020490D782A430A70BC
:104E70001A7802401A70602219780A431A701C4B83
:104E80001C4A5A805A78D209FCD11B48FEF7DCFF35
:104E90001A4D280000F0BEFF280000F0D1FF7F214E
:104EA0002B68C1201A7880000A401A7004221978F1
:104EB0000A430C211A701A898A4311491A810A5827
:104EC0001202120A0A5080220A6019787E3A0A43B6
:104ED0001A700123237070BDF5170020F41700200D
:104EE00000040040584400413C4400415944004102
:104EF000000C004006400000CD5800008C1C002033
:104F000000E100E00078002810D00121084B1B6868
:104F10001A898A431A810822198B0A431A830422A8
:104F2000198B0A431A830022024B1A607047C0464D
:104F30008C1C0020841C00200A000E498B699B0BEE
:104F40009B038B610B680221FF33197298798239B8
:104F500001439971197A8907FCD57F20064B0240DD
:104F6000997A8143114380229972997A52420A4375
:104F70009A7270478C1C00200050004110B50B79CC
:104F80000C00002B0CD10800FFF7C4FC002801D056
:104F9000012010BD094A93699B0B9B039361F7E7BE
:104FA00000F024FF210000F011FF0028F0D1034A97
:104FB00093699B0B9B039361EBE7C0468C1C00201D
:104FC000F7B50D001100832A19D1EBB2324C5A010A
:104FD000A21891693148AD010840C02189050143FB
:104FE00091612F4920686D187021083355615B016C
:104FF0001A5C8A43110040220A431A54F7BD022A60
:1050000045D1284AAB009858002802D003685B6954
:105010009847382000F0AEFE234B80270360002322
:105020001D4E7F00421D036203614361C361466000
:105030008560C760D3772F32C362036304001370A7
:105040003800537003F07EF80190A061380003F03F
:1050500079F8EBB25A01A062B21891680F48083390
:105060000840C021890501439160316807265B0132
:10507000585CAD00B0430600032030435854019BF8
:1050800020005360FFF774FD064B5C51B6E7280023
:10509000FFF7BCFCB2E7C0468C1C0020FFFFFF8F6F
:1050A00000180020D81700207CB4000070B505005F
:1050B0000124064BA200D258002A05D02100280066
:1050C000FFF77EFF0134F4E770BDC04664000020A6
:1050D000084B8A00D05810B5002803D003689B689D
:1050E000984710BD044BC9B249015918886880041B
:1050F000800CF6E7D81700208C1C002010B50C009F
:10510000FFF7E6FF00280CD0064BE4B219688023B5
:10511000083464010C1962795B4213436371022302
:10512000E37110BD8C1C002070B5CBB2124A13483D
:105130005C0189018918021951609168104D08338A
:105140000D40802189022943402591609168890B97
:105150008903916001685A018A18167935431571DF
:1051600095796D06FCD55B01C918CB79DB07FCD5B9
:1051700000198068C0B270BDC01900208C1C0020CE
:10518000FF3F00F070B5140040220B4B0D001B6870
:10519000FF3359790A435A710021FFF7C5FFA04236
:1051A00000D9200000230549A34203D0CA5CEA5479
:1051B0000133F9E770BDC0468C1C0020C0190020E7
:1051C00010B50C48C9B24901421893689B049B0C66
:1051D0003F2B0BD99468403B9B04A40B9B0CA4036E
:1051E0002343936041188868C0B210BD93689B0B3D
:1051F0009B03F6E78C1C0020F0B51C002F4B85B0FC
:105200001B6806000D000192002B54D02C4F3B78F8
:10521000D9B2002B02D11920FFF776F864233B7036
:10522000284BAA00D058002808D0036822005B68E9
:10523000019998470400200005B0F0BD2900300016
:10524000FFF746FF844204D929003000FFF740FFF2
:10525000040029003000FFF7B3FF0121EBB21A4F21
:1052600003935B010293029A3B6801989B18FF33FA
:105270005A7A0A435A72154BA9012200C91802F042
:1052800075FF002CD7D029003000FFF721FF002840
:10529000D1D14021039B3A6808335B01D3181879B8
:1052A000014319710121D971029BD318FF339A7AF6
:1052B0000A439A72BFE701246442BCE7841C0020C1
:1052C000F4170020D81700208C1C0020C0190020E3
:1052D00013B56B46DC1D22000123FFF78DFF01286B
:1052E00001D1207816BD01204042FBE7F0B51C003B
:1052F0003A4B85B01B680E000192002B3FD08023F3
:10530000DB019C423BD8364D2B78D9B2002B02D121
:105310001A20FEF7F9FF642300272B70314BB201EE
:10532000D3180293002C2CD02F4B1B680393FF2320
:1053300033401D0000930835039B6D015D19AB7967
:10534000DB0921D0294B2A49186800F0BDFD294B03
:105350001721584300F0B8FD274BEA79920713D480
:105360009A5D002A01D10138F7D201229A55009B9B
:105370005A011D4B9B189A69920B92039A6101275F
:105380007F42380005B0F0BD00221B4B25009A5526
:10539000402C00D940252A000199029802F0E6FE2F
:1053A000009BA9045A01104B890C9B18029A7F1983
:1053B0005A619A69641B920B92030A439A61009B9B
:1053C000039A08335B01D3180222DA715979823AC1
:1053D0000A435A71019B5B190193A3E7841C0020C7
:1053E000F5170020001800208C1C00200000002071
:1053F00040420F0070110100F717002070B50C003B
:105400001D000D4BA601F618110030002A0002F015
:10541000ADFEE4B2094A640114196661A369084942
:1054200028000B40A361A169AB04890B9B0C890385
:105430001943A16170BDC046001800208C1C0020DB
:10544000FF3F00F0F7B5104B0F001B7814000190E0
:10545000002B0CD10D4B16001D78002D09D00C4EE1
:105460000C48358828182D1902F080FE3580200060
:10547000FEBD002EFBD033007A1900210198FFF702
:10548000BDFF2D18361AF4E7801B0020811C002078
:10549000821C0020811B0020F8B500200D001400A4
:1054A00000AF012A27D9D31D6A46DB08DB00D31AD7
:1054B0009D46080003F052FD6E46032302220021A0
:1054C0000130400030707370A2420DD2287800285D
:1054D0000AD0531CDBB20135B0549C4203D00232D7
:1054E000F154D2B2F0E7220031000448FFF7AAFFDE
:1054F000431E9841C0B2BD46F8BDC046D417002037
:10550000F0B50025012785B0184B0E0069461F70C5
:1055100004000095FFF744FC154B01A90B806A3B82
:10552000FF3BCB716E3B0B72009B320009334B800B
:105530000E4B8D714F7108711D70092E0FD00D4EDD
:10554000092237700C4F200000953D80FFF77AFF4D
:1055500069462000FFF724FC3A880849357020008E
:10556000FFF770FF012005B0F0BDC046801B002092
:1055700009020000811C0020821C0020811B0020E9
:10558000F0B5CF7805000E0093B0022F09D1C9887D
:105590002B48FFF7B5FF441EA041C4B2200013B052
:1055A000F0BD00F023FC310000F000FC002803D027
:1055B000C417241AE40FF1E7012F0BD1F288214917
:1055C000112A11D8D2B2002A0ED02800FFF73AFFD4
:1055D0000124E3E70400032FE0D1B378002B05D1C9
:1055E000F2881949032AEDD90A78EEE7022B06D191
:1055F000B27916492800FFF74FFF0400CEE7012BD0
:1056000002D1B2791249F5E7032BC7D1114B01A999
:105610001868FFF7D4F9104B03A91868FFF7CFF902
:105620000E4B05A91868FFF7CAF90D4B07A91868B2
:10563000FFF7C5F96B460533DC77B27901A9D9E7E5
:10564000D4170020ADB40000A0B4000094B4000052
:10565000A4B400000CA0800040A0800044A0800002
:1056600048A0800037B5050048780C000B2810D8FA
:1056700000F020FC061B0F310F484D7551546E7120
:10568000097801AA002906D1022311802800FFF71A
:10569000B5FE01203EBD00231380324B1B78012B49
:1056A00000D1137002230021F0E78A780023012A39
:1056B00009D16A4693802C4B1B78012B00D11371C2
:1056C000022301AAEFE7274A1370284A93699B0B2C
:1056D0009B039361DDE78C78012C07D1224B01AA53
:1056E0001C70234B1B7813702300DCE700208442DE
:1056F000D0D11C4B01301D4A187093699B0B9B0342
:105700009361C7E728008978FFF716FCC1E72800F6
:10571000FFF736FFBEE70123164AC4E70B780020E7
:10572000DB06B7D12800FFF7C1FC2A200221A278AE
:10573000104BFF301A600D4A13681C5C21434A2449
:105740001954FF34195D2938FF3801431955D4E73E
:105750000123094AA7E78A78074B1A60B5E70020BA
:1057600098E7C046F6170020FE1700208C1C00208A
:10577000AFB50000841C0020881C00204B4BF7B5FF
:105780001C780700002C00D083E0494E33689B8BC7
:105790001B070ED521002000FFF738F932681023CF
:1057A0001100FF31887A03438B72424B1C6008233F
:1057B000938333689A8B52071FD504229A833E4AFB
:1057C0001378002B0AD01378013BDBB213701378E7
:1057D000002B03D101211A20FEF796FD374A1378DA
:1057E000002B0AD01378013BDBB213701378002B27
:1057F00003D101211920FEF787FD3368FF331A7AA0
:10580000D2061ED510221A72597930320A435A71C3
:1058100060232B4938000A781A423BD1FFF722FF58
:105820003368FF33002838D08022997952420A43E6
:105830009A711A7A520604D540221A72597A0A438A
:105840005A72336800241D8C01239D43EDB20193ED
:10585000E1B2002D1DD02B002341019A134215D037
:105860002300326808335B01D318DA79D20702D4F7
:10587000DB799B0707D5134BA200D058002810D026
:1058800003681B689847019BA3409D430134092C82
:10589000DED1F7BDFFF772FBC2E720210A4A917102
:1058A000C7E73800FFF794FAEDE7C046811C0020F7
:1058B0008C1C0020841C0020F5170020F417002009
:1058C000C0190020D8170020FF50004110B5024831
:1058D000FFF754FF10BDC046D4170020014B024A09
:1058E0001A6070478C1C0020005000410120704756
:1058F00010B50368014A1B6A984710BD13040000E5
:105900000300FC33D9699A69914203D0DB69C0185E
:10591000007D704701204042FBE710B5040000699C
:10592000FEF720FE22000023FC329361D361862221
:105930009200A4186360A36010BDF0231B011940FE
:10594000802306209B0099420AD00133FF330130A7
:10595000994205D0802300205B00994200D1053098
:1059600070470F2001400020012903D00239481E52
:105970008141481C704700008923F0B5182785B085
:1059800002919B000400C05C3B0008214343324E5F
:105990001500F3185956FEF7FBFC304B0821E05C6C
:1059A0003B004343F3185956FEF7F2FC2C4BE25CE4
:1059B0000393022A09D11133E05CFF2805D00821A6
:1059C0004743F7197956FEF7E3FC8A27BF00E05DED
:1059D000FF2819D00121FEF767FC1822E35D214959
:1059E0005A43B356B618DB0158188B218900605012
:1059F0001D4901225B188C218900635071688A401F
:105A00008D21890062501A600122029B11002069D9
:105A1000FEF7C4FE29002000FFF78FFF29000600D3
:105A20002000FFF79EFFF0221540303D6A425541AD
:105A300003003100206901220095FEF763FD0B4B46
:105A40002069E25C039BE15CFEF779FD2069FEF7CB
:105A500096FD05B0F0BDC046D0AF000025020000A5
:105A600027020000184400411444004126020000AF
:105A7000802210B504000021520002F080FB2300B8
:105A80000022FC3320005A609A6010BDF7B51D005B
:105A900008AB1B780400009309AB1B781600019338
:105AA00000234360FA239B008360104B0F000833F0
:105AB00003601430FFF7DCFF20001D30FF30FFF7DC
:105AC000D7FF89239B002761E654094B009AE554D0
:105AD000084B2000E254019A074BE2548A22293BEA
:105AE000FF3B9200A3541032A354FEBDC0B400008B
:105AF0002502000026020000270200000300FC33FC
:105B000058689B68C01A01D50130FF30704710B546
:105B1000040020001D30FF30FFF7F0FF0028F8D10F
:105B20002069FEF736FD10BD10B51430FFF7E6FF13
:105B300010BD0300FC3359689A68914204DB5A682F
:105B40009868801AFF30704798685B68C01A0138FF
:105B5000F9E710B51D30FF30FFF7EBFF10BD10B5B2
:105B600004000069FEF731FD002805D02069FEF72A
:105B70003CFD2069FEF72EFD2069FEF716FD00288A
:105B800020D02069FEF731FD2200FC329369D169F3
:105B90000133DBB28B4203D09169611808759361C0
:105BA0008A239B00E35CFF2B0CD020001430FFF70E
:105BB000C0FF092806DC8B238D229B009200E3584E
:105BC000A2581A602069FEF70BFD00281AD02000A9
:105BD0001D30FF30FFF792FF002822D086239B0064
:105BE000E31899685A68914218D08E219A68490042
:105BF000A218515C9A680132D2B29A602069C9B287
:105C0000FEF7F7FC2069FEF7D5FC002805D02069D7
:105C1000FEF7D4FC2069FEF7C4FC10BD0121494207
:105C2000ECE72069FEF7F1FCECE7000070B504003A
:105C300000690D00FEF7D4FC00283FD1FF26862323
:105C40009B00E3185A689968013232408A4224D195
:105C5000EFF31083DB070ED41E4B5B68DB05DA0D18
:105C6000002BECD0103A53B212060DD49B081A4AFE
:105C7000C0339B009B582069FEF7B2FC0028DED0A1
:105C80002000FFF76CFFDAE70F221340083B134AAE
:105C90009B089B009B181B68EDE75A680132164071
:105CA0009A68964205D08E215A684900A218555428
:105CB0005E602069FEF7A5FC012070BD20001D304C
:105CC000FF30FFF71BFF0028B8D129002069FEF73D
:105CD00090FCF1E700ED00E000E100E01CED00E0E9
:105CE0000300FC33D9699A6970B5040091421AD057
:105CF000DA698218157DDA690132D2B2DA618A2353
:105D00009B00E35CFF2B0CD020001430FFF711FF49
:105D10000A2806DD8C238D229B009200E358A258AE
:105D20001A60280070BD01256D42E8E7FEE7704764
:105D300010B5FEF791F902F0D7F9FFF7F8FF01204F
:105D4000FEF7B8F8094C2000FFF764F82000FFF7D1
:105D5000D9F8FCF7D6F9FDF7EDF8FEF7CBF8044BD0
:105D6000002BF8D000E000BFF5E7C046D4170020B4
:105D70000000000010B502F0E5F910BD10B502F00A
:105D8000EBF910BD70B50E0000254468002C0BD057
:105D90002368310020005B689847002802DBE46834
:105DA0002D18F3E701256D42280070BD70B50D0078
:105DB0004468002C08D02368290020009B6898477D
:105DC000002802D1E468F4E7200070BD70B50D0032
:105DD0004468002C08D02368290020001B689847DD
:105DE000002802D1E468F4E7200070BD064A0123D0
:105DF000116810B50C0005481C40194203D1044934
:105E000044600180136010BD901D0020941D00208F
:105E10000204000070B50400012320CC00212A7880
:105E20002000134380222B70520002F0A8F9AB78B7
:105E3000DB07FCD4AB789B07F9D46C6270BD000023
:105E40001F22144B70B51B68590B9C0C9B01114011
:105E50005B0F22401F2900D11A391F2A00D1023AB4
:105E6000072B00D1043B1F2500688E01048D0A49D1
:105E70002A40214031430185018D14000A00AA43C4
:105E800022430285028D1903044B13400B43038503
:105E900070BDC046246080003FF8FFFFFF8FFFFF0A
:105EA00002B4714649084900095649008E4402BCB3
:105EB0007047C04602B4714649084900095C490070
:105EC0008E4402BC7047C046002243088B4274D304
:105ED00003098B425FD3030A8B4244D3030B8B42EB
:105EE00028D3030C8B420DD3FF22090212BA030CF4
:105EF0008B4202D31212090265D0030B8B4219D3D5
:105F000000E0090AC30B8B4201D3CB03C01A5241F4
:105F1000830B8B4201D38B03C01A5241430B8B423C
:105F200001D34B03C01A5241030B8B4201D30B0325
:105F3000C01A5241C30A8B4201D3CB02C01A52414C
:105F4000830A8B4201D38B02C01A5241430A8B420F
:105F500001D34B02C01A5241030A8B4201D30B02F8
:105F6000C01A5241CDD2C3098B4201D3CB01C01A12
:105F7000524183098B4201D38B01C01A524143091C
:105F80008B4201D34B01C01A524103098B4201D30A
:105F90000B01C01A5241C3088B4201D3CB00C01A77
:105FA000524183088B4201D38B00C01A52414308EF
:105FB0008B4201D34B00C01A5241411A00D2014614
:105FC000524110467047FFE701B5002000F0F0F89D
:105FD00002BDC0460029F7D076E7704703460B4361
:105FE0007FD4002243088B4274D303098B425FD3D2
:105FF000030A8B4244D3030B8B4228D3030C8B42FE
:106000000DD3FF22090212BA030C8B4202D31212E3
:10601000090265D0030B8B4219D300E0090AC30BB8
:106020008B4201D3CB03C01A5241830B8B4201D365
:106030008B03C01A5241430B8B4201D34B03C01A4E
:106040005241030B8B4201D30B03C01A5241C30AC6
:106050008B4201D3CB02C01A5241830A8B4201D337
:106060008B02C01A5241430A8B4201D34B02C01A21
:106070005241030A8B4201D30B02C01A5241CDD2C6
:10608000C3098B4201D3CB01C01A524183098B4211
:1060900001D38B01C01A524143098B4201D34B01FA
:1060A000C01A524103098B4201D30B01C01A52415D
:1060B000C3088B4201D3CB00C01A524183088B42E4
:1060C00001D38B00C01A524143088B4201D34B00CD
:1060D000C01A5241411A00D201465241104670473F
:1060E0005DE0CA0F00D04942031000D34042534044
:1060F00000229C4603098B422DD3030A8B4212D304
:10610000FC22890112BA030A8B420CD38901921135
:106110008B4208D3890192118B4204D389013AD072
:10612000921100E08909C3098B4201D3CB01C01A47
:10613000524183098B4201D38B01C01A524143095A
:106140008B4201D34B01C01A524103098B4201D348
:106150000B01C01A5241C3088B4201D3CB00C01AB5
:10616000524183088B4201D38B00C01A5241D9D2CD
:1061700043088B4201D34B00C01A5241411A00D24E
:106180000146634652415B10104601D34042002B4A
:1061900000D54942704763465B1000D3404201B5C9
:1061A000002000F005F802BD0029F8D016E770477E
:1061B0007047C0468446101C62468C46191C6346D4
:1061C00000E0C0461FB501F01FF8002801D40021EF
:1061D000C8421FBD10B500F069FF4042013010BD3C
:1061E00010B501F011F8002801DB002010BD0120DE
:1061F00010BDC04610B501F007F8002801DD0020F1
:1062000010BD012010BDC04610B500F08BFF002866
:1062100001DC002010BD012010BDC04610B500F00B
:1062200081FF002801DA002010BD012010BDC0460A
:10623000002B11D1002A0FD1002900D1002802D053
:106240000021C943081C07B4024802A1401802906B
:1062500003BDC0465DFFFFFF03B4684601B5029869
:1062600000F006F8019B9E4602B00CBC7047C04689
:10627000F0B557464E464546DE46E0B504000D00F3
:106280009246994683B08B4230D82DD0494650462D
:1062900001F0F0FE29000600200001F0EBFE331AA9
:1062A0009846203B9B4633D45A4653469340424639
:1062B0001F00534693401E00AF423AD8AF4200D170
:1062C00078E05B46A41BBD41002B00DA75E000229C
:1062D00000230092019301235A4693400193012326
:1062E00042469340009328E08242CFD90022002307
:1062F000009201930C9B002B01D01C605D60009804
:10630000019903B03CBC90469946A246AB46F0BD0D
:10631000424620239B1A5246DA40414613004A4621
:106320008A40170042461F43534693401E00AF4227
:10633000C4D900220023009201934346002BD9D0F8
:10634000FB0772081A4346467B080EE0AB4201D1B8
:10635000A2420CD8A41A9D41012024196D410021AC
:10636000013E24184D41002E06D0AB42EED9013E2D
:1063700024196D41002EF8D1009801995B4600194F
:106380006941002B24DB2B005A464446D3402A00A7
:10639000E2401C005B461500002B2ADB26009E40D5
:1063A000330026004746BE403200801A99410090D3
:1063B00001919FE7A342BCD883E7424620230021F6
:1063C0009B1A0022009101920122DA40019286E795
:1063D000424620239B1A2A0046469A402300F34057
:1063E000444613432A00E2401C005B461500002B84
:1063F000D4DA42462F002023260097409B1ADE4025
:106400003B003343CDE7C046F0B54F46D64646463F
:106410000D0001001800C0B517002B035A0A4B0FDE
:106420001343CA00914602036E004100520AEC0F6A
:106430007D0F1543760D490DC00F8246AC46FF0017
:10644000721A844200D198E0002A00DC81E0002921
:1064500000D1B6E0C9498E4200D172E18021280006
:10646000090408438446382A00DD5EE11F2A00DD66
:10647000EEE1202039006546801A8740D1408540F2
:106480000D4339004F1EB9416746D7402943DB1BF6
:106490004A46551AA945894149425B1A98464346DE
:1064A0001B0200D4CCE043465B025B0A984643469D
:1064B000002B00D12CE1404601F0BEFD010008395F
:1064C000202228004346521A8B40D0408D4003437F
:1064D0008E4200DD17E18E1B721C1F2A00DDA7E132
:1064E000202118002E00891A8D408840D640D340C4
:1064F000691E8D4130439846002605436B0709D03D
:106500000F232B40042B05D02B1DAB42AD416D4218
:10651000A8441D0043461B0200D494E0974B721C14
:106520009A4200D19DE04146954BED0819400B0081
:10653000520549075B0229431B0B520D12051343F9
:10654000E4072343080019001CBC90469946A24664
:10655000F0BD002A43D08A1B002E00D02AE14C4611
:106560001C4300D1D1E1541E012A00D11FE2834D0A
:10657000AA4200D172E2220023E1002A00DC98E066
:10658000002942D07D498E4200D1DAE080212800E6
:10659000090408438446382A00DD29E11F2A00DC6B
:1065A00087E1110065462039CD40202A04D04020E3
:1065B0006146821A91400F4339004F1EB9410D4385
:1065C0001BE12900394300D1B5E0511E012A00D159
:1065D000ABE16A48824200D1B2E10A0043E769496F
:1065E000751C0D4200D0CFE0002E00D093E149464B
:1065F000194300D1D1E16146394300D0E3E1494676
:106600005807C9080143DB0826E02900394300D1B7
:1066100091E0511E012A05D05848824200D18FE1F5
:106620000A00B8E73D004D444D4589416344984612
:1066300049428844434602261B0200D5EBE0013E56
:106640006B0700D05CE74346E9085A071143320064
:10665000DB084A48824221D01B0352051B0B520D16
:106660006CE70023002169E72A003A4369D04A46D3
:106670005807D108DA0880231B0308431A4207D0C1
:106680002900ED081D4203D12A00FF0848073843BE
:10669000430FC1005B07C908194313000A001A43DE
:1066A00000D113E28022120313431B03334A1B0B56
:1066B00044E7002A4BD08A1B002E00D1E7E02F4888
:1066C000814200D195E1802000040343382A00DD97
:1066D00043E11F2A00DDDBE120201D004E46801A29
:1066E0008540D64035434E4686403000D340461E56
:1066F000B0419C440543ED19BD429B415B4263445C
:1067000098460E007FE01E4A761A13409846F5E63A
:10671000280001F091FC010018311F2900DCCFE6B0
:106720002B00083883400025D2E662463A43110028
:106730004F1EB941ACE649465807C9080143DB087A
:1067400087E749465A07C9081143DB08A6E70D4900
:10675000701C084200D0BBE0002E00D014E1494676
:10676000194300D175E12900394300D07EE1494643
:106770005807C9080143DB086EE7C046FF07000061
:10678000FFFF7FFFFE0700004946CD1B6146581AF8
:10679000A94589414942884601004046091A884670
:1067A000090200D5A6E04146294300D07FE6002338
:1067B000002451E7C74CA14200D1C7E08024240443
:1067C0002343382A54DC1F2A00DDCCE0202448462D
:1067D000A41A1D004E46A040D640A5400400D34058
:1067E00062463543661EB441D31A9C46254344E0B5
:1067F00062463A4315006F1EBD414D444D458941E7
:1068000049428846984443461B0200D418E7B14BDE
:1068100001369E4249D04246AF4B01211A40130037
:106820006A080D401543D9075B0898460D4365E695
:1068300018001F3EF040202A03D040218A1A9340BE
:106840001D43691E8D410023002698460543F7E647
:10685000110065462039CD40202A04D040206146F1
:10686000821A91400F4339004F1EB94129430FE668
:106870004A4613431D006B1E9D417D1BAF429B4149
:1068800062465B42D31A984654460E0007E64846D5
:10689000184300D1B3E0501E012A00D10DE18D4D07
:1068A000AA4200D1A5E0020010E732000023002137
:1068B00044E620213800891A65468F408D40D0403B
:1068C000791E8F4105433D436746D740DB1994E766
:1068D000804A904200D1ECE0390049444945924158
:1068E000634452429B18DD0749085B08984606003E
:1068F0000D43A5E64A46BD1AAF4289416246494268
:10690000D31A5B1A98465446D1E56C07F90821431F
:10691000EB0804009DE64A461A4375D161463943A7
:1069200014D1802300241B03BCE64A46D51BA9458D
:106930008941624649429B1A5B1A98460126AEE598
:106940004A46D1085A071143DB08A7E66346F9080F
:106950005A0754461143DB08A0E64A4613431D007C
:106960006B1E9D41C7E614001E00203CE640202A15
:1069700005D04024A21A93404A461A4391464D46F8
:106980006B1E9D41354378E74A461A4300D06BE6BB
:106990006B07F9081943EB0880E66146394354D088
:1069A0006346F9085C072143DB08040054E64A46C5
:1069B000BD1AAF42894162464942D31A5B1A9846D2
:1069C000040001266BE54A46D51BA945894162466C
:1069D00049429A1A521A9046120232D54A46BD1AB4
:1069E000AF42894162464942D31A5B1A9846040075
:1069F00084E56346F9085A071143DB084EE6F908B7
:106A000068070143EB0824E662463A4300D198E662
:106A10004A46D1085A071143DA0880231B031A4259
:106A200008D06046C5081D4204D154462A00F90822
:106A3000430719434B0FC9005B07C90819431300EB
:106A40002CE64146294300D0FAE500230A00002441
:106A500002E66B07F9081943EB08FDE56346F90800
:106A60005B07194363460400DB0817E63D004D440D
:106A700063444D45894198464942884443461B0238
:106A800000D4DDE54246144B01261A409046D7E576
:106A900010001E002038C640202A05D04020821A4F
:106AA00093404A461A4391464D466B1E9D413543DD
:106AB00021E602000023002140E54A46D519BD42E7
:106AC00089416344984649428844B3E50021014A1C
:106AD0000B0033E5FF070000FFFF7FFFF0B55746CF
:106AE0004E464546DE46E0B5814605000C034800AB
:106AF00092461F0085B0240B400DCE0F002859D0C0
:106B0000874B984200D198E06B0FE4001C43802330
:106B10001B0423439846834BED009B460023994674
:106B2000834400933C037B005046240B5B0DFF0F16
:106B3000002B67D07A4A934218D07A49420F8C468C
:106B4000E40059461443802263441204CB1A1443D0
:106B50009B46C200002033007B409A464B460F2BD9
:106B600000D9EFE070499B00CB589F466F4B5246CF
:106B70009C462243E344002A00D095E04946022384
:106B80001943894600240220E5E70023002400255C
:106B900052461B052343D20713432800190005B0B2
:106BA0003CBC90469946A246AB46F0BD0024002569
:106BB0005B4BEDE74B462343984600D189E0002C20
:106BC00000D1E0E1200001F037FA010002000B39AA
:106BD0001D235B1A49461000D940083884400B0039
:106BE0004D4623439846854051483C03831A9B46B3
:106BF0000023994600937B005046240B5B0DFF0F4A
:106C0000002B97D15246224355D0002C00D1CAE127
:106C1000200001F011FA02000B3A1D2301009B1A1B
:106C200052460839DA408C40144352468A40414B60
:106C300058449B46834400208DE74B4623439846A7
:106C400040D108239946063B00258346009369E717
:106C5000B246009B022BA9D0032B00D111E2012BDD
:106C600093D0354A5A44002A00DC3CE16B0700D03F
:106C7000A7E1ED084346DB0106D542462F4B1A40FB
:106C800090468022D2005A442D4B9A428EDC4346D5
:106C9000520558075C020543240B530D78E7BA46AA
:106CA000A04615000090D4E74A4603231A439146B4
:106CB000032052464FE749460123194389460024E1
:106CC000012048E70C239946093BA04683460093E0
:106CD00028E70423994600239B46013300250093AF
:106CE00020E7002380249A4600250D4B24034FE71C
:106CF000802341461B03194208D01C4206D11C4385
:106D00002403BA461500064B240B41E78024434672
:106D100024031C432403B246014B240B38E7C0462E
:106D2000FF07000001FCFFFFF4B4000001F8FFFFC3
:106D30000DFCFFFFF3030000FF030000FFFFFFFE59
:106D4000FE070000444500D216E100D111E1012305
:106D50005B429C462E0040460025E3442302140E6D
:106D60001C431B0C994623041F0C12024946009237
:106D70000197FFF72FF902007A430B04310C80468C
:106D800019438A420BD901235B429C460919E0440E
:106D90008C4204D88A4202D9831E98460919881A5F
:106DA0004946FFF717F909048C4631046646019AF3
:106DB000090C4243030031438A4204D90919013BBB
:106DC0008C4200D811E1891A4246009E12041A43EF
:106DD000330C1F00100C9046029313043204160C5F
:106DE00032001B0C5A4303967B4346437843170CEF
:106DF000BC469B1963449E4203D980267602B44662
:106E000060441E0C301816041B04360C9E19814277
:106E100000D29CE000D197E0AE1B091AB542804138
:106E20004042081A844200D111E14946FFF7D2F8E6
:106E3000019A0B044243310C050019438A4207D9D9
:106E40000919013D8C4203D88A4201D9851E0919CE
:106E5000881A4946FFF7BEF809048C463104664695
:106E6000019A090C4243030031438A4207D90919A8
:106E7000013B8C4203D88A4201D9831E0919039E23
:106E8000891A32002D041D43029F2B041B0C5A4308
:106E90007B439C46280C4643130CB444634478431C
:106EA0009E4203D980267602B44660441E0C12042A
:106EB0001B04120C30189B18814206D302D0012308
:106EC0001D43CEE6002B00D1CBE661186E1EA14219
:106ED00000D2A4E0814200D2C9E000D1D9E035005F
:106EE000EDE701256D420121891A382900DD4CE6C4
:106EF0001F2900DC7FE01F235B429A1A4346D340E0
:106F0000202904D04446654A5A44944025436A1EC9
:106F1000954107222B43150000241D401A4200D141
:106F2000A1E00F2200241A40042A00D198E01A1D83
:106F30009A429B415B42E4181300220200D48FE086
:106F400001230024002523E6B54200D364E743462D
:106F50005A1E009B9C4665441F009D429B415B421C
:106F60001B19C9188C423AD2884263D860D0904627
:106F700052E7AA4200D9EAE64346DE0758086B0802
:106F80001E43ED07EAE6484601F056F8010002000C
:106F9000153120321C2900DC1AE64B4608388340A4
:106FA0000025984620E601F047F803001A00153244
:106FB00020301C2A00DC30E65446083B00229C406E
:106FC00035E60F232B40042B00D152E605235B420C
:106FD000AB429B4104355B42ED0898444AE68C4243
:106FE000C5D1AF42C0D9904616E78A4200D8EAE63A
:106FF000831E0919E7E62A4A28005A444346954069
:107000009340C8406A1E9541444603432B43CC40FD
:107010005A0792D00F221A40042A88D18DE73500F2
:10702000814200D04BE7009A934200D047E718E630
:10703000AE429CD902235B429C46009BE0449C46A6
:1070400065449D429B415B421B19C918E4E6154A01
:107050005A44002A00DC44E701230025984409E64D
:1070600065076402240BDB081D43002390E5009EA6
:10707000023D7200B242BF417F423C1909190092A1
:10708000CEE78024434624031C432403064B240BF1
:107090007EE5009A9A42EAD33500C4E73E04000038
:1070A0001E040000FF030000FF070000F0B54F467C
:1070B0004646D646944691461A03120B184DC0B563
:1070C0004C000F0392465A00060080463F0B0120F9
:1070D000640DC90F520DDB0FAC420AD0AA4203D097
:1070E000944201D157450DD01CBC90469946A2460A
:1070F000F0BD3D003543F7D1A242F5D15246654679
:107100002A43F1D10120C845EED1994206D0002C86
:10711000EAD13E433000461EB041E5E70020E3E7F8
:10712000FF070000F0B54E4645465746DE460400D0
:107130001800E0B516001B031B0B324D0F034A006D
:1071400099464300A446B0463F0B520DC90F5B0D54
:10715000C00FAA4229D0AB4218D0002A2AD13C4302
:10716000A34665426541002B02D14C46264327D0F9
:10717000002D15D1814228D0022001390840013864
:107180003CBC90469946A246AB46F0BD4D462E43C8
:107190002FD1002AEED13C4365426541002DE9D054
:1071A0000028EDD101204042EAE73D00254320D1EF
:1071B0009342EBD0002BDDD14C462643DAD1DBE7FE
:1071C0005B460020002BDBD0D6E79A420ADCE7DBE7
:1071D0004F45D1D810D000204F45D1D20029E1D061
:1071E0000800CDE74342584102234042184001388D
:1071F000C6E702204042C3E7C445BDD80020C445CD
:10720000BED2EBE7FF070000F0B54E4645465746B5
:10721000DE4604001800E0B516001B031B0B314DC1
:107220000F034A0099464300A446B0463F0B520D57
:10723000C90F5B0DC00FAA4211D0AB4214D0002A77
:107240002FD13C43A34665426541002B14D14C46E7
:10725000264311D15B460020002B17D010E03D00E3
:10726000254312D193421CD14D462E430DD1002A05
:1072700004D13C4365426541002D0DD1814216D0B9
:10728000022001390840013800E002203CBC904651
:107290009946A246AB46F0BD0028F7D101204042F6
:1072A000F4E7002BEAD14C462643E7D1E8E79A42BF
:1072B00006DD434258410223404218400138E5E7C9
:1072C0009A42E9DB4F45DBD806D000204F45DDD29E
:1072D0000029E3D00800D9E7C445D1D80020C4452F
:1072E000D4D2F5E7FF070000F0B557464E464546B5
:1072F000DE46E0B598460C034B000600924687B088
:10730000240B5B0DCF0F002B6CD0DD4A934200D1D4
:1073100086E0420FE4001443802212041443D94A49
:10732000C500944663440093002399469B46434618
:1073300042461E03D20F5B0050469046360B5B0D53
:1073400000D178E0CE4A93421DD0CE49420F8C4600
:1073500000996344F6008C46164380229C44120434
:1073600063461643C2000020009300994346013152
:107370008C4649467B4001930F2900D97EE0C24BE1
:10738000890059588F465246009B324300D056E13F
:10739000BB4900268C4663444946009302231943A7
:1073A00089460220E1E743460193340015008346F5
:1073B0005B46022B5ED0032B00D1F3E1012B00D002
:1073C00018E1002200240025019B12052243DB075F
:1073D0001A432800110007B03CBC90469946A246CB
:1073E000AB46F0BD2500054300D141E1002C00D1A2
:1073F000ADE1200000F020FE010002000B391D234A
:1074000010005B1A3100350008388440D9408540AF
:107410000C439E48831A0093002399469B4686E7B7
:107420000500254300D01CE108220093022300241C
:1074300091469B467BE75246324300D10AE1002E3B
:1074400000D176E1300000F0F7FD02000B3A1D2379
:1074500001009B1A52460839DA408E4016435246C4
:107460008A40009B8949181A03008C466344002017
:1074700000937AE700240025814AA5E72F0C2D040C
:107480002D0C2B00110C1204120C534398461300C0
:1074900028007B43994648434844834640460B00B6
:1074A000000C824658467B4350440293814506D9DE
:1074B0009A4680235B029946CA4453460293030CC2
:1074C0009B4643461B0400041B0C984603004344A0
:1074D0000493330C99462B003604360C73439846BC
:1074E00033007B439A464B465D435F4343465544D6
:1074F000180C4019824503D980235B029A465744F1
:10750000050CEB19059343461D042D0C000440198E
:10751000250C2404240C270057436A4390462A0074
:107520003B0C9A464A436143414451448344884555
:1075300003D980235B02984642443F040B0C3F0C66
:107540000904C919270098464B4677435C436E43AC
:107550005D433B0C9946A4194C4442440395A64212
:1075600004D980235B02984645440395029B3F045F
:107570005B441E008342804123049846059B3F0CD8
:107580004744984676188E428941474440423D1808
:10759000A846934649428A46C3449F42BF4180451C
:1075A0008041039BDA449846534640427F4207435A
:1075B000240C934592418A4589413F19DC0D049B77
:1075C00075021D43681E85415346524249420A4393
:1075D000BF184744F60D7F0235435A023C4315431A
:1075E000FB0100D4C1E001216A080D401543E20708
:1075F0001543640826496144002956DD6B0709D00C
:107600000F222A40042A05D02A1DAA42AD416D420C
:1076100064191500E30104D580211E4AC9001440F5
:1076200061441D4A914200DD24E76207ED086402CF
:1076300049051543240B4A0DC6E60197B8E6104AE2
:107640000320944663444A46009303231A43914619
:1076500052468AE6494601231943894600260120FD
:1076600083E60C2200930323050091469B465EE6C9
:107670000423994600230093013300249B4656E6D9
:10768000FF07000001FCFFFF34B500000DFCFFFF09
:10769000FF030000FFFFFFFEFE0700000023802421
:1076A0000025444A019324038EE60120401A38281D
:1076B00000DD86E61F285BDD1F2223005242511A9F
:1076C000CB401900202803D03B4A62449440254314
:1076D0006A1E95412A000A4307210D000024154027
:1076E00011425BD00F2100241140042953D0111DF9
:1076F000914292415242A4180A0023024BD5012222
:107700000024002560E680231B031C4209D01E4292
:1077100007D133431C0343461500240B254A01932C
:1077200052E68022120314432403224A240B0197B9
:107730004AE600F081FC03001A00153220301C2AB2
:1077400000DC84E65646083B00229E4089E600F0B5
:1077500073FC01000200153120321C2900DC4EE6CA
:10776000340008380025844053E6009B9C4641E7DE
:107770001249220061442E008D408A40C640691E95
:107780008D4132432A43C4405307B6D00F211140E4
:107790000429ACD1B1E765076402240BD208154374
:1077A000002211E68022120314432403014A240B11
:1077B0000AE6C046FF0700003E0400001E04000069
:1077C000F8B557464E464546DE460400E0B51F0074
:1077D00010000B03620F4E00CD0F5B0A39031343F9
:1077E000490AE200440F2143C24C91469246C00030
:1077F0007A008046760D520DFF0FA24200D1B4E010
:1078000001246740BB46BD4200D188E0B41AA446BB
:10781000002C00DCB2E0002A00D1C5E0B54A964257
:1078200000D18BE28022120411436246382A00DD27
:10783000A1E11F2A00DD16E220270C00BF1ABC4080
:107840000200A0466446B840E240444614430200A9
:10785000501E82416046C14022435B1A49468C1A41
:10786000A145924152429B1A984643461B0200D4BE
:1078700017E143465B025B0A98464346002B00D162
:107880006CE1404600F0D8FB0200083A20212000BD
:107890004346891A9340C84094400343964200DD12
:1078A00057E1961B711C1F2900DDCBE12022180037
:1078B0002600521A94409040CE40CB40621E944124
:1078C0003043984600260443630709D00F23234022
:1078D000042B05D0231DA342A4416442A0441C00F4
:1078E00043461B0200D4DFE0824B01369E4200D1AA
:1078F000FBE04246804BE4081A4013007105520732
:107900005B0222431B0B490D0905ED07194329436F
:1079100010003CBC90469946A246AB46F8BDB41A4E
:10792000A446002C58DD002A00D19EE0714A964200
:1079300000D13BE18022120411436246382A00DD67
:10794000C1E01F2A00DCBBE10C00203AD440220039
:107950006446202C04D040273F1BB9400843804692
:107960004446611E8C411443B1E00C0004432AD00C
:10797000BB46BD422DD0614CA446B4446446002CA5
:107980005CD0941BA446002E00D015E14D461D434B
:1079900000D1C3E1651E012C00D10CE2554EB4426A
:1079A00000D1F8E1AC460EE10A00024300D136E115
:1079B0002200013A012C00D1C6E14E4CA44500D171
:1079C000F4E0944631E701246740BB46BD4200D055
:1079D0001CE74A4CA446B4446446002C00D1CFE0D6
:1079E000941BA446002E00D15CE1424EB24200D16D
:1079F000ECE18026360433436446382C00DDB3E1E5
:107A00001F2C00DD38E22026361B1C00B4404F46F8
:107A1000A0466446E74044463C434F46B7403E00DC
:107A2000771EBE4134436646F340C9182418844289
:107A30009B415B429846160088444EE0304A741CD5
:107A4000144200D0D6E04A461A43002E00D05BE133
:107A5000002A00D1A5E10A00024300D0BBE14A465A
:107A60005907D2080A43DB0827E00A00024300D185
:107A700074E12200013A012C05D01E4CA44500D12E
:107A800094E0944659E74844484592415B1898462B
:107A9000040052429044434602261B0200D5C4E033
:107AA000013E630700D011E74346B4465907E20898
:107AB0000A43DB080F498C4540D061461B0349054A
:107AC0001B0B490D20E701430C00611E8C414C4407
:107AD0004C45924152429046984443461B02E0D5A1
