:10200000008000200D230000F5220000F5220000D2
:1020100000000000000000000000000000000000C0
:10202000000000000000000000000000F522000099
:102030000000000000000000F52200006123000005
:10204000F5220000F5220000F5220000F522000034
:10205000F5220000F5220000F5220000F922000020
:10206000F522000041220000F5220000F5220000C8
:10207000F5220000F522000051220000F5220000A8
:10208000F5220000F5220000F5220000F5220000F4
:1020900000000000F5220000F5220000F5220000FB
:1020A000F5220000F5220000F5220000F5220000D4
:1020B0000000000010B5064C2378002B07D1054B1B
:1020C000002B02D0044800E000BF0123237010BDA4
:1020D0000001002000000000D84A0000044B10B5A9
:1020E000002B03D00349044800E000BF10BDC046E8
:1020F0000000000004010020D84A0000704710B51D
:102100000C1E0260017103D001292FD0652403E069
:10211000022A07D102328260002B33D0012B36D045
:10212000200010BD042A01D10532F4E7052AFBD0B6
:10213000082AF9D00A2AF7D00B2AF5D00C2A01D1A7
:102140000932E8E7102AFBD0112A03D10932826054
:102150000024E1E7122AF9D0132AF7D0142AF5D087
:10216000162AF3D06624172AF0D0D5E7022A01D127
:102170002D32ECE7082A01D1013AE8E76624092A62
:10218000FAD0C9E70121806800F0B8FAC8E7002159
:10219000F9E710B5806800F0E1FA10BD836810B56A
:1021A000012B02D1014800F083FD10BDB4050020D1
:1021B000836810B5012B02D1014800F0DFFC10BD8F
:1021C000B405002070B505000C002178002904D06A
:1021D00028000134FFF7ECFFF7E770BD002330B5AE
:1021E00087B0190008226846FFF789FF012303AC76
:1021F000E121A360002349020F48237061606370EE
:1022000000F054FD2000FFF7C9FF0028FAD0FA259E
:10221000AD0001216846FFF7BCFF280000F0E4F89C
:1022200000216846FFF7B5FF280000F0DDF80349FC
:102230002000FFF7C7FFECE7B4050020A44500002D
:1022400010B5024801F03BFE10BDC0461C01002045
:1022500010B5024801F033FE10BDC04658030020FF
:10226000F7B501240326154F1549380000F04EFB41
:102270001449154800F04AFB1449154800F046FB84
:102280001449154800F042FB1449154800F03EFB84
:10229000144D1549280000F039FB39002300009641
:1022A00000220194114801F09FFD290000961E2391
:1022B0001F2201940E4801F097FDF7BD9405002000
:1022C00000080042000C0042980500200010004267
:1022D0009C05002000140042A005002000180042C8
:1022E000A4050020A8050020001C00421C010020BD
:1022F00058030020FEE70000034B10B51B68002BBD
:1023000000D0984710BDC046AC05002070B50F49FD
:102310000F4CA14204D100F08DF801F0B9FEFEE7A8
:102320000C4D00238D42F6D0CA18E818A24205D3FE
:10233000094B8242EFD00949002204E000680433CF
:102340001060F1E704C38B42FCD3E4E700000020F7
:1023500000010020DC4A000000010020A80B002042
:1023600010B500F064F8002801D100F055F810BD58
:10237000014B18607047C046AC050020014B18683F
:102380007047C046B0050020F7B5134801228446C7
:102390001249134C8E68636805689B0E13400192C6
:1023A00088686268019F920E3A4067463F68934290
:1023B0000ED1BD420CD186420AD35B19FA2548687A
:1023C000AD00861B07486B437043000DC018FEBD6F
:1023D0003D0013000600E3E7B005002010E000E038
:1023E00000ED00E05555000070B5041E10D0FFF759
:1023F000CBFF050000F01AF8FFF7C6FF054B401BA6
:102400009842F7D9FA23013C9B00ED18002CF3D138
:1024100070BDC046E703000010B5034A13680133DE
:10242000136000F037FA10BDB0050020704700209F
:10243000704700001E2270B54648474943689343E1
:102440001C3A1343436008238C6923438B61434C3C
:10245000434B9C829C8A14439C82DC681442FCD0CF
:102460000124404A14701578254203D055786DB286
:10247000002DF8DB01249460547864B2002CFBDB5F
:10248000394C5460547864B2002CFBDB8224E401A4
:102490005480547864B2002CFBDB02249C840E34FC
:1024A000DD682542FCD0314CDC621024DD68254219
:1024B000FCD09D8C2E4C2C439C841024DD6825423E
:1024C000FCD002249D8C80262C439C844024DD6813
:1024D0003542FCD0DD682542F9D01024DD68254264
:1024E000FCD000249460547864B2002CFBDB214CB7
:1024F0005460547864B2002CFBDB1C6A1E4D2C40E7
:1025000080251C621C6AAC431C62032393601B4B36
:10251000536053785BB2002BFBDB0023FF240B726C
:10252000174A4B728B72CB72164B1A60164B174AB6
:102530001B6811689A065B01C90E2340520F1202F4
:102540000B431343124A13858023426813434360AD
:1025500070BDC04600400041000400400C06000071
:1025600000080040000C004001050100B905FF7D96
:10257000040A000000070300FFFCFFFF0306010040
:10258000006CDC02000000202460800020608000DD
:1025900000400042FA212D4B10B51868890001F067
:1025A0004DFE2B4B013898424FD82A492A4A4860A1
:1025B000C020136A00061B021B0A03431362002398
:1025C0008B6007330B608021136A09061B021B0A0C
:1025D0000B431362FC22214B196A0A431A62FF2241
:1025E000196A12020A431A62A022196AD2020A4325
:1025F0001A621B4B1C005A7852B2002AFBDB194AA4
:102600005A80194B1A00597EC9090129FBD0C821EB
:10261000890099800521D970537EDB09012BFBD0FD
:10262000C02300205B011361907000F023F86378F1
:102630005BB2002BFBDB0D4B0D4A6380D379DB09CA
:10264000012BFBD04123537010BDFEE7000000209A
:10265000FFFFFF0010E000E000ED00E0000400409C
:10266000000C00401E4000000040004221400000DD
:10267000004800421F4900B50B004A7ED209012ADA
:10268000FBD001380A282FD801F0CEFD1B2E2E2EAC
:102690002E2E062E2E2411001A6917490A400F21EA
:1026A0001A615A788A43110001220A4310E01A691C
:1026B00011490A400F211A615A788A4311000322F6
:1026C000F3E71A690C490A400F211A615A788A43C4
:1026D0005A7000BD1A6908490A400F211A615A78D8
:1026E0008A4311000222E0E7F022196912050A4329
:1026F000F3E7C04600400042FFFFFFF0182310B58B
:1027000008244343134AD0180457013412D001243B
:102710009A5643689C4003290CD808000E49D20100
:102720005218D318403301F07FFD0210060B02212E
:102730001970546010BD0621197054609461F9E756
:102740000621197054605461F4E7022119709460F5
:10275000F0E7C046B4450000004400411823F0B53E
:1027600008245843114A13181C5701341BD0012662
:1027700035005F688356BD400D4ADB019A189068AA
:1027800005420BD10C00601E8441D21940321078F2
:1027900034400336A400B04320431070044A9B1811
:1027A000002901D15D61F0BD9D61FCE7B4450000E9
:1027B000004400411822424370B52D4E0300B21868
:1027C000127A52B2140001320ED0481C00240C2898
:1027D0000AD801F029FD071F1F1F1F1F1F1F1F0BF6
:1027E0000B0B0B0001246442200070BD092905D1A8
:1027F00000211800FFF782FF0024F5E70A2901D124
:102800000839F6E700240B29EED10A391800FFF742
:1028100075FFE9E7182201205343F218F356556873
:10282000144ADB016C089B18C9B228401C19002807
:102830000ED00F203034227809010240114341228A
:10284000C9B25B192170403319780A431A70D3E773
:1028500022000F26303214785B19B44321431170E3
:1028600041224033197804000A431A70BCE7C0467D
:10287000B445000000440041014B18607047C04659
:10288000040000200122024B52421A607047C046E9
:1028900004000020164A10B51368591C26D0013BCD
:1028A0001360002B22D172B6124B134A04339342A9
:1028B00013D9124A01211000147D0C42FCD02021B2
:1028C000148BFF319B085B0021431183D3610C4BB8
:1028D00013800123027D1A42FCD0BFF34F8F094BB6
:1028E000094ADA60BFF34F8FC046FDE710BDC0460E
:1028F000040000200020000003020000004000410E
:1029000002A5FFFF00ED00E00400FA05016070473A
:102910009446F0B59E1E721E964162460568920767
:102920002F6836063A4332432A60072505AC2478DF
:102930000068A4012940214342680024022B00D0F2
:102940005C03114321434160F0BD30B5C0250368ED
:10295000AD031C6812052A402243C0240904A402C6
:1029600021401143196003685A6814435C6030BD0C
:102970000123026811680B43136003681A68D207C9
:10298000FCD4DA69D207F9D47047022302681168CF
:102990000B4313600268D3699B07FCD4704703683C
:1029A0001A7ED20702D41A7E9207FCD57047002205
:1029B00003685A8370470368187E4007C00F70474A
:1029C0000368187EC0097047802302685B42117E4D
:1029D0000B43137670470368588B8007C00F70470E
:1029E00002230268518B0B43538370470368187EA0
:1029F000C007C00F70470368188DC0B270470368E6
:102A00001A7ED207FCD589B20120198570470122B0
:102A100003689A757047012203681A7570470000B1
:102A20000368104A934213D00F4A934212D00F4AC0
:102A3000934211D00E4A934210D00E4A93420FD0C7
:102A400001200D4A4042934201D1063040B2704706
:102A50000020FBE70120F9E70220F7E70320F5E774
:102A60000420F3E700080042000C0042001000427E
:102A70000014004200180042001C0042F8B5FFF7A5
:102A8000CFFF00282CDBC3001C48FF22C018052301
:102A90000479C35603201840C0008240C021D243AD
:102AA0008140002B1DDB1F2501201D40C026A840B2
:102AB000134D7600A851C0269B089B005B19B600F9
:102AC0009F593A401143995128603F232340802465
:102AD000E4011C430B4B5C805A7852B2002AFBDBAA
:102AE000F8BD0F200340083B07489B089B001B18BC
:102AF000D86902401143D961E7E7C046044A0000A3
:102B000000E100E0000C004000ED00E0F8B504003A
:102B10000F0016001D00FFF7B1FF2000FFF728FF90
:102B20001C21BB000B4071072268090C0B4313608A
:102B3000842322689375012F1AD11021012E00D011
:102B400008390C4B69431868C00001F077FB072275
:102B5000216802408B895203DB04DB0C13438B8119
:102B6000226803049089DB0C400B400318439081DA
:102B7000F8BDC046000000203F20704713B56B46EB
:102B80000268D9710733546819000122A04716BDA5
:102B900010B50221006900F04DFC10BD10B50321F5
:102BA000006900F05DFC10BD10B51300084A040078
:102BB000D279002A03D101230020636010BD0A00EE
:102BC0000069032100F044FD0028F4D0F6E7C04678
:102BD0000C00002010B5054C23685A1C04D1036872
:102BE0005B69984703002060180010BD5800002062
:102BF000074B0200186810B5411C03D00122524255
:102C00001A6010BD0221106900F014FDF9E7C046FA
:102C10005800002010B503784222023303700249A5
:102C2000024800F0C1FD10BD14000020D0050020B6
:102C300010B50178020043780020A12908D1212B8A
:102C400005D107221649174800F0AEFD012010BD3E
:102C50002129FCD1202B13D107221149114800F062
:102C600043FC96220E4BD200196891420ED10124EA
:102C7000D87904400AD1FA20FFF7FEFD0020E6E7EC
:102C8000222B06D19278064BDA71EAE7FFF7FAFDBC
:102C9000F4E7232BDBD15288034B1A60D7E7C046F9
:102CA0000C000020D0050020080000207047000024
:102CB00010B5FFF763FBF423FF330024984207D9D4
:102CC000044B0A20DC79631E9C41E4B2FFF78CFBC5
:102CD000200010BD0C000020FA220021054B9200BC
:102CE0009A60054A596008321A60044A19761A61D6
:102CF0007047C046B4050020344A0000D0050020CB
:102D0000704770B50F26CB1D013902003240D5B295
:102D10002C0000093034092A00DD07341C70013B07
:102D20008B42F2D170BD10B50400806901F040FB08
:102D3000A06A01F03DFB200010BD10B50400FFF7B4
:102D4000F2FF200001F0CAF9200010BD70B5032980
:102D500008D1324B8000C058002802D00368DB68DD
:102D6000984770BD82291FD1C3B22D4D5A01AA18B0
:102D700091692C4C80010C40C0218905214391614F
:102D8000294908334018802150612A685B01D01816
:102D900004794942214301717020995C8143080004
:102DA000302101439954DCE70029DAD1C024C1B2B3
:102DB0001B4E4A01B21893681A4DA4052B402343B9
:102DC00093601A4B8001C0180B00506030680726D2
:102DD00008335B01195CB1430E00012131431954E2
:102DE00091690D402C43946170240F495161195C25
:102DF000A1430C0010212143195491680C4CC318B5
:102E00000C4080214903214391609168890B89031B
:102E10009160402259790A435A71A2E7D4050020F3
:102E2000880A0020FFFFFF8FFC050020BC07002060
:102E3000FF3F00F0EFF3108303600123436072B69D
:102E400070470368002B02D162B6BFF36F8F7047E3
:102E500037B5056904006846002D14D1FFF7EAFF75
:102E6000019B621D013B02D3D57FEDB2FAE76846B4
:102E70000193FFF7E6FF002D01D100203EBD206A3F
:102E8000E369C01AFAE7FFF7D5FF22000025019B8E
:102E90003432013B02D31578EDB2FAE7684601936C
:102EA000FFF7CFFF002DE8D0206BE36AE9E70000D1
:102EB000FF2130B54368164D1A6883680B405B01EB
:102EC000D21801235218947A23439372836842687C
:102ED0000B405B01D418C268A36892042B4012090E
:102EE0001343A360836842680B405B01D3189A6860
:102EF000920B92039A6043681A6883680B40083308
:102F00005B01D318402219790A431A7130BDC046BB
:102F1000FF3F00F0F7B5036904000E001700684694
:102F2000002B45D1FFF786FF019B611D013B5A1C19
:102F30000CD0CD7F5A1EEDB2002D05D1684601930D
:102F4000FFF77FFF2800FEBD1300F0E768460193FE
:102F50000025FFF776FFE369AF420AD0226A9A4262
:102F600007D95A1CE261A269D3181B787355013541
:102F7000F1E7226A9A42E5D10023E361013323613C
:102F80006846FFF757FF22000021019B671D013BA8
:102F90003532581CD2D0F97710785E1E002805D043
:102FA000117020000193FFF783FFECE73300F0E797
:102FB000FFF740FF2100019B3431013B5A1C06D032
:102FC0000D785A1EEDB2002DB8D01300F6E7684612
:102FD00001930025FFF735FFE36ABD4202D0226B63
:102FE0009A421CD8226B9A42ACD100236846E36215
:102FF0002361FFF71FFF270022000021019B3437C8
:10300000013B3532581C99D0397010785E1E00286B
:103010000DD0117020000193FFF74AFFEBE75A1C17
:10302000E262A26AD3181B7873550135D4E73300E6
:10303000E8E7F7B5FF21826843680A401B68083259
:1030400052019A18D3790400DB072AD50125D571DE
:10305000836842680B405B01D3189A684069920408
:10306000920C002821D12262226A002A3ED0A26A54
:10307000656168465A60FFF7DDFE27002100019B6D
:10308000661D013B343735315A1C2BD0F5773A7821
:10309000581ED2B2002A05D0019368460D70FFF782
:1030A000D0FEF7BD0A700300EEE72263226B002A10
:1030B0001CD000226261A26968465A60FFF7BAFE1E
:1030C00026002100019B3436013B671D35315A1C17
:1030D00008D03570FA7F581ED2B2002ADCD10A70AF
:1030E0000300F4E768460193FFF7ABFE2000FFF70B
:1030F000DFFED6E737B56B46DC1D00230D00200050
:103100002370FFF787FD2B681818286001F032F84C
:10311000210000F0FBFF2B681818286020783EBDC6
:1031200003290ED180220E4B62311B68FF31585C9F
:10313000524202435A5468226339FF32FF3999548C
:1031400070470129FCD18022054B24311B68FF31D7
:10315000585C524202435A5428222339FF32EDE789
:10316000880A002070B50025304B012104001A2088
:103170001D70FFF7C3FA01211A20FFF7EFFA2C4B5D
:10318000012119201D70FFF7B9FA01211920FFF75D
:10319000E5FA2023274A0F20D1690B43D36101228E
:1031A00025490B7813430B70244B19788143197010
:1031B00006211D782943197021490D782A430A7088
:1031C0001A7802401A70602219780A431A701D4B4F
:1031D0001D4A5A805A78D209FCD11C48FFF7C8F81A
:1031E0001B4D280000F0D8FF280000F0EDFF7F21E4
:1031F0002A68C120137880000B40137004232A68CA
:1032000011780B430C2113702A6813898B431149E1
:1032100013810B581B021B0A0B5080230B60117883
:103220007E3B0B4313700123237070BDF10500201A
:10323000F005002000040040584400413C44004197
:1032400059440041000C0040064000001D3C0000B5
:10325000880A002000E100E00078002810D0012159
:10326000084B1B681A898A431A810822198B0A4362
:103270001A830422198B0A431A830022024B1A6014
:103280007047C046880A0020800A002010B50F4A07
:1032900093699B0B9B03936113680222FF331A729D
:1032A0009879823A02439A711A7A9207FCD57F2460
:1032B000074A2140937A0800A34319008023014361
:1032C0009172917A5B420B43937210BD880A002081
:1032D0000050004110B50B790C00002B0CD10800F8
:1032E000FFF7A6FC002801D0012010BD094A936910
:1032F0009B0B9B039361F7E700F03CFF210000F07C
:1033000029FF0028F0D1034A93699B0B9B0393612B
:10331000EBE7C046880A0020F8B50D00832A19D1D2
:10332000CBB2364C5A01A21891693548AD0108401C
:10333000C021890501439161324920686D187021CF
:10334000083355615B011A5C8A43110040220A432D
:103350001A54F8BD022A4CD12B4A8B0098580028E9
:1033600002D003685B699847382000F0B3FE274B12
:10337000802703600023214E7F00421D036203610A
:103380004361C36146608560C760D3772F32040014
:10339000C362036313703800537000F0FFFFA06135
:1033A000380000F0FBFF2A00A062FF20024051011C
:1033B00071188B68124FAD001F40C0239B053B4323
:1033C0008B6013003168072608335B015A5CB243F7
:1033D0001600032232435A54A368626803405B011B
:1033E000D318A26920005A60FFF762FD064B5C51BA
:1033F000AFE711002800FFF7A9FCAAE7880A002020
:10340000FFFFFF8FFC050020D4050020604A00006C
:1034100070B505000124064BA200D258002A05D041
:1034200021002800FFF778FF0134F4E770BDC046A3
:103430005C000020084B8A00D05810B5002803D04B
:1034400003689B68984710BDC9B2044B49015918DD
:1034500088688004800CF6E7D4050020880A0020E4
:1034600010B50C00FFF7E6FF00280CD0064BE4B2C5
:103470001B68083464011C19802362795B42134382
:1034800063710223E37110BD880A002070B5CBB2CE
:10349000124A13485C018901891802195160916828
:1034A000104D08330D408021890229434025916049
:1034B0009168890B8903916001685A018A1816790D
:1034C0003543157195796D06FCD55B01C918CB792B
:1034D000DB07FCD500198068C0B270BDBC070020B6
:1034E000880A0020FF3F00F070B5140040220B4B0B
:1034F0000D001B68FF3359790A435A710021FFF709
:10350000C5FFA04200D9200000230549A34203D0F3
:10351000CA5CEA540133F9E770BDC046880A00204E
:10352000BC07002010B5C9B20B4849014218936886
:103530009B049B0C3F2B0BD99468403B9B04A40B32
:103540009B0CA4032343936041188868C0B210BD4C
:1035500093689B0B9B03F6E7880A0020F0B51C00DC
:103560002F4B85B01B6806000D000192002B54D034
:103570002C4F3978C9B2002902D11920FFF7EEF893
:1035800064233B70284BAA00D058002808D0036859
:1035900022005B68019998470400200005B0F0BD47
:1035A00029003000FFF746FF844204D9290030008B
:1035B000FFF740FF040029003000FFF7B3FF0121AF
:1035C000EBB21A4F03935B010293029A3B68019896
:1035D0009B18FF335A7A0A435A72154BA901C9182E
:1035E000220000F0EFFE002CD7D029003000FFF7BA
:1035F00021FF0028D1D14021039B3A6808335B01A9
:10360000D3181879014319710121D971029BD3187C
:10361000FF339A7A0A439A72BFE701246442BCE7F7
:10362000800A0020F0050020D4050020880A002030
:10363000BC07002013B56B46DC1D22000123FFF7F9
:103640008DFF012801D1207816BD01204042FBE703
:10365000F0B51E003A4B85B01B680F000192002B9D
:103660003FD08023DB019E423BD8364C2178C9B243
:10367000002902D11A20FFF771F864230025237076
:10368000314BBA01D3180293002E2CD02F4B1B685C
:103690000393FF233B401C0000930834039B640109
:1036A0001C19A379DB0921D0294B2A49186800F09D
:1036B000C5FD294B1721584300F0C0FD274BE27987
:1036C000920713D4DA5D002A01D10138F7D2012222
:1036D000DA55009B5A011D4B9B189A69920B920375
:1036E0009A6101256D42280005B0F0BD00221B4BF8
:1036F0003400DA55402E00D9402422000199029866
:1037000000F060FE009BA1045A01104B890C9B182D
:10371000029A2D195A619A69361B920B92030A4339
:103720009A61009B039A08335B01D3180222DA7175
:103730005979823A0A435A71019B1B190193A3E7F5
:10374000800A0020F1050020FC050020880A0020E6
:103750000000002040420F0070110100F30500201E
:1037600070B50D001C000D4BAE01F61811003000B5
:10377000220000F027FEEDB209496D014D196E617E
:10378000AB69084A20001340AB61AB69A2049B0BF4
:10379000920C9B031343AB6170BDC046FC05002037
:1037A000880A0020FF3F00F0F7B5104B01901B780E
:1037B0000F001500002B0CD10D4B16001C78002CAF
:1037C00009D00C4E0C4834882018641900F0FAFD1A
:1037D00034802800FEBD002EFBD03A1933000021B2
:1037E0000198FFF7BDFF2418361AF4E77C09002082
:1037F0007D0A00207E0A00207D090020F8B5002007
:1038000000AF0E001500012A27D9D31D6A46DB0838
:10381000DB00D31A9D46080000F0A0FE6C4603238F
:10382000022200210130400020706370AA420DD2B4
:10383000307800280AD0531CDBB20136A0549D42D8
:1038400003D00232E154D2B2F0E72A00210004484A
:10385000FFF7AAFF431E9841C0B2BD46F8BDC0465F
:10386000D0050020F0B50024012685B0184B0F00CC
:1038700069461E7005000094FFF73CFC154B01A93A
:103880000B806A3BFF3BCB716E3B0B72009B8C71D4
:1038900009334B800E4B4E7108711C703A00092F92
:1038A0000FD00D4F09223E700C4E2800009434803A
:1038B000FFF77AFF69462800FFF71CFC32880849A9
:1038C0003C702800FFF770FF012005B0F0BDC04636
:1038D0007C090020090200007D0A00207E0A0020E9
:1038E0007D090020F0B5CF7893B005000E00022FBF
:1038F00009D1C9882B48FFF7B5FF441EA041C4B2C7
:10390000200013B0F0BD00F035FC310000F012FCD7
:10391000002803D0C417241AE40FF1E7012F0BD1BC
:10392000F2882149112A11D8D2B2002A0ED02800DB
:10393000FFF73AFF0124E3E70400032FE0D1B37857
:10394000002B05D1F2881949032AEDD90A78EEE750
:10395000022B06D1B27916492800FFF74FFF040069
:10396000CEE7012B02D1B2791249F5E7032BC7D17B
:10397000114B01A91868FFF7C4F9104B03A9186887
:10398000FFF7BFF90E4B05A91868FFF7BAF90D4B01
:1039900007A91868FFF7B5F96B460533DC77B279EC
:1039A00001A9D9E7D0050020914A0000844A00000F
:1039B000784A0000884A00000CA0800040A08000E7
:1039C00044A0800048A0800037B5050048780C006E
:1039D0000B2810D800F028FC061B0F2B0F41466E59
:1039E0004A4D676A097801AA002906D1022311808D
:1039F0002800FFF7B5FE01203EBD002313802E4BAB
:103A00001B78012B00D1137002230021F0E78A7884
:103A10000023012A03D101AA1380284BF0E7264A8C
:103A20001370274A93699B0B9B039361E3E78C78A0
:103A3000012C06D10021214B01AA1C70117023001A
:103A4000D6E700208442D7D11B4B01301C4A1870A6
:103A500093699B0B9B039361CEE789782800FFF75E
:103A600015FCC8E72800FFF73DFFC5E70123154A0D
:103A7000CBE70B780020DB06BED12800FFF7C8FC9F
:103A80002A200221A2780F4BFF301A600C4A1368DB
:103A90001C5C21434A241954FF34195D2938FF382E
:103AA00001431955D4E70123074AAEE78A78064B4C
:103AB0001A60B6E700209FE7F2050020FA05002013
:103AC000880A0020800A0020840A00204B4BF7B5AA
:103AD0001C780700002C00D083E0494E33689B8B94
:103AE0001B070ED521002000FFF730F932681023A4
:103AF0001100FF31887A03438B72424B1C6008230C
:103B0000938333689A8B52071FD504229A833E4AC7
:103B10001378002B0AD01378013BDBB213701378B3
:103B2000002B03D101211A20FEF718FE374A137823
:103B3000002B0AD01378013BDBB213701378002BF3
:103B400003D101211920FEF709FE3368FF331A7AE9
:103B5000D2061ED510221A72597930320A435A7190
:103B600060232B4938000A781A423BD1FFF72CFF1B
:103B70003368FF33002838D08022997952420A43B3
:103B80009A711A7A520604D540221A72597A0A4357
:103B90005A72336800241D8C01239D43EDB20193BA
:103BA000E1B2002D1DD02B002341019A134215D004
:103BB0002300326808335B01D318DA79D20702D4C4
:103BC000DB799B0707D5134BA200D058002810D0F3
:103BD00003681B689847019BA3409D430134092C4F
:103BE000DED1F7BDFFF776FBC2E720210A4A9171CB
:103BF000C7E73800FFF794FAEDE7C0467D0A0020DA
:103C0000880A0020800A0020F1050020F00500202D
:103C1000BC070020D4050020FF50004110B5024829
:103C2000FFF754FF10BDC046D0050020014B024AEB
:103C30001A607047880A0020005000410120704738
:103C400010B50368014A1B6A984710BD13040000B1
:103C50000300FC33D9699A69914203D0DB69C0182B
:103C6000007D704701204042FBE710B50400006969
:103C7000FEF77EFE22000023FC329361D361862290
:103C80009200A4186360A36010BDF0200140303999
:103C9000484248417047F0231B0119408023062009
:103CA0009B0099420AD00133FF330130994205D07D
:103CB000802302385B00994200D0002070470F201B
:103CC00001400020012903D00239481E8141481CCF
:103CD000704700008923F0B5182685B002919B003B
:103CE0000400C05C330008214343324D1700EB1839
:103CF0005956FEF75FFD304B0821E05C330043432B
:103D0000EB185956FEF756FD2C4BE25C0393022A42
:103D100009D11133E05CFF2805D008214643AE19D4
:103D20007156FEF747FD8A26B600A05DFF2819D020
:103D30000121FEF7E3FC1822A35D21495A43AB564B
:103D4000AD18DB0158188B21890060501D490122F4
:103D50005B188C218900635069688A408D21890035
:103D600062501A600122029B11002069FEF7CEFE0C
:103D700039002000FFF78FFF390005002000FFF712
:103D80009EFF390006002000FFF77FFF3300009000
:103D9000290020690122FEF7BBFD0B4B2069E25C84
:103DA000039BE15CFEF7D1FD2069FEF7EEFD05B057
:103DB000F0BDC046B4450000250200002702000007
:103DC000184400411444004126020000802210B52E
:103DD00004005200002100F0FEFA23000022FC3310
:103DE0005A6020009A6010BDF7B51D0008AB1B7823
:103DF0000400009309AB1B78160001930023436075
:103E0000FA239B008360114B0F00083303601430CA
:103E1000FFF7DCFF20001D30FF30FFF7D7FF8923BD
:103E20006A469B002761E654094B1278E554094B1A
:103E30002000E2546A46084B1279E2548A22293B58
:103E4000FF3B9200A3541032A354FEBDA44A0000CD
:103E50002502000026020000270200000300FC33B8
:103E600058689B68C01A01D50130FF30704710B503
:103E7000040020001D30FF30FFF7F0FF0028F8D1CC
:103E80002069FEF78CFD10BD10B51430FFF7E6FF7A
:103E900010BD0300FC3359689A68914204DB5A68EC
:103EA0009868801AFF30704798685B68C01A0138BC
:103EB000F9E710B51D30FF30FFF7EBFF10BD10B56F
:103EC00004000069FEF787FD002805D02069FEF791
:103ED00092FD2069FEF784FD2069FEF76CFD002845
:103EE00020D02069FEF787FD2200FC329369D1695A
:103EF0000133DBB28B4203D091696118087593617D
:103F00008A239B00E35CFF2B0CD020001430FFF7CA
:103F1000C0FF092806DC8B238D229B009200E3580A
:103F2000A2581A602069FEF761FD00281AD020000F
:103F30001D30FF30FFF792FF002822D086239B0020
:103F4000E31899685A68914218D08E219A684900FE
:103F5000A218515C9A680132D2B29A60C9B2206943
:103F6000FEF74DFD2069FEF72BFD002805D02069E6
:103F7000FEF72AFD2069FEF71AFD10BD0121494216
:103F8000ECE72069FEF747FDECE7000070B50400A0
:103F900000690D00FEF72AFD00283ED1FF2686238A
:103FA0009B00E3185A689968013232408A4223D153
:103FB000EFF31083DB070DD41E4B5B68DB05DB0DD5
:103FC000EDD0103B5BB2002B0DDB9B08C0331A4ACF
:103FD0009B009B582069FEF709FD0028DFD02000D8
:103FE000FFF76DFFDBE70F221340083B9B08134AE6
:103FF0009B009B181B68EDE75A68013216409A68CF
:10400000964205D08E215A684900A21855545E6028
:104010002069FEF7FCFC012070BD20001D30FF3040
:10402000FFF71CFF0028B9D129002069FEF7E7FC43
:10403000F1E7C04600ED00E000E100E01CED00E02B
:10404000030070B5FC33D9699A69040091421AD013
:10405000DA698218157DDA690132D2B2DA618A230F
:104060009B00E35CFF2B0CD020001430FFF711FF06
:104070000A2806DD8C238D229B009200E358A2586B
:104080001A60280070BD01256D42E8E77047000006
:1040900010B5FEF77FFA00F05DF9FFF7F7FF01209A
:1040A000FEF7A2F9094C2000FFF75CF82000FFF7AB
:1040B000D3F8FEF723F8FEF791F8FEF7B7F9044BB3
:1040C000002BF8D000E000BFF5E7C046D005002087
:1040D0000000000010B500F061F910BD10B500F04F
:1040E00067F910BDF7B506000D000C008B180193A1
:1040F000019B671B9C4207D0336821781B68300006
:10410000984701340028F3D13800FEBD70B50E0089
:1041100000254468002C0BD0236831005B68200028
:104120009847002802DB2D18E468F3E701256D426B
:10413000280070BD70B50D004468002C08D02368BD
:1041400029009B6820009847002802D1E468F4E722
:10415000200070BD70B50D004468002C08D02368A5
:1041600029001B6820009847002802D1E468F4E782
:10417000200070BD0121054A10B5136804480B40AA
:1041800003D1044C43600480116010BD8C0B0020EF
:10419000900B00200204000070B50400012304CC41
:1041A0000500117820000B4313708022002152007B
:1041B00000F011F92B689A78D207FCD49A7892070C
:1041C000F9D45C6270BD00001F22144BF0B51B686F
:1041D000590B9C0C9B01114014405B0F914200D184
:1041E00005211F2C00D1023C072B00D1043B0268A3
:1041F0008F01158D0A491F2629403943118505680D
:104200003440298D0A00B24322432A8500681903ED
:10421000028D044B13400B430385F0BD24608000E6
:104220003FF8FFFFFF8FFFFF02B4714649084900C6
:10423000095C49008E4402BC7047C0460022430816
:104240008B4274D303098B425FD3030A8B4244D35E
:10425000030B8B4228D3030C8B420DD3FF220902A0
:1042600012BA030C8B4202D31212090265D0030B5F
:104270008B4219D300E0090AC30B8B4201D3CB0355
:10428000C01A5241830B8B4201D38B03C01A524197
:10429000430B8B4201D34B03C01A5241030B8B4299
:1042A00001D30B03C01A5241C30A8B4201D3CB0284
:1042B000C01A5241830A8B4201D38B02C01A524169
:1042C000430A8B4201D34B02C01A5241030A8B426C
:1042D00001D30B02C01A5241CDD2C3098B4201D384
:1042E000CB01C01A524183098B4201D38B01C01A02
:1042F000524143098B4201D34B01C01A5241030979
:104300008B4201D30B01C01A5241C3088B4201D327
:10431000CB00C01A524183088B4201D38B00C01AD4
:10432000524143088B4201D34B00C01A5241411AFB
:1043300000D20146524110467047FFE701B5002008
:1043400000F006F802BDC0460029F7D076E77047B6
:104350007047C04670B500260C4D0D4C641BA41070
:10436000A64209D1002600F011F90A4D0A4C641B3F
:10437000A410A64205D170BDB300EB589847013692
:10438000EEE7B300EB5898470136F2E7E80000206B
:10439000E8000020E8000020F800002010B5034BE2
:1043A0000100186800F06AF810BDC04684000020C3
:1043B00010B5034B0100186800F016F810BDC04698
:1043C00084000020002310B59A4200D110BDCC5CBF
:1043D000C4540133F8E703001218934200D1704728
:1043E00019700133F9E7000070B50500002910D0FD
:1043F0000C1F2368002B00DAE418280000F0B5F841
:104400001D4A1368002B05D163601460280000F07A
:10441000ADF870BDA34209D9216860188342F3D179
:1044200018685B6841182160EEE713005A68002A9B
:1044300001D0A242F9D919685818A0420BD12068BE
:104440000918581819608242E0D110685268411862
:1044500019605A60DAE7A04202D90C232B60D5E735
:1044600021686018824203D11068526841182160A7
:1044700062605C60CAE7C046980B0020032370B5F9
:10448000CD1C9D43083506000C2D1ED20C25A942DB
:104490001DD8300000F069F8254A14682100002971
:1044A00019D1244C2368002B03D1300000F044F8CC
:1044B00020602900300000F03FF8431C2BD10C2372
:1044C0003000336000F052F803E0002DDFDA0C23F7
:1044D0003360002070BD0B685B1B19D40B2B03D914
:1044E0000B60CC18256003E04B688C420DD1136043
:1044F000300000F03BF8200007220B30231D9043D2
:10450000C31AE7D05A42E250E4E763600C00EFE7D9
:104510000C004968C3E70323C41C9C43A042E1D0BC
:10452000211A300000F008F8431CDBD1C7E7C04671
:10453000980B00209C0B0020002370B5064C050052
:104540000800236000F014F8431C03D12368002BFB
:1045500000D02B6070BDC046A40B00200023C25CBD
:104560000133002AFBD1581E704770477047000086
:10457000044A1368002B00D1034B18181060180070
:104580007047C046A00B0020A80B0020F8B5C0461D
:10459000F8BC08BC9E467047F8B5C046F8BC08BCDD
:1045A0009E46704746656174686572204D300A0DFD
:1045B00000000000000000000B00000002000000EE
:1045C0001C000000FF00010101010B0000000000C1
:1045D0000A000000020000001C000000FF000001B3
:1045E00000010A00000000000E00000008000000AA
:1045F00004000000FF00000000000E0000000000AA
:1046000009000000040000001C000000FF00010081
:104610000100090000000000080000000400000084
:104620001C000000FF00000000001000000000005F
:104630000F000000040000001C000000FF00010348
:1046400001030F000000000014000000050000003E
:104650002C000000FF000200020004000000000027
:10466000150000000800000004000000FF00FFFF2C
:10467000FFFF05000000000006000000040000002D
:104680001C00000006000001000106000000000000
:1046900007000000040000001C00000007000101EA
:1046A00001010700000000001200000004000000EB
:1046B0001C000000FF0000030003020000000000D7
:1046C00010000000040000001C000000FF000002B9
:1046D00000020000000000001300000005000000C0
:1046E0002C000000FF000300030003000000000096
:1046F00011000000040000001C000000FF00010287
:1047000001020100000000000200000001000000A2
:10471000020000000000FFFFFFFF02000100000098
:104720000800000001000000180000000200000462
:104730000004080001000000090000000100000062
:10474000180000000300010401040900000000003B
:104750000400000001000000180000000400000038
:10476000000004000000000005000000010000003F
:104770001800000005000100010005000100000014
:104780000200000001000000000000000A00FFFF1E
:10479000FFFF020000000000160000000200000001
:1047A00004000000FF00FFFFFFFF06000000000004
:1047B000170000000200000004000000FF00FFFFDF
:1047C000FFFF0700000000000C00000003000000D5
:1047D00004000000FF00FFFFFFFF0C0001000000CD
:1047E0000A0000000300000004000000FF00FFFFBB
:1047F000FFFF0A00010000000B00000003000000A2
:1048000004000000FF00FFFFFFFF0B00010000009D
:10481000030000000B00000004000000FF00FFFF89
:10482000FFFFFF00000000001B0000000B00000065
:1048300004000000FF00FFFFFFFFFF00000000007A
:104840001C0000000600000000000000FF00FFFF49
:10485000FFFFFF000000000018000000060000003D
:1048600000000000FF00FFFFFFFFFF00000000004E
:10487000190000000600000000000000FF00FFFF1C
:10488000FFFFFF0001000000160000000300000011
:1048900000000000FF00FFFFFFFFFF00010000001D
:1048A000170000000300000000000000FF00FFFFF1
:1048B000FFFFFF00000000001600000002000000E3
:1048C00000000000FF00FFFFFFFFFF0000000000EE
:1048D000170000000200000000000000FF00FFFFC2
:1048E000FFFFFF00000000001300000002000000B6
:1048F00000000000FF00FFFFFFFFFF0000000000BE
:10490000100000000200000000000000FF00FFFF98
:10491000FFFFFF0000000000120000000200000086
:1049200000000000FF00FFFFFFFFFF00000000008D
:10493000110000000200000000000000FF00FFFF67
:10494000FFFFFF00000000000D0000000400000059
:104950000C000000FF000100FFFF0D000000000040
:1049600015000000050000000C000000FF0003001F
:10497000FFFFFF0000000000060000000400000030
:104980000C000000FF000001FFFFFF00000000001E
:1049900007000000040000000C000000FF000101FF
:1049A000FFFFFF0000000000030000000100000006
:1049B00002000000FF00FFFFFFFFFF0000000000FB
:1049C0000200000001000000020000001400FFFFD0
:1049D000FFFF0200000000000600000001000000D0
:1049E00002000000060000010001060000000000B7
:1049F00007000000010000000200000007000101A4
:104A0000010107000008004214090000000C0042E8
:104A1000150A000000100042160B000000140042AE
:104A2000170C000000180042180D0000001C004286
:104A3000190E000000000000000000007D2B0000A7
:104A4000A92B0000792B00009D2B0000912B00006A
:104A5000F12B0000D52B000000000000000000003A
:104A600033300000152F0000512E0000012D0000F2
:104A7000272D00003B2D000046656174686572209B
:104A80004D30000004030904416461667275697465
:104A90000012010002EF0201409A230B8000010185
:104AA0000203010000000000000000008D3F000034
:104AB000E5400000B33E00006F3E0000893E00006C
:104AC00041400000513C0000413C0000D53C00004A
:0C4AD0006B3C00003D3C000000000000BA
:104ADC0040420F00FFFFFFFFFFFFFFFF00C201007E
:104AEC0000000800080B000202020000090400008C
:104AFC000102020000052400100104240206052412
:104B0C0006000105240101010705810310001009AD
:104B1C00040100020A000000070502024000000721
:104B2C000583024000000000FFFFFFFF00000000B3
:104B3C008300000002000000820000000000000062
:104B4C000000000000000000000000000000000059
:104B5C0000000000880000200000000000000000A1
:104B6C000000000000000000000000000000000039
:104B7C000000000000000000000000000000000029
:104B8C000000000000000000000000000000000019
:104B9C000000000000000000000000000000000009
:104BAC0000000000000000000000000000000000F9
:104BBC000000000000000000DD2000006122000069
:104BCC00D92C00002D3C0000B52000000000000096
:040000030000230DC9
:00000001FF
