:1020000000800020893700003B22000039220000B8
:1020100000000000000000000000000000000000C0
:102020000000000000000000000000007137000008
:1020300000000000000000002D220000DD3700003D
:1020400071370000713700007137000071370000F0
:102050003537000071370000DD2D000075370000B6
:1020600071370000813600007137000071370000C1
:1020700071370000713700009136000071370000A1
:1020800071370000713700002D3500006D360000FB
:102090000000000071370000713700007137000048
:1020A0007137000071370000713700007137000090
:1020B0000000000010B5064C2378002B07D1054B1B
:1020C000002B02D0044800E000BF0123237010BDA4
:1020D00070020020000000004CAC0000044B10B562
:1020E000002B03D00349044800E000BF10BDC046E8
:1020F00000000000740200204CAC0000FEE730BF7E
:10210000FEE77047034B044A1A60044B044A1A6006
:102110007047C04614070020FD200000180700206B
:102120001D240000064A0749136A1940C0231B04F6
:102130000B431362136A1B021B0A13627047C046EB
:1021400000ED00E0FFFF00FF8023034A5B055168BC
:102150000B4353607047C04600ED00E010B5FFF739
:10216000F3FF10BD054B06491860064A0B6A1A407A
:10217000C0231B0413430B627047C046980700201E
:1021800000ED00E0FFFF00FF064B10B5064A1860A7
:10219000064B07481A6003221A72064A1360FFF7BB
:1021A000E1FF10BD1004002065A100001005002013
:1021B000C52600001C050020044B054A1960054B8C
:1021C0001860136A1B021B0A13627047F00D00208F
:1021D00000ED00E09007002010B5034B034918689C
:1021E000FFF7EAFF10BDC046100400205D2100008B
:1021F000EFF30980704780F309887047084B10B5EA
:102200001A68002A0AD0074B1968481C186006484B
:102210000068814202D3002119609047002010BD60
:10222000F00D00208C07002090070020014B1B6858
:102230009847C0469807002000E0FFE773465B0719
:1022400002D5024B1B689847014BFBE7140700209F
:102250001807002010B502600171002903D0012980
:102260002FD0662404E0022A08D1023201248260C1
:10227000002B32D0012B35D0200010BD042A01D113
:102280000532F3E7052AFBD0082AF9D00A2AF7D04D
:102290000B2AF5D00C2A01D10932E7E7102AFBD02E
:1022A000112AF9D0122AF7D0132AF5D0142AF3D024
:1022B000162AF1D06624172ADAD109328260653CE9
:1022C000D6E7022A01D12D32D0E7082A01D1013AFE
:1022D000CCE76624092AFAD0CAE70121806801F018
:1022E00047FCC9E70021F9E710B5806801F070FCF0
:1022F00010BD0000002370B5E1250B4C1900082229
:102300002000FFF7A7FF20000021FFF7EDFF074C9B
:102310006D022900200001F0BFFF0022044B5D6028
:102320001A705A709C6070BD80070020D81500207C
:102330009C07002010B5806801F076FC431E984190
:10234000C0B210BD37B50125094C2000FFF7F2FFE0
:102350006840C1B22000FFF7C7FF0023054A019380
:10236000019B9342F0DC019B01330193F8E7C046E7
:1023700080070020FF520700037810B5002B02D021
:10238000012B04D010BD806801F088FFFAE7C06817
:1023900003689B6A9847F5E7037810B5002B02D0D5
:1023A000012B05D010BD806803681B689847F9E7CA
:1023B000C068F9E770B505000C002178002904D049
:1023C00028000134FFF7E8FFF7E770BD37B50500D7
:1023D0000E4C0F492000FFF7EDFF29002000FFF70A
:1023E000E9FF01250B4C2000FFF7A4FF6840C1B2B4
:1023F0002000FFF779FF0023074A0193019B9342D6
:10240000F0DC019B01330193F8E7C0469C070020F4
:1024100013A10000800700207FA9030010B5014828
:10242000FFF7D4FF95A100006422012110B50548F3
:102430001301054CC31A1B19013A1970002AF7D170
:1024400010BDC046AC0700204C060000F0B50700E8
:10245000002587B001920293204B1B689D423BD21E
:102460001F4AAB00D45838682368196806F05AF838
:1024700000282FD1A468E3680493A3680593059A04
:10248000049B9A421ED96168059B049AD31A5B1873
:10249000029962685B18934218D2019E0B00B44601
:1024A00063440393039B9E4214D0E3682268D318CD
:1024B000327801361A70E0686168013003F018FA6A
:1024C000E160EFE7049B059A9B1AE1E7054906489E
:1024D00001F048FC0135BFE707B0F0BD94070020CC
:1024E00020050020D7A00000D8150020F0B5194B1A
:1024F00089B00693002306AE174A33710393039BFA
:10250000934203DC039B01330393F8E70024042781
:10251000124B103301930023114A0493049B9342FE
:1025200003DC049B01330493F8E705AD3A000199FD
:10253000280005F049F92300601C30330A21EB70B4
:1025400003F0D6F93B000C002A0006493000FFF7E3
:102550007DFFE0E7C4A10000FF3D4900A8A0000006
:10256000BF120000FEA70000002307491801401811
:10257000027B002A02D00023037370470133642BCF
:10258000F4D11000F9E7C046AC07002070B5060092
:102590000D001400FFF7E8FF03000220002B0AD013
:1025A00005491E600A685D60501C086001200349EF
:1025B00092009C60535070BD9407002020050020BD
:1025C0000F4B104A10B51A600F4A0A245A600F4A7E
:1025D0009A600F4ADA600F4A1A610F4A5A610F4A2D
:1025E0009A610F4ADA610F4A1A62002210009100C4
:1025F00059580132C86208638C62092AF7D110BDAC
:10260000EC0400207C040020DC03002040030020B8
:10261000740300200C030020B404002048040020B0
:10262000A803002014040020064B800010B5C458F5
:10263000206B830019510130A16A03F059F921631D
:1026400010BDC046EC040020064B800070B5C45895
:10265000E06AA16A830001301D5903F049F928009E
:10266000E16270BDEC040020034B8000C358D86ABF
:102670001B6BC01A7047C046EC040020F8B5037A03
:102680000100032B02D0407AFFF7CEFF00240B4F4E
:10269000E65D3000FFF7E8FF002808D03000FFF7C4
:1026A000D3FF0500002D06D10548FFF78FFE01344A
:1026B000052CEDD1F6E72800F8BDC046FFA10000CB
:1026C0002FA1000072B6EFF309801038F0C0444625
:1026D0004D4656465F462038F0C0103880F30988D2
:1026E0000D4C23681B7A032B03D0FFF781FD236871
:1026F00058602068FFF7C2FF20604068FFF77BFD4D
:10270000F0C8A046A946B246BB46F0C880F3098887
:10271000024862B60047C0461C050020FDFFFFFFCF
:1027200000230C2110B5064A080058431018047AFB
:10273000022C03D001330A2BF6D1002010BDC04675
:1027400090020020054B10B51B78002B02D10448E5
:10275000FFF73CFE034B186810BDC0468C020020FA
:10276000EAA10000E8040020094B10B51B78002BFB
:1027700002D10848FFF72AFE074B80001A68101A9A
:102780000722104201D00138FBE7186010BDC04697
:102790008C020020BCA00000E8040020F7B5050072
:1027A0000F0001921E00FFF7BBFF041E02D1174865
:1027B000FFF70CFE00230760037246721020FFF73C
:1027C000D3FFFFF7BFFF6060019801351038FFF7B6
:1027D000CBFF63680E4A9D635A6380225204DA631A
:1027E0000C4B21001A683000551C1D60FFF71CFFC0
:1027F000022D09D1084B1A69D36A9B009B5858686F
:10280000FFF7F9FCFFF7E8FC0120FEBD6AA100001C
:1028100001210000B0040020EC04002007B5802254
:102820000023D2000D490E48FFF7B8FF8022002395
:1028300012010C490C48FFF7B1FF80220B49D2006E
:1028400000230B48FFF7AAFF00220A490192019BCF
:102850008B42FBDC019B01330193F8E7F6A00000FB
:10286000ED240000FFA000004529000008A10000A1
:1028700045230000FF9E240010B50520FFF784FCCF
:102880000222184B591CCA7719002C310A70190002
:1028900038310A70190044310A70190050310A7039
:1028A00019005C310A70190068310A70190074311E
:1028B0001A721A750A709A6F0A329A67FFF780FEC9
:1028C000094B0A4A0A491A6001220A4B0A481A703F
:1028D00000220A4B1A60803204235200FFF75EFF89
:1028E00010BDC04690020020E804002000500020E7
:1028F000E2A000008C020020FF200000B0040020B5
:1029000010B5FFF70FFCFFF7F5FCFFF7FBFBFFF738
:10291000B3FFFFF789FD10BD10B5FFF7F1FF0648C3
:10292000FFF72AFD0028FAD080220023D2000349B5
:102930000348FFF733FFFEE79C07002004A20000D6
:102940001D280000F0B5214B89B002930023204AD6
:1029500002A80693037107930492643304AA1D49E5
:102960000593FFF713FE069B0093079B0193009AC4
:10297000019B9A4227D9059D009B019AAD18ED1A3B
:10298000F1D00024049E144F069BF3181B78069880
:102990003B550599013002F0ABFF01340691AC4282
:1029A000F2D10E4E0E49300001F0DCF90025795DC0
:1029B0003000013501F0D7FBAC42F8D105493000B9
:1029C00001F0D0F9CFE7019D009BD8E7C4A100003A
:1029D000B0060020FEA700001C070020D81500202C
:1029E000CBA100000378034A9B009B580022493387
:1029F0001A707047480E0020F0B5040085B01E0024
:102A00000AAB1B78103001930BAB1B7817000293B5
:102A10000CAB1B780D00039300F0AEF920002430BE
:102A200000F0AAF9220000234832A363E363236481
:102A300063641370537063729D4205D12221084B69
:102A4000084A094804F03EFE2000019B256063719E
:102A5000029B2771E371039BA671237205B0F0BD41
:102A600015A2000026A200007AA2000030B50400E2
:102A700085B002AD00680291039201F065FA6B79AE
:102A8000227AE17920680093002301F041FB297943
:102A9000029A206801F07CFA206801F04BFA05B038
:102AA00030BD10B50400006801F037FA00236372EE
:102AB00010BD000007B5837A00910192002B07D06A
:102AC0009A070AD5EFF310835A425341C37272B684
:102AD0000099019AFFF7CAFF07BDDB07F8D5C36865
:102AE000014A9BB29360F3E700180040837A002B01
:102AF00005D09A0704D5C37A002B00D062B6704780
:102B0000DB07FCD5C368024A9BB2D360F7E7C04637
:102B10000018004010B5006801F01FFA10BD7047A2
:102B20007047000010B5006801F046FA030000206D
:102B3000834203DB0C304343014A985810BDC04622
:102B4000ECA2000010B5006801F036FA002805DBA1
:102B50000C2343430348C018406810BD0120404285
:102B6000FBE7C046ECA2000010B5006801F024FAB3
:102B7000002805DB0C2343430348C018806810BDC0
:102B800001204042FBE7C046ECA20000F0B5060081
:102B90001036050089B0300000F044F9002869D1F2
:102BA0002F002437380000F03DF9041E5FD12800C3
:102BB000FFF7DAFFC1B2300000F014FA0221300052
:102BC00000F034FA2C490122300000F007FA2B7C87
:102BD0002A4A9B0028009D50FFF7B4FFC1B238007D
:102BE00000F000FA0221380000F020FA6B1DDB7FB4
:102BF000224A9B0028009D50FFF794FF012301000B
:102C00002200029330002300049403940194009462
:102C100000F030FAA8632800FFF784FF01230200C8
:102C2000210001933800230004940394029400943B
:102C300000F020FAE863402004F0A0FD2A004832AA
:102C40002864079200280BD00123137068646B6C12
:102C500010221819E96B103404F0B6FD402CF6D19F
:102C6000079B1B78002B05D1380000F075F9300068
:102C700000F072F909B0F0BDE5290000480E00200F
:102C800070B5437A0400002B03D1012243814272C4
:102C9000C360230048331B78002B02D12000FFF7CC
:102CA00075FF18263300082120790D4D4343EB189A
:102CB000595600F0D1FF33000821A0794343EB18A7
:102CC000595600F0C9FF082160794643AD1969568D
:102CD00000F0C2FF034B200006CBFFF7C7FE70BD1C
:102CE000ACA30000400E00201FB5094A094B0A4959
:102CF00013600023938002930133019316330093F2
:102D0000162201330548FFF777FE05B000BDC04627
:102D1000400E002000093D003C150020F40D00206D
:102D2000084B1968002909D1EFF31080064A0028E2
:102D300003D172B6BFF35F8F013111701A6801328F
:102D40001A6070470810002004100020084B1A6811
:102D5000002A0CD01A68013A1A601B68002B06D1B1
:102D6000044B1B78002B02D0BFF35F8F62B6704715
:102D70000810002004100020FF2310B50370C023AA
:102D8000002104009B004170418083800C220830A8
:102D900004F023FD200010BD01230A0010B51A40E5
:102DA000194208D00C4A1370033343708368002B18
:102DB00000D0984710BD0223194204D006490B7079
:102DC000C3684270F3E704231942F3D0024A137038
:102DD000033343700369EAE74E48004110B5FFF73B
:102DE0009FFF0C4B1B8C1B071B0F0B2B0FD80A4A8A
:102DF0009900885800280AD00F2408490A78A2436D
:102E000013430B70064B1978C9B2FFF7C5FFFFF7E4
:102E10009DFF10BD004800410C1000203F480041BC
:102E20004E480041F8B500230278050018000B2A2F
:102E300077D93C4E2B702B780B2B07D801229A4068
:102E40003168114204D001332B70F4E7012068E0AF
:102E5000FFF766FF3768344C002F2BD12022334B0D
:102E6000334859690A435A611022D9690A43DA6121
:102E7000022223883900934323802388013A134395
:102E800023802C4B6063BF32A36304F0A6FCC022F6
:102E90003900284804F0A1FC4022C120264B8000C4
:102EA0002380264B26491A601A581140C02212046A
:102EB0000A431A5001231A00297830688A400243D5
:102EC00032600F261F4A880085501F483140027823
:102ED000B2430A43027002201C4A117881431170E8
:102EE000117819431170297822698B409A43226125
:102EF00060223F21636C934363642A79636C0A40C8
:102F0000134912020B400321134363646A79636C13
:102F10000A40104992050B4013436364FFF716FF04
:102F20000020F8BD001000200048004100040040CF
:102F3000400F0020800E0020020F000000E100E0A2
:102F4000FFFF00FF0C1000203F48004140480041B7
:102F5000FFC0FFFFFFFF3FFF70B50500FFF7E0FE7A
:102F60006B785CB2062B2BD02B7802240B2B27D846
:102F700001229A40144B1968114221D019689143DB
:102F800019601B68002B14D14022104BDA67BFF385
:102F90004F8FBFF36F8F21000D4A0E311388A3436B
:102FA00013800C4BDA698A43DA615A6910318A431B
:102FB0005A6100242B78084A9B009C50FF232B70F9
:102FC000FFF7C4FE200070BD0010002004E100E007
:102FD00000480041000400400C1000200232920022
:102FE00011507047037870B505000C0001710B2B70
:102FF00014D8FFF795FE29780F2509482940037852
:10300000084AAB430B4303703F23516C1C40064BF3
:10301000240219400C435464FFF798FE70BDC0466B
:103020003F48004100480041FFC0FFFF037870B5F2
:1030300005000C0041710B2B14D8FFF771FE2978A5
:103040000F25094829400378084AAB430B43037016
:103050000323516C1C40064BA40519400C435464D7
:10306000FFF774FE70BDC0463F4800410048004174
:10307000FFFF3FFFF0B587B001930CAB1E780DAB9F
:103080001B78050002930EAB1B780078039310ABFE
:103090001F78049105920B2802D9002007B0F0BDDB
:1030A0006B78062BF9D0AB78002B00D179E010219A
:1030B000080004F059FB0028EFD02B783B4A1B0195
:1030C0009B181A00D168002904D0D1688B4201D026
:1030D000D268F7E7D06001220223AA70964203D09B
:1030E000DB18022E00D01300062401881143018052
:1030F0000188A143018001881234A1430180153C5D
:10310000018826402A4C360221400E430680029E4A
:103110000188284C16402140B6020E430680039ECB
:103120000188254C16402140F6020E430680018896
:10313000224E3A40314012030A43072102800F9A7F
:10314000114002884903D204D20C0A4302806A4625
:1031500092884280049A4260029A002A08D0019A1A
:1031600041685A43002F01D00F9CA2408A18426048
:10317000059A8260039A002A09D0019A84685A430A
:103180001300002F01D10F9A9340E31883600023AE
:10319000EA789A4203D02B78044A1B019B18C3603B
:1031A0007CE7024B0001C01895E7C046400F0020A5
:1031B000FFFCFFFFFFFBFFFFFFF7FFFFFFEFFFFF3E
:1031C0007047704770477047704741717047817111
:1031D000704701717047000010B5034C083404605B
:1031E00001714271837110BD34A30000704700006B
:1031F00010B50248FFF78EFC10BDC046F40D00204C
:1032000010B50248FFF78BFC10BDC046F40D00203E
:1032100010B50248FFF784FC10BDC046F40D002035
:1032200010B50279042A26D0032A26D0022A26D0F5
:10323000013A53425A41154B52421A40D21843792F
:103240008179013B00291CD001291AD0022918D00C
:10325000032916D059424B410021DBB2140A0272F5
:103260004472140C120E8472C272017343730848C4
:10327000FFF706FD10BD074AE1E7074ADFE7074A07
:10328000DDE75C426341DBB2E8E7C04640420F0045
:10329000F40D00200024F40000127A0000093D0023
:1032A00010B50248FFF7FDFB10BDC046F40D00202D
:1032B00010B58168C2680248FFF7FCFB10BDC0462C
:1032C000F40D002010B50248FFF710FC10BDC046F9
:1032D000F40D002010B50400FFF77EFF044B200022
:1032E00008332360034BA3600023A38110BDC046B5
:1032F00068A3000000093D00002310B51A00190062
:103300000148FFF7E7FF10BD3C10002010B5C31CBB
:103310000400D87F00F088FC431E98410634E37F08
:10332000584010BD10B50430C07F00F051FC10BDF6
:1033300010B5C31DDB7F0530C07F594000F048FC4D
:1033400010BD10B503790400022B08D00021FFF74F
:10335000EFFF00212000FFF7E5FF0223237110BDDE
:10336000082388101840030010B5064A0833984215
:1033700005D0145C8C4203D00130C0B2F7E70020C6
:1033800010BDC0469CA30000F8B50400FFF7BEFFC7
:10339000002805D022002A3213780133DBB21370E3
:1033A0002100230029310A782B33824252D01A7827
:1033B0000B254F2A00D912351A785219D2B21A7039
:1033C00008701A789F2A44D92100E28D2A315208C8
:1033D000E2850A78042A04D98022E08D1201024392
:1033E000E2851A7825006032D2B21A7000232C359B
:1033F0000B702A78D3B2002A48D0260030363378B2
:103400000133DBB233700B2B23D93F23E18D200036
:103410001940FFF7A5FFE18D07008909C9B2200017
:10342000FFF79EFF2100220075313F010B783843E2
:10343000C0B27432002B12D110701378062B02D94F
:103440001378432B0BD900232B70638A01339BB273
:103450006382F8BD1A781432D2B21A70B1E70B78D1
:103460005F1CE3183133FFB20F70187009781378BE
:10347000994208D300232B70230001220833200037
:10348000DA77FFF75EFF00233370E2E7E18D054A4C
:103490009142DED101222A7022007534303213703D
:1034A0002370D6E7380B0000F7B5050078352F7884
:1034B00004007B1C2B70002F0ED10300020076331A
:1034C0000193FF321B78127A9A420BD8FFF739FF2B
:1034D000E38A01339BB2E3822B78072B01D90023C7
:1034E0002B70F7BD0600C318773679331978337817
:1034F0005A1C1941012332701940FFF713FF33782A
:10350000052BE9D9019B37701B78019A01331370A1
:10351000E2E7037910B5042B02D1FFF735FF10BDA8
:103520000379032BFBD1FFF7BFFFF8E71023054A10
:1035300010B5917B0B439373034B1868FFF7E9FFBA
:1035400010BDC046002C00424C100020F7B50C27DF
:10355000404E0193335C04005BB20D004743009280
:10356000002B2EDA00230B82EB7BDB09FCD1335DD1
:10357000394A01335BB23355335D12785BB2DB19E4
:10358000934203DA335D5BB20B2B34DD2F8ABFB27B
:10359000EB7BDB09FCD1314B3149186802F022F991
:1035A000304B009A5843043700090C3287424CD202
:1035B00080B252005053EB7BDB09FCD1FF33335513
:1035C00040E0335C244A5BB21278DB199342CEDAD6
:1035D000335C254A5BB2DB19DB009B5C5B06C6D51E
:1035E000335C00215BB2DB19DB00985C8006800E47
:1035F00000F0EEFABBE7335D1B4A5BB2DB19DB0080
:103600009B5C5B0609D5335D01215BB2DB19DB00F6
:10361000985C8006800E00F0DBFA2A8A92B2EB7B7F
:10362000DB09FCD1335D5BB2DF190F4BFF00DF1903
:103630007B68D318009A9BB20C3252005353EB7B39
:10364000DB09FCD1019BAB73F7BDBFB252005753EE
:10365000B1E7C046511000205010002000000020AB
:1036600040420F00204E000054100020002210B5F0
:10367000102310000149FFF769FF10BD0030004220
:1036800010B5024801F003FF10BDC046B410002081
:1036900010B5024801F0FBFE10BDC046F01200203C
:1036A000F7B501240326154F1549380000F0ACFB8F
:1036B0001449154800F0A8FB1449154800F0A4FB74
:1036C0001449154800F0A0FB1449154800F09CFB74
:1036D000144D1549280000F097FB3900230000968F
:1036E00000220194114801F069FE290000961E2372
:1036F0001F2201940E4801F061FEF7BD2C15002039
:1037000000080042000C004230150020001000426A
:103710003415002000140042381500200018004223
:103720003C15002040150020001C0042B410002071
:10373000F012002070B50024094D0A4B1B68A3420B
:1037400000D870BD084E2A6833691A4205D0074B6D
:10375000A200D35898472B68336101340435ECE755
:1037600088150020CC1500200018004044150020CA
:10377000FEE70000034B10B51B68002B00D09847F4
:1037800010BDC046D01500200F4A1048110010B5DA
:103790000F4B824202D0934209D11300824209D1D9
:1037A00000F082F801F05CFFFEE710CB10C181420F
:1037B000FBD3F3E7074A8B42F2D00021064B9A4233
:1037C000EED202C2FBE7C0460000002070020020DB
:1037D00050AC000070020020CC1B002010B5FEF79A
:1037E0000DFD002801D100F053F810BD014B186009
:1037F0007047C046D0150020014B18687047C0467E
:10380000D4150020F7B51348012284461249134C01
:103810008E68636805689B0E134001928868626831
:10382000019F920E3A4067463F6893420ED1BD42D7
:103830000CD186420AD35B19FA254868AD00861B75
:1038400007486B437043000DC018FEBD3D001300D8
:103850000600E3E7D415002010E000E000ED00E0F2
:103860005555000070B5041E11D0FFF7CBFFFA26A6
:103870000500B60000F016F8FFF7C4FF401BB04289
:10388000F8D3FA23013C9B00ED18002CF4D170BD55
:1038900010B5034A13680133136000F07BFA10BDC2
:1038A000D4150020704700001E2270B546484749D5
:1038B000436893431C3A1343436008238C692343B2
:1038C0008B61434C434B9C829C8A14439C82DC68F2
:1038D0001442FCD00124404A14701578254203D0CC
:1038E00055786DB2002DF8DB01249460547864B2F1
:1038F000002CFBDB394C5460547864B2002CFBDBA9
:103900008224E4015480547864B2002CFBDB02244E
:103910009C840E34DD682542FCD0314CDC621024DE
:10392000DD682542FCD09D8C2E4C2C439C841024B9
:10393000DD682542FCD002249D8C80262C439C848B
:103940004024DD683542FCD0DD682542F9D01024E2
:10395000DD682542FCD000249460547864B2002CC9
:10396000FBDB214C5460547864B2002CFBDB1C6AF6
:103970001E4D2C4080251C621C6AAC431C62032334
:1039800093601B4B536053785BB2002BFBDB00232F
:10399000FF240B72174A4B728B72CB72164B1A6054
:1039A000164B174A1B6811689A065B01C90E234023
:1039B000520F12020B431343124A138580234268AD
:1039C0001343436070BDC046004000410004004006
:1039D0000C06000000080040000C0040010501003A
:1039E000B905FF7D040A000000070300FFFCFFFF8C
:1039F00003060100006CDC0200000020246080004F
:103A00002060800000400042FA212E4B10B518685B
:103A1000890001F0E7FE802301385B0498424FD211
:103A200029492A4A4860C020136A00061B021B0A63
:103A30000343136200238B6007330B608021136AFA
:103A400009061B021B0A0B431362FC22204B196A56
:103A50000A431A62FF22196A12020A431A62A0225A
:103A6000196AD2020A431A621A4B1C005A7852B2DF
:103A7000002AFBDB184A5A80184B1A00597EC909E4
:103A80000129FBD0C821890099800521D970537E76
:103A9000DB09012BFBD0C02300205B011361907078
:103AA00000F022F863785BB2002BFBDB0C4B0D4A75
:103AB0006380D379DB09012BFBD04123537010BD08
:103AC000FEE7C0460000002010E000E000ED00E04E
:103AD00000040040000C00401E4000000040004276
:103AE00021400000004800421F4900B50B004A7EFB
:103AF000D209012AFBD001380A282FD801F068FE2C
:103B00001B2E2E2E2E2E062E2E2411001A6917493A
:103B10000A400F211A615A788A43110001220A4390
:103B200010E01A6911490A400F211A615A788A4334
:103B300011000322F3E71A690C490A400F211A61A8
:103B40005A788A435A7000BD1A6908490A400F2101
:103B50001A615A788A4311000222E0E7F0221969BB
:103B600012050A43F3E7C04600400042FFFFFFF0A2
:103B7000182310B508245843134A13181C5701344E
:103B800012D001245B6882569C4003290CD808009F
:103B90000E49D2015218D318403301F019FE021019
:103BA000060B02211970546010BD06211970546073
:103BB0009461F9E70621197054605461F4E7022119
:103BC00019709460F0E7C046ACA3000000440041C7
:103BD0001823F0B508245843114A13181C57013410
:103BE0001BD0012635005F688356BD400D4ADB01BE
:103BF0009A18906805420BD10C00601E8441D219BE
:103C00004032107834400336A400B0432043107093
:103C1000044A9B18002901D15D61F0BD9D61FCE75C
:103C2000ACA3000000440041182310B5082443430E
:103C300007490020CA181457013408D05B560549BB
:103C4000DB015B18186A5368D8400123184010BD87
:103C5000ACA3000000440041182370B5082643437C
:103C60002A4AD518AE573400013607D0072907DC99
:103C700000291DDA01314C424C416442200070BDE4
:103C80000B00083BDBB20024032BF7D8092903D132
:103C90002100FFF76DFFF1E70A2904D10839FFF78A
:103CA00067FF0024EAE700240B29E7D10A39F0E78F
:103CB0006C68012520009B56C9B262082840DB01D0
:103CC0002C4211D012480E351B189A183032107839
:103CD000090128400143C9B2117041221B19403328
:103CE00019780A431A70DCE70F26094D5B199A18F8
:103CF000303215781B19B5432943117041224033E6
:103D0000197804000A431A70B8E7C046ACA3000053
:103D100000440041F8B505000E0017000024BC4225
:103D200008D02B682800315D1B689847002801D017
:103D30000134F4E72000F8BD70B505000C00081E42
:103D400007D004F0F9FB2B680200210028005B6813
:103D5000984770BD10B50249FFF7EEFF10BDC04691
:103D6000FCA7000070B50400FFF7E6FF0500200087
:103D7000FFF7F0FF401970BD014B18607047C04657
:103D8000040000200122024B52421A607047C046D4
:103D900004000020164A10B51368591C27D0013BB7
:103DA0001360002B23D172B68122124B9200043390
:103DB000934213D3104A01211000147D0C42FCD011
:103DC0002021148BFF319B085B0021431183D361B9
:103DD0000A4B13800123027D1A42FCD0BFF34F8FA0
:103DE000074B084ADA60BFF34F8FC046FDE710BDAE
:103DF00004000020002000000040004102A5FFFF59
:103E000000ED00E00400FA05016070479446F0B54B
:103E100005AC25789C1E621E944162460668920796
:103E2000376824063A432243072432600068214061
:103E3000AD01002442682943022B00D05C030A43F1
:103E400022434260F0BD30B5C0250368AD031C6855
:103E500012052A402243C0240904A40221400A4337
:103E60001A6003685A6814435C6030BD012302681D
:103E700011680B43136003681A68D207FCD4DA692F
:103E8000D207F9D470470223026811680B4313600C
:103E90000268D3699B07FCD4704703681A7ED20777
:103EA00002D41A7E9207FCD57047002203685A8319
:103EB00070470368187E4007C00F70470368187E7C
:103EC000C0097047802302685B42117E0B43137662
:103ED00070470368588B8007C00F70470223026841
:103EE000518B0B43538370470368187EC007C00F84
:103EF00070470368188DC0B2704703681A7ED207F6
:103F0000FCD589B2012019857047012203689A7592
:103F10007047012203681A7570470123026811680F
:103F20000B43136003681A68D207FCD4DA69D2071E
:103F3000F9D470470223026811680B4313600268CA
:103F4000D3699B07FCD470470368DA699207FCD4F5
:103F500002211A688A431A6070470268936A5B0AF2
:103F60005B020B43936203681A7E5207FCD5986A82
:103F7000C0B2704710B50548490001F033FC80B26B
:103F8000002801D0013880B2C0B210BD006CDC0244
:103F900070B50C00012611006308026833403440FC
:103FA000156824075B0723432B4313600468FFF75E
:103FB000E1FF207370BD00000368104A934213D0E4
:103FC0000F4A934212D00F4A934211D00E4A9342A5
:103FD00010D00E4A93420FD001200D4A4042934226
:103FE00001D1063040B270470020FBE70120F9E71D
:103FF0000220F7E70320F5E70420F3E7000800427A
:10400000000C004200100042001400420018004260
:10401000001C0042F8B5FFF7CFFF00282CDB1D4B3A
:10402000C000181805230479C3560320FF22184046
:10403000C0008240C021D2438140002B1DDB1F25E0
:1040400001201D40C026A840134D7600A851C0266F
:104050009B089B005B19B6009F593A401143995148
:1040600028603F2323408024E4011C430B4B5C80E9
:104070005A7852B2002AFBDBF8BD0F200340083B00
:1040800007489B089B001B18D86902401143D9615F
:10409000E7E7C04600A8000000E100E0000C004097
:1040A00000ED00E0F8B504000F0016001D00FFF75A
:1040B000B1FF2000FFF7DAFE1C21BB000B407107A7
:1040C0002268090C0B431360842322689375012F27
:1040D0001AD11021012E00D008390C4B6943186801
:1040E000C00001F07FFB0722216802408B89520348
:1040F000DB04DB0C13438B81226803049089DB0C07
:10410000400B400318439081F8BDC04600000020DA
:10411000F7B50500019308AB0C0016001F78FFF7F8
:10412000FCFE2800FFF776FFC021C022890224048C
:104130000C409203BF073605274316403E430C2729
:1041400007222B683E431E60019B296813401A001A
:1041500080239B0213434B602A68D3695B07FCD41E
:10416000F7BD3F20704713B56B460268D97107331E
:10417000546819000122A04716BD10B5022100693C
:1041800000F03EFC10BD10B50321006900F04EFCAC
:1041900010BD000010B51300084A0400D279002AAF
:1041A00003D101230020636010BD0A0000690321D0
:1041B00000F034FD0028F4D0F6E7C0460C000020E3
:1041C00010B5054C03002068421C04D11A68180081
:1041D00052699047206010BD58000020074A030034
:1041E000106810B5411C03D001235B42136010BD61
:1041F0000221186900F004FDF9E7C04658000020CC
:1042000010B503784222023303700249024800F0DD
:10421000B1FD10BD14000020F415002010B5017888
:10422000030042780020A12908D1212A05D117498D
:1042300017481A3A00F09EFD012010BD2129FCD13B
:10424000202A13D111491248193A00F033FC962262
:104250000E4BD200196891420ED1DA7901231A422D
:104260000AD1FA20FFF788FD0020E6E7222A06D1CE
:104270009A78064BDA71EAE7FFF784FDF4E7232A20
:10428000DBD15A88034B1A60D7E7C0460C000020E8
:10429000F4150020080000207047000010B5FFF75B
:1042A000ABFAFA2300245B00984207D3044B0A20A0
:1042B000DC79631E9C41E4B2FFF7D4FA200010BD04
:1042C0000C000020FA220021054B92009A60054A5A
:1042D00008321A60044A59601A6119767047C0465C
:1042E000D815002030A80000F4150020704770B5E4
:1042F0000F26CB1D02003240D5B22C00000930340D
:10430000092A00DD07341C705A1E994200D170BD85
:104310001300EFE710B50400806903F039FAA06AD2
:1043200003F036FA200010BD10B50400FFF7F2FFCD
:10433000200001F0BBF9200010BD000070B503297A
:1043400008D1324B8000C058002802D00368DB68D7
:10435000984770BD82291FD1C3B22D4D5A01AA18AA
:1043600091692C4C80010C40C02189052143916149
:10437000294908334018802150612A685B01D01810
:1043800004794942214301717020995C81430800FE
:10439000302101439954DCE70029DAD1C024C1B2AD
:1043A0001B4E4A01B21893681A4DA4052B402343B3
:1043B00093601A4B8001C0180B00506030680726CC
:1043C00008335B01195CB1430E00012131431954DC
:1043D00091690D402C43946170240F495161195C1F
:1043E000A1430C0010212143195491680C4CC318AF
:1043F0000C4080214903214391609168890B890316
:104400009160402259790A435A71A2E7F8150020B9
:10441000AC1A0020FFFFFF8F20160020E0170020BD
:10442000FF3F00F0EFF3108303600123436072B697
:1044300070470368002B02D162B6BFF36F8F7047DD
:1044400037B5056904006846002D14D1FFF7EAFF6F
:10445000019B621D013B02D3D57FEDB2FAE76846AE
:104460000193FFF7E6FF002D01D100203EBD206A39
:10447000E369C01AFAE7FFF7D5FF22000025019B88
:104480003432013B02D31578EDB2FAE76846019366
:10449000FFF7CFFF002DE8D0206BE36AE9E70000CB
:1044A000F0B5FF2501264268836811682B405B0147
:1044B000CC186419A77AD3183E43A672C6689C68C4
:1044C0000B4FB60436093C4034439C6083682B4054
:1044D0005B01D2189468A40BA40394604022836803
:1044E0002B4008335B01CB1819790A431A71F0BDD0
:1044F000FF3F00F0F7B5056904000E00170068469D
:10450000002D43D1FFF78EFF019B601D013B5A1C1C
:104510000BD0C27F591E002A05D168460193FFF7D0
:1045200088FF2800FEBD0B00F1E768460193FFF706
:1045300080FFE369AF420AD0226A9A4207D95A1C27
:10454000E261A269D3181B7873550135F1E7226A3D
:104550009A42E6D10023E361013368462361FFF705
:1045600061FF22000021019B671D013B3532581C71
:10457000D3D0F97710785E1E002805D02000117086
:104580000193FFF78DFFECE73300F0E7FFF74AFFF9
:104590002000019B3430013B5A1C06D00278591E82
:1045A000D5B2002AB9D00B00F6E768460193002582
:1045B000FFF73FFFE36ABD4202D0226B9A421CD84C
:1045C000226B9A42ADD100236846E3622361FFF774
:1045D00029FF270022000021019B3437013B35329F
:1045E000581C9AD0397010785E1E00280DD020001B
:1045F00011700193FFF754FFEBE75A1CE262A26AC5
:10460000D3181B7873550135D4E73300E8E7F7B5C5
:1046100082684368D2B21100040008311868490169
:104620004118C879C00729D501255201CD719B18C1
:104630009A6861699204920C002923D12262226A4D
:10464000002A41D0A26A656168465A60FFF7EAFE17
:10465000342294462200019B671D013BA44435325D
:10466000591C2DD06146FD770978581ECEB200291D
:1046700005D0019368461570FFF7DBFEF7BD030018
:104680001670EDE72263226B002A1DD0002227005E
:104690006261A26968465A60FFF7C4FE019B621D11
:1046A0009446013B34373032591C09D061463D7085
:1046B000C97F581ECEB20029DBD103001670F3E784
:1046C00068460193FFF7B5FE2000FFF7E9FED5E746
:1046D00013B56A4600230C00D01DD371FFF790FD7F
:1046E00023681818206001F019F86B46D91D00F0F6
:1046F000E1FF236818186B462060D87916BD0000CA
:1047000003290ED180220E4B62311B68FF31585CA9
:10471000524202435A5468226339FF32FF39995496
:1047200070470129FCD18022054B24311B68FF31E1
:10473000585C524202435A5428222339FF32EDE793
:10474000AC1A002070B500252F4B012104001A205F
:104750001D70FFF70DFA01211A20FFF739FA2B4BD4
:10476000012119201D70FFF703FA01211920FFF71D
:104770002FFA2023264A0F20D1690B43D36101224F
:1047800024490B7813430B70234B1978814319701C
:1047900006211D782943197020490D782A430A7093
:1047A0001A7802401A70602219780A431A701C4B5A
:1047B0001C4A5A805A78D209FCD11B48FFF716F8D8
:1047C0001A4D280000F0BEFF280000F0D1FF7F2125
:1047D0002B68C1201A7880000A401A7004221978C8
:1047E0000A430C211A701A898A4311491A810A58FE
:1047F0001202120A0A5080220A6019787E3A0A438D
:104800001A700123237070BD1516002014160020A5
:1048100000040040584400413C44004159440041D8
:10482000000C004006400000FD510000AC1A0020C2
:1048300000E100E00078002810D00121084B1B683F
:104840001A898A431A810822198B0A431A8304227F
:10485000198B0A431A830022024B1A607047C04624
:10486000AC1A0020A41A00200A000E498B699B0B89
:104870009B038B610B680221FF331972987982398F
:1048800001439971197A8907FCD57F20064B0240B4
:10489000997A8143114380229972997A52420A434C
:1048A0009A727047AC1A00200050004110B50B7985
:1048B0000C00002B0CD10800FFF7B0FC002801D041
:1048C000012010BD094A93699B0B9B039361F7E795
:1048D00000F024FF210000F011FF0028F0D1034A6E
:1048E00093699B0B9B039361EBE7C046AC1A0020D6
:1048F000F7B50D001100832A19D1EBB2324C5A01E1
:10490000A21891693148AD010840C02189050143D1
:1049100091612F4920686D187021083355615B0142
:104920001A5C8A43110040220A431A54F7BD022A36
:1049300045D1284AAB009858002802D003685B692B
:104940009847382000F0AEFE234B802703600023F9
:104950001D4E7F00421D036203614361C3614660D7
:104960008560C760D3772F32C3620363040013707E
:104970003800537002F002FF0190A061380002F08D
:10498000FDFEEBB25A01A062B21891680F480833DD
:104990000840C021890501439160316807265B0109
:1049A000585CAD00B0430600032030435854019BCF
:1049B00020005360FFF774FD064B5C51B6E72800FA
:1049C000FFF7BCFCB2E7C046AC1A0020FFFFFF8F28
:1049D00020160020F81500205CA8000070B5050026
:1049E0000124064BA200D258002A05D0210028003D
:1049F000FFF77EFF0134F4E770BDC0465C00002085
:104A0000084B8A00D05810B5002803D003689B6873
:104A1000984710BD044BC9B24901591888688004F1
:104A2000800CF6E7F8150020AC1A002010B50C0039
:104A3000FFF7E6FF00280CD0064BE4B2196880238C
:104A4000083464010C1962795B42134363710223D9
:104A5000E37110BDAC1A002070B5CBB2124A1348F6
:104A60005C0189018918021951609168104D083361
:104A70000D40802189022943402591609168890B6E
:104A80008903916001685A018A18167935431571B6
:104A900095796D06FCD55B01C918CB79DB07FCD590
:104AA00000198068C0B270BDE0170020AC1A002069
:104AB000FF3F00F070B5140040220B4B0D001B6847
:104AC000FF3359790A435A710021FFF7C5FFA0420D
:104AD00000D9200000230549A34203D0CA5CEA5450
:104AE0000133F9E770BDC046AC1A0020E017002082
:104AF00010B50C48C9B24901421893689B049B0C3D
:104B00003F2B0BD99468403B9B04A40B9B0CA40344
:104B10002343936041188868C0B210BD93689B0B13
:104B20009B03F6E7AC1A0020F0B51C002F4B85B0B4
:104B30001B6806000D000192002B54D02C4F3B78CF
:104B4000D9B2002B02D11920FFF742F864233B7041
:104B5000284BAA00D058002808D0036822005B68C0
:104B6000019998470400200005B0F0BD29003000ED
:104B7000FFF746FF844204D929003000FFF740FFC9
:104B8000040029003000FFF7B3FF0121EBB21A4FF8
:104B900003935B010293029A3B6801989B18FF33D1
:104BA0005A7A0A435A72154BA9012200C91802F019
:104BB0000BFE002CD7D029003000FFF721FF002882
:104BC000D1D14021039B3A6808335B01D31818798F
:104BD000014319710121D971029BD318FF339A7ACD
:104BE0000A439A72BFE701246442BCE7A41A00207A
:104BF00014160020F8150020AC1A0020E017002041
:104C000013B56B46DC1D22000123FFF78DFF012841
:104C100001D1207816BD01204042FBE7F0B51C0011
:104C20003A4B85B01B680E000192002B3FD08023C9
:104C3000DB019C423BD8364D2B78D9B2002B02D1F8
:104C40001A20FEF7C5FF642300272B70314BB201F9
:104C5000D3180293002C2CD02F4B1B680393FF23F7
:104C600033401D0000930835039B6D015D19AB793E
:104C7000DB0921D0294B2A49186800F0B3FD294BE4
:104C80001721584300F0AEFD274BEA79920713D461
:104C90009A5D002A01D10138F7D201229A55009B72
:104CA0005A011D4B9B189A69920B92039A61012736
:104CB0007F42380005B0F0BD00221B4B25009A55FD
:104CC000402C00D940252A000199029802F07CFD71
:104CD000009BA9045A01104B890C9B18029A7F195A
:104CE0005A619A69641B920B92030A439A61009B72
:104CF000039A08335B01D3180222DA715979823A98
:104D00000A435A71019B5B190193A3E7A41A00207F
:104D10001516002020160020AC1A002000000020EC
:104D200040420F00701101001716002070B50C00F2
:104D30001D000D4BA601F618110030002A0002F0EC
:104D400043FDE4B2094A640114196661A369084984
:104D500028000B40A361A169AB04890B9B0C89035C
:104D60001943A16170BDC04620160020AC1A002076
:104D7000FF3F00F0F7B5104B0F001B7814000190B7
:104D8000002B0CD10D4B16001D78002D09D00C4EB8
:104D90000C48358828182D1902F016FD35802000A2
:104DA000FEBD002EFBD033007A1900210198FFF7D9
:104DB000BDFF2D18361AF4E7A0190020A11A002013
:104DC000A21A0020A1190020F8B500200D0014003F
:104DD00000AF012A27D9D31D6A46DB08DB00D31AAE
:104DE0009D46080003F0A8FB6E4603230222002123
:104DF0000130400030707370A2420DD22878002834
:104E00000AD0531CDBB20135B0549C4203D00232AD
:104E1000F154D2B2F0E7220031000448FFF7AAFFB4
:104E2000431E9841C0B2BD46F8BDC046F4150020EF
:104E3000F0B50025012785B0184B0E0069461F709C
:104E400004000095FFF744FC154B01A90B806A3B59
:104E5000FF3BCB716E3B0B72009B320009334B80E2
:104E60000E4B8D714F7108711D70092E0FD00D4EB4
:104E7000092237700C4F200000953D80FFF77AFF24
:104E800069462000FFF724FC3A8808493570200065
:104E9000FFF770FF012005B0F0BDC046A01900204B
:104EA00009020000A11A0020A21A0020A119002066
:104EB000F0B5CF7805000E0093B0022F09D1C98854
:104EC0002B48FFF7B5FF441EA041C4B2200013B029
:104ED000F0BD00F023FC310000F000FC002803D0FE
:104EE000C417241AE40FF1E7012F0BD1F2882149EE
:104EF000112A11D8D2B2002A0ED02800FFF73AFFAB
:104F00000124E3E70400032FE0D1B378002B05D19F
:104F1000F2881949032AEDD90A78EEE7022B06D167
:104F2000B27916492800FFF74FFF0400CEE7012BA6
:104F300002D1B2791249F5E7032BC7D1114B01A970
:104F40001868FFF7D4F9104B03A91868FFF7CFF9D9
:104F50000E4B05A91868FFF7CAF90D4B07A9186889
:104F6000FFF7C5F96B460533DC77B27901A9D9E7BC
:104F7000F41500208DA8000080A8000074A800008F
:104F800084A800000CA0800040A0800044A0800005
:104F900048A0800037B5050048780C000B2810D8D1
:104FA00000F016FC061B0F310F484D7551546E7101
:104FB000097801AA002906D1022311802800FFF7F1
:104FC000B5FE01203EBD00231380324B1B78012B20
:104FD00000D1137002230021F0E78A780023012A10
:104FE00009D16A4693802C4B1B78012B00D1137199
:104FF000022301AAEFE7274A1370284A93699B0B03
:105000009B039361DDE78C78012C07D1224B01AA29
:105010001C70234B1B7813702300DCE700208442B4
:10502000D0D11C4B01301D4A187093699B0B9B0318
:105030009361C7E728008978FFF716FCC1E72800CD
:10504000FFF736FFBEE70123164AC4E70B780020BE
:10505000DB06B7D12800FFF7C1FC2A200221A27885
:10506000104BFF301A600D4A13681C5C21434A2420
:105070001954FF34195D2938FF3801431955D4E715
:105080000123094AA7E78A78074B1A60B5E7002091
:1050900098E7C046161600201E160020AC1A002005
:1050A000FEA70000A41A0020A81A00204B4BF7B559
:1050B0001C780700002C00D083E0494E33689B8B9E
:1050C0001B070ED521002000FFF738F932681023A6
:1050D0001100FF31887A03438B72424B1C60082316
:1050E000938333689A8B52071FD504229A833E4AD2
:1050F0001378002B0AD01378013BDBB213701378BE
:10510000002B03D101211A20FEF762FD374A1378E4
:10511000002B0AD01378013BDBB213701378002BFD
:1051200003D101211920FEF753FD3368FF331A7AAA
:10513000D2061ED510221A72597930320A435A719A
:1051400060232B4938000A781A423BD1FFF722FF2F
:105150003368FF33002838D08022997952420A43BD
:105160009A711A7A520604D540221A72597A0A4361
:105170005A72336800241D8C01239D43EDB20193C4
:10518000E1B2002D1DD02B002341019A134215D00E
:105190002300326808335B01D318DA79D20702D4CE
:1051A000DB799B0707D5134BA200D058002810D0FD
:1051B00003681B689847019BA3409D430134092C59
:1051C000DED1F7BDFFF772FBC2E720210A4A9171D9
:1051D000C7E73800FFF794FAEDE7C046A11A0020B0
:1051E000AC1A0020A41A0020151600201416002066
:1051F000E0170020F8150020FF50004110B50248CC
:10520000FFF754FF10BDC046F4150020014B024AC1
:105210001A607047AC1A002000500041012070470E
:1052200010B50368014A1B6A984710BD13040000BB
:105230000300FC33D9699A69914203D0DB69C01835
:10524000007D704701204042FBE710B50400006973
:10525000FEF70CFE22000023FC329361D36186220C
:105260009200A4186360A36010BDF0231B011940D5
:10527000802306209B0099420AD00133FF3301307E
:10528000994205D0802300205B00994200D105306F
:1052900070470F2001400020012903D00239481E29
:1052A0008141481C704700008923F0B5182785B05C
:1052B00002919B000400C05C3B0008214343324E36
:1052C0001500F3185956FEF7C7FC304B0821E05C77
:1052D0003B004343F3185956FEF7BEFC2C4BE25CEF
:1052E0000393022A09D11133E05CFF2805D008217D
:1052F0004743F7197956FEF7AFFC8A27BF00E05DF8
:10530000FF2819D00121FEF733FC1822E35D214963
:105310005A43B356B618DB0158188B2189006050E8
:105320001D4901225B188C218900635071688A40F5
:105330008D21890062501A600122029B11002069B0
:10534000FEF7B0FE29002000FFF78FFF29000600BE
:105350002000FFF79EFFF0221540303D6A42554184
:1053600003003100206901220095FEF74FFD0B4B31
:105370002069E25C039BE15CFEF765FD2069FEF7B6
:1053800082FD05B0F0BDC046ACA3000025020000C0
:105390002702000018440041144400412602000086
:1053A000802210B504000021520002F016FA2300FA
:1053B0000022FC3320005A609A6010BDF7B51D0032
:1053C00008AB1B780400009309AB1B78160001930F
:1053D00000234360FA239B008360104B0F000833C7
:1053E00003601430FFF7DCFF20001D30FF30FFF7B3
:1053F000D7FF89239B002761E654094B009AE554A7
:10540000084B2000E254019A074BE2548A22293BC0
:10541000FF3B9200A3541032A354FEBDA0A800008D
:105420002502000026020000270200000300FC33D2
:1054300058689B68C01A01D50130FF30704710B51D
:10544000040020001D30FF30FFF7F0FF0028F8D1E6
:105450002069FEF722FD10BD10B51430FFF7E6FFFE
:1054600010BD0300FC3359689A68914204DB5A6806
:105470009868801AFF30704798685B68C01A0138D6
:10548000F9E710B51D30FF30FFF7EBFF10BD10B589
:1054900004000069FEF71DFD002805D02069FEF715
:1054A00028FD2069FEF71AFD2069FEF702FD00289D
:1054B00020D02069FEF71DFD2200FC329369D169DE
:1054C0000133DBB28B4203D0916961180875936197
:1054D0008A239B00E35CFF2B0CD020001430FFF7E5
:1054E000C0FF092806DC8B238D229B009200E35825
:1054F000A2581A602069FEF7F7FC00281AD0200095
:105500001D30FF30FFF792FF002822D086239B003A
:10551000E31899685A68914218D08E219A68490018
:10552000A218515C9A680132D2B29A602069C9B25D
:10553000FEF7E3FC2069FEF7C1FC002805D02069D6
:10554000FEF7C0FC2069FEF7B0FC10BD0121494206
:10555000ECE72069FEF7DDFCECE7000070B5040025
:1055600000690D00FEF7C0FC00283FD1FF2686230E
:105570009B00E3185A689968013232408A4224D16C
:10558000EFF31083DB070ED41E4B5B68DB05DA0DEF
:10559000002BECD0103A53B212060DD49B081A4AD5
:1055A000C0339B009B582069FEF79EFC0028DED08C
:1055B0002000FFF76CFFDAE70F221340083B134A85
:1055C0009B089B009B181B68EDE75A680132164048
:1055D0009A68964205D08E215A684900A2185554FF
:1055E0005E602069FEF791FC012070BD20001D3037
:1055F000FF30FFF71BFF0028B8D129002069FEF714
:105600007CFCF1E700ED00E000E100E01CED00E0D3
:105610000300FC33D9699A6970B5040091421AD02D
:10562000DA698218157DDA690132D2B2DA618A2329
:105630009B00E35CFF2B0CD020001430FFF711FF20
:105640000A2806DD8C238D229B009200E358A25885
:105650001A60280070BD01256D42E8E7FEE770473B
:1056600010B5FEF7D1F902F05BF8FFF7F8FF012063
:10567000FEF7F8F8094C2000FFF764F82000FFF768
:10568000D9F8FCF73EFDFDF747F9FEF70BF9044B9F
:10569000002BF8D000E000BFF5E7C046F41500206D
:1056A0000000000010B502F069F810BD10B502F05E
:1056B0006FF810BD70B50E0000254468002C0BD0AB
:1056C0002368310020005B689847002802DBE4680B
:1056D0002D18F3E701256D42280070BD70B50D004F
:1056E0004468002C08D02368290020009B68984754
:1056F000002802D1E468F4E7200070BD70B50D0009
:105700004468002C08D02368290020001B689847B3
:10571000002802D1E468F4E7200070BD064A0123A6
:10572000116810B50C0005481C40194203D104490A
:1057300044600180136010BDB01B0020B41B00202A
:105740000204000070B50400012320CC00212A7857
:105750002000134380222B70520002F03EF8AB78F9
:10576000DB07FCD4AB789B07F9D46C6270BD0000FA
:105770001F22144B70B51B68590B9C0C9B011140E8
:105780005B0F22401F2900D11A391F2A00D1023A8B
:10579000072B00D1043B1F2500688E01048D0A49A8
:1057A0002A40214031430185018D14000A00AA439B
:1057B00022430285028D1903044B13400B430385DA
:1057C00070BDC046246080003FF8FFFFFF8FFFFFE1
:1057D00002B4714649084900095C49008E4402BC84
:1057E0007047C046002243088B4274D303098B42A2
:1057F0005FD3030A8B4244D3030B8B4228D3030CA1
:105800008B420DD3FF22090212BA030C8B4202D342
:105810001212090265D0030B8B4219D300E0090A6A
:10582000C30B8B4201D3CB03C01A5241830B8B4273
:1058300001D38B03C01A5241430B8B4201D34B035C
:10584000C01A5241030B8B4201D30B03C01A5241C1
:10585000C30A8B4201D3CB02C01A5241830A8B4246
:1058600001D38B02C01A5241430A8B4201D34B022F
:10587000C01A5241030A8B4201D30B02C01A524193
:10588000CDD2C3098B4201D3CB01C01A5241830947
:105890008B4201D38B01C01A524143098B4201D381
:1058A0004B01C01A524103098B4201D30B01C01AAC
:1058B0005241C3088B4201D3CB00C01A5241830826
:1058C0008B4201D38B00C01A524143088B4201D353
:1058D0004B00C01A5241411A00D2014652411046B3
:1058E0007047FFE701B5002000F0F0F802BDC046A8
:1058F0000029F7D076E7704703460B437FD4002298
:1059000043088B4274D303098B425FD3030A8B4253
:1059100044D3030B8B4228D3030C8B420DD3FF22BD
:10592000090212BA030C8B4202D31212090265D08B
:10593000030B8B4219D300E0090AC30B8B4201D33E
:10594000CB03C01A5241830B8B4201D38B03C01A85
:105950005241430B8B4201D34B03C01A5241030BFC
:105960008B4201D30B03C01A5241C30A8B4201D3AD
:10597000CB02C01A5241830A8B4201D38B02C01A58
:105980005241430A8B4201D34B02C01A5241030ACF
:105990008B4201D30B02C01A5241CDD2C3098B42B4
:1059A00001D3CB01C01A524183098B4201D38B0131
:1059B000C01A524143098B4201D34B01C01A5241D4
:1059C00003098B4201D30B01C01A5241C3088B4219
:1059D00001D3CB00C01A524183088B4201D38B0004
:1059E000C01A524143088B4201D34B00C01A5241A6
:1059F000411A00D201465241104670475DE0CA0F7D
:105A000000D04942031000D34042534000229C463C
:105A100003098B422DD3030A8B4212D3FC22890146
:105A200012BA030A8B420CD3890192118B4208D31C
:105A3000890192118B4204D389013AD0921100E07E
:105A40008909C3098B4201D3CB01C01A5241830992
:105A50008B4201D38B01C01A524143098B4201D3BF
:105A60004B01C01A524103098B4201D30B01C01AEA
:105A70005241C3088B4201D3CB00C01A5241830864
:105A80008B4201D38B00C01A5241D9D243088B42BA
:105A900001D34B00C01A5241411A00D2014663465D
:105AA00052415B10104601D34042002B00D54942C1
:105AB000704763465B1000D3404201B5002000F000
:105AC00005F802BD0029F8D016E770477047C046B8
:105AD0008446101C62468C46191C634600E0C04692
:105AE0001FB500F0F1FE002801D40021C8421FBDFF
:105AF00010B500F049FE4042013010BD10B500F075
:105B0000E3FE002801DB002010BD012010BDC046CF
:105B100010B500F0D9FE002801DD002010BD0120E5
:105B200010BDC04610B500F06BFE002801DC00205F
:105B300010BD012010BDC04610B500F061FE002868
:105B400001DA002010BD012010BDC046F0B54F465F
:105B50004646D6460C000903C0B5490A470F5E0009
:105B600039431F03DB0F9C4665007B0A570F1F4319
:105B70006D0DE40F760DA146C000B846D200AB1BF8
:105B800064457BD0002B5FDD002E00D0A4E03E00FA
:105B9000164300D112E15E1E002E00D09EE1871A4E
:105BA0004346B84280410125C91A4042091A0B02F6
:105BB00000D431E149024E0A002E00D16EE13000DE
:105BC00001F062FD0300083B1F2B00DD61E1202294
:105BD0003900D21A9E40D1409F400E439D4200DDC5
:105BE00051E15D1B6B1C1F2B00DD7CE12021C91ADC
:105BF0003D0030008F408840DD40791E8F413100EC
:105C000007222843D940002507433A40002A09D0FB
:105C10000F233B40042B05D03B1DBB42BF417F42BD
:105C2000C9191F000B0200D426E26A1CC64B550599
:105C30006D0D9A4200D106E1C44AFF080A4053079D
:105C400052023B43120B8EE0002B00D0B8E06B1CDD
:105C50005B055B0D012B00DC30E1871A4346B8423F
:105C6000B641CB1A76429E1B330200D54CE13B0075
:105C70003343A1D100220024002570E0002B00DC7A
:105C8000E5E0002E00D183E0AF4EB54260D0802623
:105C900036043743B846382B00DC3EE14346134315
:105CA0001F007A1E97413F188742804140420918E1
:105CB0000B0200D4B0E0A44B01359D4200D1C3E0FB
:105CC000A24A7B080A4001210F401F435108D30715
:105CD00007221F433A4099E79B4EB54238D08026B1
:105CE00036043743B846382B00DDDCE01F2B00DCE0
:105CF00030E11E004746203EF740BC46202B04D032
:105D00004026F31A46469E403243170063467A1EE9
:105D100097411F43CCE0002B00D104E243461343DC
:105D200000D159E14B07C00818438023C9081B0361
:105D3000194208D04546ED081D4204D14346D0081B
:105D4000590708432900420FC9007F4D1143C00085
:105D50004B07CA087C49C00803438D4268D0120330
:105D60006D05120B6D0D002112031800130B0A0DA7
:105D700012051A43764B2D0513402B435B00E407B5
:105D80005B08234319001CBC90469946A246F0BD0F
:105D90003E00164312D05E1E002E00D000E1871890
:105DA0008742804141444042091801250B0233D506
:105DB000022585E764463300414610001D00C7E711
:105DC000002D00D0DAE00C000443F3D05C1C00D1BD
:105DD0009FE15D4CA64200D12FE1DB43382B00DD73
:105DE00066E11F2B00DD83E120240500E41A0F008B
:105DF000DD40D940A0404346A7405B1A441EA04165
:105E000098462F433843171ABA42924143465242AA
:105E1000991A64463500CAE607223A40002A00D0A3
:105E2000F6E64B07CA084849FF083B438D4296D126
:105E30001900114300D19EE1802109030A43120396
:105E4000120B414D8FE71500002200238BE7002B3A
:105E500000D0C7E06B1C5F057F0D012F00DCF1E077
:105E6000394DAB4200D1B9E085180A00854289411D
:105E70004244494251180722CF076D082F43490871
:105E80003A401D00C2E607223049ED1A31403A403F
:105E9000BCE63E002838864000279FE6380001F027
:105EA000F3FB20308EE6434613431F007A1E9741D2
:105EB000C71BB84280414042091A78E60E003B00F9
:105EC00006431343002D61D1002E00D0F4E0002BD7
:105ED00000D11BE164463900100039E71A4FBB427C
:105EE0007AD03300FFE630001F3DE840202B03D07E
:105EF0004021CB1A9E4037437B1E9F410722074318
:105F00003A400021002589E7171A4346BA42B641B4
:105F1000591A76428E1B64464EE61F2B00DDADE01B
:105F200020264746F61AB740B9461700B246DF406A
:105F30004E463E4337005646B240561EB2411743C6
:105F40004246DA408918AEE6FF070000FFFF7FFFF8
:105F5000FFFF0F8020264746F61AB740B9461700C4
:105F6000B246DF404E463E4337005646B240561ECC
:105F7000B24117434246DA40891A99E77F4CA6425C
:105F80005BD0802424045B42214327E7002E0CD100
:105F9000002B00D1CBE0644639001000774DD7E6E6
:105FA000764FBB4218D0330075E6002B14D04B0758
:105FB000C00818438023C9081B03194207D0FC08F6
:105FC0001C4204D17907D0080843E14621004C4621
:105FD000420FC9001143C000684DB9E61D00002200
:105FE0000023C0E6002D5BD10D00054300D1E2E6A1
:105FF0005D1C00D1B0E0614DAE421FD0DB43382BB9
:1060000071DC1F2B00DD96E020250F00ED1AAF405C
:10601000B9460700AA46DF404D463D432F0055468E
:10602000A840D940451EA84188440743BF1897425D
:1060300092415142414435003AE6644635004146BA
:10604000100085E60B000343002D00D063E6002B13
:10605000F5D04346134300D17AE687188742804142
:1060600007224144404209183A400B0200D4D5E6C9
:10607000434B01351940C9E5380069E61E00474623
:10608000203EF740BC46202B04D04026F31A46465B
:106090009E403243170063467A1E97411F4302E633
:1060A000364DAE42CAD080252D045B422943A6E777
:1060B0000843411E8841A6E6002B00D148E6871A16
:1060C0004346B842B641CB1A76429E1B33024BD5AB
:1060D000171A4346BA429241591A5242891A072264
:1060E00064463A4092E501430F00791E8F419DE7D7
:1060F0001C000F00203CE740202B03D04024E31A73
:1061000099400843411E884138437CE60022002420
:1061100025E6171A4346BA429241591A5242891A41
:106120006446350043E541461000144D10E68022D8
:106130000024120380E61D000F00203DEF40BC4606
:10614000202B03D04025EB1A9940084307006346F3
:10615000781E87411F4369E7871897429B41414456
:106160005B42C9183500A3E53B003343CED007227C
:1061700031003A4052E600231A00F4E5FF07000020
:10618000FFFF7FFFF0B55746DE464E464546E0B579
:10619000834607000E03480085B092461C00360B6C
:1061A000400DCD0F002800D19DE0954B984239D08D
:1061B0008023F6001B041E43924A7B0F334399460B
:1061C000944603006344009300230026FF000293DB
:1061D00023031B0B98466300E40F52465B0D0194AA
:1061E00000D1B3E086498B4200D19EE04246D10007
:1061F000802212040A435146490F11438B468149BC
:1062000052468C4600996344CB1A0021D200009379
:106210002B0063409A460F2E00D905E17A4BB60059
:106220009B599F465B463343994600D0B8E0022312
:106230000826002700900293CAE7CB463A0002994D
:106240000195019B9A46022927D0032900D180E2BB
:10625000012944D06D49009B8C4663441C00002CEE
:1062600038DD530700D013E2D2085B46DB0109D5C5
:106270005946674B19408B468021C9008C46009BCC
:1062800063441C00634B9C4207DC5B4664055F076C
:106290005B0217431B0B620D02E000230027584AE4
:1062A00000211B031C0B0B0D1B05234314055A4A2D
:1062B000380013401C4353466400DB0764081C434A
:1062C000210005B03CBC90469946A246AB46F0BDC5
:1062D0000122524201231B1B382B00DCADE10022BE
:1062E00000230027DCE75B46334399465ED0002E4F
:1062F00000D18AE1300001F0C7F903000B3B1C2BF1
:1063000000DD7BE11D22D31A5A460100DA4008392C
:106310008E4013005F46334399468F403F4B002623
:106320001B1A00930023029352E7414653460B4346
:106330003B499B468C46009B634400935B46002B85
:106340003BD1022300221E43022161E7434613434F
:106350009B4637D04346002B00D162E1404601F016
:1063600093F903000B3B1C2B00DD53E10200414677
:10637000083A914088461D21CB1A5146D9400B005E
:1063800041460B439B46534693401A00009B2549C8
:106390009C46604403008C4663440093002137E729
:1063A0000323B14600900C26029311E700230093CB
:1063B00001330426002702930AE70323C3461E4342
:1063C000032125E701331E430022012120E700239A
:1063D0009A46802300271B03094A61E78023494628
:1063E0001B03194200D1E2E05946194200D0DEE019
:1063F0000B431B0317001B0BA246014A50E7C04684
:10640000FF07000001FCFFFFD4A80000FF0300000D
:10641000FFFFFFFEFE070000FFFF0F800DFCFFFFE8
:1064200001F8FFFFF3030000D94500D9CBE000D10C
:10643000C6E03C0048460027009B013B00935B46BA
:10644000160E1B021E431302984633041B0C99467A
:10645000310C0191FFF74CFA4A4642430B04210CE0
:10646000050019438A4207D98919013D8E4203D894
:106470008A4201D9851E8919881A0199FFF738FACD
:1064800009048C464A46210464464243090C030031
:1064900021438A4204D98919013B8E4200D8F1E098
:1064A0002D041D43AB464346891A4246280C12046C
:1064B0001D0C5B46140C22001B041B0C5A43039456
:1064C0006B434443029568431B19150CEB189C421F
:1064D00003D980246402A44660441C0C15041B04E8
:1064E0002D0C20185D19814277D373D00C1AA24A63
:1064F0007D1BAF42BF419446009B7F426344E01B3B
:106500001C00864200D1DBE00199FFF7F1F94A4611
:1065100042430B04290C070019438A4207D9891901
:10652000013F8E4203D88A4201D9871E8919881AF1
:106530000199FFF7DDF909044A46894629044D46C9
:106540004243090C030029438A4207D98919013BB8
:106550008E4203D88A4201D9831E89193F04891AC1
:106560003A00039F1A43380013041B0C584381461A
:106570000298150C6F43434345434846000C84463C
:10658000DB1963449F4203D980204002844665445E
:1065900048461F0C00041B04000C7D191818A94262
:1065A00000D284E000D17FE001231A4357E6802324
:1065B0004A461B0313431B031B0BAA466F4A6FE695
:1065C000BA4200D935E74B46DC0758087B081C4324
:1065D000FF0734E70024AF4289D247444745A4412E
:1065E0005B466442A4196418013BA6421ED2A04235
:1065F0006DD800D1B6E0241A9B4678E703005A46CE
:10660000283B9A400027914688E6584601F03CF81E
:10661000203072E603005246283B9A4093460022FF
:10662000B4E6504601F030F820309AE6A642E2D1B6
:10663000B845DCD9341A9B4659E71F2B65DC504C12
:106640000099A4465C46614408008C4011008240D9
:10665000D940501E82410C4314435A46DA4013007D
:10666000620709D00F222240042A05D02200141DFF
:106670009442894149425B181A0262D501220023E3
:1066800000270DE68A4200D80AE7831E891907E72A
:106690000F231340042B00D1E6E5171D97429241CA
:1066A00053429B44FA08E0E5002800D1D7E5711871
:1066B000531EB14227D3A94215D358D01A0073E70D
:1066C000002B00DC04E6012300229B44CDE50223DD
:1066D0004744474589415B429C46494289190C1908
:1066E000E344241A03E743465F0047459B41B8460D
:1066F0005B429E19023A8919A94200D054E74045ED
:1067000000D051E7ABE51A00F6E71F215F4649428A
:106710000C1BE740202B07D01A49009B8C46634492
:1067200018005B4683401A43501E82413A430727B4
:106730000023174009D00F21002311401400042921
:1067400095D122005F075B021B0BD2081743002282
:10675000A6E5802359461B030B431B0317001B0BA5
:10676000064A9DE5BD42B2D89B460024BFE680455F
:10677000B9D31A00C3E7C046FF030000FF070000BB
:106780001E0400003E040000F0B54F464646D646C3
:106790008446C0B58046194E18030F034D00000B08
:1067A0005C0082463F0B6D0DC90F9146640DDB0FF7
:1067B0000120B5420AD0B44203D0A54201D15745C9
:1067C0000CD01CBC90469946A246F0BD66463E439E
:1067D000F7D1AC42F5D154461443F2D10120C8455B
:1067E000EFD1994207D0002DEBD163461F4338000B
:1067F000471EB841E5E70020E3E7C046FF07000079
:10680000F0B54F464646D6464D00C0B50E03C90FFB
:106810008A462C491F035C008046360B6D0D91465D
:106820003F0B640DDB0F8D421ED08C4216D0002D25
:106830001ED130438446002C01D13A4323D0624616
:10684000002A1AD09A4529D0514602200139084021
:1068500001381CBC90469946A246F0BD3900114350
:10686000E5D002204042F4E73043FAD1AC420FD0E9
:10687000002C0FD13A43E7D00CE00122013B9343B7
:1068800018000130E5E763460020002BE1D0DBE78C
:106890003A43E6D19A45D7D1A542D5DCA54205DBDE
:1068A000BE42D1D808D00020BE42D2D250460123E9
:1068B000013898430130CCE7C845C5D80020C84509
:1068C000F4D3C6E7FF070000F0B54F464646D6466C
:1068D0004D00C0B50E03C90F8A462E491F035C0048
:1068E0008046360B6D0D91463F0B640DDB0F8D42DC
:1068F00018D08C4211D0002D18D130438446002C82
:106900001ED13A431CD163460020002B30D05146A3
:1069100002200139084001382AE039001143EAD049
:10692000022025E03043FBD1AC4226D0002C26D1FA
:106930003A4324D15146022001390840013817E07A
:106940006246002A0FD09A45E1D1A54205DBBE423E
:10695000DDD819D00020BE420AD2504601230138AA
:106960009843013004E00122013B934318000130B9
:106970001CBC90469946A246F0BD3A43D0D19A45F8
:10698000C5D1A542C3DCE0E7C845C0D80020C84552
:10699000E3D3EDE7FF070000F0B55746DE464E466D
:1069A0004546E0B5834606000F03480087B092468F
:1069B0001D003F0B400DCC0F002800D16FE0DE4BD7
:1069C000984238D08023FF001B041F43730F3B43C2
:1069D0000193DA4B0027994600239B46F600814439
:1069E0002B0369001B0B52469846490DED0F0029F9
:1069F00000D185E0D04B994200D173E04346DA00E4
:106A000080231B0413435246CC48520F8446134341
:106A1000524600206144D20089442100694000911F
:106A20008C46012149448A460F2F00D990E0C44981
:106A3000BF00CF59BF465B463B43019300D06AE19C
:106A400002230827002681469B46C9E732005846A4
:106A5000019B61460091022800D175E0032800D116
:106A6000FEE1012800D02CE10023002700260025AC
:106A70003F032A0D3F0BB34812053A4302401B0562
:106A80001343009A5B00D1075B080B4330001900E9
:106A900007B03CBC90469946A246AB46F0BD5B466B
:106AA0003B43019300D12FE1002F00D1A5E1380035
:106AB00000F0EAFD03000B3B1C2B00DD96E11D22DC
:106AC000D31A5A460100DA405E4608398F40130057
:106AD0008E403B4301939C4B00271B1A9946002391
:106AE0009B467DE7414653460B4393498C46E14420
:106AF000002B00D01AE102220220174300228CE76B
:106B0000134300D10DE14346002B00D181E1404603
:106B100000F0BAFD02000B3A1C2A00DD72E1010010
:106B2000434608398B4098461D239A1A5346D34052
:106B30001A004346134352468A404946081A82497E
:106B400089468144002068E77B4B002700268EE7BA
:106B5000140C1204120C1100370C3604350C794356
:106B600028008C462E006043604483465643210033
:106B7000300C80465846794340440291844506D9FA
:106B80008846802149028C46E04441460291360401
:106B9000010C360C00048B4681191E0C1B041B0CC7
:106BA0000391190079438C46280075436544A84633
:106BB0005843050C45447743A94203D98021490233
:106BC0008C466744290C8C4639000004000C2D04C7
:106BD0002D186144AB4405915946049101990F0465
:106BE0003F0C080C390051434243904602008C464A
:106BF000090C8B4662437C4344445C44A04503D962
:106C00008021490288464244210C88466146090495
:106C1000090C8C4639005943434370437E430F0CA3
:106C2000F6182404BE19644442448C46B34203D986
:106C300080235B0298464044029B61469846049B31
:106C4000370443449B46AB45AD416B420D04059967
:106C50002D0C8C467F196744FD18A8465D462D19FA
:106C6000A542A44193466442A446C344DC448F42F7
:106C7000BF4198459B4193459241A445A4415B4245
:106C80007F421F43360C52426442BF192243BF1851
:106C9000624638184302D20D039913436A020A432D
:106CA000501E82416146ED0D2A434E023243D90106
:106CB00000D4B3E00126500832400243DE073243DD
:106CC0005B08224C5444002C62DD510709D00F2090
:106CD0001040042805D0101D9042924152429B184A
:106CE0000200D90104D580241948E400034054442B
:106CF0001848844200DD27E75E075B02D2081F0BBD
:106D0000630516435B0DB2E6002399460133042761
:106D100000269B4664E60323019781460C279B4689
:106D20005EE6012201201743002276E603230320BA
:106D30001F43434671E6C046FF07000001FCFFFF0A
:106D400014A90000FFFF0F800DFCFFFFFF030000F0
:106D5000FFFFFFFEFE0700000023802700933F0394
:106D60000026434B83E6019B3200A446584670E65A
:106D7000AC466EE6802701993F0339422DD03B4255
:106D80002BD11F433F033F0B00951600384B6EE697
:106D900001252D1B382D00DD66E61F2D40DC354812
:106DA0001C005044160082408440EE40501E824138
:106DB00034431443EB40620709D00F222240042AD7
:106DC00005D02200141D9442804140421B181A0233
:106DD0003ED501230027002649E68027019B3F037B
:106DE0001F433F033F0B0094214B40E603005A46EC
:106DF000283B9A40002601926DE6584600F044FC7C
:106E0000203057E603005246283B9A4013000022E8
:106E100093E6504600F038FC20307BE6CA4650E747
:106E20001F201E004042041BE640202D03D0124CC0
:106E30005444A3401A43501E824132430726002780
:106E4000164009D00F200023104014000428B9D1A7
:106E500022005E075B021F0BD2081643002306E6E2
:106E600080273F031F433F033F0B1600004BFEE507
:106E7000FF0700001E0400003E040000F8B557465E
:106E80004E464546DE460C000903E0B5490A460F6A
:106E90005F0031431E03DB0F760A9B46530F3343DB
:106EA000C84E6500C000E40FD2006D0DA2468146B9
:106EB0007F0D9C469046B74200D1B9E05B46012663
:106EC00073409B46EE1BA34500D183E0002E63DD9B
:106ED000002F00D0B1E06346134300D123E1731EBD
:106EE000002B00D0BAE1861A6346B04280410125EA
:106EF000C91A4042091A0B0200D447E149024B0A61
:106F000098464346002B00D189E1404600F0BCFB87
:106F10000300083B1F2B00DD7CE120223000D21A49
:106F20004146D040994002009E400A439D4200DD08
:106F30006AE15D1B6B1C1F2B00DD94E1202110001A
:106F40003500C91A8E40DA408840DD40711E8E41FE
:106F5000110007222843002506433240002A09D0A9
:106F60000F233340042B05D0331DB342B641764284
:106F700089191E000B0200D43DE26A1C914B550595
:106F80006D0D9A4200D119E18F4AF6080A40570761
:106F900052023743120B9BE0002E00D0C5E06E1C5E
:106FA0007605760D012E00DC48E16746861ACB1B7C
:106FB000B042BF417F42B8461F004346FF1A3B0024
:106FC000B8461B0200D55FE137439AD10022002466
:106FD000002579E0002E00DCFAE0002F00D18DE0E2
:106FE000784B9D4267D0802367461B041F43BC46F5
:106FF000382E00DC52E1634613435A1E93411E189B
:1070000086428041404209180B0200D4BEE06D4B1D
:1070100001359D4200D1D2E06B4A73080A4001213C
:107020000E401E435108D30707221E43324095E706
:107030001E00164300D045E740E7624B9D423AD020
:10704000802367461B041F43BC46382E00DDEBE05F
:107050001F2E00DC3AE133006746203BDF403B0057
:10706000202E05D04027BF1B6646BE4032439046C7
:107070004646721E96413343DAE0002B00D114E2FB
:107080006346134300D168E180234E07C008C90856
:107090001B030643194208D06046C008184204D1B9
:1070A00063460100D2085E071643F3009946C90003
:1070B000720F444D11434B46DE08424B4F07374396
:1070C000CA089D4200D16EE012036D05120B6D0DD2
:1070D00000211203130B0A0D12051A433B4B2D0519
:1070E00013402B435B00E4075B082343380019007F
:1070F0003CBC90469946A246AB46F8BD6346134356
:1071000011D0731E002B00D007E186188642804103
:1071100061444042091801250B0237D502257BE75F
:107120003E00614691463500C5E75C46002D00D023
:10713000E1E00B000343F3D0731C00D1ACE1214B21
:107140009F4200D13AE1F343382B00DD6FE11F2B62
:1071500000DD8CE120250E00ED1AAE40B0460600A1
:10716000AA46DE40454635432E005546D940A84044
:107170006346451EA8415B1A9C463043161AB2422C
:10718000924163465242991A3D00B4E607223240CA
:10719000002A00D0E4E60B4BF6084F073743CA0835
:1071A0009D4200D090E73B00134300D1A6E180232D
:1071B0001B031A431203120B024D89E7150000222C
:1071C000002785E7FF070000FFFF7FFFFFFF0F801D
:1071D000002E00D0C7E06B1C5E05760D012E00DC92
:1071E000F0E0C84DAB4200D1B9E085180A008542F5
:1071F00089416244494251180722CE076D082E4347
:10720000490832401D00A9E6BF49ED1A1140072286
:107210003240A3E6320028388240002686E630005D
:1072200000F032FA203073E6634613435A1E93414E
:10723000C61AB04280414042091A5CE60E00674619
:1072400006431743002D5ED1002E00D0F3E0002F3F
:1072500000D11EE15C46614691462CE7A94FBE4233
:107260007BD01E00F1E610001F3DE840202B03D02C
:107270004021CB1A9A401643731E9E4107220643B3
:1072800032400021002583E7161A6346B24280414E
:10729000591A40420B1A98465C4632E61F2E00DD12
:1072A000ABE02027BB1B9A4663465746BB40994636
:1072B00013004F46F3401F433B005746BA40571E4A
:1072C000BA4113436246F240891898E62027BB1B57
:1072D0009A4663465746BB40994613004F46F340D3
:1072E0001F433B005746BA40571EBA4113436246FC
:1072F000F240891A9CE7834B9F425FD080252D0482
:107300007342294320E7002E0CD1002F00D1D0E09A
:107310005C46614691467B4DCDE67A4FBE421CD01D
:107320001E0065E6002F18D0C0084E0706438020D7
:10733000C9080003014208D06346DC08044204D1B6
:107340002100DA46D2085E071643F300994601246D
:107350005346C900720F11431C406A4DABE61D0035
:1073600000220027B4E6002D59D10B00034300D1C1
:10737000D6E6731C00D1B2E0624B9F421ED0F343AD
:10738000382B6FDC1F2B00DD97E020250E00ED1A57
:10739000AE40B0460600AA46DE40454635432E00C4
:1073A0005546A840D940451EA8418C440643B6180E
:1073B00096429241514261443D0025E63D006146BE
:1073C000914678E60B000343002D00D055E6002BD4
:1073D000F5D06346134300D16DE68618864280419E
:1073E00061444042091800220B0200D4D0E6464B0B
:1073F00001351940B2E5B1465DE633006746203BF2
:10740000DF403B00202E05D04027BF1B6646BE4014
:10741000324390464646721E96413343EFE5394B60
:107420009F42CBD080252D0473422943A8E708430F
:10743000411E8841A2E6002F00D13CE66346861A31
:10744000CF1AB0429B415B42FB1A98461B024ED5B5
:10745000161A6346B2429241591A5242891A5C4640
:1074600000227BE501430E00711E8E419FE71D0047
:107470000E00203DEE40B046202B04D04025EB1AF4
:1074800099400843814648464346411E8841184377
:1074900074E60022002417E6161A6346B2429241AF
:1074A000591A5242891A3D0025E561469146154D0B
:1074B00001E680220024120379E61D000E00203D23
:1074C000EE40B046202B04D04025EB1A99400843EB
:1074D00081464E464346711E8E411E4367E786181D
:1074E00096429B4161445B42C9183D008CE547468A
:1074F0003743CED007224146324049E600273A00C2
:10750000E6E5C046FF070000FFFF7FFF70B50C4EA9
:107510000D031C0349005B002D0B490D240B5B0D73
:10752000B14208D0064900208B4203D11443200009
:10753000441EA04170BD05430120002DFAD1F1E7A2
:10754000FF07000030B5144D0A034B00120B5B0D12
:10755000C90F0024AB4211DD104CA34210DC802483
:10756000640322430E4CE41A1F2C0CDD0D48C31A91
:10757000DA4013005C42002900D11C00200030BD1D
:10758000094BCC18FAE7094DE040AC4663449A40F9
:1075900013000343EEE7C046FE0300001D04000095
:1075A0003304000013040000FFFFFF7FEDFBFFFF2B
:1075B00070B500282DD0C317C5185D40C40F280032
:1075C00000F062F8154B1B1A5B055B0D0A2815DDF0
:1075D0000B38854000222D032D0B002110002D03B8
:1075E0000A0D2D0B12052A430D4D1B052A4013438E
:1075F0005B00E4075B082343190070BD020029000B
:10760000153291400A000B21081AC5402D032D0B9D
:10761000E3E70024002300250022DEE71E0400002B
:10762000FFFF0F8010B5041E25D000F02DF8144B7D
:107630001B1A5B055B0D0A2812DD0B388440002203
:107640002403240B0021100024030A0D240B12052F
:1076500022430C4C1B05224013435B00590810BD0C
:1076600002002100153291400A000B21081AC44083
:107670002403240BE6E7002300240022E2E7C046AF
:107680001E040000FFFF0F801C2101231B049842F1
:1076900001D3000C10391B0A984201D3000A0839A3
:1076A0001B09984201D30009043902A2105C40185A
:1076B0007047C046040302020101010100000000FE
:1076C0000000000030B51C00094B05001B6885B0A8
:1076D000D868084B002A01D1074B1A000292019387
:1076E00000912B002200054900F00AF801F004F88F
:1076F0008400002054A90000FEA7000061A900003A
:107700000EB403B5010003AB044804CB0068019339
:1077100000F082F902B008BC03B0184784000020D2
:1077200070B500260C4D0D4C641BA410A64209D167
:10773000002602F0ADFC0A4D0A4C641BA410A642C0
:1077400005D170BDB300EB5898470136EEE7B300A2
:10775000EB5898470136F2E754020020540200200B
:10776000540200206C02002010B5034B0A000100F7
:10777000186800F085F810BD8400002010B5034B98
:107780000100186800F0C2F810BDC0468400002057
:1077900010B5034B0100186800F028F810BDC04672
:1077A0008400002082B0002900D101A9101E06D05B
:1077B000002B06D013780B601078431E984102B05E
:1077C000704702204042FAE7002310B59A4200D1E8
:1077D00010BDCC5CC4540133F8E703001218934287
:1077E00000D1704719700133F9E7000070B505004A
:1077F000002910D00C1F2368002B00DAE4182800A1
:1078000001F0F7FF1D4A1368002B05D16360146077
:10781000280001F0EFFF70BDA34209D9216860186C
:107820008342F3D118685B6841182160EEE71300CA
:107830005A68002A01D0A242F9D919685818A04202
:107840000BD120680918581819608242E0D11068DD
:107850005268411819605A60DAE7A04202D90C2335
:107860002B60D5E721686018824203D11068526806
:107870004118216062605C60CAE7C046BC1B002002
:10788000F8B54B1E0600194202D000252800F8BDAD
:107890000F00082900D20827042A00D2042203235B
:1078A000390003329A43083989183000140000F077
:1078B0002DF80028E9D004380368002B00DAC0183E
:1078C000011D7B1ECB187D421D406B1A0AD0C718C4
:1078D0000B2B17D90268D21A3A6003603000FFF709
:1078E00085FF3800220003680C32C118AA189142A3
:1078F000CCD929190A1A9B1A026008C13000FFF777
:1079000075FFC3E75B423B60ECE70000032370B503
:10791000CD1C9D43083506000C2D1ED20C25A94216
:107920001DD8300001F065FF254A146821000029A8
:1079300019D1244C2368002B03D1300000F0E0FD66
:1079400020602900300000F0DBFD431C2BD10C230C
:107950003000336001F04EFF03E0002DDFDA0C232E
:107960003360002070BD0B685B1B19D40B2B03D94F
:107970000B60CC18256003E04B688C420DD113607E
:10798000300001F037FF200007220B30231D904309
:10799000C31AE7D05A42E250E4E763600C00EFE715
:1079A0000C004968C3E70323C41C9C43A042E1D0F8
:1079B000211A300000F0A4FD431CDBD1C7E7C0460C
:1079C000BC1B0020C01B0020936810B5013B9360D6
:1079D000002B04DA9469A34207DB0A2905D0136857
:1079E000581C10601970080010BD00F0ADFD0100BA
:1079F000F9E7F8B506000F001400D518AC4201D124
:107A0000002007E021783A003000FFF7DDFF013465
:107A1000431CF3D1F8BD0000F0B59FB002900F00F9
:107A200016000593002805D083690493002B01D12B
:107A300001F0C8FD7B4B9F425BD1029B5F68BB8915
:107A40001B0762D53B69002B5FD0002306AC636146
:107A5000203363761033A37635002B78002B01D0CA
:107A6000252B5CD1AB1B04930CD03200390002985B
:107A7000FFF7BFFF431C00D1C4E06269049B94463A
:107A8000634463612B78002B00D1BBE0012200230B
:107A90005242626002A9543252186E1C2360E360A5
:107AA000A3601370A365317805225F4801F096FE4C
:107AB000751C002835D12268D30604D5532302A9AA
:107AC0005B1820211970130704D5532302A95B18F2
:107AD0002B21197033782A2B2CD0350000210A2055
