:1020000000800020293C0000F13B0000113C000052
:1020100000000000000000000000000000000000C0
:10202000000000000000000000000000113C000063
:102030000000000000000000113C00007D3C00009A
:10204000113C0000113C0000113C0000113C00005C
:10205000B53B0000113C0000A5350000153C000018
:10206000113C000089390000113C0000113C0000C7
:10207000113C0000113C000099390000113C0000A7
:10208000113C0000113C0000012B0000113C00003D
:1020900000000000113C0000113C0000113C000059
:1020A000113C0000113C0000113C0000113C0000FC
:1020B0000000000010B5064C2378002B07D1054B1B
:1020C000002B02D0044800E000BF0123237010BDA4
:1020D0007002002000000000ECB50000044B10B5B9
:1020E000002B03D00349044800E000BF10BDC046E8
:1020F0000000000074020020ECB5000070471622BA
:102100003C2370B586B06A441370172600236E44D2
:102110000293019300930500330080680C0000F0E7
:10212000ADFA6A2300280FD0200006F087FD33782F
:1021300060646868E36303685B6D9847C317C01801
:102140005840012380B2A064180006B070BD10B5DD
:10215000806800F092F810BDF0B501261D4D85B0E5
:1021600003932B68040001910292334206D10322AB
:102170000821194B194800F031FD2E600127184E37
:10218000184D33683B4206D16B4628001A7A134932
:1021900000F04AFA3760280000F0A2F8002802D1C7
:1021A000682005B0F0BD0D4E0F4A30000F4900F019
:1021B0009FFD0028F4D06B460C21300059560022B8
:1021C00000F0DFFE019B0120237000236660637036
:1021D000A560E6E78C02002018040020940200208D
:1021E0009002002004030020CDCC4C3D00C064448C
:1021F00010B5806803681B68984710BD70B505006E
:102200000C002178002904D028000134FFF7F0FFEA
:10221000F7E770BD70B5E126144D76029AB0310033
:10222000280002F075FA002101AC0F230A0004A86F
:1022300021806660A560FFF78FFF04A8FFF787FF86
:102240000028FAD007AE310004A8FFF758FF002598
:10225000736CAB4205D9715D2000FFF7C9FF0135F2
:10226000F6E720000249FFF7C9FFE6E7A40B0020CC
:1022700074A9000001600271704710B5006803681E
:102280005B68984710BD10B5006803689B69984764
:1022900010BD10B5006803681B6B984710BD70B582
:1022A00004000D0016001900FFF7F3FF206832004C
:1022B00003682900DB68984770BD10B500680368A3
:1022C0005B6B984710BD70B50D0004000068036893
:1022D000DB6A984729002000FFF7EFFF257170BDEA
:1022E00070B50400006803681B689847051E03D09A
:1022F00020002179FFF7E7FF280070BD10B50068C6
:1023000003689B6B984710BD10B500680368DB6BD2
:10231000984710BD10B5006803685B6C984710BD06
:1023200010B5006803689B6C984710BD10B5006835
:102330000368DB6C984710BD10B5006803681B6D1F
:10234000984710BDF8B5040000681E000368069F9A
:102350009B689847051E1BD0002E03D02000FFF776
:10236000DFFF3070002F03D02000FFF7D3FF38705D
:10237000079B002B04D02000FFF7D8FF079B1870A5
:10238000089B002B04D02000FFF7D6FF089B187095
:102390002800F8BD01207047002070478171704708
:1023A00041717047C1727047017370474173704744
:1023B000837B9343194381737047C079C0B27047E0
:1023C000007AC0B27047407AC0B27047807AC0B21B
:1023D0007047008A00B270470079C0B2704701713F
:1023E0007047408A80B27047808A80B27047C08A46
:1023F00080B2704710B50400236820005B689847DE
:10240000002802D101F0A0FCF6E710BD10B50400D1
:102410002379032B02D101F097FCF9E7012010BDCD
:1024200070B504000E0001F037FC050001F034FC2B
:10243000401BB04208D2236820005B689847002800
:1024400003D101F081FCF1E7002070BD70B50500FB
:102450000E0001F021FC040001F01EFC001BB04244
:1024600005D22B79032B04D101F06EFCF4E7002098
:1024700070BD0120FCE7C36970B50400002B17D0C4
:1024800001F00AFC64260500236820009B6A984737
:1024900000280DD001F000FCE369401B984209D8E8
:1024A0000A21012003F01BFB704301F02BFCEBE73A
:1024B000012070BD0020FCE7074BFF2208330360BA
:1024C0000023037142714382C272838282818373CB
:1024D000C382C3617047C04678A900007047704747
:1024E0007047704770474171704781717047017143
:1024F0007047000010B5034C08340460017142714C
:10250000837110BDF0A900007047000010B50248AB
:1025100000F0E4FE10BDC0463C04002010B50248A7
:1025200000F0E1FE10BDC0463C04002010B502489A
:1025300000F0DAFE10BDC0463C04002010B5027960
:10254000042A26D0032A26D0022A26D0013A534252
:102550005A41154B52421A40D21843798179013BB6
:1025600000291CD001291AD0022918D0032916D01D
:1025700059424B410021DBB2140A02724472140C1E
:10258000120E8472C27201734373084800F05CFF3C
:1025900010BD074AE1E7074ADFE7074ADDE75C428B
:1025A0006341DBB2E8E7C04640420F003C04002034
:1025B0000024F40000127A0000093D0010B5024822
:1025C00000F053FE10BDC0463C04002010B58168E9
:1025D000C268024800F052FE10BDC0463C04002014
:1025E00010B5024800F066FE10BDC0463C04002055
:1025F00010B50400FFF77EFF044B20000833236072
:10260000034BA3600023A38110BDC04624AA000091
:1026100000093D00002310B51A0019000148FFF71A
:10262000E7FF10BD1804002010B50400FFF722FEDC
:10263000C823002120008022E381C53BA1602173D3
:1026400023745200113005F0E2FB200010BD37B5B5
:1026500004001500FFF752FE802120000022FFF742
:1026600053FE6B46D91D212301220B7020002B0045
:10267000FFF715FE2000FFF706FE37BDF0B589B065
:1026800004000D0005920493FFF7F7FD002803D125
:102690000025280009B0F0BD172702ABFF1816234C
:1026A00002AA9B180193152307AE9B1829000093DB
:1026B00020003300059A0297FFF744FE051EE7D07D
:1026C0003B787F2BE4D802AB22795B7D9A4205D11F
:1026D00002AB20003278997DFFF7B9FF07AB1A787B
:1026E000162302A95B18A4181B78617C9942CFD0ED
:1026F0000499002900D00A700E9A002A05D01522EC
:1027000002A9521812780E990A700F9A002A00D066
:102710001370109A002A05D0172202A952181278B5
:1027200010990A706374B4E772B6BFF35F8FBFF39A
:102730004F8FBFF36F8F0120704710B50400006A00
:1027400005340368DB689847E07F012101F064FCF1
:102750000121E07F01F090FC642001F0D3FA012018
:1027600010BD80F31088BFF35F8FBFF34F8FBFF3AF
:102770006F8FBFF35F8FBFF34F8FBFF36F8F7047C4
:1027800070B504000D001600FFF796FE034B26629D
:1027900008332360631D2000DD7770BD58AA000058
:1027A000F7B5040000250191EFF31087FFF7BCFF98
:1027B000A8421ED0206A661D03681B6A984729003C
:1027C000F07F01F059FC7F21019B206A0B4019002A
:1027D00003681B689847206A290003681B689847AC
:1027E00001210500F07F01F047FC206A03685B6A65
:1027F00098473800FFF7B5FF2800FEBDF7B5040085
:1028000000910192EFF31087FFF78EFF0025A84299
:102810001ED0206A661D03681B6A98472900F07F56
:1028200001F02AFC8021009B206A0B4319000368F9
:102830001B6898470500206A019903681B68984740
:10284000F07F012101F018FC206A03685B6A984759
:102850003800FFF786FF2800FEBDF0B585B0040004
:102860000E0001920293EFF31087FFF75DFF002542
:10287000A84229D0206A03681B6A9847631D039306
:102880002900D87F01F0F8FB8021206A49420368C3
:1028900031431B68C9B298470500019E029BF3189B
:1028A0000193019B9E4206D0206A3178036801366D
:1028B0001B689847F5E7039B0121D87F01F0DCFBFB
:1028C000206A03685B6A98473800FFF74AFF2800D0
:1028D00005B0F0BD10B5006A03689B6A984710BD4B
:1028E00010B5C31C0400D87F01F0F2FB431E9841D1
:1028F0000634E37F584010BD10B50430C07F01F0AE
:10290000BBFB10BD10B5C31DDB7F0530C07F594038
:1029100001F0B2FB10BD10B503790400022B08D002
:102920000021FFF7EFFF00212000FFF7E5FF022362
:10293000237110BD082388101840030010B5064A03
:102940000833984205D0145C8C4203D00130C0B2E9
:10295000F7E7002010BDC046D0AA0000F8B504007B
:10296000FFF7BEFF002805D022002A32137801337A
:10297000DBB213702100230029310A782B33824205
:1029800052D01A780B254F2A00D912351A785219CD
:10299000D2B21A7008701A789F2A44D92100E28DA9
:1029A0002A315208E2850A78042A04D98022E08D6F
:1029B00012010243E2851A7825006032D2B21A7001
:1029C00000232C350B702A78D3B2002A48D0260079
:1029D000303633780133DBB233700B2B23D93F23EE
:1029E000E18D20001940FFF7A5FFE18D070089095F
:1029F000C9B22000FFF79EFF2100220075313F0180
:102A00000B783843C0B27432002B12D11070137897
:102A1000062B02D91378432B0BD900232B70638A22
:102A200001339BB26382F8BD1A781432D2B21A70A5
:102A3000B1E70B785F1CE3183133FFB20F701870E9
:102A400009781378994208D300232B7023000122C0
:102A500008332000DA77FFF75EFF00233370E2E7E8
:102A6000E18D054A9142DED101222A70220075349F
:102A7000303213702370D6E7380B0000F7B505002D
:102A800078352F7804007B1C2B70002F0ED10300AB
:102A9000020076330193FF321B78127A9A420BD8E8
:102AA000FFF739FFE38A01339BB2E3822B78072BD0
:102AB00001D900232B70F7BD0600C3187736793390
:102AC000197833785A1C1941012332701940FFF7E5
:102AD00013FF3378052BE9D9019B37701B78019AD6
:102AE00001331370E2E7037910B5042B02D1FFF72D
:102AF00035FF10BD0379032BFBD1FFF7BFFFF8E7CC
:102B00001023054A10B5917B0B439373034B186850
:102B1000FFF7E9FF10BDC046002C0042280400204A
:102B200072B6BFF35F8FBFF34F8FBFF36F8F01207C
:102B300070473C20704780F31088BFF35F8FBFF36E
:102B40004F8FBFF36F8FBFF35F8FBFF34F8FBFF315
:102B50006F8F704710B503790400012B05D0002258
:102B60000121FFF74BFE01232371012010BD0368F3
:102B7000F7B55B6804000E00150098470190002827
:102B80001DD0002E18D0002D16D0EFF31087FFF7C0
:102B9000C7FF00280DD023002B331A7829789142E3
:102BA00001D91B782B70210030002A782C3105F0D8
:102BB00025F93800FFF7BFFF002368342370019820
:102BC000FEBD10B53D210400FFF7EAFDFE223D21C8
:102BD00002402000FFF712FE10BD000070B5040097
:102BE00015001A00FFF7CCFD22000421054B283206
:102BF00008332360E31DDD771170FF2201332000CD
:102C0000DA7770BDB8AB0000F7B50400EFF31087BA
:102C1000FFF786FF002866D0631D01930021D87F4F
:102C200001F02AFA206A03681B6A9847206A00218B
:102C300003681B689847206A002103681B6898474F
:102C4000031FDBB206003C2B44D8206A0021036836
:102C50001B689847A379E071002B06D1E37962796C
:102C60009A4202D0E379FF2B34D1206A0021036815
:102C70001B6898472072206A002103681B689847E8
:102C80006072206A002103681B68984723000022B5
:102C90002B33A0721A7025002B352A78331F9A42E5
:102CA00010DA2B78206ADBB20093036800211B68DE
:102CB0009847009BE3182C3318702B780133DBB254
:102CC0002B70E8E7A38A012201339BB2A382230081
:102CD00068331A70019B0121D87F01F0CDF9206A79
:102CE00003685B6A98473800FFF725FFF7BD0000CF
:102CF00070B50500081C04F0ABFF00220E4B04F079
:102D0000FFF80E4B002203F0F5FC03F06BF9040012
:102D1000020C07212800D2B2FFF770FD220A28001A
:102D20000821D2B2FFF76AFD28000921E2B2FFF7BD
:102D300065FD012070BDC04680842E4180844E40D8
:102D400070B50D0001210400FFF72AFD1C21884306
:102D5000C2B20D4020002A431B39FFF74FFD272147
:102D60002000FFF71DFD0306F9D570BD10B50379EE
:102D70000400022B16D003002A331B785BB2112B00
:102D800008DD55225A21FFF739FD70225C21200011
:102D9000FFF734FD2300283319782000FFF7D0FF18
:102DA0000223237110BD70B504002821FFF7F8FC41
:102DB00023790500032B08D1030706D52000FFF770
:102DC000D5FFE38A01339BB2E3822379DAB2042B85
:102DD00012D1154210D024212000FFF7E1FC401051
:102DE000404200B2208200F057FFE0662000FFF76B
:102DF000BDFF2000FFF708FF70BD0000034B10B5BA
:102E00001868002801D0FFF7CEFF10BD3004002065
:102E1000034B10B55868002801D0FFF7C4FF10BD60
:102E200030040020034B10B59868002801D0FFF74C
:102E3000BAFF10BD3004002010B503790400042B44
:102E400019D003002A331B785BB2112B08DD552201
:102E50005A21FFF7D3FC70225C212000FFF7CEFC43
:102E6000402225212000FFF7C9FC10212000FFF798
:102E700067FF0423237110BD10B5037904000020FF
:102E8000032B05D020006834FFF7D6FF2078C0B2AE
:102E900010BD10B503790400032B19D003002A33A9
:102EA0001B785BB2112B08DD5D225A21FFF7A6FCCF
:102EB0007C225C212000FFF7A1FC002225212000BC
:102EC000FFF79CFC0C212000FFF73AFF032323713E
:102ED00010BDF7B504000D0016003C2A03D90023ED
:102EE00000930098FEBD03689B6998472000FFF798
:102EF0003DFF236820005B6A984700900028EED0D1
:102F0000EFF31087FFF70CFE002833D0631D019309
:102F1000D87F002101F0B0F8206A802103681B6887
:102F20009847206A311D0368C9B21B689847206A18
:102F3000E17A0368AE191B689847206A217B036811
:102F40001B689847206A617B03681B689847206A62
:102F5000A17B03681B689847AE4206D0206A297897
:102F6000036801351B689847F6E7019B0121D87F6C
:102F700001F082F83800FFF7DEFD2000FFF789FF3F
:102F8000AFE703002A3310B51970002A1CD08A1C41
:102F900001DAFE221A7000215956CBB20D2905DC48
:102FA0001F221233134021321A4309E060221129F3
:102FB00003DD1F210B330B40F6E70E331A43D2B269
:102FC0001121FFF71BFC10BD0A00123207DAEE22B6
:102FD0001A701A781F2312321A406133E4E70D2960
:102FE000F7DD0D22F4E770B50D0004000A0005239B
:102FF0000221FFF732FC6A1D022319212000FFF78E
:103000002CFCEA7937212000FFF7F8FB70BD0000A7
:1030100013B5040000201B290BD8064BC900C918A2
:103020000822684604F0EAFE20006946FFF7DBFF4D
:10303000012016BDE0AA000070B505000C000A0AC8
:103040002C21FFF7DBFB28002D21E2B2FFF7D6FB96
:1030500070BDF7B517000E002E210500FFF7A0FB8D
:103060007B1E04000193002E18D06B461B79032BA6
:1030700014D832003B002F212800FFF7EEFB8022FE
:1030800052421443E4B2019B2800DA0038239C43E7
:1030900022432E21D2B2FFF7B1FBF7BD7F221440AD
:1030A000F1E70000F7B50400FFF747FB051E02D16A
:1030B00000252800FEBDE71DFE7F20003100FFF740
:1030C00009FC10212000FFF76BFB23002933187047
:1030D0000138C0B2FD28EBD80021F87F00F09CFF3A
:1030E00023000833DA7FFF2A06D128490A78032A09
:1030F000DED8501C0870DA77DB7F254A99008C50A7
:10310000002B38D104222349300000F097FC200026
:10311000FFF72CFE8F223C212000FFF76FFB3022AF
:103120006F212000FFF76AFB55225A212000FFF78C
:1031300065FB70225C212000FFF760FB164B02222A
:1031400001A920000B80FFF784FF12212000FFF768
:103150005FFF20000421FFF76FFF104A1049200095
:10316000FFF7C6FD2000FFF72CFD00220D212000F7
:10317000FFF707FF9DE7012B02D104220949C3E7AE
:10318000022B95D104220849BEE7C0462C0400203A
:1031900030040020FD2D00002DD4FFFFCDCC4C3D90
:1031A0000000D943112E0000252E00000378034AA9
:1031B0009B009B58002249331A70704790040020EE
:1031C000F0B5040085B01E000AAB1B7810300193E7
:1031D0000BAB1B78170002930CAB1B780D0003930D
:1031E00000F0AEF92000243000F0AAF922000023FC
:1031F0004832A363E36323646364137053706372A0
:103200009D4205D12221084B084A094804F086FD59
:103210002000019B25606371029B2771E371039B72
:10322000A671237205B0F0BD30AC000041AC0000C7
:1032300095AC000030B5040085B002AD0068029185
:10324000039201F0BDF86B79227AE179206800934E
:10325000002301F099F92979029A206801F0D4F845
:10326000206801F0A3F805B030BD10B50400006877
:1032700001F08FF80023637210BD000007B5837A58
:1032800000910192002B07D09A070AD5EFF3108323
:103290005A425341C37272B60099019AFFF7CAFFAE
:1032A00007BDDB07F8D5C368014A9BB29360F3E71B
:1032B00000180040837A002B05D09A0704D5C37A02
:1032C000002B00D062B67047DB07FCD5C368024A0A
:1032D0009BB2D360F7E7C0460018004010B5006805
:1032E00001F077F810BD70477047000010B5006816
:1032F00001F09EF803000020834203DB0C304343BF
:10330000014A985810BDC04604AD000010B50068D1
:1033100001F08EF8002805DB0C2343430348C01856
:10332000406810BD01204042FBE7C04604AD0000EC
:1033300010B5006801F07CF8002805DB0C2343433E
:103340000348C018806810BD01204042FBE7C0461A
:1033500004AD0000F0B506001036050089B030005D
:1033600000F044F9002869D12F002437380000F01C
:103370003DF9041E5FD12800FFF7DAFFC1B230002B
:1033800000F014FA0221300000F034FA2C49012236
:10339000300000F007FA2B7C2A4A9B0028009D5041
:1033A000FFF7B4FFC1B2380000F000FA0221380084
:1033B00000F020FA6B1DDB7F224A9B0028009D5005
:1033C000FFF794FF01230100220002933000230045
:1033D000049403940194009400F030FAA863280048
:1033E000FFF784FF0123020021000193380023002E
:1033F000049403940294009400F020FAE8634020BF
:1034000004F0E8FC2A0048322864079200280BD018
:103410000123137068646B6C10221819E96B103467
:1034200004F0ECFC402CF6D1079B1B78002B05D157
:10343000380000F075F9300000F072F909B0F0BD05
:10344000AD3100009004002070B5437A0400002BD9
:1034500003D1012243814272C360230048331B78A9
:10346000002B02D12000FFF775FF1826330008213A
:1034700020790D4D4343EB18595600F041FE3300BF
:103480000821A0794343EB18595600F039FE082172
:1034900060794643AD19695600F032FE034B2000B7
:1034A00006CBFFF7C7FE70BD4CAD000088040020BE
:1034B0001FB5094A094B0A49136000239380029300
:1034C0000133019316330093162201330548FFF7A9
:1034D00077FE05B000BDC0468804002000093D000D
:1034E000040B00203C040020084B1968002909D176
:1034F000EFF31080064A002803D172B6BFF35F8F46
:10350000013111701A6801321A60704748060020B4
:1035100044060020084B1A68002A0CD01A68013AA9
:103520001A601B68002B06D1044B1B78002B02D0BD
:10353000BFF35F8F62B67047480600204406002044
:10354000FF2310B50370C023002104009B004170CD
:10355000418083800C22083004F059FC200010BD0B
:1035600001230A0010B51A40194208D00C4A137002
:10357000033343708368002B00D0984710BD0223AB
:10358000194204D006490B70C3684270F3E7042364
:103590001942F3D0024A1370033343700369EAE718
:1035A0004E48004110B5FFF79FFF0C4B1B8C1B07CB
:1035B0001B0F0B2B0FD80A4A9900885800280AD0F5
:1035C0000F2408490A78A24313430B70064B19785D
:1035D000C9B2FFF7C5FFFFF79DFF10BD00480041CE
:1035E0004C0600203F4800414E480041F8B50023FA
:1035F0000278050018000B2A77D93C4E2B702B78E7
:103600000B2B07D801229A403168114204D00133B4
:103610002B70F4E7012068E0FFF766FF3768344C51
:10362000002F2BD12022334B334859690A435A616A
:103630001022D9690A43DA610222238839009343B0
:1036400023802388013A134323802C4B6063BF32CD
:10365000A36304F0DCFBC0223900284804F0D7FB48
:103660004022C120264B80002380264B26491A6029
:103670001A581140C02212040A431A5001231A009A
:10368000297830688A40024332600F261F4A88003A
:1036900085501F4831400278B2430A43027002202D
:1036A0001C4A1178814311701178194311702978DF
:1036B00022698B409A43226160223F21636C9343CD
:1036C00063642A79636C0A40134912020B40032198
:1036D000134363646A79636C0A40104992050B4096
:1036E00013436364FFF716FF0020F8BD4006002077
:1036F000004800410004004080050020C004002074
:10370000020F000000E100E0FFFF00FF4C06002078
:103710003F48004140480041FFC0FFFFFFFF3FFF1F
:1037200070B50500FFF7E0FE6B785CB2062B2BD07E
:103730002B7802240B2B27D801229A40144B1968AE
:10374000114221D01968914319601B68002B14D1D4
:103750004022104BDA67BFF34F8FBFF36F8F21000A
:103760000D4A0E311388A34313800C4BDA698A4348
:10377000DA615A6910318A435A6100242B78084A69
:103780009B009C50FF232B70FFF7C4FE200070BDF0
:103790004006002004E100E0004800410004004031
:1037A0004C0600200232920011507047037870B529
:1037B00005000C0001710B2B14D8FFF795FE29783A
:1037C0000F25094829400378084AAB430B4303708F
:1037D0003F23516C1C40064B240219400C43546497
:1037E000FFF798FE70BDC0463F48004100480041C9
:1037F000FFC0FFFF037870B505000C0041710B2B73
:1038000014D8FFF771FE29780F250948294003785D
:10381000084AAB430B4303700323516C1C40064B17
:10382000A40519400C435464FFF774FE70BDC046F4
:103830003F48004100480041FFFF3FFFF0B587B01F
:1038400001930CAB1E780DAB1B78050002930EABF9
:103850001B780078039310AB1F78049105920B2816
:1038600002D9002007B0F0BD6B78062BF9D0AB78F9
:10387000002B00D179E01021080004F0A1FA002803
:10388000EFD02B783B4A1B019B181A00D168002906
:1038900004D0D1688B4201D0D268F7E7D060012212
:1038A0000223AA70964203D0DB18022E00D0130028
:1038B00006240188114301800188A1430180018809
:1038C0001234A1430180153C018826402A4C36025F
:1038D00021400E430680029E0188284C164021405C
:1038E000B6020E430680039E0188254C16402140F7
:1038F000F6020E4306800188224E3A403140120300
:103900000A43072102800F9A114002884903D2041A
:10391000D20C0A4302806A4692884280049A42602E
:10392000029A002A08D0019A41685A43002F01D018
:103930000F9CA2408A184260059A8260039A002A6E
:1039400009D0019A84685A431300002F01D10F9ABD
:103950009340E31883600023EA789A4203D02B78DF
:10396000044A1B019B18C3607CE7024B0001C0188E
:1039700095E7C04680050020FFFCFFFFFFFBFFFF2F
:10398000FFF7FFFFFFEFFFFF10B5024801F0B5FFA3
:1039900010BDC0467C06002010B5024801F0ADFF06
:1039A00010BDC046B8080020F7B501240326154F06
:1039B0001549380000F064FC1449154800F060FC1B
:1039C0001449154800F05CFC1449154800F058FCF7
:1039D0001449154800F054FC144D1549280000F016
:1039E0004FFC39002300009600220194114801F099
:1039F00019FF290000961E231F2201940E4801F092
:103A000011FFF7BDF40A002000080042000C00423C
:103A1000F80A002000100042FC0A002000140042B6
:103A2000000B002000180042040B0020080B0020AF
:103A3000001C00427C060020B8080020F7B5009268
:103A4000182216254243514B07009B185D570191E0
:103A50006B1C52D04E4B4F4C1E68002E2BD13100A8
:103A600044224D4804F0D3F9310044224B4804F07D
:103A7000CEF910224A4B4B491E604B4BCA67BFF32D
:103A80004F8FBFF36F8FC021C12049005A50800073
:103A90001958FF36B14319501A60444B444A5A80B2
:103AA00002232278134323706378DB09012BFBD0B8
:103AB0000122374B1A6001231E00AE406269324377
:103AC0006261019A002A18D0102D1FD1E2781343A9
:103AD000E370009B042B0BD818000723A2789A43AD
:103AE00002F0C2F8030C0E10120005231343A3705A
:103AF0002A4B019A1A64B6B2E660F7BD0423F5E7D3
:103B00000323F3E70223F1E70123EFE7380000275F
:103B1000002100F0F5FA224B1F499C461B68BA00B1
:103B2000BB421DD16046013303608E501B4B01998F
:103B30009950072D19DD0123083DAD000721A9404B
:103B4000144A9B009B189A698A439A61009A042A36
:103B5000D1D81000996902F087F80B1012141600E2
:103B60008858B042E1D00137D9E7AD000023E5E73E
:103B70000522AA400A439A61BDE70422F9E703221D
:103B8000F7E70222F5E70122F3E7C0464CAD00005B
:103B9000940B002000180040500B00200C0B00205C
:103BA000980B002004E100E000E100E0000C004080
:103BB00005400000F8B50024094B1B68A34200D85B
:103BC000F8BD084E084FA5003369EA591A4204D0DF
:103BD000064BEB589847EB5933610134ECE7C0468C
:103BE000980B002000180040500B00200C0B002008
:103BF000054B10B51B6C002B00D098470123034ADE
:103C0000D1780B43D37010BD0C0B0020001800407E
:103C1000FEE70000034B10B51B68002B00D098474F
:103C200010BDC0469C0B002070B50F490F4CA1423F
:103C300004D100F08DF801F05FFFFEE70C4D00238A
:103C40008D42F6D0CA18E818A24205D3094B824229
:103C5000EFD00949002204E0006804331060F1E766
:103C600004C38B42FCD3E4E7000000207002002074
:103C7000F0B5000070020020A411002010B500F083
:103C800064F8002801D100F055F810BD014B186010
:103C90007047C0469C0B0020014B18687047C04617
:103CA000A00B0020F7B51348012284461249134C9B
:103CB0008E68636805689B0E13400192886862688D
:103CC000019F920E3A4067463F6893420ED1BD4233
:103CD0000CD186420AD35B19FA254868AD00861BD1
:103CE00007486B437043000DC018FEBD3D00130034
:103CF0000600E3E7A00B002010E000E000ED00E08C
:103D00005555000070B5041E10D0FFF7CBFF05001D
:103D100000F01AF8FFF7C6FF054B401B9842F7D991
:103D2000FA23013C9B00ED18002CF3D170BDC04676
:103D3000E703000010B5034A13680133136000F075
:103D400063FA10BDA00B00207047002070470000F0
:103D50001E2270B546484749436893431C3A1343B3
:103D6000436008238C6923438B61434C434B9C8203
:103D70009C8A14439C82DC681442FCD00124404A93
:103D800014701578254203D055786DB2002DF8DBFC
:103D900001249460547864B2002CFBDB394C5460ED
:103DA000547864B2002CFBDB8224E4015480547804
:103DB00064B2002CFBDB02249C840E34DD682542B7
:103DC000FCD0314CDC621024DD682542FCD09D8C97
:103DD0002E4C2C439C841024DD682542FCD0022408
:103DE0009D8C80262C439C844024DD683542FCD089
:103DF000DD682542F9D01024DD682542FCD000247E
:103E00009460547864B2002CFBDB214C54605478ED
:103E100064B2002CFBDB1C6A1E4D2C4080251C620A
:103E20001C6AAC431C62032393601B4B53605378A2
:103E30005BB2002BFBDB0023FF240B72174A4B7293
:103E40008B72CB72164B1A60164B174A1B6811689F
:103E50009A065B01C90E2340520F12020B43134313
:103E6000124A1385802342681343436070BDC046E5
:103E700000400041000400400C0600000008004023
:103E8000000C004001050100B905FF7D040A000097
:103E900000070300FFFCFFFF03060100006CDC02CB
:103EA000000000202460800020608000004000426C
:103EB000FA212D4B10B51868890001F0DFFE2B4B5D
:103EC000013898424FD82A492A4A4860C020136ACC
:103ED00000061B021B0A0343136200238B60073397
:103EE0000B608021136A09061B021B0A0B43136235
:103EF000FC22214B196A0A431A62FF22196A120234
:103F00000A431A62A022196AD2020A431A621B4BA0
:103F10001C005A7852B2002AFBDB194A5A80194B0E
:103F20001A00597EC9090129FBD0C821890099804E
:103F30000521D970537EDB09012BFBD0C023002063
:103F40005B011361907000F023F863785BB2002B83
:103F5000FBDB0D4B0D4A6380D379DB09012BFBD0D2
:103F60004123537010BDFEE700000020FFFFFF005B
:103F700010E000E000ED00E000040040000C004014
:103F80001E40000000400042214000000048004266
:103F90001F4900B50B004A7ED209012AFBD0013827
:103FA0000A282FD801F060FE1B2E2E2E2E2E062E54
:103FB0002E2411001A6917490A400F211A615A78F4
:103FC0008A43110001220A4310E01A6911490A408C
:103FD0000F211A615A788A4311000322F3E71A6904
:103FE0000C490A400F211A615A788A435A7000BD61
:103FF0001A6908490A400F211A615A788A43110048
:104000000222E0E7F022196912050A43F3E7C046ED
:1040100000400042FFFFFFF0182310B5082443437F
:10402000134AD0180457013412D001249A56436819
:104030009C4003290CD808000E49D2015218D3180D
:10404000403301F011FE0210060B0221197054607A
:1040500010BD0621197054609461F9E706211970AA
:1040600054605461F4E7022119709460F0E7C0468F
:104070004CAD0000004400411823F0B5082458431B
:10408000114A13181C5701341BD0012635005F68F4
:104090008356BD400D4ADB019A18906805420BD14A
:1040A0000C00601E8441D21940321078344003362F
:1040B000A400B04320431070044A9B18002901D18A
:1040C0005D61F0BD9D61FCE74CAD00000044004126
:1040D000182310B50824434307490020CA18145771
:1040E000013408D05B560549DB015B18186A536838
:1040F000D8400123184010BD4CAD000000440041E1
:104100001822424370B52D4E0300B218127A52B2F3
:10411000140001320ED0481C00240C280AD801F0EB
:10412000A3FD071F1F1F1F1F1F1F1F0B0B0B0B00C4
:1041300001246442200070BD092905D10021180026
:10414000FFF76AFF0024F5E70A2901D10839F6E7ED
:1041500000240B29EED10A391800FFF75DFFE9E7CB
:10416000182201205343F218F3565568144ADB0114
:104170006C089B18C9B228401C1900280ED00F20CB
:10418000303422780901024011434122C9B25B193F
:104190002170403319780A431A70D3E722000F26A2
:1041A000303214785B19B4432143117041224033FB
:1041B000197804000A431A70BCE7C0464CAD0000F1
:1041C00000440041F7B506000D000C008B18019368
:1041D000019B671B9C4207D0336821781B68300025
:1041E000984701340028F3D13800FEBD014B186018
:1041F0007047C046040000200122024B52421A6060
:104200007047C04604000020164A10B51368591CB8
:1042100026D0013B1360002B22D172B6124B134AF9
:104220000433934213D9124A01211000147D0C4229
:10423000FCD02021148BFF319B085B0021431183AC
:10424000D3610C4B13800123027D1A42FCD0BFF3D3
:104250004F8F094B094ADA60BFF34F8FC046FDE725
:1042600010BDC04604000020002000000302000032
:104270000040004102A5FFFF00ED00E00400FA0548
:10428000016070479446F0B59E1E721E96416246CC
:10429000056892072F6836063A4332432A6007259D
:1042A00005AC24780068A401294021434268002419
:1042B000022B00D05C03114321434160F0BD30B5B7
:1042C000C0250368AD031C6812052A402243C024A0
:1042D0000904A40221401143196003685A68144379
:1042E0005C6030BD0123026811680B4313600368F2
:1042F0001A68D207FCD4DA69D207F9D470470223CE
:10430000026811680B4313600268D3699B07FCD4F1
:10431000704703681A7ED20702D41A7E9207FCD532
:104320007047002203685A8370470368187E40076D
:10433000C00F70470368187EC00970478023026869
:104340005B42117E0B43137670470368588B8007DE
:10435000C00F704702230268518B0B435383704791
:104360000368187EC007C00F70470368188DC0B27D
:10437000704703681A7ED207FCD589B201201985DF
:104380007047012203689A757047012203681A7505
:1043900070470123026811680B43136003681A68B1
:1043A000D207FCD4DA69D207F9D470470223026835
:1043B00011680B4313600268D3699B07FCD47047F4
:1043C0000368DA699207FCD402211A688A431A60EA
:1043D00070470268936A5B0A5B0219439162036843
:1043E0001A7E5207FCD5986AC0B2704710B54900D2
:1043F000044801F043FC80B2002801D0013880B2AB
:10440000C0B210BD006CDC0270B54B080C0001217D
:1044100005680B400C402E6824075B072343334399
:104420002B6011000468FFF7E1FF207370BD0000EE
:104430000368104A934213D00F4A934212D00F4A96
:10444000934211D00E4A934210D00E4A93420FD09D
:1044500001200D4A4042934201D1063040B27047DC
:104460000020FBE70120F9E70220F7E70320F5E74A
:104470000420F3E700080042000C00420010004254
:104480000014004200180042001C0042F8B5FFF77B
:10449000CFFF00282CDBC3001C48FF22C0180523D7
:1044A0000479C35603201840C0008240C021D24383
:1044B0008140002B1DDB1F2501201D40C026A84088
:1044C000134D7600A851C0269B089B005B19B600CF
:1044D0009F593A401143995128603F23234080243B
:1044E000E4011C430B4B5C805A7852B2002AFBDB80
:1044F000F8BD0F200340083B07489B089B001B1892
:10450000D86902401143D961E7E7C0469CB1000079
:1045100000E100E0000C004000ED00E0F8B5040010
:104520000F0016001D00FFF7B1FF2000FFF7DAFEB5
:104530001C21BB000B4071072268090C0B43136060
:10454000842322689375012F1AD11021012E00D0E7
:1045500008390C4B69431868C00001F08FFB072233
:10456000216802408B895203DB04DB0C13438B81EF
:10457000226803049089DB0C400B400318439081B0
:10458000F8BDC04600000020F7B50500019308AB58
:104590001F780E001400FFF7FCFE2800FFF776FFDF
:1045A000C022240592031440BA070C2717433C434A
:1045B000C02707223604BF022B683E4026431E60F8
:1045C000019B296813401A0080239B0213434B6010
:1045D0002A68D3695B07FCD4F7BD3F20704713B549
:1045E0006B460268D9710733546819000122A0474D
:1045F00016BD10B50221006900F03AFC10BD10B5DF
:104600000321006900F04AFC10BD000010B5130042
:10461000084A0400D279002A03D1012300206360F4
:1046200010BD0A000069032100F030FD0028F4D01D
:10463000F6E7C0460C00002010B5054C23685A1C54
:1046400004D103685B69984703002060180010BD1F
:1046500058000020074B0200186810B5411C03D019
:10466000012252421A6010BD0221106900F000FDC3
:10467000F9E7C0465800002010B503784222023303
:1046800003700249024800F0ADFD10BD1400002087
:10469000C00B002010B50178020043780020A1294A
:1046A00008D1212B05D107221649174800F09AFDA1
:1046B000012010BD2129FCD1202B13D10722114943
:1046C000114800F02FFC96220E4BD200196891423F
:1046D0000ED10124D87904400AD1FA20FFF786FDD3
:1046E0000020E6E7222B06D19278064BDA71EAE742
:1046F000FFF782FDF4E7232BDBD15288034B1A60CE
:10470000D7E7C0460C000020C00B002008000020A6
:1047100070470000FA220021054B92009A60054A7A
:10472000596008321A60044A19761A617047C04607
:10473000A40B0020CCB10000C00B0020704770B566
:104740000F26CB1D013902003240D5B22C000009E2
:104750003034092A00DD07341C70013B8B42F2D152
:1047600070BD10B50400806903F03EFBA06A03F041
:104770003BFB200010BD10B50400FFF7F2FF200046
:1047800001F0E0F9200010BD70B5032908D1324BCB
:104790008000C058002802D00368DB68984770BDCD
:1047A00082291FD1C3B22D4D5A01AA1891692C4CF0
:1047B00080010C40C02189052143916129490833BA
:1047C0004018802150612A685B01D0180479494261
:1047D000214301717020995C81430800302101431D
:1047E0009954DCE70029DAD1C024C1B21B4E4A013A
:1047F000B21893681A4DA4052B40234393601A4BBB
:104800008001C0180B0050603068072608335B0138
:10481000195CB1430E0001213143195491690D40D7
:104820002C43946170240F495161195CA1430C0021
:1048300010212143195491680C4CC3180C4080215D
:104840004903214391609168890B8903916040225B
:1048500059790A435A71A2E7C40B0020781000204E
:10486000FFFFFF8FEC0B0020AC0D0020FF3F00F09E
:10487000EFF3108303600123436072B6704703684F
:10488000002B02D162B6BFF36F8F704737B5056951
:1048900004006846002D14D1FFF7EAFF019B621D5A
:1048A000013B02D3D57FEDB2FAE768460193FFF7EB
:1048B000E6FF002D01D100203EBD206AE369C01A49
:1048C000FAE7FFF7D5FF22000025019B3432013BB8
:1048D00002D31578EDB2FAE768460193FFF7CFFFF0
:1048E000002DE8D0206BE36AE9E70000FF2130B536
:1048F0004368164D1A6883680B405B01D218012388
:104900005218947A23439372836842680B405B0188
:10491000D418C268A36892042B4012091343A36001
:10492000836842680B405B01D3189A68920B92032C
:104930009A6043681A6883680B4008335B01D31898
:10494000402219790A431A7130BDC046FF3F00F07A
:10495000F7B5036904000E0017006846002B45D127
:10496000FFF786FF019B611D013B5A1C0CD0CD7FD8
:104970005A1EEDB2002D05D168460193FFF77FFF67
:104980002800FEBD1300F0E7684601930025FFF7FD
:1049900076FFE369AF420AD0226A9A4207D95A1CCD
:1049A000E261A269D3181B7873550135F1E7226AD9
:1049B0009A42E5D10023E361013323616846FFF7A2
:1049C00057FF22000021019B671D013B3532581C17
:1049D000D2D0F97710785E1E002805D01170200023
:1049E0000193FFF783FFECE73300F0E7FFF740FFA9
:1049F0002100019B3431013B5A1C06D00D785A1E10
:104A0000EDB2002DB8D01300F6E7684601930025FB
:104A1000FFF735FFE36ABD4202D0226B9A421CD8F1
:104A2000226B9A42ACD100236846E3622361FFF710
:104A30001FFF270022000021019B3437013B353244
:104A4000581C99D0397010785E1E00280DD0117056
:104A500020000193FFF74AFFEBE75A1CE262A26ACB
:104A6000D3181B7873550135D4E73300E8E7F7B561
:104A7000FF21826843680A401B68083252019A1875
:104A8000D3790400DB072AD50125D57183684268F4
:104A90000B405B01D3189A6840699204920C00287D
:104AA00021D12262226A002A3ED0A26A656168464C
:104AB0005A60FFF7DDFE27002100019B661D013BC8
:104AC000343735315A1C2BD0F5773A78581ED2B28C
:104AD000002A05D0019368460D70FFF7D0FEF7BDA0
:104AE0000A700300EEE72263226B002A1CD000222A
:104AF0006261A26968465A60FFF7BAFE260021008B
:104B0000019B3436013B671D35315A1C08D0357086
:104B1000FA7F581ED2B2002ADCD10A700300F4E7F3
:104B200068460193FFF7ABFE2000FFF7DFFED6E7F4
:104B300037B56B46DC1D00230D0020002370FFF706
:104B40009BFD2B681818286001F034F8210000F054
:104B5000FDFF2B681818286020783EBD03290ED170
:104B600080220E4B62311B68FF31585C5242024377
:104B70005A5468226339FF32FF399954704701292A
:104B8000FCD18022054B24311B68FF31585C524216
:104B900002435A5428222339FF32EDE778100020CF
:104BA00070B50025304B012104001A201D70FFF75D
:104BB00033FA01211A20FFF75FFA2C4B012119204B
:104BC0001D70FFF729FA01211920FFF755FA20235C
:104BD000274A0F20D1690B43D361012225490B7865
:104BE00013430B70244B19788143197006211D78EB
:104BF0002943197021490D782A430A701A78024016
:104C00001A70602219780A431A701D4B1D4A5A8087
:104C10005A78D209FCD11C48FFF738F81B4D280000
:104C200000F0DAFF280000F0EFFF7F212A68C120A2
:104C3000137880000B40137004232A6811780B430B
:104C40000C2113702A6813898B43114913810B5867
:104C50001B021B0A0B5080230B6011787E3B0B4319
:104C600013700123237070BDE10B0020E00B0020C6
:104C700000040040584400413C4400415944004174
:104C8000000C00400640000059560000781000203B
:104C900000E100E00078002810D00121084B1B68DB
:104CA0001A898A431A810822198B0A431A8304221B
:104CB000198B0A431A830022024B1A607047C046C0
:104CC000781000207010002010B50F4A93699B0BDC
:104CD0009B03936113680222FF331A729879823A18
:104CE00002439A711A7A9207FCD57F24074A214021
:104CF000937A0800A3431900802301439172917AAB
:104D00005B420B43937210BD7810002000500041AD
:104D100010B50B790C00002B0CD10800FFF7BAFC82
:104D2000002801D0012010BD094A93699B0B9B0309
:104D30009361F7E700F03EFF210000F02BFF002811
:104D4000F0D1034A93699B0B9B039361EBE7C04649
:104D500078100020F8B50D00832A19D1CBB2364C5B
:104D60005A01A21891693548AD010840C021890552
:104D700001439161324920686D18702108335561F3
:104D80005B011A5C8A43110040220A431A54F8BDA1
:104D9000022A4CD12B4A8B009858002802D0036875
:104DA0005B699847382000F0C9FE274B80270360D5
:104DB0000023214E7F00421D036203614361C361F2
:104DC00046608560C760D3772F320400C3620363F7
:104DD00013703800537002F0FDFFA061380002F03C
:104DE000F9FF2A00A062FF200240510171188B6870
:104DF000124FAD001F40C0239B053B438B60130047
:104E00003168072608335B015A5CB243160003225F
:104E100032435A54A368626803405B01D318A26905
:104E200020005A60FFF762FD064B5C51AFE71100AE
:104E30002800FFF7A9FCAAE778100020FFFFFF8FEA
:104E4000EC0B0020C40B0020F8B1000070B5050089
:104E50000124064BA200D258002A05D021002800C8
:104E6000FFF778FF0134F4E770BDC0465C00002016
:104E7000084B8A00D05810B5002803D003689B68FF
:104E8000984710BDC9B2044B49015918886880047D
:104E9000800CF6E7C40B00207810002010B50C0041
:104EA000FFF7E6FF00280CD0064BE4B21B6808347D
:104EB00064011C19802362795B42134363710223EE
:104EC000E37110BD7810002070B5CBB2124A1348C0
:104ED0005C0189018918021951609168104D0833ED
:104EE0000D40802189022943402591609168890BFA
:104EF0008903916001685A018A1816793543157142
:104F000095796D06FCD55B01C918CB79DB07FCD51B
:104F100000198068C0B270BDAC0D00207810002070
:104F2000FF3F00F070B5140040220B4B0D001B68D2
:104F3000FF3359790A435A710021FFF7C5FFA04298
:104F400000D9200000230549A34203D0CA5CEA54DB
:104F50000133F9E770BDC04678100020AC0D002089
:104F600010B5C9B20B484901421893689B049B0CC9
:104F70003F2B0BD99468403B9B04A40B9B0CA403D0
:104F80002343936041188868C0B210BD93689B0B9F
:104F90009B03F6E778100020F0B51C002F4B85B07E
:104FA0001B6806000D000192002B54D02C4F39785D
:104FB000C9B2002902D11920FFF75EF864233B70C3
:104FC000284BAA00D058002808D0036822005B684C
:104FD000019998470400200005B0F0BD2900300079
:104FE000FFF746FF844204D929003000FFF740FF55
:104FF000040029003000FFF7B3FF0121EBB21A4F84
:1050000003935B010293029A3B6801989B18FF335C
:105010005A7A0A435A72154BA901C918220002F0A4
:10502000EDFE002CD7D029003000FFF721FF00282B
:10503000D1D14021039B3A6808335B01D31818791A
:10504000014319710121D971029BD318FF339A7A58
:105050000A439A72BFE701246442BCE77010002043
:10506000E00B0020C40B002078100020AC0D0020C5
:1050700013B56B46DC1D22000123FFF78DFF0128CD
:1050800001D1207816BD01204042FBE7F0B51E009B
:105090003A4B85B01B680F000192002B3FD0802354
:1050A000DB019E423BD8364C2178C9B2002902D19F
:1050B0001A20FEF7E1FF642300252370314BBA016B
:1050C000D3180293002E2CD02F4B1B680393FF2381
:1050D0003B401C0000930834039B64011C19A37916
:1050E000DB0921D0294B2A49186800F0C7FD294B5C
:1050F0001721584300F0C2FD274BE279920713D4E1
:10510000DA5D002A01D10138F7D20122DA55009B7D
:105110005A011D4B9B189A69920B92039A610125C3
:105120006D42280005B0F0BD00221B4B3400DA555B
:10513000402E00D9402422000199029802F05EFE20
:10514000009BA1045A01104B890C9B18029A2D193F
:105150005A619A69361B920B92030A439A61009B2B
:10516000039A08335B01D3180222DA715979823A23
:105170000A435A71019B1B190193A3E77010002089
:10518000E10B0020EC0B0020781000200000002034
:1051900040420F0070110100E30B002070B50D00BC
:1051A0001C000D4BAE01F61811003000220002F079
:1051B00025FEEDB209496D014D196E61AB69084AD2
:1051C00020001340AB61AB69A2049B0B920C9B03C4
:1051D0001343AB6170BDC046EC0B0020781000207B
:1051E000FF3F00F0F7B5104B01901B780F00150042
:1051F000002B0CD10D4B16001C78002C09D00C4E46
:105200000C4834882018641902F0F8FD3480280016
:10521000FEBD002EFBD03A19330000210198FFF7A4
:10522000BDFF2418361AF4E76C0F00206D10002023
:105230006E1000206D0F0020F8B5002000AF0E00AA
:105240001500012A27D9D31D6A46DB08DB00D31AD3
:105250009D46080003F0F2FC6C4603230222002165
:105260000130400020706370AA420DD230780028CF
:105270000AD0531CDBB20136A0549D4203D0023247
:10528000E154D2B2F0E72A0021000448FFF7AAFF58
:10529000431E9841C0B2BD46F8BDC046C00B0020B9
:1052A000F0B50024012685B0184B0F0069461E702A
:1052B00005000094FFF73CFC154B01A90B806A3BED
:1052C000FF3BCB716E3B0B72009B8C7109334B80A3
:1052D0000E4B4E7108711C703A00092F0FD00D4F04
:1052E00009223E700C4E280000943480FFF77AFFAC
:1052F00069462800FFF71CFC328808493C702800EA
:10530000FFF770FF012005B0F0BDC0466C0F002014
:10531000090200006D1000206E1000206D0F0020AB
:10532000F0B5CF7893B005000E00022F09D1C988DF
:105330002B48FFF7B5FF441EA041C4B2200013B0B4
:10534000F0BD00F037FC310000F014FC002803D061
:10535000C417241AE40FF1E7012F0BD1F288214979
:10536000112A11D8D2B2002A0ED02800FFF73AFF36
:105370000124E3E70400032FE0D1B378002B05D12B
:10538000F2881949032AEDD90A78EEE7022B06D1F3
:10539000B27916492800FFF74FFF0400CEE7012B32
:1053A00002D1B2791249F5E7032BC7D1114B01A9FC
:1053B0001868FFF7C4F9104B03A91868FFF7BFF985
:1053C0000E4B05A91868FFF7BAF90D4B07A9186825
:1053D000FFF7B5F96B460533DC77B27901A9D9E758
:1053E000C00B002029B200001CB2000010B2000067
:1053F00020B200000CA0800040A0800044A08000EB
:1054000048A0800037B5050048780C000B2810D85C
:1054100000F02AFC061B0F2B0F41466E4A4D676AAF
:10542000097801AA002906D1022311802800FFF77C
:10543000B5FE01203EBD002313802E4B1B78012BAF
:1054400000D1137002230021F0E78A780023012A9B
:1054500003D101AA1380284BF0E7264A1370274A8C
:1054600093699B0B9B039361E3E78C78012C06D136
:105470000021214B01AA1C7011702300D6E70020E7
:105480008442D7D11B4B01301C4A187093699B0B87
:105490009B039361CEE789782800FFF715FCC8E7E6
:1054A0002800FFF73DFFC5E70123154ACBE70B783E
:1054B0000020DB06BED12800FFF7C8FC2A2002210D
:1054C000A2780F4BFF301A600C4A13681C5C214312
:1054D0004A241954FF34195D2938FF3801431955FE
:1054E000D4E70123074AAEE78A78064B1A60B6E78D
:1054F00000209FE7E20B0020EA0B0020781000203C
:1055000070100020741000204B4BF7B51C7807007A
:10551000002C00D083E0494E33689B8B1B070ED5CF
:1055200021002000FFF730F9326810231100FF310D
:10553000887A03438B72424B1C6008239383336841
:105540009A8B52071FD504229A833E4A1378002B68
:105550000AD01378013BDBB213701378002B03D110
:1055600001211A20FEF788FD374A1378002B0AD054
:105570001378013BDBB213701378002B03D10121A8
:105580001920FEF779FD3368FF331A7AD2061ED54B
:1055900010221A72597930320A435A7160232B490A
:1055A00038000A781A423BD1FFF72CFF3368FF33EB
:1055B000002838D08022997952420A439A711A7A87
:1055C000520604D540221A72597A0A435A72336835
:1055D00000241D8C01239D43EDB20193E1B2002D07
:1055E0001DD02B002341019A134215D023003268AD
:1055F00008335B01D318DA79D20702D4DB799B0731
:1056000007D5134BA200D058002810D003681B68A0
:105610009847019BA3409D430134092CDED1F7BD7F
:10562000FFF776FBC2E720210A4A9171C7E73800ED
:10563000FFF794FAEDE7C0466D10002078100020C7
:1056400070100020E10B0020E00B0020AC0D0020CA
:10565000C40B0020FF50004110B50248FFF754FF73
:1056600010BDC046C00B0020014B024A1A607047B3
:1056700078100020005000410120704710B50368E9
:10568000014A1B6A984710BD130400000300FC3355
:10569000D9699A69914203D0DB69C018007D7047CF
:1056A00001204042FBE710B504000069FEF71AFE36
:1056B00022000023FC329361D36186229200A41859
:1056C0006360A36010BDF02001403039484248417A
:1056D0007047F0231B011940802306209B0099424C
:1056E0000AD00133FF330130994205D080230238BC
:1056F0005B00994200D0002070470F20014000203D
:10570000012903D00239481E8141481C704700001E
:105710008923F0B5182685B002919B000400C05C77
:10572000330008214343324D1700EB185956FEF75A
:10573000E7FC304B0821E05C33004343EB1859563B
:10574000FEF7DEFC2C4BE25C0393022A09D11133F5
:10575000E05CFF2805D008214643AE197156FEF7DC
:10576000CFFC8A26B600A05DFF2819D00121FEF7E4
:1057700053FC1822A35D21495A43AB56AD18DB01F7
:1057800058188B21890060501D4901225B188C211B
:105790008900635069688A408D21890062501A60CF
:1057A0000122029B11002069FEF7B8FE390020009B
:1057B000FFF78FFF390005002000FFF79EFF39003B
:1057C00006002000FFF77FFF3300009029002069CA
:1057D0000122FEF757FD0B4B2069E25C039BE15C65
:1057E000FEF76DFD2069FEF78AFD05B0F0BDC046ED
:1057F0004CAD0000250200002702000018440041C3
:105800001444004126020000802210B5040052001A
:10581000002102F0FCFA23000022FC335A60200031
:105820009A6010BDF7B51D0008AB1B78040000930B
:1058300009AB1B781600019300234360FA239B00F9
:105840008360114B0F00083303601430FFF7DCFF57
:1058500020001D30FF30FFF7D7FF89236A469B00E9
:105860002761E654094B1278E554094B2000E254B5
:105870006A46084B1279E2548A22293BFF3B920088
:10588000A3541032A354FEBD3CB200002502000018
:1058900026020000270200000300FC3358689B68C2
:1058A000C01A01D50130FF30704710B50400200048
:1058B0001D30FF30FFF7F0FF0028F8D12069FEF718
:1058C00028FD10BD10B51430FFF7E6FF10BD030032
:1058D000FC3359689A68914204DB5A689868801AC8
:1058E000FF30704798685B68C01A0138F9E710B557
:1058F0001D30FF30FFF7EBFF10BD10B5040000694D
:10590000FEF723FD002805D02069FEF72EFD206953
:10591000FEF720FD2069FEF708FD002820D0206951
:10592000FEF723FD2200FC329369D1690133DBB21B
:105930008B4203D091696118087593618A239B009B
:10594000E35CFF2B0CD020001430FFF7C0FF0928C8
:1059500006DC8B238D229B009200E358A2581A602C
:105960002069FEF7FDFC00281AD020001D30FF3012
:10597000FFF792FF002822D086239B00E318996846
:105980005A68914218D08E219A684900A218515C39
:105990009A680132D2B29A60C9B22069FEF7E9FC76
:1059A0002069FEF7C7FC002805D02069FEF7C6FC79
:1059B0002069FEF7B6FC10BD01214942ECE72069E1
:1059C000FEF7E3FCECE7000070B5040000690D0091
:1059D000FEF7C6FC00283ED1FF2686239B00E31875
:1059E0005A689968013232408A4223D1EFF310831A
:1059F000DB070DD41E4B5B68DB05DB0DEDD0103BE8
:105A00005BB2002B0DDB9B08C0331A4A9B009B58EE
:105A10002069FEF7A5FC0028DFD02000FFF76DFF0E
:105A2000DBE70F221340083B9B08134A9B009B189F
:105A30001B68EDE75A68013216409A68964205D015
:105A40008E215A684900A21855545E602069FEF7FD
:105A500098FC012070BD20001D30FF30FFF71CFFB7
:105A60000028B9D129002069FEF783FCF1E7C04680
:105A700000ED00E000E100E01CED00E0030070B587
:105A8000FC33D9699A69040091421AD0DA69821804
:105A9000157DDA690132D2B2DA618A239B00E35CB8
:105AA000FF2B0CD020001430FFF711FF0A2806DD71
:105AB0008C238D229B009200E358A2581A60280084
:105AC00070BD01256D42E8E710B5041E05D003F056
:105AD00071F8210000F042FA0C00200010BD10B552
:105AE0000400884203DA081AFFF7EEFF24182000AA
:105AF00010BDFEE77047000010B5FEF7D9F902F0BF
:105B00003BF9FFF7F7FF0120FEF7FCF8094C2000F6
:105B1000FFF746F82000FFF7BDF8FCF7EFFAFCF7B7
:105B200079FBFEF711F9044B002BF8D000E000BF21
:105B3000F5E7C046C00B00200000000010B502F0E1
:105B400049F910BD10B502F04FF910BD70B50E0047
:105B500000254468002C0BD0236831005B682000CE
:105B60009847002802DB2D18E468F3E701256D4211
:105B7000280070BD70B50D004468002C08D0236863
:105B800029009B6820009847002802D1E468F4E7C8
:105B9000200070BD70B50D004468002C08D023684B
:105BA00029001B6820009847002802D1E468F4E728
:105BB000200070BD0121054A10B5136804480B4050
:105BC00003D1044C43600480116010BD7C1100209F
:105BD000801100200204000070B50400012304CCF1
:105BE0000500117820000B43137080220021520021
:105BF00002F00DF92B689A78D207FCD49A789207B4
:105C0000F9D45C6270BD00001F22144BF0B51B6814
:105C1000590B9C0C9B01114014405B0F914200D129
:105C200005211F2C00D1023C072B00D1043B026848
:105C30008F01158D0A491F262940394311850568B2
:105C40003440298D0A00B24322432A850068190393
:105C5000028D044B13400B430385F0BD246080008C
:105C60003FF8FFFFFF8FFFFF02B47146490849006C
:105C7000095C49008E4402BC7047C04600224308BC
:105C80008B4274D303098B425FD3030A8B4244D304
:105C9000030B8B4228D3030C8B420DD3FF22090246
:105CA00012BA030C8B4202D31212090265D0030B05
:105CB0008B4219D300E0090AC30B8B4201D3CB03FB
:105CC000C01A5241830B8B4201D38B03C01A52413D
:105CD000430B8B4201D34B03C01A5241030B8B423F
:105CE00001D30B03C01A5241C30A8B4201D3CB022A
:105CF000C01A5241830A8B4201D38B02C01A52410F
:105D0000430A8B4201D34B02C01A5241030A8B4211
:105D100001D30B02C01A5241CDD2C3098B4201D329
:105D2000CB01C01A524183098B4201D38B01C01AA7
:105D3000524143098B4201D34B01C01A524103091E
:105D40008B4201D30B01C01A5241C3088B4201D3CD
:105D5000CB00C01A524183088B4201D38B00C01A7A
:105D6000524143088B4201D34B00C01A5241411AA1
:105D700000D20146524110467047FFE701B50020AE
:105D800000F0F0F802BDC0460029F7D076E7704772
:105D900003460B437FD4002243088B4274D303098C
:105DA0008B425FD3030A8B4244D3030B8B4228D32D
:105DB000030C8B420DD3FF22090212BA030C8B4253
:105DC00002D31212090265D0030B8B4219D300E0F3
:105DD000090AC30B8B4201D3CB03C01A5241830B78
:105DE0008B4201D38B03C01A5241430B8B4201D328
:105DF0004B03C01A5241030B8B4201D30B03C01A51
:105E00005241C30A8B4201D3CB02C01A5241830ACA
:105E10008B4201D38B02C01A5241430A8B4201D3F9
:105E20004B02C01A5241030A8B4201D30B02C01A23
:105E30005241CDD2C3098B4201D3CB01C01A52418A
:105E400083098B4201D38B01C01A524143098B4213
:105E500001D34B01C01A524103098B4201D30B01FC
:105E6000C01A5241C3088B4201D3CB00C01A524121
:105E700083088B4201D38B00C01A524143088B42E6
:105E800001D34B00C01A5241411A00D2014652417F
:105E9000104670475DE0CA0F00D04942031000D39E
:105EA0004042534000229C4603098B422DD3030AF3
:105EB0008B4212D3FC22890112BA030A8B420CD303
:105EC000890192118B4208D3890192118B4204D32C
:105ED00089013AD0921100E08909C3098B4201D3AC
:105EE000CB01C01A524183098B4201D38B01C01AE6
:105EF000524143098B4201D34B01C01A524103095D
:105F00008B4201D30B01C01A5241C3088B4201D30B
:105F1000CB00C01A524183088B4201D38B00C01AB8
:105F20005241D9D243088B4201D34B00C01A52418F
:105F3000411A00D20146634652415B10104601D31C
:105F40004042002B00D54942704763465B1000D3A6
:105F5000404201B5002000F005F802BD0029F8D04C
:105F600016E770477047C0468446101C62468C4650
:105F7000191C634600E0C0461FB500F051FF002821
:105F800001D40021C8421FBD10B500F09BFE404265
:105F9000013010BD10B500F043FF002801DB0020E8
:105FA00010BD012010BDC04610B500F039FF00281B
:105FB00001DD002010BD012010BDC04610B500F06D
:105FC000BDFE002801DC002010BD012010BDC04630
:105FD00010B500F0B3FE002801DA002010BD01204A
:105FE00010BDC04670B500220C4B04000D00FFF739
:105FF000EFFF002804D12000290001F09DFD70BDB5
:10600000064B00222000290001F0E6F901F094FD82
:1060100080231B069C466044F1E7C0460000E04137
:10602000F0B54F46D64646460D0001001800C0B5F3
:1060300017002B035A0A4B0F1343CA009146020361
:106040006E004100520AEC0F7D0F1543760D490D8D
:10605000C00F8246AC46FF00721A844200D198E01D
:10606000002A00DC81E0002900D1B6E0C9498E4257
:1060700000D172E180212800090408438446382AAF
:1060800000DD5EE11F2A00DDEEE1202039006546DB
:10609000801A8740D14085400D4339004F1EB941D9
:1060A0006746D7402943DB1B4A46551AA945894113
:1060B00049425B1A984643461B0200D4CCE0434653
:1060C0005B025B0A98464346002B00D12CE1404618
:1060D00001F006FE01000839202228004346521A2A
:1060E0008B40D0408D4003438E4200DD17E18E1B74
:1060F000721C1F2A00DDA7E1202118002E00891A3A
:106100008D408840D640D340691E8D41304398462B
:10611000002605436B0709D00F232B40042B05D025
:106120002B1DAB42AD416D42A8441D0043461B02EE
:1061300000D494E0974B721C9A4200D19DE04146F6
:10614000954BED0819400B00520549075B022943A6
:106150001B0B520D12051343E407234308001900DB
:106160001CBC90469946A246F0BD002A43D08A1B2B
:10617000002E00D02AE14C461C4300D1D1E1541E30
:10618000012A00D11FE2834DAA4200D172E222000F
:1061900023E1002A00DC98E0002942D07D498E42AC
:1061A00000D1DAE080212800090408438446382A17
:1061B00000DD29E11F2A00DC87E111006546203956
:1061C000CD40202A04D040206146821A91400F43DE
:1061D00039004F1EB9410D431BE12900394300D15D
:1061E000B5E0511E012A00D1ABE16A48824200D1DC
:1061F000B2E10A0043E76949751C0D4200D0CFE0C7
:10620000002E00D093E14946194300D1D1E1614607
:10621000394300D0E3E149465807C9080143DB0888
:1062200026E02900394300D191E0511E012A05D012
:106230005848824200D18FE10A00B8E73D004D4442
:106240004D45894163449846494288444346022665
:106250001B0200D5EBE0013E6B0700D05CE7434634
:10626000E9085A0711433200DB084A48824221D02C
:106270001B0352051B0B520D6CE70023002169E73D
:106280002A003A4369D04A465807D108DA088023E1
:106290001B0308431A4207D02900ED081D4203D111
:1062A0002A00FF0848073843430FC1005B07C908AD
:1062B000194313000A001A4300D113E2802212038B
:1062C00013431B03334A1B0B44E7002A4BD08A1BA2
:1062D000002E00D1E7E02F48814200D195E18020D7
:1062E00000040343382A00DD43E11F2A00DDDBE11F
:1062F00020201D004E46801A8540D64035434E462C
:1063000086403000D340461EB0419C440543ED1901
:10631000BD429B415B42634498460E007FE01E4AAB
:10632000761A13409846F5E6280001F0D9FC0100E2
:1063300018311F2900DCCFE62B00083883400025E8
:10634000D2E662463A4311004F1EB941ACE64946D7
:106350005807C9080143DB0887E749465A07C908B7
:106360001143DB08A6E70D49701C084200D0BBE0D2
:10637000002E00D014E14946194300D175E12900EF
:10638000394300D07EE149465807C9080143DB087C
:106390006EE7C046FF070000FFFF7FFFFE0700001B
:1063A0004946CD1B6146581AA9458941494288464C
:1063B00001004046091A8846090200D5A6E0414678
:1063C000294300D07FE60023002451E7C74CA142B7
:1063D00000D1C7E0802424042343382A54DC1F2A38
:1063E00000DDCCE020244846A41A1D004E46A04003
:1063F000D640A5400400D34062463543661EB441F2
:10640000D31A9C46254344E062463A4315006F1E6A
:10641000BD414D444D4589414942884698444346D3
:106420001B0200D418E7B14B01369E4249D04246C8
:10643000AF4B01211A4013006A080D401543D907DC
:106440005B0898460D4365E618001F3EF040202A81
:1064500003D040218A1A93401D43691E8D410023B9
:10646000002698460543F7E6110065462039CD40E1
:10647000202A04D040206146821A91400F433900FF
:106480004F1EB94129430FE64A4613431D006B1EB8
:106490009D417D1BAF429B4162465B42D31A9846A9
:1064A00054460E0007E64846184300D1B3E0501E9C
:1064B000012A00D10DE18D4DAA4200D1A5E00200D4
:1064C00010E732000023002144E620213800891A19
:1064D00065468F408D40D040791E8F4105433D4336
:1064E0006746D740DB1994E7804A904200D1ECE040
:1064F0003900494449459241634452429B18DD07A3
:1065000049085B08984606000D43A5E64A46BD1AB1
:10651000AF42894162464942D31A5B1A98465446B3
:10652000D1E56C07F9082143EB0804009DE64A46D3
:106530001A4375D16146394314D1802300241B03CB
:10654000BCE64A46D51BA9458941624649429B1A89
:106550005B1A98460126AEE54A46D1085A07114310
:10656000DB08A7E66346F9085A0754461143DB08DF
:10657000A0E64A4613431D006B1E9D41C7E614006A
:106580001E00203CE640202A05D04024A21A934059
:106590004A461A4391464D466B1E9D41354378E766
:1065A0004A461A4300D06BE66B07F9081943EB081B
:1065B00080E66146394354D06346F9085C072143BD
:1065C000DB08040054E64A46BD1AAF4289416246E0
:1065D0004942D31A5B1A9846040001266BE54A46E5
:1065E000D51BA9458941624649429A1A521A9046DA
:1065F000120232D54A46BD1AAF428941624649422B
:10660000D31A5B1A9846040084E56346F9085A07D2
:106610001143DB084EE6F90868070143EB0824E65E
:1066200062463A4300D198E64A46D1085A071143D8
:10663000DA0880231B031A4208D06046C5081D42B1
:1066400004D154462A00F908430719434B0FC900E7
:106650005B07C908194313002CE64146294300D0C3
:10666000FAE500230A00002402E66B07F908194343
:10667000EB08FDE56346F9085B0719436346040030
:10668000DB0817E63D004D4463444D45894198467B
:106690004942884443461B0200D4DDE54246144B80
:1066A00001261A409046D7E510001E002038C6404B
:1066B000202A05D04020821A93404A461A43914628
:1066C0004D466B1E9D41354321E60200002300210B
:1066D00040E54A46D519BD4289416344984649423E
:1066E0008844B3E50021014A0B0033E5FF070000B1
:1066F000FFFF7FFFF0B557464E464546DE46E0B504
:10670000814605000C03480092461F0085B0240B0B
:10671000400DCE0F002859D0874B984200D198E009
:106720006B0FE4001C4380231B0423439846834BD8
:10673000ED009B4600239946834400933C037B0075
:106740005046240B5B0DFF0F002B67D07A4A934213
:1067500018D07A49420F8C46E400594614438022EF
:1067600063441204CB1A14439B46C200002033003A
:106770007B409A464B460F2B00D9EFE070499B00B7
:10678000CB589F466F4B52469C462243E344002A17
:1067900000D095E04946022319438946002402208F
:1067A000E5E700230024002552461B052343D207BA
:1067B00013432800190005B03CBC90469946A246F8
:1067C000AB46F0BD002400255B4BEDE74B46234371
:1067D000984600D189E0002C00D1E0E1200001F0D2
:1067E0007FFA010002000B391D235B1A4946100095
:1067F000D940083884400B004D46234398468540D5
:1068000051483C03831A9B460023994600937B0022
:106810005046240B5B0DFF0F002B97D152462243AD
:1068200055D0002C00D1CAE1200001F059FA020035
:106830000B3A1D2301009B1A52460839DA408C405E
:10684000144352468A40414B58449B46834400209F
:106850008DE74B462343984640D108239946063B93
:1068600000258346009369E7B246009B022BA9D01E
:10687000032B00D111E2012B93D0354A5A44002A50
:1068800000DC3CE16B0700D0A7E1ED084346DB01EB
:1068900006D542462F4B1A4090468022D2005A44D9
:1068A0002D4B9A428EDC4346520558075C02054345
:1068B000240B530D78E7BA46A04615000090D4E7A4
:1068C0004A4603231A439146032052464FE749465E
:1068D0000123194389460024012048E70C239946E7
:1068E000093BA0468346009328E7042399460023EA
:1068F0009B4601330025009320E7002380249A461D
:1069000000250D4B24034FE7802341461B0319420A
:1069100008D01C4206D11C432403BA461500064B7E
:10692000240B41E78024434624031C432403B2463E
:10693000014B240B38E7C046FF07000001FCFFFFB6
:1069400070B2000001F8FFFF0DFCFFFFF303000031
:10695000FF030000FFFFFFFEFE070000444500D2DA
:1069600016E100D111E101235B429C462E00404616
:106970000025E3442302140E1C431B0C99462304F8
:106980001F0C1202494600920197FFF7FDF9020021
:106990007A430B04310C804619438A420BD90123F8
:1069A0005B429C460919E0448C4204D88A4202D9D1
:1069B000831E98460919881A4946FFF7E5F9090424
:1069C0008C4631046646019A090C42430300314368
:1069D0008A4204D90919013B8C4200D811E1891A75
:1069E0004246009E12041A43330C1F00100C9046BE
:1069F000029313043204160C32001B0C5A43039604
:106A00007B4346437843170CBC469B1963449E4224
:106A100003D980267602B44660441E0C3018160452
:106A20001B04360C9E19814200D29CE000D197E0F5
:106A3000AE1B091AB54280414042081A844200D177
:106A400011E14946FFF7A0F9019A0B044243310CCA
:106A5000050019438A4207D90919013D8C4203D820
:106A60008A4201D9851E0919881A4946FFF78CF90F
:106A700009048C4631046646019A090C424303001E
:106A800031438A4207D90919013B8C4203D88A4213
:106A900001D9831E0919039E891A32002D041D4352
:106AA000029F2B041B0C5A437B439C46280C4643F5
:106AB000130CB444634478439E4203D98026760283
:106AC000B44660441E0C12041B04120C30189B18B0
:106AD000814206D302D001231D43CEE6002B00D114
:106AE000CBE661186E1EA14200D2A4E0814200D222
:106AF000C9E000D1D9E03500EDE701256D42012163
:106B0000891A382900DD4CE61F2900DC7FE01F23AD
:106B10005B429A1A4346D340202904D04446654A32
:106B20005A44944025436A1E954107222B43150081
:106B300000241D401A4200D1A1E00F2200241A4077
:106B4000042A00D198E01A1D9A429B415B42E41846
:106B50001300220200D48FE001230024002523E645
:106B6000B54200D364E743465A1E009B9C466544E9
:106B70001F009D429B415B421B19C9188C423AD2AF
:106B8000884263D860D0904652E7AA4200D9EAE62C
:106B90004346DE0758086B081E43ED07EAE6484601
:106BA00001F09EF801000200153120321C2900DCA2
:106BB0001AE64B46083883400025984620E601F047
:106BC0008FF803001A00153220301C2A00DC30E652
:106BD0005446083B00229C4035E60F232B40042BF3
:106BE00000D152E605235B42AB429B4104355B4238
:106BF000ED0898444AE68C42C5D1AF42C0D99046D0
:106C000016E78A4200D8EAE6831E0919E7E62A4A0F
:106C100028005A44434695409340C8406A1E954117
:106C2000444603432B43CC405A0792D00F221A40CC
:106C3000042A88D18DE73500814200D04BE7009AC5
:106C4000934200D047E718E6AE429CD902235B424C
:106C50009C46009BE0449C4665449D429B415B42B0
:106C60001B19C918E4E6154A5A44002A00DC44E717
:106C700001230025984409E665076402240BDB081C
:106C80001D43002390E5009E023D7200B242BF41C9
:106C90007F423C1909190092CEE780244346240321
:106CA0001C432403064B240B7EE5009A9A42EAD348
:106CB0003500C4E73E0400001E040000FF0300008E
:106CC000FF070000F0B54F464646D646944691462B
:106CD0001A03120B184DC0B54C000F0392465A0010
:106CE000060080463F0B0120640DC90F520DDB0FDB
:106CF000AC420AD0AA4203D0944201D157450DD0EC
:106D00001CBC90469946A246F0BD3D003543F7D1E4
:106D1000A242F5D1524665462A43F1D10120C84529
:106D2000EED1994206D0002CEAD13E433000461EF7
:106D3000B041E5E70020E3E7FF070000F0B54E466D
:106D400045465746DE4604001800E0B516001B0312
:106D50001B0B324D0F034A0099464300A446B04630
:106D60003F0B520DC90F5B0DC00FAA4229D0AB4299
:106D700018D0002A2AD13C43A34665426541002B26
:106D800002D14C46264327D0002D15D1814228D070
:106D900002200139084001383CBC90469946A24681
:106DA000AB46F0BD4D462E432FD1002AEED13C43D9
:106DB00065426541002DE9D00028EDD10120404217
:106DC000EAE73D00254320D19342EBD0002BDDD1F3
:106DD0004C462643DAD1DBE75B460020002BDBD0B4
:106DE000D6E79A420ADCE7DB4F45D1D810D0002025
:106DF0004F45D1D20029E1D00800CDE743425841A8
:106E00000223404218400138C6E702204042C3E74F
:106E1000C445BDD80020C445BED2EBE7FF07000043
:106E2000F0B54E4645465746DE4604001800E0B52C
:106E300016001B031B0B314D0F034A0099464300FC
:106E4000A446B0463F0B520DC90F5B0DC00FAA42BE
:106E500011D0AB4214D0002A2FD13C43A346654247
:106E60006541002B14D14C46264311D15B460020CE
:106E7000002B17D010E03D00254312D193421CD1C6
:106E80004D462E430DD1002A04D13C436542654155
:106E9000002D0DD1814216D0022001390840013861
:106EA00000E002203CBC90469946A246AB46F0BDAD
:106EB0000028F7D101204042F4E7002BEAD14C46EC
:106EC0002643E7D1E8E79A4206DD434258410223D0
:106ED000404218400138E5E79A42E9DB4F45DBD8EC
:106EE00006D000204F45DDD20029E3D00800D9E7C5
:106EF000C445D1D80020C445D4D2F5E7FF0700002F
:106F0000F0B557464E464546DE46E0B598460C037A
:106F10004B000600924687B0240B5B0DCF0F002B71
:106F20006CD0DD4A934200D186E0420FE400144366
:106F3000802212041443D94AC50094466344009346
:106F4000002399469B46434642461E03D20F5B00F0
:106F500050469046360B5B0D00D178E0CE4A934206
:106F60001DD0CE49420F8C4600996344F6008C46F2
:106F7000164380229C44120463461643C20000203C
:106F800000930099434601318C4649467B4001936A
:106F90000F2900D97EE0C24B890059588F465246CE
:106FA000009B324300D056E1BB4900268C46634427
:106FB000494600930223194389460220E1E74346EC
:106FC00001933400150083465B46022B5ED0032BF1
:106FD00000D1F3E1012B00D018E1002200240025AC
:106FE000019B12052243DB071A432800110007B05A
:106FF0003CBC90469946A246AB46F0BD25000543F1
:1070000000D141E1002C00D1ADE1200000F068FE8C
:10701000010002000B391D2310005B1A31003500FE
:1070200008388440D94085400C439E48831A009319
:10703000002399469B4686E70500254300D01CE1C6
:10704000082200930223002491469B467BE7524688
:10705000324300D10AE1002E00D176E1300000F089
:107060003FFE02000B3A1D2301009B1A52460839CD
:10707000DA408E40164352468A40009B8949181ACE
:1070800003008C466344002000937AE70024002527
:10709000814AA5E72F0C2D042D0C2B00110C120496
:1070A000120C53439846130028007B4399464843EB
:1070B0004844834640460B00000C824658467B43BA
:1070C00050440293814506D99A4680235B02994633
:1070D000CA4453460293030C9B4643461B040004D8
:1070E0001B0C9846030043440493330C99462B0031
:1070F0003604360C7343984633007B439A464B461E
:107100005D435F4343465544180C4019824503D9FB
:1071100080235B029A465744050CEB1905934346BE
:107120001D042D0C00044019250C2404240C2700F8
:1071300057436A4390462A003B0C9A464A436143B0
:10714000414451448344884503D980235B029846D7
:1071500042443F040B0C3F0C0904C9192700984610
:107160004B4677435C436E435D433B0C9946A41901
:107170004C4442440395A64204D980235B029846BE
:1071800045440395029B3F045B441E0083428041BB
:1071900023049846059B3F0C4744984676188E4238
:1071A0008941474440423D18A846934649428A4691
:1071B000C3449F42BF4180458041039BDA449846C7
:1071C000534640427F420743240C934592418A45EF
:1071D00089413F19DC0D049B75021D43681E8541E2
:1071E0005346524249420A43BF184744F60D7F02B4
:1071F00035435A023C431543FB0100D4C1E0012151
:107200006A080D401543E2071543640826496144A6
:10721000002956DD6B0709D00F222A40042A05D029
:107220002A1DAA42AD416D4264191500E30104D53F
:1072300080211E4AC900144061441D4A914200DD6C
:1072400024E76207ED08640249051543240B4A0D43
:10725000C6E60197B8E6104A0320944663444A46BE
:10726000009303231A43914652468AE64946012376
:10727000194389460026012083E60C22009303234C
:10728000050091469B465EE6042399460023009341
:10729000013300249B4656E6FF07000001FCFFFF78
:1072A000B0B200000DFCFFFFFF030000FFFFFFFE78
:1072B000FE070000002380240025444A0193240394
:1072C0008EE60120401A382800DD86E61F285BDDA7
:1072D0001F2223005242511ACB401900202803D00C
:1072E0003B4A6244944025436A1E95412A000A4362
:1072F00007210D000024154011425BD00F2100240E
:107300001140042953D0111D914292415242A418B8
:107310000A0023024BD501220024002560E68023C9
:107320001B031C4209D01E4207D133431C034346B2
:107330001500240B254A019352E6802212031443C0
:107340002403224A240B01974AE600F0C9FC0300FB
:107350001A00153220301C2A00DC84E65646083B11
:1073600000229E4089E600F0BBFC010002001531BE
:1073700020321C2900DC4EE6340008380025844009
:1073800053E6009B9C4641E71249220061442E00CF
:107390008D408A40C640691E8D4132432A43C44015
:1073A0005307B6D00F2111400429ACD1B1E76507CE
:1073B0006402240BD2081543002211E68022120336
:1073C00014432403014A240B0AE6C046FF070000C9
:1073D0003E0400001E040000F8B557464E464546E0
:1073E000DE460400E0B51F0010000B03620F4E00E4
:1073F000CD0F5B0A39031343490AE200440F2143CE
:10740000C24C91469246C0007A008046760D520DDD
:10741000FF0FA24200D1B4E001246740BB46BD4249
:1074200000D188E0B41AA446002C00DCB2E0002AA7
:1074300000D1C5E0B54A964200D18BE28022120409
:1074400011436246382A00DDA1E11F2A00DD16E261
:1074500020270C00BF1ABC400200A0466446B8407A
:10746000E240444614430200501E82416046C1403F
:1074700022435B1A49468C1AA145924152429B1AFB
:10748000984643461B0200D417E143465B025B0A61
:1074900098464346002B00D16CE1404600F020FCAA
:1074A0000200083A202120004346891A9340C84030
:1074B00094400343964200DD57E1961B711C1F293F
:1074C00000DDCBE1202218002600521A94409040A3
:1074D000CE40CB40621E9441304398460026044380
:1074E000630709D00F232340042B05D0231DA3429B
:1074F000A4416442A0441C0043461B0200D4DFE0C8
:10750000824B01369E4200D1FBE04246804BE408AC
:107510001A401300710552075B0222431B0B490DF1
:107520000905ED071943294310003CBC90469946D4
:10753000A246AB46F8BDB41AA446002C58DD002A7A
:1075400000D19EE0714A964200D13BE180221204B4
:1075500011436246382A00DDC1E01F2A00DCBBE18E
:107560000C00203AD44022006446202C04D040274E
:107570003F1BB940084380464446611E8C4114437A
:10758000B1E00C0004432AD0BB46BD422DD0614C73
:10759000A446B4446446002C5CD0941BA446002E40
:1075A00000D015E14D461D4300D1C3E1651E012CFD
:1075B00000D10CE2554EB44200D1F8E1AC460EE1E8
:1075C0000A00024300D136E12200013A012C00D129
:1075D000C6E14E4CA44500D1F4E0944631E70124C5
:1075E0006740BB46BD4200D01CE74A4CA446B444A9
:1075F0006446002C00D1CFE0941BA446002E00D19D
:107600005CE1424EB24200D1ECE1802636043343C5
:107610006446382C00DDB3E11F2C00DD38E2202663
:10762000361B1C00B4404F46A0466446E740444623
:107630003C434F46B7403E00771EBE41344366464A
:10764000F340C918241884429B415B4298461600B7
:1076500088444EE0304A741C144200D0D6E04A46BA
:107660001A43002E00D05BE1002A00D1A5E10A00F8
:10767000024300D0BBE14A465907D2080A43DB085F
:1076800027E00A00024300D174E12200013A012CF4
:1076900005D01E4CA44500D194E0944659E74844D7
:1076A000484592415B189846040052429044434634
:1076B00002261B0200D5C4E0013E630700D011E79B
:1076C0004346B4465907E2080A43DB080F498C4594
:1076D00040D061461B0349051B0B490D20E70143C0
:1076E0000C00611E8C414C444C45924152429046E4
:1076F000984443461B02E0D5044B01369E4200D01D
:107700009FE03100002300220AE7C046FF07000087
:10771000FFFF7FFF01F8FFFFFE070000002A00D1F6
:1077200060E10A0002434DD04A465C07D20822437A
:107730008024DB082403234207D0CE08264204D14C
:107740005D463300C20849070A43510FD200D208F0
:1077500049070A431100194300D1C8E180210903F8
:107760000B431B03D5491B0BDAE6D549B61A0B4070
:107770009846B5E6200000F0B3FA020018321F2A3E
:1077800000DC8FE6230008388340002492E608439B
:107790000200501E82416DE6CA4C721C224200D08B
:1077A000ADE04A461A43002EB8D1002A00D158E174
:1077B0000A00024300D059E14A465907D2080A4359
:1077C000DB0886E74A465907D2080A43DB08C1E7C7
:1077D000BA4DAA4200D11EE180252D042B436446F8
:1077E000382C5DDC1F2C00DDD0E0202567462D1BEA
:1077F0004E461C00FE40AC4034434E46AE40350081
:10780000FB406E1EB541C91A2C434EE04A46141A7D
:10781000A1459241524290465F1A3A004746D21B18
:107820009046120200D58BE04246224300D030E65B
:10783000002300254DE74A465907D2080A43DB08D2
:1078400044E742469E4B61081A401300012214404F
:107850000C43DA075B089846144341E61A001F3EC2
:10786000F2401600202903D04022511A8B401C43BD
:10787000621E944100233443984600261DE70C0005
:10788000203AD44022006446202C04D040273F1BDD
:10789000B940084380464446611E8C412243E9E5D5
:1078A0004C4623431C00631E9C41041BA0429B4189
:1078B0005B42CB1A98465D461600E2E54E461E43F3
:1078C00000D1AEE0661E012C00D1FDE07B4FBC4232
:1078D00000D107E1B4469BE664462022121B0C004F
:1078E000944007009040A0466446421E9041624684
:1078F000E7404446D1403C4304435B18F3E66F4CF9
:10790000A24200D1D5E048445B184845894149422C
:107910005B18DC0740085B08984616000443CCE679
:10792000002A00D082E00A00024340D180230025D3
:107930001B0313E74B07C2081A435D46CB08C5E695
:107940004A46841AA0429241CB1A52429B1A984648
:107950005D469EE54A465907D2080A43DB08F9E628
:107960004A46141AA14592415B1A52429B1A984604
:10797000012686E54A465907D2080A43DB08A5E6F0
:107980004C4623431C00631E9C415BE665461E007B
:10799000203DEE40202C05D040252D1BAB404C4611
:1079A0001C43A2465446631E9C4134437DE74B076B
:1079B000C2081A435D46CB08CCE60A00024300D158
:1079C00036E74B07C2081A435D46CB0881E64A46B4
:1079D000841AA0429241CB1A52429B1A98465D46A5
:1079E00001264EE54B07C2081A43CB08B2E64A46C9
:1079F000141AA14592415F1A5242BA1A90461202D5
:107A00006BD54A46841AA0429241CB1A52429B1A25
:107A100098465D4664E54B07C2081A435D46CB08AD
:107A200098E64B07C2081A43CB084FE60A00024308
:107A300090D04A465C07D20814438022DB08120328
:107A4000134208D0CE08164205D1C00849070843A2
:107A500004005D463300610FE2004907D2080A4383
:107A600078E64B07C2081A43CB0832E648445B1855
:107A700048459241984652429044434604001B02B6
:107A800000D41AE642460E4B01261A40904614E6F0
:107A900066461F00203EF740202C05D04026361BAE
:107AA000B3404C461C43A2465446631E9C413C4393
:107AB000C8E511000023002232E5C046FF070000A0
:107AC000FFFF7FFFFE0700004A46141884429241E0
:107AD0005B18984652429044E9E54246224300D161
