:1020000000800020C94200003F2200003D22000065
:1020100000000000000000000000000000000000C0
:10202000000000000000000000000000B1420000BD
:102030000000000000000000312200001D430000ED
:10204000B1420000B1420000B1420000B1420000C4
:1020500075420000B14200001D390000B542000089
:10206000B1420000C1410000B1420000B142000095
:10207000FD340000B1420000D1410000B142000037
:10208000B1420000B14200006D400000AD410000CF
:1020900000000000B1420000B1420000B142000067
:1020A000B1420000B1420000B1420000B142000064
:1020B0000000000010B5064C2378002B07D1054B1B
:1020C000002B02D0044800E000BF0123237010BDA4
:1020D00090020020000000001CC70000044B10B557
:1020E000002B03D00349044800E000BF10BDC046E8
:1020F00000000000940200201CC700007047FEE7AB
:1021000030BFFEE770470000034B044A1A60044BDF
:10211000044A1A607047C046EC060020FF20000009
:10212000F006002029240000064A0749136A1940D6
:10213000C0231B040B431362136A1B021B0A1362A6
:102140007047C04600ED00E0FFFF00FF8023034A18
:102150005B0551680B4353607047C04600ED00E0DB
:1021600010B5FFF7F3FF10BD054B06491860064A8E
:102170000B6A1A40C0231B0413430B627047C0460E
:102180000C07002000ED00E0FFFF00FF064B10B53C
:10219000064A1860064B07481A6003221A72064A5C
:1021A0001360FFF7E1FF10BD4C040020C0BA00002F
:1021B0004C050020252A000058050020044B054A44
:1021C0001960054B1860136A1B021B0A13627047E3
:1021D000D80F002000ED00E00407002010B5034BED
:1021E00003491868FFF7EAFF10BDC0464C04002001
:1021F00061210000EFF30980704780F30988704780
:10220000084B10B51A68002A0AD0074B1968481CF9
:10221000186006480068814202D300211960904787
:10222000002010BDD80F0020000700200407002068
:10223000014B1B689847C0460C07002000E0FFE7F1
:1022400073465B0702D5024B1B689847014BFBE7BF
:10225000EC060020F006002010B502600171002994
:1022600006D06624012908D1022A44D1113202E0A5
:10227000022A08D10C3282600124002B45D0012BA8
:1022800048D0200010BD042A01D10D32F3E7052A01
:10229000FBD0082A01D10D22EDE70A2A02D1012440
:1022A0008460EAE70B2A01D18160E5E70C2A01D1BD
:1022B0000A32E0E70F2A01D10A3ADCE7102A01D1FD
:1022C000053AD8E7112AE6D0122A01D1083AD2E716
:1022D000132A01D1073ACEE7142A01D10E3ACAE7F0
:1022E000162A01D1023AC6E76624172AC5D1023A56
:1022F0008260653CC1E7082A03D107320C00826086
:10230000BBE76624092AB8D1F7E70121806802F00B
:102310003DFAB6E70021F9E710B5806802F066FAE9
:1023200010BD0000002370B5E1250B4C19000822F8
:102330002000FFF791FF20000021FFF7EDFF074C81
:102340006D022900200002F099FE0022044B5D601E
:102350001A809C6070BDC046F4060020F819002069
:102360001C07002010B5806802F06CFA431E9841EB
:10237000C0B210BD03006520002A0DD1002907D08E
:102380000330012908D12D22080019805A6003E08A
:102390000E22012019805A60704710B5406802F083
:1023A00081F910BD037810B5002B02D0012B05D0A8
:1023B00010BD806803681B689847F9E7C068F9E7B3
:1023C00070B505000C002178002904D028000134E4
:1023D000FFF7E8FFF7E770BD37B504000E4D0F4972
:1023E0002800FFF7EDFF28002100FFF7E9FF012596
:1023F0000B4C2000FFF7B6FF6840C1B22000FFF78A
:102400008BFF0023074A0193019B9342F0DC019B61
:1024100001330193F8E7C0461C070020C5BA00004D
:10242000F40600207FA9030010B50148FFF7D4FF90
:10243000E1BA000010B501000148FFF7B3FF10BD7D
:102440001C07002000230121074A013311720C32BE
:10245000642BFAD10023190004489A0012180133A2
:102460001160642BF9D170472C0700205C05002017
:10247000084A00231100107A002805D00C20584388
:10248000002308180372704701330C32642BF2D119
:10249000F9E7C0462C07002070B505000C00FFF7D7
:1024A000E7FF03000220002B09D005491D600A68E0
:1024B0005C60501C0860012002499200535070BDBE
:1024C000080700205C050020030010B502680A24FC
:1024D000002011783039092903D8604301320818E7
:1024E000F7E71A6010BD0000F0B59BB01D0023ABEC
:1024F0001E786B461E75F307DB0F08937307DB0F1F
:102500000493F306DB0F01900F00140065491122BC
:102510000BA8079306F072FD1122634910A806F07C
:102520006DFD10AB0693730601D40BAB069302232B
:10253000209A9A43082A03D0209B102B00D0AEE0AB
:102540006B461B7D9B06DA0F0392002B22DA002DCF
:1025500020DA22002B00002554429D4100230293E3
:10256000209BDB1709932300029E2B431DD02000E4
:102570002900209A099B04F013FA2C25069B029C43
:102580009B5C0AAA52191355029B040001330D00EB
:102590000293E8E723002B4302D000230393DDE7F7
:1025A0003021012615AA11700393229CB44200DA4F
:1025B0003400039B002B02D1089B002B6BD0219B86
:1025C000013B2193049B002B02D0219B023B2193D2
:1025D000039B002B41D039002D20019B9847049B81
:1025E000002B07D039003020019B98473900782014
:1025F000019B98476B461B7D9B0712D4079B2025A8
:10260000002B00D03025EBB2219D0293AC422FDB92
:10261000219B21995A1E00238C4200DC631AD31897
:102620002193079B2025002B00D03025EBB22500FD
:102630000293AE4222DB0023B44200DB331B3500A1
:10264000219A9C18002D1FD1A61B002E27DD3900D2
:102650002020019B9847013EF7E7089B002BBED046
:102660006B461B7D20201B0700D40B303900B4E7DC
:1026700039000298019B9847013DC7E7390002984D
:10268000019B9847013DD4E715AB013DE85C39005B
:10269000019B9847D6E7049B002B96D1AAE71BB075
:1026A000F0BDC04610BB000021BB0000F0B51C000F
:1026B00089B0049005910792079B1A78002A00D1EF
:1026C0002BE15A1C07921878252803D00599049B02
:1026D0009847F1E7002300269C461D001F00069343
:1026E0000799481C07900A782B2A3DD046D8202A03
:1026F0003CD0232A3DD0002F00D00126002D01D050
:10270000022216436246002A01D004221643069A8A
:10271000002A01D008221643002B01D010231E43AB
:1027200007910B782A2B2FD180CC0790FB43DB1726
:102730001F40079B1A782E2A34D15A1C07925A78C8
:102740002A2A2AD120CC02330793EB43DB171D4002
:10275000079A531C079311786C2948D025D868290B
:102760003DD00423079225E00127B9E70122069214
:10277000B6E701229446B3E70125B1E72D2AFBD045
:10278000302AB8D10123ABE7303B0027092BD0D842
:1027900007A8FFF799FE0700CBE707A8FFF794FE0D
:1027A0000500D5E701256D42D2E70423742901D045
:1027B0007A29D6D1079A511C07911078692822D01E
:1027C0002AD858285CD01AD8252800D17EE7079B44
:1027D0001A78252A00D19CE0013B0793F7E751784E
:1027E00002236829E6D1D2180792013BE2E751782B
:1027F00004236C29DED102320792DB18DAE7632862
:1028000069D06428E3D1581E072831D803F0D0FEE0
:1028100011243027303030297038C2B2082AD6D877
:102820000828D4D803F0BAFE27D3D35AD33BD3D346
:102830002E0004CC52B2D31720210E43691C00D1C4
:10284000002503A90E700A210295019700910498B2
:102850000599FFF749FE2FE704CC12B2EBE704CC51
:10286000E9E7072307349C43230008340CCBE3E754
:1028700000221300E0E7042216436A1C00D1093548
:10288000402216431822102196430E43581E072853
:102890001ED803F08DFE06111D141D1D1D160A21E4
:1028A000F4E704CCD2B20023681C00D1002503A8B1
:1028B000067002950197C9E704CC92B2F3E704CC05
:1028C000F1E7072307349C43230008340CCBEBE7E4
:1028D00000221300E8E701CCC0B2F7E640CC370095
:1028E0006B1C08D13078002800D1E5E60599049BDF
:1028F00001369847F6E77319DB1B002B00DCDBE69B
:102900003878002800D1D7E60599049B013798470D
:10291000F1E75A1C07921878D8E609B0F0BD00001C
:102920000F4B104A10B51A600F4A0A245A600F4A1A
:102930009A600F4ADA600F4A1A610F4A5A610F4AC9
:102940009A610F4ADA610F4A1A6200221000910060
:1029500059580132C86208638C62092AF7D110BD48
:1029600028050020B8040020180400207C03002063
:10297000B003002048030020F0040020840400205D
:10298000E403002050040020064B800010B5C4581A
:10299000206B8300E1500130A16A03F099FE2163AE
:1029A00010BDC04628050020064B800070B5C458F5
:1029B000E06AA16A830001301D5903F089FE2800F6
:1029C000E16270BD28050020034B8000C358D86A1F
:1029D0001B6BC01A7047C04628050020F8B5037A63
:1029E0000100032B02D0407AFFF7CEFF00250B4FEA
:1029F000EE5D3000FFF7E8FF002808D03000FFF759
:102A0000D3FF0400002C06D10548FFF7E5FC013593
:102A1000052DEDD1F6E72000F8BDC046E1BC000071
:102A200032BB000072B6EFF309801038F0C04446A4
:102A30004D4656465F462038F0C0103880F309886E
:102A40000D4C23681B7A032B03D0FFF7D3FB2368BD
:102A500058602068FFF7C2FF20604068FFF7CDFB99
:102A6000F0C8A046A946B246BB46F0C880F3098824
:102A7000024862B60047C04658050020FDFFFFFF30
:102A8000074A00231000117A022903D10C22534374
:102A9000C018704701330C320A2BF4D10020F8E73C
:102AA000CC020020EFF3108372B603607047036816
:102AB00083F31088704700000FB437B506AC20CC04
:102AC0006846FFF7EFFF2A00230000210548019424
:102AD000FFF7ECFD6846FFF7EAFF37BC08BC04B01F
:102AE0001847C04635240000F0B5040085B001A8A1
:102AF00015000E00FFF7D6FFA3680293E368039367
:102B0000029A039B9A4218D9029A039B9B1A626805
:102B10009B189D4200D91D00002D12D07719B74295
:102B20000FD0A3682268D35C3370A068616801305D
:102B300003F0CEFD0136A160F1E7039B029A9B1AD8
:102B4000E7E701A8FFF7B3FF280005B0F0BD0000DC
:102B5000054B10B51B78002B02D10448FFF73CFC55
:102B6000034B186810BDC046C802002078BB0000A7
:102B700024050020094B10B51B78002B02D1084812
:102B8000FFF72AFC074B80001A68101A0722104230
:102B900001D00138FBE7186010BDC046C802002014
:102BA0008DBB000024050020F7B50F0015001E00A6
:102BB0000190FFF765FF041E02D11848FFF70CFCD7
:102BC00000230760037246721020FFF7D3FFFFF760
:102BD000BFFF606028001038FFF7CCFF104A636821
:102BE00001325A6380220198520401309863DA63FB
:102BF0000C4B21001A683000551C1D60FFF7C4FE05
:102C0000022D09D1084B1A69D36A9B009B5858685A
:102C1000FFF7F3FAFFF7E2FA0120FEBDA8BB0000C0
:102C200003210000EC0400202805002010B5052039
:102C3000FFF7ACFA0222184B591CCA7719002C3145
:102C40000A70190038310A70190044310A701900ED
:102C500050310A7019005C310A70190068310A702D
:102C6000190074311A721A750A709A6F0A329A67CB
:102C7000FFF756FE094B0A4A0A491A6001220A4B1D
:102C80000A481A7000220A4B1A608032042352004C
:102C9000FFF78AFF10BDC046CC02002024050020AB
:102CA00000500020D3BB0000C8020020012100001A
:102CB000EC040020084A094BFA2110B513600023E8
:102CC000890093605160D360802205490548D20095
:102CD000FFF76AFF10BDC046E00B0020F00B00209C
:102CE000E7BB0000A52D000010B5FFF71DFAFFF7A8
:102CF00019FBFFF709FAFFF799FFFFF7A3FBFFF7AF
:102D0000D9FF10BD10B5FFF7EFFF80220023034964
:102D10000348D200FFF748FFFEE7C046F8BB0000BB
:102D20000131000073B50C00060001001B481500BE
:102D3000FFF7C2FE21686268A368E0680090184847
:102D4000FFF7BAFE042E16D8300003F031FC030D55
:102D5000171B230020686168A268E368C9B2DBB270
:102D6000FFF77AFA286006E0206861684B1E9941F7
:102D7000C9B2FFF7D1FA01232B7173BD2068FFF7A9
:102D8000F1FAEFE720686168A268C9B2D2B2FFF732
:102D9000F1FAE7E72068FFF700FBE3E709BC000072
:102DA0002ABC000070B5174D17482900FFF774FBC7
:102DB000164C092221002800FFF796FEC0B2002819
:102DC0001CD0092802D01248FFF706FBA2796379CC
:102DD0001202D218E379A1781B04D218237A0902CF
:102DE0001B06D21863782078C918E3781B04C91829
:102DF00023791B06C918FFF795FFD9E7FFF7A6F956
:102E0000D6E7C046E00B002068BB0000100700209A
:102E100060BC000010B5034A0349044803F0B6FB48
:102E200010BDC04600000020FD2000001A07002051
:102E300070B506000D00094B094C1978200000F010
:102E40000FFA3100200000F063FA2900200000F0A2
:102E50005FFA200000F0BAFA70BDC046AC02002054
:102E6000DC0F002010B50920FFF7E2FF10BD0000C5
:102E700070B5054D140069700121002A00D00021B1
:102E8000FFF7F0FFAC7070BDAC02002010B57F24DE
:102E90000C4021008A20FFF7CBFF014B1C7010BDB6
:102EA000AC020020F8B50D001600104C104F2000A9
:102EB000397800F0D5F92900200000F029FA200027
:102EC00000F084FA32002000397800F01CFA002566
:102ED000AE4209DD200000F07EFA7B19D870012097
:102EE00001F05AFA0135F3E7F8BDC046DC0F0020C7
:102EF000AC0200200C22142110B5FFF7D3FF0A4BBF
:102F0000597A9A7A09020A43D97A9A821A7B090273
:102F10000A43597BDA829A7B09020A431A83DA78D8
:102F20005206120F9A7610BDAC02002010B50400B4
:102F3000FFF7E0FF0B4B1A8B142A0ED122881A835D
:102F4000188B9B78002B0AD105F0D2FE0022064B8D
:102F500005F07CF805F022FF10BD2280F0E704F0B8
:102F6000C9F8F9E7AC0200200000D03F70B50D00B1
:102F70000B4C0C4E2000317800F072F92900200033
:102F800000F0C6F9200000F021FA3178012220007B
:102F900000F0B9F9200000F01EFAC0B270BDC046C2
:102FA000DC0F0020AC02002070B58921012405004F
:102FB000FFF7DCFF2043C1B28920FFF739FF002172
:102FC0008820FFF735FF21008020FFF731FF210027
:102FD000FF20FFF72DFF00210800FFF729FF280041
:102FE0009121FFF7C3FF3C219120FFF721FF210032
:102FF0000020FFF71DFF0021FF20FFF719FF002130
:103000008020FFF715FF70BD70B5040013480D0058
:1030100001F0C2F92922124B20001A70FFF7C4FFF9
:1030200029002000FFF732FFC2212000FFF79EFF9A
:1030300006000C4D2800FFF73FFD31000A48FFF75E
:103040003BFDC0212000FFF791FF01000748FFF77B
:1030500033FD2800FFF730FD70BDC046DC050000E1
:10306000AC0200205DBC00007CBC00008CBC0000F9
:1030700070B5204B0121050080205C78FFF7D8FE59
:103080000121FF20FFF7D4FE00210800FFF7D0FE4A
:103090003C219120FFF7CCFE01210020FFF7C8FE64
:1030A0000021FF20FFF7C4FE00218020FFF7C0FEB3
:1030B000002C08D0012C18D00F48FFF7FDFC0F485A
:1030C000FFF7FAFC0BE020000121FFF7B1FE012021
:1030D000C8240600304202D0013C002C00D170BD53
:1030E00000212800FFF742FFF4E702210020FFF74C
:1030F0009FFEF4E7AC0200209ABC00005DBC00001B
:1031000070B5154800F08CF8144C50212000FFF7E2
:103110007BFF012220001100FFF7AAFEFA25200004
:10312000FFF7A6FF6D002000FFF700FF03F058FC3B
:103130000A2103F047FA01000948FFF7BDFC20000F
:10314000FFF7D8FE074B0848998AFFF7B5FC28001F
:1031500001F022F9E7E7C046DC0F00201A07002043
:10316000BCBC0000AC020020CCBC000000207047BA
:10317000F8B505000E0017000024BC4208D02B68EB
:103180002800315D1B689847002801D00134F4E71E
:103190002000F8BD70470300FC33196ADA699142D8
:1031A00003D01B6AC018007E704701204042FBE735
:1031B0000300FC33D8691B6AC01A01D50130FF3007
:1031C00070470000F7B50193FA238027002504001B
:1031D0009B008360114B7F0008330E00456029007F
:1031E000009203603A00183005F011FF2300200020
:1031F000FC332130DD613A001D622900FF3005F00B
:1032000006FF87239B00E3185D609D60009B200004
:103210002375019B2661A5756375FEBDE8BC0000A2
:1032200070B5040018260C49006901F063FE20699E
:1032300001F0BCFC33000821207D084D4343EB180E
:10324000595601F017FB0821607D4643AD196956B8
:1032500001F010FB70BDC046A0860100A0BE0000BA
:103260008A2300229B00C1540C3BC3185A609A6009
:103270000123837570470200FC32536810B5013397
:103280009468DBB29C4202D054680155536010BD73
:10329000F7B5019300230400150018009A422FD0BF
:1032A0002200FC32D36120691362012201F0BCFCD0
:1032B000002826D02700206901F038FD18370100CA
:1032C0003800FFF7D8FF01262069B5420ED001F083
:1032D0008BFC0221206901F091FC206901F026FDA0
:1032E00001003800FFF7C7FF0136EDE701F073FC7E
:1032F000019B002B03D00321206901F07FFCE8B281
:10330000FEBD0500FBE710B50123FFF7C1FF10BDAF
:1033100010B50300827D002082420ED087229200E9
:103320009C186268A4680132D2B2A24205D021334F
:10333000FF331800FFF79FFF012010BD0300FC338F
:1033400099685A68914206D09A68805C9A680132FE
:10335000D2B29A60704701204042FBE700228A23E4
:1033600070B59B00827505000E00C15C006901F01C
:103370005BFC002806D10321286901F03FFC0224F0
:10338000200070BD872328009B00EA1853689468CA
:103390002130FF301C1B01D50134FF34002C0ED02E
:1033A0002C69FFF7CBFFC1B2200001F07BFC0028A5
:1033B000E8D10321286901F021FC0324E0E7002E75
:1033C000DED00321286901F019FCD9E710B50121ED
:1033D000FFF7C4FF10BD10B51830FFF7AFFF10BDE9
:1033E00070B50400006901F07FFC002814D020694A
:1033F00001F088FC002810D0206901F0F5FB0321C2
:10340000206901F0FBFB8C239B00E558002D39D18E
:103410000023FC34E361236270BD206901F07CFC71
:10342000002809D0206901F072FC002804D020692E
:1034300001F077FC0028DFD0206901F06DFC002846
:1034400026D1206901F059FC0028E5D0206901F05F
:1034500068FC002837D087239B00E21853689268E5
:103460009B1A01D50133FF33FF21002B05D020002B
:103470002130FF30FFF762FFC1B2206901F025FC67
:10348000A075C9E7236820001B699847A847BFE7D4
:10349000206901F0A9FB2069032101F0AFFB20693D
:1034A00001F03FFC0028B7D0872300229B00E318DF
:1034B0005A609A600123A3758B239B00E3589342C3
:1034C000AAD09847A8E72200FC32D369126A0133D8
:1034D000DBB22069934206D101F07DFB0321206914
:1034E00001F08CFB98E701F021FC0100200018306E
:1034F000FFF7C1FE206901F077FBEFE710B5024846
:10350000FFF76EFF10BDC046DC0F002010B515237D
:10351000142202490248FFF755FE10BD5819002039
:10352000DC0F00200378034A9B009B58002249339C
:103530001A70704764120020F0B5040085B01E00B8
:103540000AAB1B78103001930BAB1B78170002936A
:103550000CAB1B780D00039300F0AEF92000243073
:1035600000F0AAF9220000234832A363E363236436
:1035700063641370537063729D4205D12221084B1E
:10358000084A094805F0BCFC2000019B25606371D6
:10359000029B2771E371039BA671237205B0F0BDF6
:1035A0000CBD00001DBD000071BD000030B5040061
:1035B00085B002AD00680291039201F0B3FA6B7915
:1035C000227AE17920680093002301F069FC2979CF
:1035D000029A206801F0CAFA206801F099FA05B051
:1035E00030BD10B50400006801F085FA0023637255
:1035F00010BD000007B5837A00910192002B07D01F
:103600009A070AD5EFF310835A425341C37272B638
:103610000099019AFFF7CAFF07BDDB07F8D5C36819
:10362000014A9BB29360F3E700180040837A002BB5
:1036300005D09A0704D5C37A002B00D062B6704734
:10364000DB07FCD5C368024A9BB2D360F7E7C046EC
:103650000018004010B5006801F06DFA10BD704709
:103660007047000010B5006801F06EFB03000020F9
:10367000834203DB0C304343014A985810BDC046D7
:10368000E0BD000010B5006801F05EFB002805DB1E
:103690000C2343430348C018406810BD012040423A
:1036A000FBE7C046E0BD000010B5006801F04CFB30
:1036B000002805DB0C2343430348C018806810BD75
:1036C00001204042FBE7C046E0BD0000F0B5060027
:1036D0001036050089B0300000F044F9002869D1A7
:1036E0002F002437380000F03DF9041E5FD1280078
:1036F000FFF7DAFFC1B2300000F014FA0221300007
:1037000000F034FA2C490122300000F007FA2B7C3B
:103710002A4A9B0028009D50FFF7B4FFC1B2380031
:1037200000F000FA0221380000F020FA6B1DDB7F68
:10373000224A9B0028009D50FFF794FF01230100BF
:103740002200029330002300049403940194009417
:1037500000F030FAA8632800FFF784FF012302007D
:1037600021000193380023000494039402940094F0
:1037700000F020FAE863402005F02CFC2A004832D3
:103780002864079200280BD00123137068646B6CC7
:1037900010221819E96B103405F030FC402CF6D1DA
:1037A000079B1B78002B05D1380000F075F930001D
:1037B00000F072F909B0F0BD253500006412002058
:1037C00070B5437A0400002B03D101224381427279
:1037D000C360230048331B78002B02D12000FFF781
:1037E00075FF18263300082120790D4D4343EB184F
:1037F000595601F03FF833000821A0794343EB18F4
:10380000595601F037F8082160794643AD196956D9
:1038100001F030F8034B200006CBFFF7C7FE70BD68
:10382000A0BE00005C1200201FB5094A094B0A49DE
:1038300013600023938002930133019316330093A6
:10384000162201330548FFF777FE05B000BDC046DC
:103850005C12002000093D005C19002010120020BD
:10386000084B1968002909D1EFF31080064A002897
:1038700003D172B6BFF35F8F013111701A68013244
:103880001A6070472814002024140020084B1A687E
:10389000002A0CD01A68013A1A601B68002B06D166
:1038A000044B1B78002B02D0BFF35F8F62B67047CA
:1038B0002814002024140020FF2310B50370C02317
:1038C000002104009B004170418083800C2208305D
:1038D00005F09DFB200010BD01230A0010B51A4021
:1038E000194208D00C4A1370033343708368002BCD
:1038F00000D0984710BD0223194204D006490B702E
:10390000C3684270F3E704231942F3D0024A1370EC
:10391000033343700369EAE74E48004110B5FFF7EF
:103920009FFF0C4B1B8C1B071B0F0B2B0FD80A4A3E
:103930009900885800280AD00F2408490A78A24321
:1039400013430B70064B1978C9B2FFF7C5FFFFF799
:103950009DFF10BD004800412C1400203F4800414D
:103960004E480041F8B500230278050018000B2AE4
:1039700077D93C4E2B702B780B2B07D801229A401D
:103980003168114204D001332B70F4E7012068E064
:10399000FFF766FF3768344C002F2BD12022334BC2
:1039A000334859690A435A611022D9690A43DA61D6
:1039B000022223883900934323802388013A13434A
:1039C00023802C4B6063BF32A36305F020FBC02231
:1039D0003900284805F01BFB4022C120264B8000FF
:1039E0002380264B26491A601A581140C02212041F
:1039F0000A431A5001231A00297830688A4002438A
:103A000032600F261F4A880085501F4831400278D7
:103A1000B2430A43027002201C4A1178814311709C
:103A2000117819431170297822698B409A432261D9
:103A300060223F21636C934363642A79636C0A407C
:103A4000134912020B400321134363646A79636CC8
:103A50000A40104992050B4013436364FFF716FFB9
:103A60000020F8BD20140020004800410004004060
:103A700060130020A0120020020F000000E100E00F
:103A8000FFFF00FF2C1400203F4800414048004148
:103A9000FFC0FFFFFFFF3FFF70B50500FFF7E0FE2F
:103AA0006B785CB2062B2BD02B7802240B2B27D8FB
:103AB00001229A40144B1968114221D01968914390
:103AC00019601B68002B14D14022104BDA67BFF33A
:103AD0004F8FBFF36F8F21000D4A0E311388A34320
:103AE00013800C4BDA698A43DA615A6910318A43D0
:103AF0005A6100242B78084A9B009C50FF232B70AE
:103B0000FFF7C4FE200070BD2014002004E100E097
:103B100000480041000400402C14002002329200B2
:103B200011507047037870B505000C0001710B2B24
:103B300014D8FFF795FE29780F2509482940037806
:103B4000084AAB430B4303703F23516C1C40064BA8
:103B5000240219400C435464FFF798FE70BDC04620
:103B60003F48004100480041FFC0FFFF037870B5A7
:103B700005000C0041710B2B14D8FFF771FE29785A
:103B80000F25094829400378084AAB430B430370CB
:103B90000323516C1C40064BA40519400C4354648C
:103BA000FFF774FE70BDC0463F4800410048004129
:103BB000FFFF3FFFF0B587B001930CAB1E780DAB54
:103BC0001B78050002930EAB1B780078039310ABB3
:103BD0001F78049105920B2802D9002007B0F0BD90
:103BE0006B78062BF9D0AB78002B00D179E010214F
:103BF000080005F0E5F90028EFD02B783B4A1B01BF
:103C00009B181A00D168002904D0D1688B4201D0DA
:103C1000D268F7E7D06001220223AA70964203D04F
:103C2000DB18022E00D01300062401881143018006
:103C30000188A143018001881234A1430180153C11
:103C4000018826402A4C360221400E430680029EFF
:103C50000188284C16402140B6020E430680039E80
:103C60000188254C16402140F6020E43068001884B
:103C7000224E3A40314012030A43072102800F9A34
:103C8000114002884903D204D20C0A4302806A46DA
:103C900092884280049A4260029A002A08D0019ACF
:103CA00041685A43002F01D00F9CA2408A184260FD
:103CB000059A8260039A002A09D0019A84685A43BF
:103CC0001300002F01D10F9A9340E3188360002363
:103CD000EA789A4203D02B78044A1B019B18C360F0
:103CE0007CE7024B0001C01895E7C0466013002036
:103CF000FFFCFFFFFFFBFFFFFFF7FFFFFFEFFFFFF3
:103D000070477047704770477047417170478171C5
:103D1000704701717047000010B5034C083404600F
:103D200001714271837110BD28BE00007047000010
:103D300010B50248FFF78EFC10BDC04610120020DF
:103D400010B50248FFF78BFC10BDC04610120020D2
:103D500010B50248FFF784FC10BDC04610120020C9
:103D600010B50279042A26D0032A26D0022A26D0AA
:103D7000013A53425A41154B52421A40D2184379E4
:103D80008179013B00291CD001291AD0022918D0C1
:103D9000032916D059424B410021DBB2140A0272AA
:103DA0004472140C120E8472C27201734373084879
:103DB000FFF706FD10BD074AE1E7074ADFE7074ABC
:103DC000DDE75C426341DBB2E8E7C04640420F00FA
:103DD000101200200024F40000127A0000093D00B7
:103DE00010B50248FFF7FDFB10BDC04610120020C1
:103DF00010B58168C2680248FFF7FCFB10BDC046E1
:103E00001012002010B50248FFF710FC10BDC0468C
:103E10001012002010B50400FFF77EFF044B2000B5
:103E200008332360034BA3600023A38110BDC04669
:103E30005CBE000000093D00002310B51A00190007
:103E40000148FFF7E7FF10BD5C14002010B5C31C4C
:103E50000400D87F00F0F6FC431E98410634E37F4F
:103E6000584010BD10B50430C07F00F0BFFC10BD3D
:103E700010B5C31DDB7F0530C07F594000F0B6FC94
:103E800010BD10B503790400022B08D00021FFF704
:103E9000EFFF00212000FFF7E5FF0223237110BD93
:103EA000082388101840030010B5064A08339842CA
:103EB00005D0145C8C4203D00130C0B2F7E700207B
:103EC00010BDC04690BE0000F8B50400FFF7BEFF6D
:103ED000002805D022002A3213780133DBB2137098
:103EE0002100230029310A782B33824252D01A78DC
:103EF0000B254F2A00D912351A785219D2B21A70EE
:103F000008701A789F2A44D92100E28D2A3152087C
:103F1000E2850A78042A04D98022E08D1201024346
:103F2000E2851A7825006032D2B21A7000232C354F
:103F30000B702A78D3B2002A48D026003036337866
:103F40000133DBB233700B2B23D93F23E18D2000EB
:103F50001940FFF7A5FFE18D07008909C9B22000CC
:103F6000FFF79EFF2100220075313F010B78384397
:103F7000C0B27432002B12D110701378062B02D904
:103F80001378432B0BD900232B70638A01339BB228
:103F90006382F8BD1A781432D2B21A70B1E70B7886
:103FA0005F1CE3183133FFB20F7018700978137873
:103FB000994208D300232B702300012208332000EC
:103FC000DA77FFF75EFF00233370E2E7E18D054A01
:103FD0009142DED101222A702200753430321370F2
:103FE0002370D6E7380B0000F7B5050078352F7839
:103FF00004007B1C2B70002F0ED1030002007633CF
:104000000193FF321B78127A9A420BD8FFF739FFDF
:10401000E38A01339BB2E3822B78072B01D900237B
:104020002B70F7BD0600C3187736793319783378CB
:104030005A1C1941012332701940FFF713FF3378DE
:10404000052BE9D9019B37701B78019A0133137056
:10405000E2E7037910B5042B02D1FFF735FF10BD5D
:104060000379032BFBD1FFF7BFFFF8E71023054AC5
:1040700010B5917B0B439373034B1868FFF7E9FF6F
:1040800010BDC046002C00426C140020F7B50C2770
:10409000404E0193335C04005BB20D004743009235
:1040A000002B2EDA00230B82EB7BDB09FCD1335D86
:1040B000394A01335BB23355335D12785BB2DB1999
:1040C000934203DA335D5BB20B2B34DD2F8ABFB230
:1040D000EB7BDB09FCD1314B3149186802F072FAF5
:1040E000304B009A5843043700090C3287424CD2B7
:1040F00080B252005053EB7BDB09FCD1FF333355C8
:1041000040E0335C244A5BB21278DB199342CEDA8A
:10411000335C254A5BB2DB19DB009B5C5B06C6D5D2
:10412000335C00215BB2DB19DB00985C8006800EFB
:1041300000F05CFBBBE7335D1B4A5BB2DB19DB00C5
:104140009B5C5B0609D5335D01215BB2DB19DB00AB
:10415000985C8006800E00F049FB2A8A92B2EB7BC5
:10416000DB09FCD1335D5BB2DF190F4BFF00DF19B8
:104170007B68D318009A9BB20C3252005353EB7BEE
:10418000DB09FCD1019BAB73F7BDBFB252005753A3
:10419000B1E7C04671140020701400200400002014
:1041A00040420F00204E000074140020002210B581
:1041B000102310000149FFF769FF10BD00300042D5
:1041C00010B5024802F041F810BDC046D4140020DA
:1041D00010B5024802F039F810BDC0461017002093
:1041E000F7B501240326154F1549380000F0FAFBF6
:1041F0001449154800F0F6FB1449154800F0F2FB8D
:104200001449154800F0EEFB1449154800F0EAFB8C
:10421000144D1549280000F0E5FB390023000096F5
:1042200000220194114801F0A7FF290000961E23E7
:104230001F2201940E4801F09FFFF7BD4C1900208A
:1042400000080042000C00425019002000100042FB
:104250005419002000140042581900200018004290
:104260005C19002060190020001C0042D4140020BA
:104270001017002070B50024094D0A4B1B68A3429B
:1042800000D870BD084E2A6833691A4205D0074B22
:10429000A200D35898472B68336101340435ECE70A
:1042A000A8190020EC190020001800406419002013
:1042B000FEE70000034B10B51B68002B00D09847A9
:1042C00010BDC046F01900200F4A1048110010B56B
:1042D0000F4B824202D0934209D11300824209D18E
:1042E00000F07CF802F09AF8FEE710CB10C1814292
:1042F000FBD3F3E7074A8B42F2D00021064B9A42E8
:10430000EED202C2FBE7C04600000020900200206F
:1043100028C7000090020020F81F002010B5FDF70C
:104320006FFF002801D100F04DF810BD014B18605F
:104330007047C046F0190020F7B5134801228446A3
:104340001249134C8E68636805689B0E13400192F6
:1043500088686268019F920E3A4067463F689342C0
:104360000ED1BD420CD186420AD35B19FA254868AA
:10437000AD00861B07486B437043000DC018FEBD9F
:104380003D0013000600E3E7F419002010E000E010
:1043900000ED00E05555000070B5041E11D0FFF788
:1043A000CBFFFA260500B60000F016F8FFF7C4FFB1
:1043B000401BB042F8D3FA23013C9B00ED18002CBF
:1043C000F4D170BD10B5034A13680133136000F0D7
:1043D000CFFA10BDF4190020704700001E2270B5FE
:1043E00046484749436893431C3A134343600823B4
:1043F0008C6923438B61434C434B9C829C8A1443BE
:104400009C82DC681442FCD00124404A1470157868
:10441000254203D055786DB2002DF8DB012494605D
:10442000547864B2002CFBDB394C5460547864B28D
:10443000002CFBDB8224E4015480547864B2002C0D
:10444000FBDB02249C840E34DD682542FCD0314C19
:10445000DC621024DD682542FCD09D8C2E4C2C4360
:104460009C841024DD682542FCD002249D8C80268B
:104470002C439C844024DD683542FCD0DD68254215
:10448000F9D01024DD682542FCD0002494605478D3
:1044900064B2002CFBDB214C5460547864B2002CD5
:1044A000FBDB1C6A1E4D2C4080251C621C6AAC4341
:1044B0001C62032393601B4B536053785BB2002B49
:1044C000FBDB0023FF240B72174A4B728B72CB72FB
:1044D000164B1A60164B174A1B6811689A065B0147
:1044E000C90E2340520F12020B431343124A138585
:1044F000802342681343436070BDC04600400041C2
:10450000000400400C06000000080040000C0040C1
:1045100001050100B905FF7D040A00000007030042
:10452000FFFCFFFF03060100006CDC02040000201A
:10453000246080002060800000400042FA212E4B61
:1045400010B51868890002F03DF8802301385B043B
:1045500098424FD229492A4A4860C020136A00066F
:104560001B021B0A0343136200238B6007330B609B
:104570008021136A09061B021B0A0B431362FC22EB
:10458000204B196A0A431A62FF22196A12020A436F
:104590001A62A022196AD2020A431A621A4B1C003C
:1045A0005A7852B2002AFBDB184A5A80184B1A007C
:1045B000597EC9090129FBD0C821890099800521AC
:1045C000D970537EDB09012BFBD0C02300205B0197
:1045D0001361907000F022F863785BB2002BFBDB74
:1045E0000C4B0D4A6380D379DB09012BFBD04123AF
:1045F000537010BDFEE7C0460400002010E000E04C
:1046000000ED00E000040040000C00401E400000EF
:104610000040004221400000004800421F4900B510
:104620000B004A7ED209012AFBD001380A282FD874
:1046300001F0BEFF1B2E2E2E2E2E062E2E24110034
:104640001A6917490A400F211A615A788A431100E2
:1046500001220A4310E01A6911490A400F211A6128
:104660005A788A4311000322F3E71A690C490A4079
:104670000F211A615A788A435A7000BD1A69084995
:104680000A400F211A615A788A4311000222E0E79A
:10469000F022196912050A43F3E7C04600400042C0
:1046A000FFFFFFF010B5040006285ED007285ED09B
:1046B000052800D80E340121200000F0DBF80E2C74
:1046C0000DD12D4B1900DA79D209012AFBD0022035
:1046D0001A7882431A70CB79DB09012BFBD027496A
:1046E0000B004A7ED209012AFBD018206043244CDB
:1046F0000A692418207C1F242040A24302430A6137
:104700005A7ED209012AFBD0022219780A431A7074
:104710005A7ED209012AFBD00222197B0A431A735E
:1047200001221A765A7ED209012AFBD00222197B75
:104730000A431A731A7ED207FCD5588B80B25A7E70
:10474000D209012AFBD002211A788A431A705A7EB4
:10475000D209012AFBD00B4B1A680B4B1B689A42FB
:1047600002D006D9D31AD84010BD2C24A3E72D249B
:10477000A1E79B1A9840F7E700480042004000423A
:10478000A0BE0000080000200C000020182310B577
:1047900008245843134A13181C57013412D001241B
:1047A0005B6882569C4003290CD808000E49D20150
:1047B0005218D318403301F0FBFE0210060B022101
:1047C0001970546010BD0621197054609461F9E7A6
:1047D0000621197054605461F4E702211970946045
:1047E000F0E7C046A0BE0000004400411823F0B529
:1047F00008245843114A13181C5701341BD00126B2
:1048000035005F688356BD400D4ADB019A189068F9
:1048100005420BD10C00601E8441D2194032107841
:1048200034400336A400B04320431070044A9B1860
:10483000002901D15D61F0BD9D61FCE7A0BE0000D3
:1048400000440041182310B50824434307490020C1
:10485000CA181457013408D05B560549DB015B18B0
:10486000186A5368D8400123184010BDA0BE00004C
:1048700000440041182370B5082643432A4AD5183E
:10488000AE573400013607D0072907DC00291DDAAE
:1048900001314C424C416442200070BD0B00083B8A
:1048A000DBB20024032BF7D8092903D12100FFF73D
:1048B0006DFFF1E70A2904D10839FFF767FF0024EB
:1048C000EAE700240B29E7D10A39F0E76C680125F3
:1048D00020009B56C9B262082840DB012C4211D04F
:1048E00012480E351B189A183032107809012840EA
:1048F0000143C9B2117041221B19403319780A4390
:104900001A70DCE70F26094D5B199A1830321578BA
:104910001B19B54329431170412240331978040013
:104920000A431A70B8E7C046A0BE00000044004128
:10493000F8B505000E0017000024BC4208D02B6813
:104940002800315D1B689847002801D00134F4E746
:104950002000F8BD014B18607047C04610000020D1
:104960000122024B52421A607047C04610000020DC
:10497000164A10B51368591C27D0013B1360002B51
:1049800023D172B68122124B92000433934213D387
:10499000104A01211000147D0C42FCD02021148B00
:1049A000FF319B085B0021431183D3610A4B1380C5
:1049B0000123027D1A42FCD0BFF34F8F074B084AF8
:1049C000DA60BFF34F8FC046FDE710BD1000002036
:1049D000002000000040004102A5FFFF00ED00E0C4
:1049E0000400FA05016070479446F0B505AC2578DF
:1049F0009C1E621E94416246066892073768240630
:104A00003A4322430724326000682140AD0100246C
:104A100042682943022B00D05C030A4322434260D0
:104A2000F0BD30B5C0250368AD031C6812052A40EF
:104A30002243C0240904A40221400A431A600368E7
:104A40005A6814435C6030BD0123026811680B434F
:104A5000136003681A68D207FCD4DA69D207F9D464
:104A600070470223026811680B4313600268D36920
:104A70009B07FCD4704703681A7ED20702D41A7EC3
:104A80009207FCD57047002203685A837047036879
:104A9000187E4007C00F70470368187EC009704732
:104AA000802302685B42117E0B43137670470368D4
:104AB000588B8007C00F704702230268518B0B434D
:104AC000538370470368187EC007C00F70470368A0
:104AD000188DC0B2704703681A7ED207FCD589B220
:104AE000012019857047012203689A7570470122D9
:104AF00003681A7570470123026811680B4313603D
:104B000003681A68D207FCD4DA69D207F9D470476F
:104B10000223026811680B4313600268D3699B0784
:104B2000FCD470470368DA699207FCD402211A6842
:104B30008A431A6070470268936A5B0A5B020B4300
:104B4000936203681A7E5207FCD5986AC0B2704718
:104B500010B50548490001F035FD80B2002801D0AC
:104B6000013880B2C0B210BD006CDC0270B50C0020
:104B70000126110063080268334034401568240799
:104B80005B0723432B4313600468FFF7E1FF2073A7
:104B900070BD0123026811680B43136003681A6833
:104BA000D207FCD4DA69D207F9D47047022302682D
:104BB00011680B4313600368DA699207FCD4302153
:104BC0005A8B8A43110010220A435A830268D36920
:104BD0005B07FCD4704780230268DB0211685168D0
:104BE0000B43536070470000036803491A685A6812
:104BF0000A405A607047C046FFFFFBFF032230B5F2
:104C0000036811401C68074D5A6809042A40E406ED
:104C10001143640F5960052C03D10268D3695B0707
:104C2000FCD430BDFFFFFCFF30B503680400588B97
:104C30008006800F022813D05D8B0020AD06AD0FDB
:104C4000032D2ED0588B800705D55D8B0020AD0637
:104C5000AD0F012D25D15D8BAD06AD0F281E20D0E7
:104C60004800596A1043C90AC0B2C90201435962D7
:104C70002368002A08D11A7ED207FCD5588B01235D
:104C80004007C00F58400CE01A7E9207D00F002A50
:104C9000F4DB1A7ED207F7D5C022596892020A4384
:104CA0005A6030BD0368283319700268137EDB0731
:104CB000D80F002B03D1538BDB07F7D570470123A7
:104CC000508B4007C00F5840F8E70368283319702D
:104CD0000268137E5B07D80F002B04DA0123508B88
:104CE0004007C00F5840704703681868C006400F5F
:104CF000043843425841C0B270470368187E4007E9
:104D0000C00F70470368187EC007C00F7047036864
:104D1000588BC006C00F70470368187E8007C00F0D
:104D200070470368588B0007C00F704703681A6804
:104D3000D206520F052A02D11A7E9207FCD52833DB
:104D40001878C0B2704700000368104A934213D02D
:104D50000F4A934212D00F4A934211D00E4A934207
:104D600010D00E4A93420FD001200D4A4042934288
:104D700001D1063040B270470020FBE70120F9E77F
:104D80000220F7E70320F5E70420F3E700080042DC
:104D9000000C0042001000420014004200180042C3
:104DA000001C0042F8B5FFF7CFFF00282CDB1D4B9D
:104DB000C000181805230479C3560320FF221840A9
:104DC000C0008240C021D2438140002B1DDB1F2543
:104DD00001201D40C026A840134D7600A851C026D2
:104DE0009B089B005B19B6009F593A4011439951AB
:104DF00028603F2323408024E4011C430B4B5C804C
:104E00005A7852B2002AFBDBF8BD0F200340083B62
:104E100007489B089B001B18D86902401143D961C1
:104E2000E7E7C046F0C2000000E100E0000C0040EF
:104E300000ED00E0F8B504000F0016001D00FFF7BC
:104E4000B1FF2000FFF700FE1C21BB000B407107E3
:104E50002268090C0B431360842322689375012F89
:104E60001AD11021012E00D008390C4B6943186863
:104E7000C00001F0A7FB0722216802408B89520382
:104E8000DB04DB0C13438B81226803049089DB0C69
:104E9000400B400318439081F8BDC0460400002039
:104EA000F7B50500019308AB0C0016001F78FFF75B
:104EB00022FE2800FFF776FFC021C02289022404C9
:104EC0000C409203BF073605274316403E430C278C
:104ED00007222B683E431E60019B296813401A007D
:104EE00080239B0213434B602A68D3695B07FCD481
:104EF000F7BD0000F8B504000F00FFF753FF2000D6
:104F0000FFF747FE1422236879001A600C4B2568CE
:104F10001E68300001F056FB0A490400300001F021
:104F200051FB7D23FA215843C90001F04BFBFF23BD
:104F3000241AE868053C1C4098430443EC60F8BD23
:104F40000400002040420F003F20704713B56B461D
:104F50000268D9710733546819000122A04716BDB1
:104F600010B50221006900F029FC10BD10B5032125
:104F7000006900F039FC10BD10B51300084A0400A8
:104F8000D279002A03D101230020636010BD0A00FA
:104F90000069032100F020FD0028F4D0F6E7C046A8
:104FA0001800002010B5054C03002068421C04D1F5
:104FB0001A68180052699047206010BD64000020F4
:104FC000074A0300106810B5411C03D001235B425F
:104FD000136010BD0221186900F0F0FCF9E7C0462B
:104FE0006400002010B503784222023303700249A6
:104FF000024800F09DFD10BD20000020141A002082
:1050000010B50178030042780020A12908D1212A97
:1050100005D1174917481A3A00F08AFD012010BD42
:105020002129FCD1202A13D111491248193A00F044
:105030001FFC96220E4BD200196891420ED1DA79EC
:1050400001231A420AD1FA20FFF784FC0020E6E788
:10505000222A06D19A78064BDA71EAE7FFF780FC3C
:10506000F4E7232ADBD15A88034B1A60D7E7C046FE
:1050700018000020141A00201400002070470000BF
:10508000FA220021054B92009A60054A08321A6004
:10509000044A59601A6119767047C046F819002011
:1050A00020C30000141A0020704770B50F26CB1DD6
:1050B00002003240D5B22C0000093034092A00DD4C
:1050C00007341C705A1E994200D170BD1300EFE7DF
:1050D00010B50400806903F087FFA06A03F084FF25
:1050E000200010BD10B50400FFF7F2FF200001F012
:1050F000BBF9200010BD000070B5032908D1324B68
:105100008000C058002802D00368DB68984770BD53
:1051100082291FD1C3B22D4D5A01AA1891692C4C76
:1051200080010C40C0218905214391612949083340
:105130004018802150612A685B01D01804794942E7
:10514000214301717020995C8143080030210143A3
:105150009954DCE70029DAD1C024C1B21B4E4A01C0
:10516000B21893681A4DA4052B40234393601A4B41
:105170008001C0180B0050603068072608335B01BF
:10518000195CB1430E0001213143195491690D405E
:105190002C43946170240F495161195CA1430C00A8
:1051A00010212143195491680C4CC3180C408021E4
:1051B0004903214391609168890B890391604022E2
:1051C00059790A435A71A2E7181A0020CC1E002010
:1051D000FFFFFF8F401A0020001C0020FF3F00F05F
:1051E000EFF3108303600123436072B670470368D6
:1051F000002B02D162B6BFF36F8F704737B50569D8
:1052000004006846002D14D1FFF7EAFF019B621DE0
:10521000013B02D3D57FEDB2FAE768460193FFF771
:10522000E6FF002D01D100203EBD206AE369C01ACF
:10523000FAE7FFF7D5FF22000025019B3432013B3E
:1052400002D31578EDB2FAE768460193FFF7CFFF76
:10525000002DE8D0206BE36AE9E70000F0B5FF25F8
:1052600001264268836811682B405B01CC186419E1
:10527000A77AD3183E43A672C6689C680B4FB60443
:1052800036093C4034439C6083682B405B01D21854
:105290009468A40BA4039460402283682B400833D5
:1052A0005B01CB1819790A431A71F0BDFF3F00F07A
:1052B000F7B5056904000E0017006846002D43D1BC
:1052C000FFF78EFF019B601D013B5A1C0BD0C27F74
:1052D000591E002A05D168460193FFF788FF280070
:1052E000FEBD0B00F1E768460193FFF780FFE3691D
:1052F000AF420AD0226A9A4207D95A1CE261A269D7
:10530000D3181B7873550135F1E7226A9A42E6D12A
:105310000023E361013368462361FFF761FF220048
:105320000021019B671D013B3532581CD3D0F97712
:1053300010785E1E002805D0200011700193FFF741
:105340008DFFECE73300F0E7FFF74AFF2000019BF9
:105350003430013B5A1C06D00278591ED5B2002ABF
:10536000B9D00B00F6E7684601930025FFF73FFF31
:10537000E36ABD4202D0226B9A421CD8226B9A4249
:10538000ADD100236846E3622361FFF729FF2700C0
:1053900022000021019B3437013B3532581C9AD042
:1053A000397010785E1E00280DD020001170019316
:1053B000FFF754FFEBE75A1CE262A26AD3181B788E
:1053C00073550135D4E73300E8E7F7B582684368E1
:1053D000D2B2110004000831186849014118C87997
:1053E000C00729D501255201CD719B189A686169C2
:1053F0009204920C002923D12262226A002A41D011
:10540000A26A656168465A60FFF7EAFE3422944654
:105410002200019B671D013BA4443532591C2DD04D
:105420006146FD770978581ECEB2002905D0019358
:1054300068461570FFF7DBFEF7BD03001670EDE759
:105440002263226B002A1DD0002227006261A2691C
:1054500068465A60FFF7C4FE019B621D9446013BFB
:1054600034373032591C09D061463D70C97F581E0F
:10547000CEB20029DBD103001670F3E76846019332
:10548000FFF7B5FE2000FFF7E9FED5E713B56A4642
:1054900000230C00D01DD371FFF7A4FD236818185A
:1054A000206001F019F86B46D91D00F0E1FF236878
:1054B00018186B462060D87916BD000003290ED15C
:1054C00080220E4B62311B68FF31585C524202430E
:1054D0005A5468226339FF32FF39995470470129C1
:1054E000FCD18022054B24311B68FF31585C5242AD
:1054F00002435A5428222339FF32EDE7CC1E002004
:1055000070B500252F4B012104001A201D70FFF7F4
:105510003DF901211A20FFF769F92B4B01211920D0
:105520001D70FFF733F901211920FFF75FF92023E0
:10553000264A0F20D1690B43D361012224490B78FD
:1055400013430B70234B19788143197006211D7882
:105550002943197020490D782A430A701A780240AD
:105560001A70602219780A431A701C4B1C4A5A8020
:105570005A78D209FCD11B48FEF7D8FE1A4D2800F4
:1055800000F0BEFF280000F0D1FF7F212B68C12072
:105590001A7880000A401A70042219780A430C21F4
:1055A0001A701A898A4311491A810A581202120A7A
:1055B0000A5080220A6019787E3A0A431A70012341
:1055C000237070BD351A0020341A002000040040FA
:1055D000584400413C44004159440041000C004003
:1055E00006400000B95F0000CC1E002000E100E092
:1055F0000078002810D00121084B1B681A898A43C3
:105600001A810822198B0A431A830422198B0A4330
:105610001A830022024B1A607047C046CC1E00203D
:10562000C41E00200A000E498B699B0B9B038B61F3
:105630000B680221FF3319729879823901439971FD
:10564000197A8907FCD57F20064B0240997A81435D
:10565000114380229972997A52420A439A72704792
:10566000CC1E00200050004110B50B790C00002B1F
:105670000CD10800FFF7C4FC002801D0012010BDA8
:10568000094A93699B0B9B039361F7E700F024FFA2
:10569000210000F011FF0028F0D1034A93699B0B11
:1056A0009B039361EBE7C046CC1E0020F7B50D00CD
:1056B0001100832A19D1EBB2324C5A01A218916918
:1056C0003148AD010840C0218905014391612F494E
:1056D00020686D187021083355615B011A5C8A439C
:1056E000110040220A431A54F7BD022A45D1284A24
:1056F000AB009858002802D003685B6998473820AF
:1057000000F0AEFE234B8027036000231D4E7F0078
:10571000421D036203614361C36146608560C760E7
:10572000D3772F32C36203630400137038005370C1
:1057300003F050FC0190A061380003F04BFCEBB289
:105740005A01A062B21891680F4808330840C0217E
:10575000890501439160316807265B01585CAD0003
:10576000B0430600032030435854019B200053608F
:10577000FFF774FD064B5C51B6E72800FFF7BCFC51
:10578000B2E7C046CC1E0020FFFFFF8F401A00206A
:10579000181A00204CC3000070B505000124064B08
:1057A000A200D258002A05D021002800FFF77EFF72
:1057B0000134F4E770BDC04668000020084B8A0041
:1057C000D05810B5002803D003689B68984710BDD7
:1057D000044BC9B24901591888688004800CF6E767
:1057E000181A0020CC1E002010B50C00FFF7E6FFB1
:1057F00000280CD0064BE4B21968802308346401F9
:105800000C1962795B42134363710223E37110BD8B
:10581000CC1E002070B5CBB2124A13485C0189013E
:105820008918021951609168104D08330D4080218C
:1058300089022943402591609168890B8903916011
:1058400001685A018A1816793543157195796D06E4
:10585000FCD55B01C918CB79DB07FCD50019806842
:10586000C0B270BD001C0020CC1E0020FF3F00F025
:1058700070B5140040220B4B0D001B68FF335979A3
:105880000A435A710021FFF7C5FFA04200D920004A
:1058900000230549A34203D0CA5CEA540133F9E767
:1058A00070BDC046CC1E0020001C002010B50C4866
:1058B000C9B24901421893689B049B0C3F2B0BD93A
:1058C0009468403B9B04A40B9B0CA403234393606C
:1058D00041188868C0B210BD93689B0B9B03F6E724
:1058E000CC1E0020F0B51C002F4B85B01B680600B5
:1058F0000D000192002B54D02C4F3B78D9B2002BD5
:1059000002D11920FEF772FF64233B70284BAA00D6
:10591000D058002808D0036822005B680199984796
:105920000400200005B0F0BD29003000FFF746FF5D
:10593000844204D929003000FFF740FF0400290009
:105940003000FFF7B3FF0121EBB21A4F03935B0165
:105950000293029A3B6801989B18FF335A7A0A43D4
:105960005A72154BA9012200C91803F047FB002CFD
:10597000D7D029003000FFF721FF0028D1D14021E6
:10598000039B3A6808335B01D318187901431971F6
:105990000121D971029BD318FF339A7A0A439A7274
:1059A000BFE701246442BCE7C41E0020341A002073
:1059B000181A0020CC1E0020001C002013B56B46D6
:1059C000DC1D22000123FFF78DFF012801D1207883
:1059D00016BD01204042FBE7F0B51C003A4B85B0F4
:1059E0001B680E000192002B3FD08023DB019C42FC
:1059F0003BD8364D2B78D9B2002B02D11A20FEF7B6
:105A0000F5FE642300272B70314BB201D3180293AB
:105A1000002C2CD02F4B1B680393FF2333401D0019
:105A200000930835039B6D015D19AB79DB0921D02B
:105A3000294B2A49186800F0C5FD294B1721584306
:105A400000F0C0FD274BEA79920713D49A5D002A33
:105A500001D10138F7D201229A55009B5A011D4B02
:105A60009B189A69920B92039A6101277F42380032
:105A700005B0F0BD00221B4B25009A55402C00D9E3
:105A800040252A000199029803F0B8FA009BA90466
:105A90005A01104B890C9B18029A7F195A619A6916
:105AA000641B920B92030A439A61009B039A08338A
:105AB0005B01D3180222DA715979823A0A435A718A
:105AC000019B5B190193A3E7C41E0020351A002037
:105AD000401A0020CC1E00200400002040420F008D
:105AE00070110100371A002070B50C001D000D4B1D
:105AF000A601F618110030002A0003F07FFAE4B284
:105B0000094A640114196661A369084928000B4019
:105B1000A361A169AB04890B9B0C89031943A161A3
:105B200070BDC046401A0020CC1E0020FF3F00F090
:105B3000F7B5104B0F001B7814000190002B0CD10F
:105B40000D4B16001D78002D09D00C4E0C483588E1
:105B500028182D1903F052FA35802000FEBD002EC2
:105B6000FBD033007A1900210198FFF7BDFF2D18F3
:105B7000361AF4E7C01D0020C11E0020C21E0020FE
:105B8000C11D0020F8B500200D00140000AF012A4F
:105B900027D9D31D6A46DB08DB00D31A9D460800CF
:105BA00004F01AF96E46032302220021013040005E
:105BB00030707370A2420DD2287800280AD0531C8E
:105BC000DBB20135B0549C4203D00232F154D2B260
:105BD000F0E7220031000448FFF7AAFF431E984176
:105BE000C0B2BD46F8BDC046141A0020F0B500256D
:105BF000012785B0184B0E0069461F700400009500
:105C0000FFF744FC154B01A90B806A3BFF3BCB71AE
:105C10006E3B0B72009B320009334B800E4B8D7133
:105C20004F7108711D70092E0FD00D4E092237706B
:105C30000C4F200000953D80FFF77AFF6946200059
:105C4000FFF724FC3A88084935702000FFF770FF01
:105C5000012005B0F0BDC046C01D002009020000B3
:105C6000C11E0020C21E0020C11D0020F0B5CF784B
:105C700005000E0093B0022F09D1C9882B48FFF709
:105C8000B5FF441EA041C4B2200013B0F0BD00F027
:105C900023FC310000F000FC002803D0C417241AB4
:105CA000E40FF1E7012F0BD1F2882149112A11D815
:105CB000D2B2002A0ED02800FFF73AFF0124E3E712
:105CC0000400032FE0D1B378002B05D1F2881949E5
:105CD000032AEDD90A78EEE7022B06D1B2791649EC
:105CE0002800FFF74FFF0400CEE7012B02D1B27965
:105CF0001249F5E7032BC7D1114B01A91868FFF72B
:105D0000D4F9104B03A91868FFF7CFF90E4B05A97A
:105D10001868FFF7CAF90D4B07A91868FFF7C5F90E
:105D20006B460533DC77B27901A9D9E7141A002054
:105D30007DC3000070C3000064C3000074C3000092
:105D40000CA0800040A0800044A0800048A08000FB
:105D500037B5050048780C000B2810D800F028FC57
:105D6000061B0F310F484D7551546E71097801AA09
:105D7000002906D1022311802800FFF7B5FE01207B
:105D80003EBD00231380324B1B78012B00D11370D2
:105D900002230021F0E78A780023012A09D16A460C
:105DA00093802C4B1B78012B00D11371022301AA85
:105DB000EFE7274A1370284A93699B0B9B03936173
:105DC000DDE78C78012C07D1224B01AA1C70234BF4
:105DD0001B7813702300DCE700208442D0D11C4BD9
:105DE00001301D4A187093699B0B9B039361C7E7B1
:105DF00028008978FFF716FCC1E72800FFF736FF77
:105E0000BEE70123164AC4E70B780020DB06B7D1B2
:105E10002800FFF7C1FC2A200221A278104BFF3096
:105E20001A600D4A13681C5C21434A241954FF343C
:105E3000195D2938FF3801431955D4E70123094A70
:105E4000A7E78A78074B1A60B5E7002098E7C046B5
:105E5000361A00203E1A0020CC1E00207FC400000D
:105E6000C41E0020C81E00204B4BF7B51C7807004D
:105E7000002C00D083E0494E33689B8B1B070ED566
:105E800021002000FFF738F9326810231100FF319C
:105E9000887A03438B72424B1C60082393833368D8
:105EA0009A8B52071FD504229A833E4A1378002BFF
:105EB0000AD01378013BDBB213701378002B03D1A7
:105EC00001211A20FEF792FC374A1378002B0AD0E2
:105ED0001378013BDBB213701378002B03D101213F
:105EE0001920FEF783FC3368FF331A7AD2061ED5D9
:105EF00010221A72597930320A435A7160232B49A1
:105F000038000A781A423BD1FFF722FF3368FF338B
:105F1000002838D08022997952420A439A711A7A1D
:105F2000520604D540221A72597A0A435A723368CB
:105F300000241D8C01239D43EDB20193E1B2002D9D
:105F40001DD02B002341019A134215D02300326843
:105F500008335B01D318DA79D20702D4DB799B07C7
:105F600007D5134BA200D058002810D003681B6837
:105F70009847019BA3409D430134092CDED1F7BD16
:105F8000FFF772FBC2E720210A4A9171C7E7380088
:105F9000FFF794FAEDE7C046C11E0020CC1E00209A
:105FA000C41E0020351A0020341A0020001C0020D6
:105FB000181A0020FF50004110B50248FFF754FFA7
:105FC00010BDC046141A0020014B024A1A607047E7
:105FD000CC1E0020005000410120704710B503681E
:105FE000014A1B6A984710BD130400000300FC33EC
:105FF000D9699A69914203D0DB69C018007D704766
:1060000001204042FBE710B504000069FEF71CFDCB
:1060100022000023FC329361D36186229200A418EF
:106020006360A36010BDF0231B011940802306208C
:106030009B0099420AD00133FF330130994205D0C9
:10604000802300205B00994200D1053070470F206B
:1060500001400020012903D00239481E8141481C1B
:10606000704700008923F0B5182785B002919B0086
:106070000400C05C3B0008214343324E1500F31876
:106080005956FEF7F7FB304B0821E05C3B004343D9
:10609000F3185956FEF7EEFB2C4BE25C0393022AF1
:1060A00009D11133E05CFF2805D008214743F719D7
:1060B0007956FEF7DFFB8A27BF00E05DFF2819D085
:1060C0000121FEF763FB1822E35D21495A43B356D1
:1060D000B618DB0158188B21890060501D49012238
:1060E0005B188C218900635071688A408D2189007A
:1060F00062501A600122029B11002069FEF79AFE8D
:1061000029002000FFF78FFF290006002000FFF77D
:106110009EFFF0221540303D6A4255410300310098
:10612000206901220095FEF75FFC0B4B2069E25CC1
:10613000039BE15CFEF775FC2069FEF792FC05B05D
:10614000F0BDC046A0BE00002502000027020000EE
:10615000184400411444004126020000802210B57A
:1061600004000021520002F052FF23000022FC3301
:1061700020005A609A6010BDF7B51D0008AB1B786F
:106180000400009309AB1B781600019300234360C1
:10619000FA239B008360104B0F0008330360143018
:1061A000FFF7DCFF20001D30FF30FFF7D7FF89230A
:1061B0009B002761E654094B009AE554084B2000E8
:1061C000E254019A074BE2548A22293BFF3B92009A
:1061D000A3541032A354FEBD90C30000250200005A
:1061E00026020000270200000300FC3358689B6869
:1061F000C01A01D50130FF30704710B504002000EF
:106200001D30FF30FFF7F0FF0028F8D12069FEF7BE
:1062100032FC10BD10B51430FFF7E6FF10BD0300CF
:10622000FC3359689A68914204DB5A689868801A6E
:10623000FF30704798685B68C01A0138F9E710B5FD
:106240001D30FF30FFF7EBFF10BD10B504000069F3
:10625000FEF72DFC002805D02069FEF738FC2069E8
:10626000FEF72AFC2069FEF712FC002820D02069E6
:10627000FEF72DFC2200FC329369D1690133DBB2B9
:106280008B4203D091696118087593618A239B0042
:10629000E35CFF2B0CD020001430FFF7C0FF09286F
:1062A00006DC8B238D229B009200E358A2581A60D3
:1062B0002069FEF707FC00281AD020001D30FF30AF
:1062C000FFF792FF002822D086239B00E3189968ED
:1062D0005A68914218D08E219A684900A218515CE0
:1062E0009A680132D2B29A602069C9B2FEF7F3FB14
:1062F0002069FEF7D1FB002805D02069FEF7D0FB0E
:106300002069FEF7C0FB10BD01214942ECE720697E
:10631000FEF7EDFBECE7000070B5040000690D002E
:10632000FEF7D0FB00283FD1FF2686239B00E31811
:106330005A689968013232408A4224D1EFF31083BF
:10634000DB070ED41E4B5B68DB05DA0D002BECD0AF
:10635000103A53B212060DD49B081A4AC0339B0060
:106360009B582069FEF7AEFB0028DED02000FFF727
:106370006CFFDAE70F221340083B134A9B089B008F
:106380009B181B68EDE75A68013216409A689642DE
:1063900005D08E215A684900A21855545E602069C4
:1063A000FEF7A1FB012070BD20001D30FF30FFF77C
:1063B0001BFF0028B8D129002069FEF78CFBF1E70C
:1063C00000ED00E000E100E01CED00E00300FC3324
:1063D000D9699A6970B5040091421AD0DA698218B5
:1063E000157DDA690132D2B2DA618A239B00E35C5F
:1063F000FF2B0CD020001430FFF711FF0A2806DD18
:106400008C238D229B009200E358A2581A6028002A
:1064100070BD01256D42E8E7FEE7704710B5FEF755
:106420008DF802F0A9FDFFF7F8FF0120FDF7B4FF9A
:10643000094C2000FFF764F82000FFF7D9F8FBF7BC
:1064400061FEFCF75FFCFDF7C7FF044B002BF8D0A3
:1064500000E000BFF5E7C046141A0020000000006D
:1064600010B502F0B7FD10BD10B502F0BDFD10BDB6
:1064700070B50E0000254468002C0BD02368310055
:1064800020005B689847002802DBE4682D18F3E7DA
:1064900001256D42280070BD70B50D004468002CC8
:1064A00008D02368290020009B689847002802D163
:1064B000E468F4E7200070BD70B50D004468002C5E
:1064C00008D02368290020001B689847002802D1C3
:1064D000E468F4E7200070BD064A0123116810B596
:1064E0000C0005481C40194203D104494460018056
:1064F000136010BDD01F0020D41F00200204000034
:1065000070B50400012320CC00212A782000134319
:1065100080222B70520002F07AFDAB78DB07FCD4AE
:10652000AB789B07F9D46C6270BD00001F22144B3E
:1065300070B51B68590B9C0C9B0111405B0F2240EE
:106540001F2900D11A391F2A00D1023A072B00D186
:10655000043B1F2500688E01048D0A492A40214012
:1065600031430185018D14000A00AA4322430285AC
:10657000028D1903044B13400B43038570BDC046C5
:10658000246080003FF8FFFFFF8FFFFF030010B57E
:106590000800190002F0D2FC10BD000002B47146E0
:1065A00049084900095649008E4402BC7047C0465C
:1065B00002B4714649084900095C49008E4402BC96
:1065C0007047C046002243088B4274D303098B42B4
:1065D0005FD3030A8B4244D3030B8B4228D3030CB3
:1065E0008B420DD3FF22090212BA030C8B4202D355
:1065F0001212090265D0030B8B4219D300E0090A7D
:10660000C30B8B4201D3CB03C01A5241830B8B4285
:1066100001D38B03C01A5241430B8B4201D34B036E
:10662000C01A5241030B8B4201D30B03C01A5241D3
:10663000C30A8B4201D3CB02C01A5241830A8B4258
:1066400001D38B02C01A5241430A8B4201D34B0241
:10665000C01A5241030A8B4201D30B02C01A5241A5
:10666000CDD2C3098B4201D3CB01C01A5241830959
:106670008B4201D38B01C01A524143098B4201D393
:106680004B01C01A524103098B4201D30B01C01ABE
:106690005241C3088B4201D3CB00C01A5241830838
:1066A0008B4201D38B00C01A524143088B4201D365
:1066B0004B00C01A5241411A00D2014652411046C5
:1066C0007047FFE701B5002000F0F0F802BDC046BA
:1066D0000029F7D076E7704703460B437FD40022AA
:1066E00043088B4274D303098B425FD3030A8B4266
:1066F00044D3030B8B4228D3030C8B420DD3FF22D0
:10670000090212BA030C8B4202D31212090265D09D
:10671000030B8B4219D300E0090AC30B8B4201D350
:10672000CB03C01A5241830B8B4201D38B03C01A97
:106730005241430B8B4201D34B03C01A5241030B0E
:106740008B4201D30B03C01A5241C30A8B4201D3BF
:10675000CB02C01A5241830A8B4201D38B02C01A6A
:106760005241430A8B4201D34B02C01A5241030AE1
:106770008B4201D30B02C01A5241CDD2C3098B42C6
:1067800001D3CB01C01A524183098B4201D38B0143
:10679000C01A524143098B4201D34B01C01A5241E6
:1067A00003098B4201D30B01C01A5241C3088B422B
:1067B00001D3CB00C01A524183088B4201D38B0016
:1067C000C01A524143088B4201D34B00C01A5241B8
:1067D000411A00D201465241104670475DE0CA0F8F
:1067E00000D04942031000D34042534000229C464F
:1067F00003098B422DD3030A8B4212D3FC22890159
:1068000012BA030A8B420CD3890192118B4208D32E
:10681000890192118B4204D389013AD0921100E090
:106820008909C3098B4201D3CB01C01A52418309A4
:106830008B4201D38B01C01A524143098B4201D3D1
:106840004B01C01A524103098B4201D30B01C01AFC
:106850005241C3088B4201D3CB00C01A5241830876
:106860008B4201D38B00C01A5241D9D243088B42CC
:1068700001D34B00C01A5241411A00D2014663466F
:1068800052415B10104601D34042002B00D54942D3
:10689000704763465B1000D3404201B5002000F012
:1068A00005F802BD0029F8D016E770477047C046CA
:1068B0008446101C62468C46191C634600E0C046A4
:1068C0001FB501F053FB002801D40021C8421FBDB1
:1068D00010B501F09DFA4042013010BD10B501F035
:1068E00045FB002801DB002010BD012010BDC04683
:1068F00010B501F03BFB002801DD002010BD012098
:1069000010BDC04610B501F0BFFA002801DC002020
:1069100010BD012010BDC04610B501F0B5FA002829
:1069200001DA002010BD012010BDC0468446081CBD
:106930006146FFE71FB500F0ABF9002801D4002144
:10694000C8421FBD10B500F02FF94042013010BD04
:1069500010B500F09DF9002801DB002010BD0120DA
:1069600010BDC04610B500F093F9002801DD0020ED
:1069700010BD012010BDC04610B500F03DF9002843
:1069800001DC002010BD012010BDC04610B500F094
:1069900033F9002801DA002010BD012010BDC046E7
:1069A000002B11D1002A0FD1002900D1002802D0DC
:1069B0000021C943081C07B4024802A140180290F4
:1069C00003BDC046E9FEFFFF03B4684601B5029867
:1069D00000F01EF8019B9E4602B00CBC7047C046FA
:1069E0009E2110B5C905041CFFF7D0FF002803D174
:1069F000201C00F05FFB10BD9E21201CC90500F08B
:106A000091F900F057FB80231B069C466044F2E797
:106A1000F0B557464E464546DE46E0B504000D004B
:106A20009246994683B08B4230D82DD04946504685
:106A300002F05AFA29000600200002F055FA331A33
:106A40009846203B9B4633D45A4653469340424691
:106A50001F00534693401E00AF423AD8AF4200D1C8
:106A600078E05B46A41BBD41002B00DA75E00022F4
:106A700000230092019301235A469340019301237E
:106A800042469340009328E08242CFD9002200235F
:106A9000009201930C9B002B01D01C605D6000985C
:106AA000019903B03CBC90469946A246AB46F0BD66
:106AB000424620239B1A5246DA40414613004A467A
:106AC0008A40170042461F43534693401E00AF4280
:106AD000C4D900220023009201934346002BD9D051
:106AE000FB0772081A4346467B080EE0AB4201D111
:106AF000A2420CD8A41A9D41012024196D41002105
:106B0000013E24184D41002E06D0AB42EED9013E85
:106B100024196D41002EF8D1009801995B460019A7
:106B20006941002B24DB2B005A464446D3402A00FF
:106B3000E2401C005B461500002B2ADB26009E402D
:106B4000330026004746BE403200801A994100902B
:106B500001919FE7A342BCD883E74246202300214E
:106B60009B1A0022009101920122DA40019286E7ED
:106B7000424620239B1A2A0046469A402300F340AF
:106B8000444613432A00E2401C005B461500002BDC
:106B9000D4DA42462F002023260097409B1ADE407D
:106BA0003B003343CDE7C04670B542004E024C0077
:106BB00045026D0A120EC30F760A240EC90FFF2A72
:106BC0000FD0FF2C11D00120A24200D070BDB542E1
:106BD000FCD18B420DD0002AF8D12800451EA841D7
:106BE000F4E70120002DF1D1EBE70120002EEDD1DB
:106BF000E9E70020EAE7C046F0B5420046024D0250
:106C00004C00C30F760A120E6D0A240EC80FFF2A1D
:106C10001FD0FF2C10D0002A1FD171427141002CCF
:106C200001D1002D1ED000290ED183421ED0022199
:106C3000581E08400138F0BD002D26D1002AF4D19D
:106C4000714271410029F0D00028F4D10120404266
:106C5000F1E7002E19D1FF2CEED0002CE5D1002D4C
:106C6000E3D1E4E70020002EE5D0E0E7A24205DC16
:106C7000EADBAE4202D8E7D30020DCE741424141E3
:106C80004842022108400138D5E702204042D2E7BD
:106C9000F0B5420046024D024C00C30F760A120EB8
:106CA0006D0A240EC80FFF2A0DD0FF2C0FD0002A2A
:106CB00023D171427141002C0FD1002D0DD1002044
:106CC000002E14D00DE0002E10D1FF2C15D1002D78
:106CD0000CD1002A03D171427141002908D18342AD
:106CE00010D00221581E0840013800E00220F0BDFB
:106CF0000028FCD101204042F9E7002CEFD1002D03
:106D0000EDD1EEE7A24205DCF2DBAE4202D8EFD3D2
:106D10000020ECE74142414148420221084001384D
:106D2000E5E7C046F0B54646D6464F4643025B0A05
:106D3000DA0094464A02C0B54400560A051CB04623
:106D4000240E4E0092091F0020009246ED0F360ED1
:106D5000C90FFF2E00D17FE0012251408D4251D05A
:106D6000A21B9146002A00DC7EE0002E00D199E0B3
:106D7000FF2C00D18CE080235246DB041A4392465C
:106D80004A4601231B2A08DC53462021D340891A96
:106D900052468A40511E8A4113436246D31A5A0111
:106DA00000D4F3E09B019E09300002F07FF8053823
:106DB0008640844200DDF7E03200041B20200134CD
:106DC000E240041BA64033005E1EB341002413437F
:106DD0005A0704D00F221A40042A00D004335A0163
:106DE00000D4D6E0621CFE2C00D1DAE09B015F0AE1
:106DF000D0B2C0053843ED0728431CBC90469946E5
:106E0000A246F0BDA21B9146002A63DD002E00D1F0
:106E100099E0FF2C3CD080235246DB041A43924673
:106E20004A4601231B2A08DC53462021D340891AF5
:106E300052468A40511E8A41134363445A0100D48A
:106E4000A4E00134FF2C00D1ABE0012297491A40A5
:106E50005B080B401343BBE7002A32D08D4235D08C
:106E6000FF2252429146A1444A46002A51D0301B8B
:106E7000002C00D09CE06346002B00D1DFE00138FD
:106E8000002800D1F7E0FF2E00D099E00D00434626
:106E9000002B00D185E08027FF031F437F02FF20E6
:106EA0007F0AA6E75246002A74D001225242904639
:106EB000C1444A46002A00D1C8E0FF2C00D05FE759
:106EC000E6E701225140A94200D049E7FF225242A1
:106ED0009146A1444A46002A43D0311B002C00D1E0
:106EE0008CE0FF2E00D192E080236246DB041A433F
:106EF000944601231B2909DC202063466246CB40CF
:106F0000411A8A401100481E81410B43340053440A
:106F100094E7FE22661C324264D1002C00D082E04D
:106F20006346002B00D1ABE05346002B00D160E755
:106F3000634652469B1A5A0100D4AAE06346524661
:106F40000D00D31A44E75246002A23D001225242B0
:106F50009046C1444A46002A75D0FF2C00D05FE716
:106F600096E7FE260134264253D1002872D16346AB
:106F7000002B00D193E05346002B00D139E7634446
:106F800000245A0102D54A4A013413405A0700D05E
:106F900020E7DB08FF2C00D17AE75B025F0AE0B252
:106FA00027E7FF20002724E7414B241A33400FE74F
:106FB000FF2E00D16AE780236246DB041A43944621
:106FC00001231B2809DC202463466246C340201AA3
:106FD00082401000441EA041034352460D0034007D
:106FE000D31ADCE6634652469E1A730117D4002E6C
:106FF00000D0D9E6002500200027FAE66346002BE2
:1070000044D0013900294CD0FF2E00D071E743460F
:107010003EE7FF2CC5D0524662445308B6E76346AC
:107020000D00D61AC0E66246002A16D15346002B40
:1070300000D02BE780270025FF20FF03D9E60D00B5
:1070400043463400A6E753466344F7E66346524698
:107050009B1AA4E66246002AD9D05246002A00D1E3
:1070600016E78022D203134200D111E740461042B6
:1070700000D00DE70AE752460D003400D31A8EE621
:107080005346002B08D00D004746B2E64346340075
:1070900080E7002B00D079E700250027A9E64746C6
:1070A000A7E6534634006344C8E6C046FFFFFF7DB1
:1070B000FFFFFFFB41024200C30F490A0020120EEE
:1070C0007E2A03D99D2A02D9094A98187047802040
:1070D00000040143952A07DC9620821AD1404842D9
:1070E000002BF3D10800F1E7963A9140F7E7C0464C
:1070F000FFFFFF7F70B5051E0ED001F0D7FE9E2367
:1071000004001B1A962B0CDC082801DD083CA54066
:107110006D026D0AD8B201E000200025C0052843A9
:1071200070BD992B09DD020029001B3291404A1ED7
:1071300091410522121AD5400D43052C01DD621F35
:1071400095402900084E31406A0709D00F20284099
:10715000042805D004314A0102D59F2331401B1B6E
:1071600089014D0AD8B2D9E7FFFFFFFBF0B54F46C2
:10717000D64646460D0001001800C0B517002B0387
:107180005A0A4B0F1343CA00914602036E00410096
:10719000520AEC0F7D0F1543760D490DC00F824644
:1071A000AC46FF00721A844200D198E0002A00DC4D
:1071B00081E0002900D1B6E0C9498E4200D172E1D8
:1071C00080212800090408438446382A00DD5EE156
:1071D0001F2A00DDEEE1202039006546801A874035
:1071E000D14085400D4339004F1EB9416746D74015
:1071F0002943DB1B4A46551AA945894149425B1A76
:10720000984643461B0200D4CCE043465B025B0A2F
:1072100098464346002B00D12CE1404601F046FE43
:1072200001000839202228004346521A8B40D040E2
:107230008D4003438E4200DD17E18E1B721C1F2A16
:1072400000DDA7E1202118002E00891A8D4088401A
:10725000D640D340691E8D413043984600260543F1
:107260006B0709D00F232B40042B05D02B1DAB42FD
:10727000AD416D42A8441D0043461B0200D494E07A
:10728000974B721C9A4200D19DE04146954BED0808
:1072900019400B00520549075B0229431B0B520D95
:1072A00012051343E4072343080019001CBC904651
:1072B0009946A246F0BD002A43D08A1B002E00D07A
:1072C0002AE14C461C4300D1D1E1541E012A00D1D1
:1072D0001FE2834DAA4200D172E2220023E1002A7C
:1072E00000DC98E0002942D07D498E4200D1DAE0EE
:1072F00080212800090408438446382A00DD29E15A
:107300001F2A00DC87E1110065462039CD40202A84
:1073100004D040206146821A91400F4339004F1E2D
:10732000B9410D431BE12900394300D1B5E0511E9D
:10733000012A00D1ABE16A48824200D1B2E10A00E1
:1073400043E76949751C0D4200D0CFE0002E00D004
:1073500093E14946194300D1D1E16146394300D058
:10736000E3E149465807C9080143DB0826E0290044
:10737000394300D191E0511E012A05D0584882427C
:1073800000D18FE10A00B8E73D004D444D458941E9
:107390006344984649428844434602261B0200D56E
:1073A000EBE0013E6B0700D05CE74346E9085A0773
:1073B00011433200DB084A48824221D01B035205A8
:1073C0001B0B520D6CE70023002169E72A003A43AA
:1073D00069D04A465807D108DA0880231B030843BE
:1073E0001A4207D02900ED081D4203D12A00FF08E8
:1073F00048073843430FC1005B07C908194313000E
:107400000A001A4300D113E28022120313431B0324
:10741000334A1B0B44E7002A4BD08A1B002E00D1B5
:10742000E7E02F48814200D195E18020000403432A
:10743000382A00DD43E11F2A00DDDBE120201D00AA
:107440004E46801A8540D64035434E468640300031
:10745000D340461EB0419C440543ED19BD429B41BB
:107460005B42634498460E007FE01E4A761A134042
:107470009846F5E6280001F019FD010018311F2992
:1074800000DCCFE62B00083883400025D2E66246B8
:107490003A4311004F1EB941ACE649465807C908A6
:1074A0000143DB0887E749465A07C9081143DB084F
:1074B000A6E70D49701C084200D0BBE0002E00D0AA
:1074C00014E14946194300D175E12900394300D040
:1074D0007EE149465807C9080143DB086EE7C0460C
:1074E000FF070000FFFF7FFFFE0700004946CD1B9E
:1074F0006146581AA94589414942884601004046DB
:10750000091A8846090200D5A6E04146294300D061
:107510007FE60023002451E7C74CA14200D1C7E019
:10752000802424042343382A54DC1F2A00DDCCE0C5
:1075300020244846A41A1D004E46A040D640A5402F
:107540000400D34062463543661EB441D31A9C46BC
:10755000254344E062463A4315006F1EBD414D4449
:107560004D45894149428846984443461B0200D410
:1075700018E7B14B01369E4249D04246AF4B01213C
:107580001A4013006A080D401543D9075B08984656
:107590000D4365E618001F3EF040202A03D040212D
:1075A0008A1A93401D43691E8D4100230026984688
:1075B0000543F7E6110065462039CD40202A04D066
:1075C00040206146821A91400F4339004F1EB94155
:1075D00029430FE64A4613431D006B1E9D417D1B48
:1075E000AF429B4162465B42D31A984654460E0016
:1075F00007E64846184300D1B3E0501E012A00D1E7
:107600000DE18D4DAA4200D1A5E0020010E7320045
:107610000023002144E620213800891A65468F4066
:107620008D40D040791E8F4105433D436746D7408A
:10763000DB1994E7804A904200D1ECE039004944DC
:1076400049459241634452429B18DD0749085B0853
:10765000984606000D43A5E64A46BD1AAF42894149
:1076600062464942D31A5B1A98465446D1E56C07E4
:10767000F9082143EB0804009DE64A461A4375D1F8
:107680006146394314D1802300241B03BCE64A46DB
:10769000D51BA9458941624649429B1A5B1A984607
:1076A0000126AEE54A46D1085A071143DB08A7E692
:1076B0006346F9085A0754461143DB08A0E64A46D8
:1076C00013431D006B1E9D41C7E614001E00203CA5
:1076D000E640202A05D04024A21A93404A461A4385
:1076E00091464D466B1E9D41354378E74A461A4305
:1076F00000D06BE66B07F9081943EB0880E661469A
:10770000394354D06346F9085C072143DB08040081
:1077100054E64A46BD1AAF42894162464942D31AED
:107720005B1A9846040001266BE54A46D51BA9451D
:107730008941624649429A1A521A9046120232D53B
:107740004A46BD1AAF42894162464942D31A5B1A82
:107750009846040084E56346F9085A071143DB089C
:107760004EE6F90868070143EB0824E662463A430F
:1077700000D198E64A46D1085A071143DA08802317
:107780001B031A4208D06046C5081D4204D1544666
:107790002A00F908430719434B0FC9005B07C908C2
:1077A000194313002CE64146294300D0FAE5002393
:1077B0000A00002402E66B07F9081943EB08FDE50F
:1077C0006346F9085B07194363460400DB0817E6C4
:1077D0003D004D4463444D458941984649428844A3
:1077E00043461B0200D4DDE54246144B01261A40F5
:1077F0009046D7E510001E002038C640202A05D04C
:107800004020821A93404A461A4391464D466B1EC9
:107810009D41354321E602000023002140E54A4610
:10782000D519BD4289416344984649428844B3E52D
:107830000021014A0B0033E5FF070000FFFF7FFF37
:10784000F0B557464E464546DE46E0B58146050052
:107850000C03480092461F0085B0240B400DCE0F4C
:10786000002859D0874B984200D198E06B0FE40074
:107870001C4380231B0423439846834BED009B4607
:1078800000239946834400933C037B005046240B1D
:107890005B0DFF0F002B67D07A4A934218D07A49CC
:1078A000420F8C46E400594614438022634412047C
:1078B000CB1A14439B46C200002033007B409A46FB
:1078C0004B460F2B00D9EFE070499B00CB589F46E9
:1078D0006F4B52469C462243E344002A00D095E079
:1078E000494602231943894600240220E5E7002384
:1078F0000024002552461B052343D20713432800CA
:10790000190005B03CBC90469946A246AB46F0BD76
:10791000002400255B4BEDE74B462343984600D1FE
:1079200089E0002C00D1E0E1200001F0BFFA010065
:1079300002000B391D235B1A49461000D940083854
:1079400084400B004D4623439846854051483C03F4
:10795000831A9B460023994600937B005046240BD4
:107960005B0DFF0F002B97D15246224355D0002CC0
:1079700000D1CAE1200001F099FA02000B3A1D2360
:1079800001009B1A52460839DA408C401443524693
:107990008A40414B58449B46834400208DE74B4628
:1079A0002343984640D108239946063B0025834649
:1079B000009369E7B246009B022BA9D0032B00D1AC
:1079C00011E2012B93D0354A5A44002A00DC3CE1F5
:1079D0006B0700D0A7E1ED084346DB0106D5424620
:1079E0002F4B1A4090468022D2005A442D4B9A4287
:1079F0008EDC4346520558075C020543240B530DA9
:107A000078E7BA46A04615000090D4E74A4603231B
:107A10001A439146032052464FE749460123194332
:107A200089460024012048E70C239946093BA046DB
:107A30008346009328E70423994600239B4601339D
:107A40000025009320E7002380249A4600250D4B53
:107A500024034FE7802341461B03194208D01C42F0
:107A600006D11C432403BA461500064B240B41E7FC
:107A70008024434624031C432403B246014B240BB9
:107A800038E7C046FF07000001FCFFFFC4C3000049
:107A900001F8FFFF0DFCFFFFF3030000FF030000F0
:107AA000FFFFFFFEFE070000444500D216E100D1B3
:107AB00011E101235B429C462E0040460025E34431
:107AC0002302140E1C431B0C994623041F0C1202A4
:107AD000494600920197FEF7FBFD02007A430B0432
